{"abi":[{"type":"constructor","inputs":[{"name":"oracle","type":"address","internalType":"address"}],"stateMutability":"nonpayable"},{"type":"receive","stateMutability":"payable"},{"type":"function","name":"F","inputs":[],"outputs":[{"name":"","type":"address","internalType":"contract IBlobBaseFee"}],"stateMutability":"view"},{"type":"function","name":"GRACE_NONREVEAL","inputs":[],"outputs":[{"name":"","type":"uint256","internalType":"uint256"}],"stateMutability":"view"},{"type":"function","name":"MAX_BET_PER_ADDRESS","inputs":[],"outputs":[{"name":"","type":"uint256","internalType":"uint256"}],"stateMutability":"view"},{"type":"function","name":"MAX_INDIVIDUAL_POSITION_RATIO","inputs":[],"outputs":[{"name":"","type":"uint256","internalType":"uint256"}],"stateMutability":"view"},{"type":"function","name":"MAX_TOTAL_POSITION_RATIO","inputs":[],"outputs":[{"name":"","type":"uint256","internalType":"uint256"}],"stateMutability":"view"},{"type":"function","name":"MIN_BET","inputs":[],"outputs":[{"name":"","type":"uint256","internalType":"uint256"}],"stateMutability":"view"},{"type":"function","name":"RAKE_BP","inputs":[],"outputs":[{"name":"","type":"uint16","internalType":"uint16"}],"stateMutability":"view"},{"type":"function","name":"REVEAL_TIMEOUT","inputs":[],"outputs":[{"name":"","type":"uint256","internalType":"uint256"}],"stateMutability":"view"},{"type":"function","name":"REVEAL_WINDOW","inputs":[],"outputs":[{"name":"","type":"uint256","internalType":"uint256"}],"stateMutability":"view"},{"type":"function","name":"ROUND_DURATION","inputs":[],"outputs":[{"name":"","type":"uint256","internalType":"uint256"}],"stateMutability":"view"},{"type":"function","name":"SETTLE_BOUNTY_BP","inputs":[],"outputs":[{"name":"","type":"uint16","internalType":"uint16"}],"stateMutability":"view"},{"type":"function","name":"THRESHOLD_REVEAL_TIMEOUT","inputs":[],"outputs":[{"name":"","type":"uint256","internalType":"uint256"}],"stateMutability":"view"},{"type":"function","name":"claim","inputs":[{"name":"roundId","type":"uint256","internalType":"uint256"},{"name":"side","type":"uint8","internalType":"enum CommitRevealBSP.Side"},{"name":"salt","type":"bytes32","internalType":"bytes32"}],"outputs":[],"stateMutability":"nonpayable"},{"type":"function","name":"commit","inputs":[{"name":"h","type":"bytes32","internalType":"bytes32"}],"outputs":[],"stateMutability":"payable"},{"type":"function","name":"commitRound","inputs":[],"outputs":[{"name":"","type":"uint256","internalType":"uint256"}],"stateMutability":"view"},{"type":"function","name":"commitThreshold","inputs":[{"name":"h","type":"bytes32","internalType":"bytes32"}],"outputs":[],"stateMutability":"nonpayable"},{"type":"function","name":"commitTs","inputs":[],"outputs":[{"name":"","type":"uint256","internalType":"uint256"}],"stateMutability":"view"},{"type":"function","name":"cur","inputs":[],"outputs":[{"name":"","type":"uint256","internalType":"uint256"}],"stateMutability":"view"},{"type":"function","name":"lastRoundParticipated","inputs":[{"name":"","type":"address","internalType":"address"}],"outputs":[{"name":"","type":"uint256","internalType":"uint256"}],"stateMutability":"view"},{"type":"function","name":"nextThreshold","inputs":[],"outputs":[{"name":"","type":"uint256","internalType":"uint256"}],"stateMutability":"view"},{"type":"function","name":"owner","inputs":[],"outputs":[{"name":"","type":"address","internalType":"address"}],"stateMutability":"view"},{"type":"function","name":"paused","inputs":[],"outputs":[{"name":"","type":"bool","internalType":"bool"}],"stateMutability":"view"},{"type":"function","name":"reveal","inputs":[{"name":"side","type":"uint8","internalType":"enum CommitRevealBSP.Side"},{"name":"salt","type":"bytes32","internalType":"bytes32"}],"outputs":[],"stateMutability":"nonpayable"},{"type":"function","name":"revealThreshold","inputs":[{"name":"thr","type":"uint256","internalType":"uint256"},{"name":"salt","type":"uint256","internalType":"uint256"}],"outputs":[],"stateMutability":"nonpayable"},{"type":"function","name":"roundBets","inputs":[{"name":"","type":"address","internalType":"address"}],"outputs":[{"name":"","type":"uint256","internalType":"uint256"}],"stateMutability":"view"},{"type":"function","name":"rounds","inputs":[{"name":"","type":"uint256","internalType":"uint256"}],"outputs":[{"name":"id","type":"uint256","internalType":"uint256"},{"name":"closeTs","type":"uint256","internalType":"uint256"},{"name":"revealTs","type":"uint256","internalType":"uint256"},{"name":"settleTs","type":"uint256","internalType":"uint256"},{"name":"hiTotal","type":"uint256","internalType":"uint256"},{"name":"loTotal","type":"uint256","internalType":"uint256"},{"name":"totalCommits","type":"uint256","internalType":"uint256"},{"name":"winner","type":"uint8","internalType":"enum CommitRevealBSP.Side"},{"name":"threshold","type":"uint256","internalType":"uint256"},{"name":"thresholdCommit","type":"bytes32","internalType":"bytes32"},{"name":"feeResult","type":"uint256","internalType":"uint256"},{"name":"settlePriceGwei","type":"uint256","internalType":"uint256"},{"name":"settled","type":"bool","internalType":"bool"},{"name":"bounty","type":"uint256","internalType":"uint256"}],"stateMutability":"view"},{"type":"function","name":"setNextThreshold","inputs":[{"name":"thr","type":"uint256","internalType":"uint256"}],"outputs":[],"stateMutability":"nonpayable"},{"type":"function","name":"settle","inputs":[],"outputs":[],"stateMutability":"nonpayable"},{"type":"function","name":"thresholdCommit","inputs":[],"outputs":[{"name":"","type":"bytes32","internalType":"bytes32"}],"stateMutability":"view"},{"type":"function","name":"tickets","inputs":[{"name":"","type":"uint256","internalType":"uint256"},{"name":"","type":"address","internalType":"address"}],"outputs":[{"name":"commit","type":"bytes32","internalType":"bytes32"},{"name":"amount","type":"uint256","internalType":"uint256"},{"name":"side","type":"uint8","internalType":"enum CommitRevealBSP.Side"},{"name":"claimed","type":"bool","internalType":"bool"}],"stateMutability":"view"},{"type":"event","name":"Commit","inputs":[{"name":"round","type":"uint256","indexed":true,"internalType":"uint256"},{"name":"user","type":"address","indexed":true,"internalType":"address"},{"name":"amount","type":"uint256","indexed":false,"internalType":"uint256"}],"anonymous":false},{"type":"event","name":"NewRound","inputs":[{"name":"round","type":"uint256","indexed":true,"internalType":"uint256"},{"name":"closeTs","type":"uint256","indexed":false,"internalType":"uint256"},{"name":"revealTs","type":"uint256","indexed":false,"internalType":"uint256"},{"name":"thresholdGwei","type":"uint256","indexed":false,"internalType":"uint256"}],"anonymous":false},{"type":"event","name":"Payout","inputs":[{"name":"round","type":"uint256","indexed":true,"internalType":"uint256"},{"name":"user","type":"address","indexed":true,"internalType":"address"},{"name":"amount","type":"uint256","indexed":false,"internalType":"uint256"}],"anonymous":false},{"type":"event","name":"Refund","inputs":[{"name":"round","type":"uint256","indexed":true,"internalType":"uint256"},{"name":"user","type":"address","indexed":true,"internalType":"address"},{"name":"amount","type":"uint256","indexed":false,"internalType":"uint256"}],"anonymous":false},{"type":"event","name":"Reveal","inputs":[{"name":"round","type":"uint256","indexed":true,"internalType":"uint256"},{"name":"user","type":"address","indexed":true,"internalType":"address"},{"name":"side","type":"uint8","indexed":false,"internalType":"enum CommitRevealBSP.Side"},{"name":"amount","type":"uint256","indexed":false,"internalType":"uint256"}],"anonymous":false},{"type":"event","name":"Settled","inputs":[{"name":"round","type":"uint256","indexed":true,"internalType":"uint256"},{"name":"feeGwei","type":"uint256","indexed":false,"internalType":"uint256"},{"name":"rakeWei","type":"uint256","indexed":false,"internalType":"uint256"},{"name":"bountyWei","type":"uint256","indexed":false,"internalType":"uint256"}],"anonymous":false},{"type":"error","name":"PoolHasNoWinners","inputs":[]},{"type":"error","name":"ReentrancyGuardReentrantCall","inputs":[]}],"bytecode":{"object":"0x60c06040523461026a57604051601f611c7238819003918201601f19168301916001600160401b038311848410176102425780849260209460405283398101031261026a57516001600160a01b0381169081900361026a5760015f553360805260a0526001545f1981146102565760010180600155610e10420180421161025657610f3c42019182821161025657604051916101c083016001600160401b03811184821017610242576040528183526020830192818452604081019385855260608201935f855260808301915f835260a08401965f885260c08501965f885260e08601975f895261010087019964174876e8008b526101208801965f88526101408901935f85526101608a01955f87526101808b01975f89526101a08c01995f8b525f52600360205260405f209b518c555160018c01555160028b01555160038a015551600489015551600588015551600687015560078601975194600286101561022e577fb5d8636ab45e6cac7a4a61cb7c77f77f61a454d73aa2e6139ff8dcaf463537e599606099600d9760ff8019835416911617905551600888015551600987015551600a86015551600b850155600c84019051151560ff801983541691161790555191015560015493604051918252602082015264174876e8006040820152a2604051611a03908161026f823960805181818161045d015281816106ef0152818161085e015281816109b101528181610f9b0152611375015260a051818181610eef01526112520152f35b634e487b7160e01b5f52602160045260245ffd5b634e487b7160e01b5f52604160045260245ffd5b634e487b7160e01b5f52601160045260245ffd5b5f80fdfe6080604052600436101561001a575b3615610018575f80fd5b005b5f3560e01c8063041f1e9014610f7a57806311da60b414610f4b57806317e931cf14610f2f57806322464d7314610f1357806328811f5914610ed05780633b5fa1c414610eb35780633d6ae3a71461098d5780633fc8ae0614610bce57806341b99b4314610b965780634ed7130214610b795780634fe2425114610b5c57806352e799d414610b3a57806359d58bcd14610b1d5780635c975abb14610afb5780636540742f14610ada5780636641ea0814610abe5780637fe7461714610aa25780638c65c81f146109d55780638da5cb5b14610992578063a556eb821461098d578063b99d6e291461090f578063be9ebe6d146108f4578063c4c8b35b14610840578063c7b0e4cf14610823578063c9bc7be7146107eb578063cea8484514610527578063d6f0d2901461050b578063df88b21a146104ef578063e8740b511461043f5763f14fcbc80361000e57602036600319011261043b5761018360ff600a54161561114a565b600154805f52600360205260405f2090600182015442101561040d57662386f26fc1000034106103e257678ac7230489e8000034116103b157805f52600260205260405f206001600160a01b0333165f5260205260405f205461038657335f52600960205260405f205403610363575b335f526008602052678ac7230489e800006102123460405f205461117f565b1161032e57335f52600860205260405f2061022e34825461117f565b9055604051906080820182811067ffffffffffffffff82111761031a5760405260043582526020820191348352600260408201915f835260608101945f86526001545f528260205260405f206001600160a01b0333165f5260205260405f2091518255516001820155019051926002841015610306576102b06006948361118c565b51151561ff0082549160081b169061ff001916179055016102d234825461117f565b9055600154604051903482527f094925310677b39991f64178494fad708beb62f73f36bb0baa493476ecf5870960203393a3005b634e487b7160e01b5f52602160045260245ffd5b634e487b7160e01b5f52604160045260245ffd5b60405162461bcd60e51b815260206004820152600d60248201526c1859191c995cdccb5b1a5b5a5d609a1b6044820152606490fd5b335f5260086020525f6040812055600154335f52600960205260405f20556101f3565b60405162461bcd60e51b815260206004820152600360248201526206475760ec1b6044820152606490fd5b60405162461bcd60e51b8152602060048201526009602482015268746f6f2d6c6172676560b81b6044820152606490fd5b606460405162461bcd60e51b8152602060048201526004602482015263191d5cdd60e21b6044820152fd5b60405162461bcd60e51b815260206004820152600660248201526518db1bdcd95960d21b6044820152606490fd5b5f80fd5b3461043b57602036600319011261043b576104846001600160a01b037f00000000000000000000000000000000000000000000000000000000000000001633146110bb565b600554600154809110156104ba57805f5260036020526104ab600660405f2001541561110f565b60055542600655600480359055005b60405162461bcd60e51b815260206004820152600d60248201526c636f6d6d69742065786973747360981b6044820152606490fd5b3461043b575f36600319011261043b5760206040516123288152f35b3461043b575f36600319011261043b5760206040516115188152f35b3461043b57606036600319011261043b57600435602435600281101561043b5761054f61164b565b61055e60ff600a54161561114a565b815f52600360205260405f2060ff600c82015416156107ba57825f52600260205260405f206001600160a01b0333165f5260205260405f209060048101549081159182156107ad575b82610786575b50825461069c5750156106225760019150015490805f52600260205260405f206001600160a01b0333165f526020525f60016040822001556105ef82336117ea565b6040519182527f21e12a7cad0da5928167e1084ea4d5fdf8d9af66657a2543a9ac76a0ca08147760203393a35b60015f55005b50815f52600260205260405f206001600160a01b0333165f5260205260ff600260405f200154166002811015610306570361066757610662903390611861565b61061c565b60405162461bcd60e51b815260206004820152600d60248201526c0e6d2c8ca5adad2e6dac2e8c6d609b1b6044820152606490fd5b905060029192500154610384810180911161077257421115610745576001610713910154825f52600260205260405f206001600160a01b0333165f526020525f60026040822082815582600182015501557f00000000000000000000000000000000000000000000000000000000000000006117ea565b604051905f82527f21e12a7cad0da5928167e1084ea4d5fdf8d9af66657a2543a9ac76a0ca08147760203393a361061c565b60405162461bcd60e51b8152602060048201526005602482015264677261636560d81b6044820152606490fd5b634e487b7160e01b5f52601160045260245ffd5b81925061079a9060066107a59301546111a4565b6005830154906111a4565b1590856105ad565b60058201541592506105a7565b60405162461bcd60e51b81526020600482015260096024820152681d5b9cd95d1d1b195960ba1b6044820152606490fd5b3461043b57602036600319011261043b576001600160a01b0361080c611098565b165f526009602052602060405f2054604051908152f35b3461043b575f36600319011261043b576020600454604051908152f35b3461043b57602036600319011261043b576108856001600160a01b037f00000000000000000000000000000000000000000000000000000000000000001633146110bb565b6004546108af576001545f5260036020526108a7600660405f2001541561110f565b600435600755005b60405162461bcd60e51b815260206004820152601260248201527f636f6d6d69742d696e2d70726f677265737300000000000000000000000000006044820152606490fd5b3461043b575f36600319011261043b576020604051600a8152f35b3461043b57604036600319011261043b576024356001600160a01b038116810361043b576004355f5260026020526001600160a01b0360405f2091165f52602052608060405f2060ff81549160026001820154910154906040519384526020840152610980604084018383166110ae565b60081c1615156060820152f35b61107c565b3461043b575f36600319011261043b5760206040516001600160a01b037f0000000000000000000000000000000000000000000000000000000000000000168152f35b3461043b57602036600319011261043b576004355f52600360205260405f2080549060018101549060028101546003820154600483015460058401546006850154600786015460ff1690600887015492600988015494600a89015496600b8a015498600c8b015460ff169a600d01549b604051809e81526020015260408d015260608c015260808b015260a08a015260c089015260e08801610a76916110ae565b61010087015261012086015261014085015261016084015215156101808301526101a08201526101c090f35b3461043b575f36600319011261043b576020604051611d4c8152f35b3461043b575f36600319011261043b576020604051610e108152f35b3461043b575f36600319011261043b576020604051662386f26fc100008152f35b3461043b575f36600319011261043b57602060ff600a54166040519015158152f35b3461043b575f36600319011261043b576020600754604051908152f35b3461043b575f36600319011261043b576020604051678ac7230489e800008152f35b3461043b575f36600319011261043b576020600154604051908152f35b3461043b575f36600319011261043b576020600554604051908152f35b3461043b57602036600319011261043b576001600160a01b03610bb7611098565b165f526008602052602060405f2054604051908152f35b3461043b57604036600319011261043b57600435600281101561043b57610bfa60ff600a54161561114a565b600154805f52600360205260405f2090600182015442101580610ea6575b15610e77575f52600260205260405f206001600160a01b0333165f5260205260405f2080548015610e475760405160208101903360601b82528560f81b6034820152602435603582015260358152610c716055826110ed565b51902003610e1c57600482019060058254930192835491610c92838361117f565b936001820195610ca48754809761117f565b881594878615610dd857610cb79161117f565b612710810290808204612710149015171561077257611d4c8202828104611d4c148315171561077257610ceb9111156115ff565b612710870287810461271014881517156107725761232882029180830461232814901517156107725711610d9357610d4295889560029515610d8157505050610d368654825461117f565b90555b5f81550161118c565b6001549054610d5460405180946110ae565b60208301527f0447986cbc4e3a2a59f15d77a0b5c7ade84117a770c448cab35f1cf38a8663fa60403393a3005b610d8c92935061117f565b9055610d39565b60405162461bcd60e51b815260206004820152601060248201527f696e646976696475616c2d6c696d6974000000000000000000000000000000006044820152606490fd5b610de391508761117f565b612710810290808204612710149015171561077257611d4c8202828104611d4c148315171561077257610e179111156115ff565b610ceb565b60405162461bcd60e51b815260206004820152600360248201526218985960ea1b6044820152606490fd5b60405162461bcd60e51b81526020600482015260086024820152671c995d99585b195960c21b6044820152606490fd5b60405162461bcd60e51b8152602060048201526007602482015266085c995d99585b60ca1b6044820152606490fd5b5060028201544210610c18565b3461043b575f36600319011261043b576020600654604051908152f35b3461043b575f36600319011261043b5760206040516001600160a01b037f0000000000000000000000000000000000000000000000000000000000000000168152f35b3461043b575f36600319011261043b5760206040516101f48152f35b3461043b575f36600319011261043b57602060405161012c8152f35b3461043b575f36600319011261043b57610f6361164b565b610f7260ff600a54161561114a565b61061c6111c9565b3461043b57604036600319011261043b57600435610fc26001600160a01b037f00000000000000000000000000000000000000000000000000000000000000001633146110bb565b60055460015480910361104b576004546040516020810190848252602435604082015260408152610ff46060826110ed565b51902003611019575f526003602052611014600660405f2001541561110f565b600755005b60405162461bcd60e51b815260206004820152600a602482015269189859081c995d99585b60b21b6044820152606490fd5b60405162461bcd60e51b81526020600482015260096024820152681b9bc818dbdb5b5a5d60ba1b6044820152606490fd5b3461043b575f36600319011261043b5760206040516103848152f35b600435906001600160a01b038216820361043b57565b9060028210156103065752565b156110c257565b606460405162461bcd60e51b815260206004820152600460248201526310b7bbb760e11b6044820152fd5b90601f8019910116810190811067ffffffffffffffff82111761031a57604052565b1561111657565b60405162461bcd60e51b815260206004820152600c60248201526b726f756e642d61637469766560a01b6044820152606490fd5b1561115157565b60405162461bcd60e51b81526020600482015260066024820152651c185d5cd95960d21b6044820152606490fd5b9190820180921161077257565b9060028110156103065760ff80198354169116179055565b9190820391821161077257565b906101f48202918083046101f4149015171561077257565b600154805f52600360205260405f20906002820154918242106115ce57600c81019182549360ff85166115a35761120d90620186a042101561155b5760019061117f565b4210611516576005540361150b5760065461151881018091116107725742101561150b576007548015610e7757915b6040516303e0818560e61b8152936020856004817f00000000000000000000000000000000000000000000000000000000000000006001600160a01b03165afa948515611500575f956114cc575b50841561149957642e90edd000851161145457600a8301859055600b830185905560ff191660011790556008810154831061144a576112cd5f5b6007830161118c565b600481015460058201546112e1818361117f565b906112f9816112f48560068801546111a4565b6111a4565b9215908115611441575b5080611439575b6113e257906113189161117f565b90600a820290828204600a1483151715610772576113d19461136593600d612710807f0b88c5bd74fc625a4f651904bf835063c6a449220be319924685261fb7709dd596049687936111b1565b04930155836113d3575b611399827f00000000000000000000000000000000000000000000000000000000000000006117ea565b6113bd60015494604051938493846040919493926060820195825260208201520152565b0390a25f6007555f6005555f600455611669565b565b6113dd84336117ea565b61136f565b5050915f600d6113d19401557f0b88c5bd74fc625a4f651904bf835063c6a449220be319924685261fb7709dd56060600154926040519081525f60208201525f6040820152a25f6007555f6005555f600455611669565b50811561130a565b9050155f611303565b6112cd60016112c4565b60405162461bcd60e51b815260206004820152601060248201527f6665652d6f75742d6f662d72616e6765000000000000000000000000000000006044820152606490fd5b60405162461bcd60e51b815260206004820152600b60248201526a1999594b5b9bdd0b5cd95d60aa1b6044820152606490fd5b9094506020813d6020116114f8575b816114e8602093836110ed565b8101031261043b5751935f61128a565b3d91506114db565b6040513d5f823e3d90fd5b60088101549161123c565b60405162461bcd60e51b815260206004820152601060248201527f736574746c656d656e742d64656c6179000000000000000000000000000000006044820152606490fd5b61025860048501546005860154604051906020820192428452446040840152876060840152608083015260a082015260a0815261159960c0826110ed565b519020069061117f565b606460405162461bcd60e51b8152602060048201526004602482015263646f6e6560e01b6044820152fd5b60405162461bcd60e51b8152602060048201526009602482015268746f6f206561726c7960b81b6044820152606490fd5b1561160657565b60405162461bcd60e51b815260206004820152600e60248201527f706f736974696f6e2d6c696d69740000000000000000000000000000000000006044820152606490fd5b60025f541461165a5760025f55565b633ee5aeb560e01b5f5260045ffd5b6001545f1981146107725760010180600155610e10420180421161077257610f3c420190818111610772576040516101c0810181811067ffffffffffffffff82111761031a576040528381526020810193828552604082019084825260608301955f875260808401925f845260a08501975f895260c086015f815260e08701905f825261010088019a8c8c526101208901975f89526101408a01945f86526101608b01965f88526101808c01985f8a526101a08d019a5f8c525f52600360205260405f209c518d555160018d01555160028c01555160038b01555160048a015551600589015551600688015551946002861015610306577fb5d8636ab45e6cac7a4a61cb7c77f77f61a454d73aa2e6139ff8dcaf463537e599611791600d9760078a0161118c565b51600888015551600987015551600a86015551600b850155600c84019051151560ff80198354169116179055519101556117e560015494604051938493846040919493926060820195825260208201520152565b0390a2565b5f80809381935af13d1561185c573d67ffffffffffffffff811161031a5760405190611820601f8201601f1916602001836110ed565b81525f60203d92013e5b1561183157565b606460405162461bcd60e51b81526020600482015260046024820152633c3332b960e11b6044820152fd5b61182a565b805f52600360205260405f2091815f52600260205260405f206001600160a01b0382165f5260205260405f209260028401805460ff8160081c1661199e5761ff001916610100179055600781015460ff1660028110156103065715908115611993576004810154915b821561198b576001916119329115611986575b61271061192b611925600d61191c6006860154611917611902600489015480936111a4565b61191160058a015480926111a4565b9261117f565b61117f565b940154846111a4565b926111b1565b04906111a4565b940154848102948186041490151715610772576113d1930491604051908382527f5f7341a552ae2d452b071917104c05fbac3663936a69be768a05c40605056e7d60206001600160a01b03851693a36117ea565b6118dd565b505050505050565b6005810154916118ca565b60405162461bcd60e51b815260206004820152600760248201526618db185a5b595960ca1b6044820152606490fdfea2646970667358221220af99293e66ce901879f586964ead38a8ffa5d61a85ccebadab01a96848daca1064736f6c634300081e0033","linkReferences":{}},"methodIdentifiers":{"F()":"28811f59","GRACE_NONREVEAL()":"a556eb82","MAX_BET_PER_ADDRESS()":"52e799d4","MAX_INDIVIDUAL_POSITION_RATIO()":"df88b21a","MAX_TOTAL_POSITION_RATIO()":"7fe74617","MIN_BET()":"6540742f","RAKE_BP()":"22464d73","REVEAL_TIMEOUT()":"3d6ae3a7","REVEAL_WINDOW()":"17e931cf","ROUND_DURATION()":"6641ea08","SETTLE_BOUNTY_BP()":"be9ebe6d","THRESHOLD_REVEAL_TIMEOUT()":"d6f0d290","claim(uint256,uint8,bytes32)":"cea84845","commit(bytes32)":"f14fcbc8","commitRound()":"4ed71302","commitThreshold(bytes32)":"e8740b51","commitTs()":"3b5fa1c4","cur()":"4fe24251","lastRoundParticipated(address)":"c9bc7be7","nextThreshold()":"59d58bcd","owner()":"8da5cb5b","paused()":"5c975abb","reveal(uint8,bytes32)":"3fc8ae06","revealThreshold(uint256,uint256)":"041f1e90","roundBets(address)":"41b99b43","rounds(uint256)":"8c65c81f","setNextThreshold(uint256)":"c4c8b35b","settle()":"11da60b4","thresholdCommit()":"c7b0e4cf","tickets(uint256,address)":"b99d6e29"},"id":2}