{"abi":[{"type":"constructor","inputs":[{"name":"oracle","type":"address","internalType":"address"}],"stateMutability":"nonpayable"},{"type":"function","name":"F","inputs":[],"outputs":[{"name":"","type":"address","internalType":"contract IBlobBaseFee"}],"stateMutability":"view"},{"type":"function","name":"GRACE_NONREVEAL","inputs":[],"outputs":[{"name":"","type":"uint256","internalType":"uint256"}],"stateMutability":"view"},{"type":"function","name":"MIN_BET","inputs":[],"outputs":[{"name":"","type":"uint256","internalType":"uint256"}],"stateMutability":"view"},{"type":"function","name":"RAKE_BP","inputs":[],"outputs":[{"name":"","type":"uint16","internalType":"uint16"}],"stateMutability":"view"},{"type":"function","name":"REVEAL_TIMEOUT","inputs":[],"outputs":[{"name":"","type":"uint256","internalType":"uint256"}],"stateMutability":"view"},{"type":"function","name":"REVEAL_WINDOW","inputs":[],"outputs":[{"name":"","type":"uint256","internalType":"uint256"}],"stateMutability":"view"},{"type":"function","name":"ROUND_DURATION","inputs":[],"outputs":[{"name":"","type":"uint256","internalType":"uint256"}],"stateMutability":"view"},{"type":"function","name":"SETTLE_BOUNTY_BP","inputs":[],"outputs":[{"name":"","type":"uint16","internalType":"uint16"}],"stateMutability":"view"},{"type":"function","name":"THRESHOLD_REVEAL_TIMEOUT","inputs":[],"outputs":[{"name":"","type":"uint256","internalType":"uint256"}],"stateMutability":"view"},{"type":"function","name":"claim","inputs":[{"name":"id","type":"uint256","internalType":"uint256"},{"name":"side","type":"uint8","internalType":"enum CommitRevealBSP.Side"},{"name":"","type":"bytes32","internalType":"bytes32"}],"outputs":[],"stateMutability":"nonpayable"},{"type":"function","name":"commit","inputs":[{"name":"h","type":"bytes32","internalType":"bytes32"}],"outputs":[],"stateMutability":"payable"},{"type":"function","name":"commitRound","inputs":[],"outputs":[{"name":"","type":"uint256","internalType":"uint256"}],"stateMutability":"view"},{"type":"function","name":"commitThreshold","inputs":[{"name":"h","type":"bytes32","internalType":"bytes32"}],"outputs":[],"stateMutability":"nonpayable"},{"type":"function","name":"commitTs","inputs":[],"outputs":[{"name":"","type":"uint256","internalType":"uint256"}],"stateMutability":"view"},{"type":"function","name":"cur","inputs":[],"outputs":[{"name":"","type":"uint256","internalType":"uint256"}],"stateMutability":"view"},{"type":"function","name":"nextThreshold","inputs":[],"outputs":[{"name":"","type":"uint256","internalType":"uint256"}],"stateMutability":"view"},{"type":"function","name":"owner","inputs":[],"outputs":[{"name":"","type":"address","internalType":"address"}],"stateMutability":"view"},{"type":"function","name":"paused","inputs":[],"outputs":[{"name":"","type":"bool","internalType":"bool"}],"stateMutability":"view"},{"type":"function","name":"reveal","inputs":[{"name":"side","type":"uint8","internalType":"enum CommitRevealBSP.Side"},{"name":"salt","type":"bytes32","internalType":"bytes32"}],"outputs":[],"stateMutability":"nonpayable"},{"type":"function","name":"revealThreshold","inputs":[{"name":"thr","type":"uint256","internalType":"uint256"},{"name":"salt","type":"uint256","internalType":"uint256"}],"outputs":[],"stateMutability":"nonpayable"},{"type":"function","name":"rounds","inputs":[{"name":"","type":"uint256","internalType":"uint256"}],"outputs":[{"name":"openTs","type":"uint256","internalType":"uint256"},{"name":"closeTs","type":"uint256","internalType":"uint256"},{"name":"revealTs","type":"uint256","internalType":"uint256"},{"name":"hiPool","type":"uint256","internalType":"uint256"},{"name":"loPool","type":"uint256","internalType":"uint256"},{"name":"rake","type":"uint256","internalType":"uint256"},{"name":"bounty","type":"uint256","internalType":"uint256"},{"name":"thresholdGwei","type":"uint256","internalType":"uint256"},{"name":"feeResult","type":"uint256","internalType":"uint256"},{"name":"settlePriceGwei","type":"uint256","internalType":"uint256"},{"name":"settled","type":"bool","internalType":"bool"}],"stateMutability":"view"},{"type":"function","name":"settle","inputs":[],"outputs":[],"stateMutability":"nonpayable"},{"type":"function","name":"thresholdCommit","inputs":[],"outputs":[{"name":"","type":"bytes32","internalType":"bytes32"}],"stateMutability":"view"},{"type":"function","name":"tickets","inputs":[{"name":"","type":"uint256","internalType":"uint256"},{"name":"","type":"address","internalType":"address"}],"outputs":[{"name":"commit","type":"bytes32","internalType":"bytes32"},{"name":"amount","type":"uint256","internalType":"uint256"},{"name":"side","type":"uint8","internalType":"enum CommitRevealBSP.Side"}],"stateMutability":"view"},{"type":"event","name":"Commit","inputs":[{"name":"round","type":"uint256","indexed":true,"internalType":"uint256"},{"name":"user","type":"address","indexed":true,"internalType":"address"},{"name":"amount","type":"uint256","indexed":false,"internalType":"uint256"}],"anonymous":false},{"type":"event","name":"NewRound","inputs":[{"name":"round","type":"uint256","indexed":true,"internalType":"uint256"},{"name":"closeTs","type":"uint256","indexed":false,"internalType":"uint256"},{"name":"revealTs","type":"uint256","indexed":false,"internalType":"uint256"},{"name":"thresholdGwei","type":"uint256","indexed":false,"internalType":"uint256"}],"anonymous":false},{"type":"event","name":"Payout","inputs":[{"name":"round","type":"uint256","indexed":true,"internalType":"uint256"},{"name":"user","type":"address","indexed":true,"internalType":"address"},{"name":"amount","type":"uint256","indexed":false,"internalType":"uint256"}],"anonymous":false},{"type":"event","name":"Refund","inputs":[{"name":"round","type":"uint256","indexed":true,"internalType":"uint256"},{"name":"user","type":"address","indexed":true,"internalType":"address"},{"name":"amount","type":"uint256","indexed":false,"internalType":"uint256"}],"anonymous":false},{"type":"event","name":"Reveal","inputs":[{"name":"round","type":"uint256","indexed":true,"internalType":"uint256"},{"name":"user","type":"address","indexed":true,"internalType":"address"},{"name":"side","type":"uint8","indexed":false,"internalType":"enum CommitRevealBSP.Side"},{"name":"amount","type":"uint256","indexed":false,"internalType":"uint256"}],"anonymous":false},{"type":"event","name":"Settled","inputs":[{"name":"round","type":"uint256","indexed":true,"internalType":"uint256"},{"name":"feeGwei","type":"uint256","indexed":false,"internalType":"uint256"},{"name":"rakeWei","type":"uint256","indexed":false,"internalType":"uint256"},{"name":"bountyWei","type":"uint256","indexed":false,"internalType":"uint256"}],"anonymous":false},{"type":"error","name":"ReentrancyGuardReentrantCall","inputs":[]}],"bytecode":{"object":"0x60c06040523461020857604051601f6115ae38819003918201601f19168301916001600160401b038311848410176101e05780849260209460405283398101031261020857516001600160a01b038116908190036102085760015f553360805260a0526001545f1981146101f45760010180600155610e104201908142116101f4576111944201918281116101f4576040516101608101929091906001600160401b038411838510176101e057600a6060937fb5d8636ab45e6cac7a4a61cb7c77f77f61a454d73aa2e6139ff8dcaf463537e59560405242815260208101848152604082018881528683015f8152608084015f815260a085015f815260c08601915f835260e087019364174876e80085526101008801955f87526101208901975f89526101408a019b5f8d525f52600360205260405f2099518a555160018a0155516002890155516003880155516004870155516005860155516006850155516007840155516008830155516009820155019051151560ff8019835416911617905560015493604051918252602082015264174876e8006040820152a26040516113a1908161020d82396080518181816102d2015281816107060152818161089501528181610c520152610f50015260a051818181610bc20152610e5d0152f35b634e487b7160e01b5f52604160045260245ffd5b634e487b7160e01b5f52601160045260245ffd5b5f80fdfe60806040526004361015610011575f80fd5b5f3560e01c8063041f1e9014610c3157806311da60b414610c0257806317e931cf1461087157806322464d7314610be657806328811f5914610ba35780633b5fa1c414610b865780633d6ae3a7146108715780633fc8ae06146109f15780634ed71302146109d45780634fe24251146109b757806359d58bcd1461099a5780635c975abb146109785780636540742f146109575780636641ea081461034b5780638c65c81f146108b95780638da5cb5b14610876578063a556eb8214610871578063b99d6e29146107ff578063be9ebe6d146107e4578063c7b0e4cf146107c7578063cea8484514610350578063d6f0d2901461034b578063e8740b51146102b45763f14fcbc814610121575f80fd5b60203660031901126102b05761013c60ff6008541615610db2565b600154805f526003602052600160405f20015442101561028257610169662386f26fc10000341015611158565b805f52600260205260405f206001600160a01b0333165f5260205260405f205461025757604051906060820182811067ffffffffffffffff8211176102435760405260043582526020820134815260408301915f83525f52600260205260405f206001600160a01b0333165f5260205260405f209251835551600183015551600281101561022f5760026101fd9201611140565b600154604051903482527f094925310677b39991f64178494fad708beb62f73f36bb0baa493476ecf5870960203393a3005b634e487b7160e01b5f52602160045260245ffd5b634e487b7160e01b5f52604160045260245ffd5b60405162461bcd60e51b815260206004820152600360248201526206475760ec1b6044820152606490fd5b60405162461bcd60e51b815260206004820152600660248201526518db1bdcd95960d21b6044820152606490fd5b5f80fd5b346102b05760203660031901126102b0576102f96001600160a01b037f0000000000000000000000000000000000000000000000000000000000000000163314610d5e565b600554600154809110156103165760055542600655600480359055005b60405162461bcd60e51b815260206004820152600d60248201526c636f6d6d69742065786973747360981b6044820152606490fd5b610d35565b346102b05760603660031901126102b05760043560243560028110156102b05761037861118a565b61038760ff6008541615610db2565b815f52600360205260405f2060ff600a820154161561079657825f52600260205260405f206001600160a01b0333165f5260205260405f2090600381015415908115610789575b82546106b357501561046d57600101546103e380820292508115918304141715610459576103e8900490805f52600260205260405f206001600160a01b0333165f526020525f600160408220015561042682336112e7565b6040519182527f21e12a7cad0da5928167e1084ea4d5fdf8d9af66657a2543a9ac76a0ca08147760203393a35b60015f55005b634e487b7160e01b5f52601160045260245ffd5b50815f52600260205260405f206001600160a01b0333165f5260205260ff600260405f20015416600281101561022f570361067e575f818152600360209081526040808320600280845282852033865290935292200154600882015460078301541180159182919060ff168261066b575b8215610646575b50501561061b571561060d576105276003820154915b600661051e6105136003840154600485015490610de7565b60058401549061135e565b9101549061135e565b825f52600260205260405f206001600160a01b0333165f52602052600160405f2001549081156105e257835f52600260205260405f206001600160a01b0333165f526020525f6001604082200155808202918204036104595781156105ce570490610593821515611158565b61059d82336112e7565b6040519182527f5f7341a552ae2d452b071917104c05fbac3663936a69be768a05c40605056e7d60203393a3610453565b634e487b7160e01b5f52601260045260245ffd5b606460405162461bcd60e51b81526020600482015260046024820152636e6f6e6560e01b6044820152fd5b6105276004820154916104fb565b606460405162461bcd60e51b81526020600482015260046024820152636c6f736560e01b6044820152fd5b90915081610657575b5084806104e5565b9050600281101561022f576001148461064f565b9150600282101561022f578115916104de565b60405162461bcd60e51b815260206004820152600d60248201526c0e6d2c8ca5adad2e6dac2e8c6d609b1b6044820152606490fd5b90506002919250015461038481018091116104595742111561075c57600161072a910154825f52600260205260405f206001600160a01b0333165f526020525f60026040822082815582600182015501557f00000000000000000000000000000000000000000000000000000000000000006112e7565b604051905f82527f21e12a7cad0da5928167e1084ea4d5fdf8d9af66657a2543a9ac76a0ca08147760203393a3610453565b60405162461bcd60e51b8152602060048201526005602482015264677261636560d81b6044820152606490fd5b60048101541591506103ce565b60405162461bcd60e51b81526020600482015260096024820152681d5b9cd95d1d1b195960ba1b6044820152606490fd5b346102b0575f3660031901126102b0576020600454604051908152f35b346102b0575f3660031901126102b0576020604051600a8152f35b346102b05760403660031901126102b0576024356001600160a01b03811681036102b0576004355f5260026020526001600160a01b0360405f2091165f52602052606060405f2061086f81549160ff60026001830154920154169060405193845260208401526040830190610d51565bf35b610d19565b346102b0575f3660031901126102b05760206040516001600160a01b037f0000000000000000000000000000000000000000000000000000000000000000168152f35b346102b05760203660031901126102b0576004355f52600360205261016060405f20805490600181015490600281015460038201546004830154600584015460068501549160078601549360088701549560ff600a60098a015499015416986040519a8b5260208b015260408a01526060890152608088015260a087015260c086015260e08501526101008401526101208301521515610140820152f35b346102b0575f3660031901126102b0576020604051662386f26fc100008152f35b346102b0575f3660031901126102b057602060ff600854166040519015158152f35b346102b0575f3660031901126102b0576020600754604051908152f35b346102b0575f3660031901126102b0576020600154604051908152f35b346102b0575f3660031901126102b0576020600554604051908152f35b346102b05760403660031901126102b05760043560028110156102b057610a1d60ff6008541615610db2565b600154805f52600360205260405f2090600182015442101580610b79575b15610b4a575f52600260205260405f206001600160a01b0333165f5260205260405f2090815460405160208101903360601b82528560f81b6034820152602435603582015260358152610a8f605582610d90565b51902003610b1f5782610b0457610ab0600360018401549201918254610de7565b90555b5f8155610ac38260028301611140565b60018054910154610ad76040518094610d51565b60208301527f0447986cbc4e3a2a59f15d77a0b5c7ade84117a770c448cab35f1cf38a8663fa60403393a3005b610b18600460018401549201918254610de7565b9055610ab3565b60405162461bcd60e51b815260206004820152600360248201526218985960ea1b6044820152606490fd5b60405162461bcd60e51b8152602060048201526007602482015266085c995d99585b60ca1b6044820152606490fd5b5060028201544210610a3b565b346102b0575f3660031901126102b0576020600654604051908152f35b346102b0575f3660031901126102b05760206040516001600160a01b037f0000000000000000000000000000000000000000000000000000000000000000168152f35b346102b0575f3660031901126102b05760206040516101f48152f35b346102b0575f3660031901126102b057610c1a61118a565b610c2960ff6008541615610db2565b610453610df4565b346102b05760403660031901126102b057600435610c796001600160a01b037f0000000000000000000000000000000000000000000000000000000000000000163314610d5e565b60055460015403610ce8576004546040516020810190838252602435604082015260408152610ca9606082610d90565b51902003610cb657600755005b60405162461bcd60e51b815260206004820152600a602482015269189859081c995d99585b60b21b6044820152606490fd5b60405162461bcd60e51b81526020600482015260096024820152681b9bc818dbdb5b5a5d60ba1b6044820152606490fd5b346102b0575f3660031901126102b05760206040516103848152f35b346102b0575f3660031901126102b0576020604051610e108152f35b90600282101561022f5752565b15610d6557565b606460405162461bcd60e51b815260206004820152600460248201526310b7bbb760e11b6044820152fd5b90601f8019910116810190811067ffffffffffffffff82111761024357604052565b15610db957565b60405162461bcd60e51b81526020600482015260066024820152651c185d5cd95960d21b6044820152606490fd5b9190820180921161045957565b600154805f52600360205260405f206002810154421061110f57600a81019081549260ff84166110e457600554036110d957600654610e108101809111610459574210156110d9576007548015610b4a57915b6040516303e0818560e61b8152936020856004817f00000000000000000000000000000000000000000000000000000000000000006001600160a01b03165afa9485156110ce575f9561109a575b50841561106757642e90edd00085116110225760019085600885015585600985015560ff191617905560038101546004820154610ed28183610de7565b9115908115611019575b50610fbd57600a810291811592828104600a14841715610459576127109004926101f483029283046101f414171561045957610fac948360066127107f0b88c5bd74fc625a4f651904bf835063c6a449220be319924685261fb7709dd5950493846005820155015583610fae575b610f74827f00000000000000000000000000000000000000000000000000000000000000006112e7565b610f9860015494604051938493846040919493926060820195825260208201520152565b0390a25f6007555f6005555f6004556111a8565b565b610fb884336112e7565b610f4a565b50915f600684826005610fac97015501557f0b88c5bd74fc625a4f651904bf835063c6a449220be319924685261fb7709dd56060600154926040519081525f60208201525f6040820152a25f6007555f6005555f6004556111a8565b9050155f610edc565b60405162461bcd60e51b815260206004820152601060248201527f6665652d6f75742d6f662d72616e6765000000000000000000000000000000006044820152606490fd5b60405162461bcd60e51b815260206004820152600b60248201526a1999594b5b9bdd0b5cd95d60aa1b6044820152606490fd5b9094506020813d6020116110c6575b816110b660209383610d90565b810103126102b05751935f610e95565b3d91506110a9565b6040513d5f823e3d90fd5b600781015491610e47565b606460405162461bcd60e51b8152602060048201526004602482015263646f6e6560e01b6044820152fd5b60405162461bcd60e51b8152602060048201526009602482015268746f6f206561726c7960b81b6044820152606490fd5b90600281101561022f5760ff80198354169116179055565b1561115f57565b606460405162461bcd60e51b8152602060048201526004602482015263191d5cdd60e21b6044820152fd5b60025f54146111995760025f55565b633ee5aeb560e01b5f5260045ffd5b6001545f1981146104595760010180600155610e104201804211610459576111944201908181116104595760405192610160840184811067ffffffffffffffff821117610243577fb5d8636ab45e6cac7a4a61cb7c77f77f61a454d73aa2e6139ff8dcaf463537e594600a916040524281526020810184815260408201868152606083015f8152608084015f815260a085015f815260c08601915f835260e08701938d85526101008801955f87526101208901975f89526101408a019b5f8d525f52600360205260405f2099518a555160018a0155516002890155516003880155516004870155516005860155516006850155516007840155516008830155516009820155019051151560ff801983541691161790556112e260015494604051938493846040919493926060820195825260208201520152565b0390a2565b5f80809381935af13d15611359573d67ffffffffffffffff8111610243576040519061131d601f8201601f191660200183610d90565b81525f60203d92013e5b1561132e57565b606460405162461bcd60e51b81526020600482015260046024820152633c3332b960e11b6044820152fd5b611327565b919082039182116104595756fea2646970667358221220f714755abb69c1c10f2b056bdf35c46a6e09f920d3c7457229e879a407b6c75564736f6c634300081e0033","linkReferences":{}},"methodIdentifiers":{"F()":"28811f59","GRACE_NONREVEAL()":"a556eb82","MIN_BET()":"6540742f","RAKE_BP()":"22464d73","REVEAL_TIMEOUT()":"3d6ae3a7","REVEAL_WINDOW()":"17e931cf","ROUND_DURATION()":"6641ea08","SETTLE_BOUNTY_BP()":"be9ebe6d","THRESHOLD_REVEAL_TIMEOUT()":"d6f0d290","claim(uint256,uint8,bytes32)":"cea84845","commit(bytes32)":"f14fcbc8","commitRound()":"4ed71302","commitThreshold(bytes32)":"e8740b51","commitTs()":"3b5fa1c4","cur()":"4fe24251","nextThreshold()":"59d58bcd","owner()":"8da5cb5b","paused()":"5c975abb","reveal(uint8,bytes32)":"3fc8ae06","revealThreshold(uint256,uint256)":"041f1e90","rounds(uint256)":"8c65c81f","settle()":"11da60b4","thresholdCommit()":"c7b0e4cf","tickets(uint256,address)":"b99d6e29"},"id":3}