{"abi":[{"type":"constructor","inputs":[{"name":"oracle","type":"address","internalType":"address"}],"stateMutability":"nonpayable"},{"type":"receive","stateMutability":"payable"},{"type":"function","name":"F","inputs":[],"outputs":[{"name":"","type":"address","internalType":"contract IBlobBaseFee"}],"stateMutability":"view"},{"type":"function","name":"GRACE_NONREVEAL","inputs":[],"outputs":[{"name":"","type":"uint256","internalType":"uint256"}],"stateMutability":"view"},{"type":"function","name":"MIN_BET","inputs":[],"outputs":[{"name":"","type":"uint256","internalType":"uint256"}],"stateMutability":"view"},{"type":"function","name":"RAKE_BP","inputs":[],"outputs":[{"name":"","type":"uint16","internalType":"uint16"}],"stateMutability":"view"},{"type":"function","name":"REVEAL_TIMEOUT","inputs":[],"outputs":[{"name":"","type":"uint256","internalType":"uint256"}],"stateMutability":"view"},{"type":"function","name":"REVEAL_WINDOW","inputs":[],"outputs":[{"name":"","type":"uint256","internalType":"uint256"}],"stateMutability":"view"},{"type":"function","name":"ROUND_DURATION","inputs":[],"outputs":[{"name":"","type":"uint256","internalType":"uint256"}],"stateMutability":"view"},{"type":"function","name":"SETTLE_BOUNTY_BP","inputs":[],"outputs":[{"name":"","type":"uint16","internalType":"uint16"}],"stateMutability":"view"},{"type":"function","name":"THRESHOLD_REVEAL_TIMEOUT","inputs":[],"outputs":[{"name":"","type":"uint256","internalType":"uint256"}],"stateMutability":"view"},{"type":"function","name":"claim","inputs":[{"name":"roundId","type":"uint256","internalType":"uint256"},{"name":"side","type":"uint8","internalType":"enum CommitRevealBSP.Side"},{"name":"salt","type":"bytes32","internalType":"bytes32"}],"outputs":[],"stateMutability":"nonpayable"},{"type":"function","name":"commit","inputs":[{"name":"h","type":"bytes32","internalType":"bytes32"}],"outputs":[],"stateMutability":"payable"},{"type":"function","name":"commitRound","inputs":[],"outputs":[{"name":"","type":"uint256","internalType":"uint256"}],"stateMutability":"view"},{"type":"function","name":"commitThreshold","inputs":[{"name":"h","type":"bytes32","internalType":"bytes32"}],"outputs":[],"stateMutability":"nonpayable"},{"type":"function","name":"commitTs","inputs":[],"outputs":[{"name":"","type":"uint256","internalType":"uint256"}],"stateMutability":"view"},{"type":"function","name":"cur","inputs":[],"outputs":[{"name":"","type":"uint256","internalType":"uint256"}],"stateMutability":"view"},{"type":"function","name":"nextThreshold","inputs":[],"outputs":[{"name":"","type":"uint256","internalType":"uint256"}],"stateMutability":"view"},{"type":"function","name":"owner","inputs":[],"outputs":[{"name":"","type":"address","internalType":"address"}],"stateMutability":"view"},{"type":"function","name":"paused","inputs":[],"outputs":[{"name":"","type":"bool","internalType":"bool"}],"stateMutability":"view"},{"type":"function","name":"reveal","inputs":[{"name":"side","type":"uint8","internalType":"enum CommitRevealBSP.Side"},{"name":"salt","type":"bytes32","internalType":"bytes32"}],"outputs":[],"stateMutability":"nonpayable"},{"type":"function","name":"revealThreshold","inputs":[{"name":"thr","type":"uint256","internalType":"uint256"},{"name":"salt","type":"uint256","internalType":"uint256"}],"outputs":[],"stateMutability":"nonpayable"},{"type":"function","name":"rounds","inputs":[{"name":"","type":"uint256","internalType":"uint256"}],"outputs":[{"name":"id","type":"uint256","internalType":"uint256"},{"name":"closeTs","type":"uint256","internalType":"uint256"},{"name":"revealTs","type":"uint256","internalType":"uint256"},{"name":"settleTs","type":"uint256","internalType":"uint256"},{"name":"hiTotal","type":"uint256","internalType":"uint256"},{"name":"loTotal","type":"uint256","internalType":"uint256"},{"name":"totalCommits","type":"uint256","internalType":"uint256"},{"name":"winner","type":"uint8","internalType":"enum CommitRevealBSP.Side"},{"name":"threshold","type":"uint256","internalType":"uint256"},{"name":"thresholdCommit","type":"bytes32","internalType":"bytes32"},{"name":"feeResult","type":"uint256","internalType":"uint256"},{"name":"settlePriceGwei","type":"uint256","internalType":"uint256"},{"name":"settled","type":"bool","internalType":"bool"},{"name":"bounty","type":"uint256","internalType":"uint256"}],"stateMutability":"view"},{"type":"function","name":"settle","inputs":[],"outputs":[],"stateMutability":"nonpayable"},{"type":"function","name":"thresholdCommit","inputs":[],"outputs":[{"name":"","type":"bytes32","internalType":"bytes32"}],"stateMutability":"view"},{"type":"function","name":"tickets","inputs":[{"name":"","type":"uint256","internalType":"uint256"},{"name":"","type":"address","internalType":"address"}],"outputs":[{"name":"commit","type":"bytes32","internalType":"bytes32"},{"name":"amount","type":"uint256","internalType":"uint256"},{"name":"side","type":"uint8","internalType":"enum CommitRevealBSP.Side"},{"name":"claimed","type":"bool","internalType":"bool"}],"stateMutability":"view"},{"type":"event","name":"Commit","inputs":[{"name":"round","type":"uint256","indexed":true,"internalType":"uint256"},{"name":"user","type":"address","indexed":true,"internalType":"address"},{"name":"amount","type":"uint256","indexed":false,"internalType":"uint256"}],"anonymous":false},{"type":"event","name":"NewRound","inputs":[{"name":"round","type":"uint256","indexed":true,"internalType":"uint256"},{"name":"closeTs","type":"uint256","indexed":false,"internalType":"uint256"},{"name":"revealTs","type":"uint256","indexed":false,"internalType":"uint256"},{"name":"thresholdGwei","type":"uint256","indexed":false,"internalType":"uint256"}],"anonymous":false},{"type":"event","name":"Payout","inputs":[{"name":"round","type":"uint256","indexed":true,"internalType":"uint256"},{"name":"user","type":"address","indexed":true,"internalType":"address"},{"name":"amount","type":"uint256","indexed":false,"internalType":"uint256"}],"anonymous":false},{"type":"event","name":"Refund","inputs":[{"name":"round","type":"uint256","indexed":true,"internalType":"uint256"},{"name":"user","type":"address","indexed":true,"internalType":"address"},{"name":"amount","type":"uint256","indexed":false,"internalType":"uint256"}],"anonymous":false},{"type":"event","name":"Reveal","inputs":[{"name":"round","type":"uint256","indexed":true,"internalType":"uint256"},{"name":"user","type":"address","indexed":true,"internalType":"address"},{"name":"side","type":"uint8","indexed":false,"internalType":"enum CommitRevealBSP.Side"},{"name":"amount","type":"uint256","indexed":false,"internalType":"uint256"}],"anonymous":false},{"type":"event","name":"Settled","inputs":[{"name":"round","type":"uint256","indexed":true,"internalType":"uint256"},{"name":"feeGwei","type":"uint256","indexed":false,"internalType":"uint256"},{"name":"rakeWei","type":"uint256","indexed":false,"internalType":"uint256"},{"name":"bountyWei","type":"uint256","indexed":false,"internalType":"uint256"}],"anonymous":false},{"type":"error","name":"ReentrancyGuardReentrantCall","inputs":[]}],"bytecode":{"object":"0x60c06040523461026357604051601f61173538819003918201601f19168301916001600160401b0383118484101761023b5780849260209460405283398101031261026357516001600160a01b038116908190036102635760015f553360805260a0526001545f19811461024f5760010180600155610e10420180421161024f5761119442019182821161024f57604051916101c083016001600160401b0381118482101761023b576040528183526020830192818452604081019385855260608201935f855260808301915f835260a08401965f885260c08501965f885260e08601975f895261010087019964174876e8008b526101208801965f88526101408901935f85526101608a01955f87526101808b01975f89526101a08c01995f8b525f52600360205260405f209b518c555160018c01555160028b01555160038a0155516004890155516005880155516006870155600786019751946002861015610227577fb5d8636ab45e6cac7a4a61cb7c77f77f61a454d73aa2e6139ff8dcaf463537e599606099600d9760ff8019835416911617905551600888015551600987015551600a86015551600b850155600c84019051151560ff801983541691161790555191015560015493604051918252602082015264174876e8006040820152a26040516114cd9081610268823960805181818161031d0152818161055a0152818161070901528181610af50152610e2b015260a051818181610a650152610d300152f35b634e487b7160e01b5f52602160045260245ffd5b634e487b7160e01b5f52604160045260245ffd5b634e487b7160e01b5f52601160045260245ffd5b5f80fdfe6080604052600436101561001a575b3615610018575f80fd5b005b5f3560e01c8063041f1e9014610ad457806311da60b414610aa557806317e931cf146106e557806322464d7314610a8957806328811f5914610a465780633b5fa1c414610a295780633d6ae3a7146106e55780633fc8ae06146108945780634ed71302146108775780634fe242511461085a57806359d58bcd1461083d5780635c975abb1461081b5780636540742f146107fa5780636641ea08146103965780638c65c81f1461072d5780638da5cb5b146106ea578063a556eb82146106e5578063b99d6e2914610667578063be9ebe6d1461064c578063c7b0e4cf1461062f578063cea848451461039b578063d6f0d29014610396578063e8740b51146102ff5763f14fcbc80361000e5760203660031901126102fb5761014160ff6008541615610c55565b600154805f526003602052600160405f2001544210156102cd57662386f26fc1000034106102a257805f52600260205260405f206001600160a01b0333165f5260205260405f205461027757604051906080820182811067ffffffffffffffff8211176102635760405260043582526002602083019234845260408101935f855260608201935f85525f528260205260405f206001600160a01b0333165f5260205260405f2091518255516001820155019151600281101561024f576102079083610c97565b51151561ff0082549160081b169061ff001916179055600154604051903482527f094925310677b39991f64178494fad708beb62f73f36bb0baa493476ecf5870960203393a3005b634e487b7160e01b5f52602160045260245ffd5b634e487b7160e01b5f52604160045260245ffd5b60405162461bcd60e51b815260206004820152600360248201526206475760ec1b6044820152606490fd5b606460405162461bcd60e51b8152602060048201526004602482015263191d5cdd60e21b6044820152fd5b60405162461bcd60e51b815260206004820152600660248201526518db1bdcd95960d21b6044820152606490fd5b5f80fd5b346102fb5760203660031901126102fb576103446001600160a01b037f0000000000000000000000000000000000000000000000000000000000000000163314610c01565b600554600154809110156103615760055542600655600480359055005b60405162461bcd60e51b815260206004820152600d60248201526c636f6d6d69742065786973747360981b6044820152606490fd5b610bd8565b346102fb5760603660031901126102fb5760043560243560028110156102fb576103c3611020565b6103d260ff6008541615610c55565b815f52600360205260405f2060ff600c82015416156105fe57825f52600260205260405f206001600160a01b0333165f5260205260405f20906004810154159081156105f1575b825461050757501561048d5760019150015490805f52600260205260405f206001600160a01b0333165f526020525f600160408220015561045a82336111bf565b6040519182527f21e12a7cad0da5928167e1084ea4d5fdf8d9af66657a2543a9ac76a0ca08147760203393a35b60015f55005b50815f52600260205260405f206001600160a01b0333165f5260205260ff600260405f20015416600281101561024f57036104d2576104cd903390611243565b610487565b60405162461bcd60e51b815260206004820152600d60248201526c0e6d2c8ca5adad2e6dac2e8c6d609b1b6044820152606490fd5b90506002919250015461038481018091116105dd574211156105b057600161057e910154825f52600260205260405f206001600160a01b0333165f526020525f60026040822082815582600182015501557f00000000000000000000000000000000000000000000000000000000000000006111bf565b604051905f82527f21e12a7cad0da5928167e1084ea4d5fdf8d9af66657a2543a9ac76a0ca08147760203393a3610487565b60405162461bcd60e51b8152602060048201526005602482015264677261636560d81b6044820152606490fd5b634e487b7160e01b5f52601160045260245ffd5b6005810154159150610419565b60405162461bcd60e51b81526020600482015260096024820152681d5b9cd95d1d1b195960ba1b6044820152606490fd5b346102fb575f3660031901126102fb576020600454604051908152f35b346102fb575f3660031901126102fb576020604051600a8152f35b346102fb5760403660031901126102fb576024356001600160a01b03811681036102fb576004355f5260026020526001600160a01b0360405f2091165f52602052608060405f2060ff815491600260018201549101549060405193845260208401526106d860408401838316610bf4565b60081c1615156060820152f35b610bbc565b346102fb575f3660031901126102fb5760206040516001600160a01b037f0000000000000000000000000000000000000000000000000000000000000000168152f35b346102fb5760203660031901126102fb576004355f52600360205260405f2080549060018101549060028101546003820154600483015460058401546006850154600786015460ff1690600887015492600988015494600a89015496600b8a015498600c8b015460ff169a600d01549b604051809e81526020015260408d015260608c015260808b015260a08a015260c089015260e088016107ce91610bf4565b61010087015261012086015261014085015261016084015215156101808301526101a08201526101c090f35b346102fb575f3660031901126102fb576020604051662386f26fc100008152f35b346102fb575f3660031901126102fb57602060ff600854166040519015158152f35b346102fb575f3660031901126102fb576020600754604051908152f35b346102fb575f3660031901126102fb576020600154604051908152f35b346102fb575f3660031901126102fb576020600554604051908152f35b346102fb5760403660031901126102fb5760043560028110156102fb576108c060ff6008541615610c55565b600154805f52600360205260405f2090600182015442101580610a1c575b156109ed575f52600260205260405f206001600160a01b0333165f5260205260405f2090815460405160208101903360601b82528560f81b6034820152602435603582015260358152610932605582610c33565b519020036109c257826109a757610953600460018401549201918254610c8a565b90555b5f81556109668260028301610c97565b6001805491015461097a6040518094610bf4565b60208301527f0447986cbc4e3a2a59f15d77a0b5c7ade84117a770c448cab35f1cf38a8663fa60403393a3005b6109bb600560018401549201918254610c8a565b9055610956565b60405162461bcd60e51b815260206004820152600360248201526218985960ea1b6044820152606490fd5b60405162461bcd60e51b8152602060048201526007602482015266085c995d99585b60ca1b6044820152606490fd5b50600282015442106108de565b346102fb575f3660031901126102fb576020600654604051908152f35b346102fb575f3660031901126102fb5760206040516001600160a01b037f0000000000000000000000000000000000000000000000000000000000000000168152f35b346102fb575f3660031901126102fb5760206040516101f48152f35b346102fb575f3660031901126102fb57610abd611020565b610acc60ff6008541615610c55565b610487610cc7565b346102fb5760403660031901126102fb57600435610b1c6001600160a01b037f0000000000000000000000000000000000000000000000000000000000000000163314610c01565b60055460015403610b8b576004546040516020810190838252602435604082015260408152610b4c606082610c33565b51902003610b5957600755005b60405162461bcd60e51b815260206004820152600a602482015269189859081c995d99585b60b21b6044820152606490fd5b60405162461bcd60e51b81526020600482015260096024820152681b9bc818dbdb5b5a5d60ba1b6044820152606490fd5b346102fb575f3660031901126102fb5760206040516103848152f35b346102fb575f3660031901126102fb576020604051610e108152f35b90600282101561024f5752565b15610c0857565b606460405162461bcd60e51b815260206004820152600460248201526310b7bbb760e11b6044820152fd5b90601f8019910116810190811067ffffffffffffffff82111761026357604052565b15610c5c57565b60405162461bcd60e51b81526020600482015260066024820152651c185d5cd95960d21b6044820152606490fd5b919082018092116105dd57565b90600281101561024f5760ff80198354169116179055565b906101f48202918083046101f414901517156105dd57565b600154805f52600360205260405f2060028101544210610fef57600c81019081549260ff8416610fc45760055403610fb957600654610e1081018091116105dd57421015610fb95760075480156109ed57915b6040516303e0818560e61b8152936020856004817f00000000000000000000000000000000000000000000000000000000000000006001600160a01b03165afa948515610fae575f95610f7a575b508415610f4757642e90edd0008511610f0257600a8301859055600b830185905560ff1916600117905560088101548310610ef857610dab5f5b60078301610c97565b6004810154906005810154610dc08184610c8a565b9215908115610eef575b50610e9857600a820290828204600a14831517156105dd57610e8794610e1b93600d612710807f0b88c5bd74fc625a4f651904bf835063c6a449220be319924685261fb7709dd59604968793610caf565b0493015583610e89575b610e4f827f00000000000000000000000000000000000000000000000000000000000000006111bf565b610e7360015494604051938493846040919493926060820195825260208201520152565b0390a25f6007555f6005555f60045561103e565b565b610e9384336111bf565b610e25565b610e87939150600d5f9101557f0b88c5bd74fc625a4f651904bf835063c6a449220be319924685261fb7709dd56060600154926040519081525f60208201525f6040820152a25f6007555f6005555f60045561103e565b9050155f610dca565b610dab6001610da2565b60405162461bcd60e51b815260206004820152601060248201527f6665652d6f75742d6f662d72616e6765000000000000000000000000000000006044820152606490fd5b60405162461bcd60e51b815260206004820152600b60248201526a1999594b5b9bdd0b5cd95d60aa1b6044820152606490fd5b9094506020813d602011610fa6575b81610f9660209383610c33565b810103126102fb5751935f610d68565b3d9150610f89565b6040513d5f823e3d90fd5b600881015491610d1a565b606460405162461bcd60e51b8152602060048201526004602482015263646f6e6560e01b6044820152fd5b60405162461bcd60e51b8152602060048201526009602482015268746f6f206561726c7960b81b6044820152606490fd5b60025f541461102f5760025f55565b633ee5aeb560e01b5f5260045ffd5b6001545f1981146105dd5760010180600155610e1042018042116105dd576111944201908181116105dd576040516101c0810181811067ffffffffffffffff821117610263576040528381526020810193828552604082019084825260608301955f875260808401925f845260a08501975f895260c086015f815260e08701905f825261010088019a8c8c526101208901975f89526101408a01945f86526101608b01965f88526101808c01985f8a526101a08d019a5f8c525f52600360205260405f209c518d555160018d01555160028c01555160038b01555160048a01555160058901555160068801555194600286101561024f577fb5d8636ab45e6cac7a4a61cb7c77f77f61a454d73aa2e6139ff8dcaf463537e599611166600d9760078a01610c97565b51600888015551600987015551600a86015551600b850155600c84019051151560ff80198354169116179055519101556111ba60015494604051938493846040919493926060820195825260208201520152565b0390a2565b5f80809381935af13d15611231573d67ffffffffffffffff811161026357604051906111f5601f8201601f191660200183610c33565b81525f60203d92013e5b1561120657565b606460405162461bcd60e51b81526020600482015260046024820152633c3332b960e11b6044820152fd5b6111ff565b919082039182116105dd57565b805f52600360205260405f20815f52600260205260405f206001600160a01b0384165f5260205260ff600260405f20015416600a82015460088301541180159182611484575b821561145f575b5050156114345760ff600782015416600281101561024f5715908115611429576004810154915b1561141e576005810154905b600481018054158015611412575b6113e1578160056112f06112f99360066112ff97960154905490611236565b91015490611236565b90610c8a565b5f8381526002602090815260408083206001600160a01b03881684529091529020600101548181029181830414811517156105dd5782156113cd576113c16113756001600160a01b03927f5f7341a552ae2d452b071917104c05fbac3663936a69be768a05c40605056e7d956020950490610c8a565b61271061138182610caf565b0490865f526002855260405f208489165f528552600260405f200161010061ff00198254161790556113bc6113b68383611236565b896111bf565b611236565b946040519586521693a3565b634e487b7160e01b5f52601260045260245ffd5b5050505090610e87915f52600260205260405f206001600160a01b0382165f52602052600160405f200154906111bf565b506005820154156112d1565b6004810154906112c3565b6005810154916112b7565b606460405162461bcd60e51b81526020600482015260046024820152636c6f736560e01b6044820152fd5b90915081611470575b505f80611290565b9050600281101561024f576001145f611468565b9150600282101561024f5781159161128956fea264697066735822122064f0e1d986c217b71aa41563e1a14b6dd0284d4608be7fd7968762cda7ea287a64736f6c634300081e0033","linkReferences":{}},"methodIdentifiers":{"F()":"28811f59","GRACE_NONREVEAL()":"a556eb82","MIN_BET()":"6540742f","RAKE_BP()":"22464d73","REVEAL_TIMEOUT()":"3d6ae3a7","REVEAL_WINDOW()":"17e931cf","ROUND_DURATION()":"6641ea08","SETTLE_BOUNTY_BP()":"be9ebe6d","THRESHOLD_REVEAL_TIMEOUT()":"d6f0d290","claim(uint256,uint8,bytes32)":"cea84845","commit(bytes32)":"f14fcbc8","commitRound()":"4ed71302","commitThreshold(bytes32)":"e8740b51","commitTs()":"3b5fa1c4","cur()":"4fe24251","nextThreshold()":"59d58bcd","owner()":"8da5cb5b","paused()":"5c975abb","reveal(uint8,bytes32)":"3fc8ae06","revealThreshold(uint256,uint256)":"041f1e90","rounds(uint256)":"8c65c81f","settle()":"11da60b4","thresholdCommit()":"c7b0e4cf","tickets(uint256,address)":"b99d6e29"},"id":2}