{"abi":[{"type":"constructor","inputs":[{"name":"oracle","type":"address","internalType":"address"}],"stateMutability":"nonpayable"},{"type":"receive","stateMutability":"payable"},{"type":"function","name":"F","inputs":[],"outputs":[{"name":"","type":"address","internalType":"contract IBlobBaseFee"}],"stateMutability":"view"},{"type":"function","name":"GRACE_NONREVEAL","inputs":[],"outputs":[{"name":"","type":"uint256","internalType":"uint256"}],"stateMutability":"view"},{"type":"function","name":"MAX_BET_PER_ADDRESS","inputs":[],"outputs":[{"name":"","type":"uint256","internalType":"uint256"}],"stateMutability":"view"},{"type":"function","name":"MAX_INDIVIDUAL_POSITION_RATIO","inputs":[],"outputs":[{"name":"","type":"uint256","internalType":"uint256"}],"stateMutability":"view"},{"type":"function","name":"MAX_TOTAL_POSITION_RATIO","inputs":[],"outputs":[{"name":"","type":"uint256","internalType":"uint256"}],"stateMutability":"view"},{"type":"function","name":"MIN_BET","inputs":[],"outputs":[{"name":"","type":"uint256","internalType":"uint256"}],"stateMutability":"view"},{"type":"function","name":"RAKE_BP","inputs":[],"outputs":[{"name":"","type":"uint16","internalType":"uint16"}],"stateMutability":"view"},{"type":"function","name":"REVEAL_TIMEOUT","inputs":[],"outputs":[{"name":"","type":"uint256","internalType":"uint256"}],"stateMutability":"view"},{"type":"function","name":"REVEAL_WINDOW","inputs":[],"outputs":[{"name":"","type":"uint256","internalType":"uint256"}],"stateMutability":"view"},{"type":"function","name":"ROUND_DURATION","inputs":[],"outputs":[{"name":"","type":"uint256","internalType":"uint256"}],"stateMutability":"view"},{"type":"function","name":"SETTLE_BOUNTY_BP","inputs":[],"outputs":[{"name":"","type":"uint16","internalType":"uint16"}],"stateMutability":"view"},{"type":"function","name":"THRESHOLD_REVEAL_TIMEOUT","inputs":[],"outputs":[{"name":"","type":"uint256","internalType":"uint256"}],"stateMutability":"view"},{"type":"function","name":"claim","inputs":[{"name":"roundId","type":"uint256","internalType":"uint256"},{"name":"side","type":"uint8","internalType":"enum CommitRevealBSP.Side"},{"name":"salt","type":"bytes32","internalType":"bytes32"}],"outputs":[],"stateMutability":"nonpayable"},{"type":"function","name":"commit","inputs":[{"name":"h","type":"bytes32","internalType":"bytes32"}],"outputs":[],"stateMutability":"payable"},{"type":"function","name":"commitRound","inputs":[],"outputs":[{"name":"","type":"uint256","internalType":"uint256"}],"stateMutability":"view"},{"type":"function","name":"commitThreshold","inputs":[{"name":"h","type":"bytes32","internalType":"bytes32"}],"outputs":[],"stateMutability":"nonpayable"},{"type":"function","name":"commitTs","inputs":[],"outputs":[{"name":"","type":"uint256","internalType":"uint256"}],"stateMutability":"view"},{"type":"function","name":"cur","inputs":[],"outputs":[{"name":"","type":"uint256","internalType":"uint256"}],"stateMutability":"view"},{"type":"function","name":"lastRoundParticipated","inputs":[{"name":"","type":"address","internalType":"address"}],"outputs":[{"name":"","type":"uint256","internalType":"uint256"}],"stateMutability":"view"},{"type":"function","name":"nextThreshold","inputs":[],"outputs":[{"name":"","type":"uint256","internalType":"uint256"}],"stateMutability":"view"},{"type":"function","name":"owner","inputs":[],"outputs":[{"name":"","type":"address","internalType":"address"}],"stateMutability":"view"},{"type":"function","name":"paused","inputs":[],"outputs":[{"name":"","type":"bool","internalType":"bool"}],"stateMutability":"view"},{"type":"function","name":"reveal","inputs":[{"name":"side","type":"uint8","internalType":"enum CommitRevealBSP.Side"},{"name":"salt","type":"bytes32","internalType":"bytes32"}],"outputs":[],"stateMutability":"nonpayable"},{"type":"function","name":"revealThreshold","inputs":[{"name":"thr","type":"uint256","internalType":"uint256"},{"name":"salt","type":"uint256","internalType":"uint256"}],"outputs":[],"stateMutability":"nonpayable"},{"type":"function","name":"roundBets","inputs":[{"name":"","type":"address","internalType":"address"}],"outputs":[{"name":"","type":"uint256","internalType":"uint256"}],"stateMutability":"view"},{"type":"function","name":"rounds","inputs":[{"name":"","type":"uint256","internalType":"uint256"}],"outputs":[{"name":"id","type":"uint256","internalType":"uint256"},{"name":"closeTs","type":"uint256","internalType":"uint256"},{"name":"revealTs","type":"uint256","internalType":"uint256"},{"name":"settleTs","type":"uint256","internalType":"uint256"},{"name":"hiTotal","type":"uint256","internalType":"uint256"},{"name":"loTotal","type":"uint256","internalType":"uint256"},{"name":"totalCommits","type":"uint256","internalType":"uint256"},{"name":"winner","type":"uint8","internalType":"enum CommitRevealBSP.Side"},{"name":"threshold","type":"uint256","internalType":"uint256"},{"name":"thresholdCommit","type":"bytes32","internalType":"bytes32"},{"name":"feeResult","type":"uint256","internalType":"uint256"},{"name":"settlePriceGwei","type":"uint256","internalType":"uint256"},{"name":"settled","type":"bool","internalType":"bool"},{"name":"bounty","type":"uint256","internalType":"uint256"}],"stateMutability":"view"},{"type":"function","name":"settle","inputs":[],"outputs":[],"stateMutability":"nonpayable"},{"type":"function","name":"thresholdCommit","inputs":[],"outputs":[{"name":"","type":"bytes32","internalType":"bytes32"}],"stateMutability":"view"},{"type":"function","name":"tickets","inputs":[{"name":"","type":"uint256","internalType":"uint256"},{"name":"","type":"address","internalType":"address"}],"outputs":[{"name":"commit","type":"bytes32","internalType":"bytes32"},{"name":"amount","type":"uint256","internalType":"uint256"},{"name":"side","type":"uint8","internalType":"enum CommitRevealBSP.Side"},{"name":"claimed","type":"bool","internalType":"bool"}],"stateMutability":"view"},{"type":"event","name":"Commit","inputs":[{"name":"round","type":"uint256","indexed":true,"internalType":"uint256"},{"name":"user","type":"address","indexed":true,"internalType":"address"},{"name":"amount","type":"uint256","indexed":false,"internalType":"uint256"}],"anonymous":false},{"type":"event","name":"NewRound","inputs":[{"name":"round","type":"uint256","indexed":true,"internalType":"uint256"},{"name":"closeTs","type":"uint256","indexed":false,"internalType":"uint256"},{"name":"revealTs","type":"uint256","indexed":false,"internalType":"uint256"},{"name":"thresholdGwei","type":"uint256","indexed":false,"internalType":"uint256"}],"anonymous":false},{"type":"event","name":"Payout","inputs":[{"name":"round","type":"uint256","indexed":true,"internalType":"uint256"},{"name":"user","type":"address","indexed":true,"internalType":"address"},{"name":"amount","type":"uint256","indexed":false,"internalType":"uint256"}],"anonymous":false},{"type":"event","name":"Refund","inputs":[{"name":"round","type":"uint256","indexed":true,"internalType":"uint256"},{"name":"user","type":"address","indexed":true,"internalType":"address"},{"name":"amount","type":"uint256","indexed":false,"internalType":"uint256"}],"anonymous":false},{"type":"event","name":"Reveal","inputs":[{"name":"round","type":"uint256","indexed":true,"internalType":"uint256"},{"name":"user","type":"address","indexed":true,"internalType":"address"},{"name":"side","type":"uint8","indexed":false,"internalType":"enum CommitRevealBSP.Side"},{"name":"amount","type":"uint256","indexed":false,"internalType":"uint256"}],"anonymous":false},{"type":"event","name":"Settled","inputs":[{"name":"round","type":"uint256","indexed":true,"internalType":"uint256"},{"name":"feeGwei","type":"uint256","indexed":false,"internalType":"uint256"},{"name":"rakeWei","type":"uint256","indexed":false,"internalType":"uint256"},{"name":"bountyWei","type":"uint256","indexed":false,"internalType":"uint256"}],"anonymous":false},{"type":"error","name":"PoolHasNoWinners","inputs":[]},{"type":"error","name":"ReentrancyGuardReentrantCall","inputs":[]}],"bytecode":{"object":"0x60c06040523461026357604051601f611b3e38819003918201601f19168301916001600160401b0383118484101761023b5780849260209460405283398101031261026357516001600160a01b038116908190036102635760015f553360805260a0526001545f19811461024f5760010180600155610e10420180421161024f57610f3c42019182821161024f57604051916101c083016001600160401b0381118482101761023b576040528183526020830192818452604081019385855260608201935f855260808301915f835260a08401965f885260c08501965f885260e08601975f895261010087019964174876e8008b526101208801965f88526101408901935f85526101608a01955f87526101808b01975f89526101a08c01995f8b525f52600360205260405f209b518c555160018c01555160028b01555160038a0155516004890155516005880155516006870155600786019751946002861015610227577fb5d8636ab45e6cac7a4a61cb7c77f77f61a454d73aa2e6139ff8dcaf463537e599606099600d9760ff8019835416911617905551600888015551600987015551600a86015551600b850155600c84019051151560ff801983541691161790555191015560015493604051918252602082015264174876e8006040820152a26040516118d690816102688239608051818181610452015281816106cb015281816108d901528181610ec30152611248015260a051818181610e1701526111250152f35b634e487b7160e01b5f52602160045260245ffd5b634e487b7160e01b5f52604160045260245ffd5b634e487b7160e01b5f52601160045260245ffd5b5f80fdfe6080604052600436101561001a575b3615610018575f80fd5b005b5f3560e01c8063041f1e9014610ea257806311da60b414610e7357806317e931cf14610e5757806322464d7314610e3b57806328811f5914610df85780633b5fa1c414610ddb5780633d6ae3a7146108b55780633fc8ae0614610af657806341b99b4314610abe5780634ed7130214610aa15780634fe2425114610a8457806352e799d414610a6257806359d58bcd14610a455780635c975abb14610a235780636540742f14610a025780636641ea08146109e65780637fe74617146109ca5780638c65c81f146108fd5780638da5cb5b146108ba578063a556eb82146108b5578063b99d6e2914610837578063be9ebe6d1461081c578063c7b0e4cf146107ff578063c9bc7be7146107c7578063cea8484514610503578063d6f0d290146104e7578063df88b21a146104cb578063e8740b51146104345763f14fcbc80361000e5760203660031901126104305761017860ff600a54161561101d565b600154805f52600360205260405f2090600182015442101561040257662386f26fc1000034106103d757678ac7230489e8000034116103a657805f52600260205260405f206001600160a01b0333165f5260205260405f205461037b57335f52600960205260405f205403610358575b335f526008602052678ac7230489e800006102073460405f2054611052565b1161032357335f52600860205260405f20610223348254611052565b9055604051906080820182811067ffffffffffffffff82111761030f5760405260043582526020820191348352600260408201915f835260608101945f86526001545f528260205260405f206001600160a01b0333165f5260205260405f20915182555160018201550190519260028410156102fb576102a56006948361105f565b51151561ff0082549160081b169061ff001916179055016102c7348254611052565b9055600154604051903482527f094925310677b39991f64178494fad708beb62f73f36bb0baa493476ecf5870960203393a3005b634e487b7160e01b5f52602160045260245ffd5b634e487b7160e01b5f52604160045260245ffd5b60405162461bcd60e51b815260206004820152600d60248201526c1859191c995cdccb5b1a5b5a5d609a1b6044820152606490fd5b335f5260086020525f6040812055600154335f52600960205260405f20556101e8565b60405162461bcd60e51b815260206004820152600360248201526206475760ec1b6044820152606490fd5b60405162461bcd60e51b8152602060048201526009602482015268746f6f2d6c6172676560b81b6044820152606490fd5b606460405162461bcd60e51b8152602060048201526004602482015263191d5cdd60e21b6044820152fd5b60405162461bcd60e51b815260206004820152600660248201526518db1bdcd95960d21b6044820152606490fd5b5f80fd5b34610430576020366003190112610430576104796001600160a01b037f0000000000000000000000000000000000000000000000000000000000000000163314610fc9565b600554600154809110156104965760055542600655600480359055005b60405162461bcd60e51b815260206004820152600d60248201526c636f6d6d69742065786973747360981b6044820152606490fd5b34610430575f3660031901126104305760206040516123288152f35b34610430575f3660031901126104305760206040516115188152f35b346104305760603660031901126104305760043560243560028110156104305761052b61151e565b61053a60ff600a54161561101d565b815f52600360205260405f2060ff600c820154161561079657825f52600260205260405f206001600160a01b0333165f5260205260405f20906004810154908115918215610789575b82610762575b5082546106785750156105fe5760019150015490805f52600260205260405f206001600160a01b0333165f526020525f60016040822001556105cb82336116bd565b6040519182527f21e12a7cad0da5928167e1084ea4d5fdf8d9af66657a2543a9ac76a0ca08147760203393a35b60015f55005b50815f52600260205260405f206001600160a01b0333165f5260205260ff600260405f2001541660028110156102fb57036106435761063e903390611734565b6105f8565b60405162461bcd60e51b815260206004820152600d60248201526c0e6d2c8ca5adad2e6dac2e8c6d609b1b6044820152606490fd5b905060029192500154610384810180911161074e574211156107215760016106ef910154825f52600260205260405f206001600160a01b0333165f526020525f60026040822082815582600182015501557f00000000000000000000000000000000000000000000000000000000000000006116bd565b604051905f82527f21e12a7cad0da5928167e1084ea4d5fdf8d9af66657a2543a9ac76a0ca08147760203393a36105f8565b60405162461bcd60e51b8152602060048201526005602482015264677261636560d81b6044820152606490fd5b634e487b7160e01b5f52601160045260245ffd5b819250610776906006610781930154611077565b600583015490611077565b159085610589565b6005820154159250610583565b60405162461bcd60e51b81526020600482015260096024820152681d5b9cd95d1d1b195960ba1b6044820152606490fd5b34610430576020366003190112610430576001600160a01b036107e8610fa6565b165f526009602052602060405f2054604051908152f35b34610430575f366003190112610430576020600454604051908152f35b34610430575f366003190112610430576020604051600a8152f35b34610430576040366003190112610430576024356001600160a01b0381168103610430576004355f5260026020526001600160a01b0360405f2091165f52602052608060405f2060ff815491600260018201549101549060405193845260208401526108a860408401838316610fbc565b60081c1615156060820152f35b610f8a565b34610430575f3660031901126104305760206040516001600160a01b037f0000000000000000000000000000000000000000000000000000000000000000168152f35b34610430576020366003190112610430576004355f52600360205260405f2080549060018101549060028101546003820154600483015460058401546006850154600786015460ff1690600887015492600988015494600a89015496600b8a015498600c8b015460ff169a600d01549b604051809e81526020015260408d015260608c015260808b015260a08a015260c089015260e0880161099e91610fbc565b61010087015261012086015261014085015261016084015215156101808301526101a08201526101c090f35b34610430575f366003190112610430576020604051611d4c8152f35b34610430575f366003190112610430576020604051610e108152f35b34610430575f366003190112610430576020604051662386f26fc100008152f35b34610430575f36600319011261043057602060ff600a54166040519015158152f35b34610430575f366003190112610430576020600754604051908152f35b34610430575f366003190112610430576020604051678ac7230489e800008152f35b34610430575f366003190112610430576020600154604051908152f35b34610430575f366003190112610430576020600554604051908152f35b34610430576020366003190112610430576001600160a01b03610adf610fa6565b165f526008602052602060405f2054604051908152f35b3461043057604036600319011261043057600435600281101561043057610b2260ff600a54161561101d565b600154805f52600360205260405f2090600182015442101580610dce575b15610d9f575f52600260205260405f206001600160a01b0333165f5260205260405f2080548015610d6f5760405160208101903360601b82528560f81b6034820152602435603582015260358152610b99605582610ffb565b51902003610d4457600482019060058254930192835491610bba8383611052565b936001820195610bcc87548097611052565b881594878615610d0057610bdf91611052565b612710810290808204612710149015171561074e57611d4c8202828104611d4c148315171561074e57610c139111156114d2565b6127108702878104612710148815171561074e57612328820291808304612328149015171561074e5711610cbb57610c6a95889560029515610ca957505050610c5e86548254611052565b90555b5f81550161105f565b6001549054610c7c6040518094610fbc565b60208301527f0447986cbc4e3a2a59f15d77a0b5c7ade84117a770c448cab35f1cf38a8663fa60403393a3005b610cb4929350611052565b9055610c61565b60405162461bcd60e51b815260206004820152601060248201527f696e646976696475616c2d6c696d6974000000000000000000000000000000006044820152606490fd5b610d0b915087611052565b612710810290808204612710149015171561074e57611d4c8202828104611d4c148315171561074e57610d3f9111156114d2565b610c13565b60405162461bcd60e51b815260206004820152600360248201526218985960ea1b6044820152606490fd5b60405162461bcd60e51b81526020600482015260086024820152671c995d99585b195960c21b6044820152606490fd5b60405162461bcd60e51b8152602060048201526007602482015266085c995d99585b60ca1b6044820152606490fd5b5060028201544210610b40565b34610430575f366003190112610430576020600654604051908152f35b34610430575f3660031901126104305760206040516001600160a01b037f0000000000000000000000000000000000000000000000000000000000000000168152f35b34610430575f3660031901126104305760206040516101f48152f35b34610430575f36600319011261043057602060405161012c8152f35b34610430575f36600319011261043057610e8b61151e565b610e9a60ff600a54161561101d565b6105f861109c565b3461043057604036600319011261043057600435610eea6001600160a01b037f0000000000000000000000000000000000000000000000000000000000000000163314610fc9565b60055460015403610f59576004546040516020810190838252602435604082015260408152610f1a606082610ffb565b51902003610f2757600755005b60405162461bcd60e51b815260206004820152600a602482015269189859081c995d99585b60b21b6044820152606490fd5b60405162461bcd60e51b81526020600482015260096024820152681b9bc818dbdb5b5a5d60ba1b6044820152606490fd5b34610430575f3660031901126104305760206040516103848152f35b600435906001600160a01b038216820361043057565b9060028210156102fb5752565b15610fd057565b606460405162461bcd60e51b815260206004820152600460248201526310b7bbb760e11b6044820152fd5b90601f8019910116810190811067ffffffffffffffff82111761030f57604052565b1561102457565b60405162461bcd60e51b81526020600482015260066024820152651c185d5cd95960d21b6044820152606490fd5b9190820180921161074e57565b9060028110156102fb5760ff80198354169116179055565b9190820391821161074e57565b906101f48202918083046101f4149015171561074e57565b600154805f52600360205260405f20906002820154918242106114a157600c81019182549360ff8516611476576110e090620186a042101561142e57600190611052565b42106113e957600554036113de57600654611518810180911161074e574210156113de576007548015610d9f57915b6040516303e0818560e61b8152936020856004817f00000000000000000000000000000000000000000000000000000000000000006001600160a01b03165afa9485156113d3575f9561139f575b50841561136c57642e90edd000851161132757600a8301859055600b830185905560ff191660011790556008810154831061131d576111a05f5b6007830161105f565b600481015460058201546111b48183611052565b906111cc816111c7856006880154611077565b611077565b9215908115611314575b508061130c575b6112b557906111eb91611052565b90600a820290828204600a148315171561074e576112a49461123893600d612710807f0b88c5bd74fc625a4f651904bf835063c6a449220be319924685261fb7709dd59604968793611084565b04930155836112a6575b61126c827f00000000000000000000000000000000000000000000000000000000000000006116bd565b61129060015494604051938493846040919493926060820195825260208201520152565b0390a25f6007555f6005555f60045561153c565b565b6112b084336116bd565b611242565b5050915f600d6112a49401557f0b88c5bd74fc625a4f651904bf835063c6a449220be319924685261fb7709dd56060600154926040519081525f60208201525f6040820152a25f6007555f6005555f60045561153c565b5081156111dd565b9050155f6111d6565b6111a06001611197565b60405162461bcd60e51b815260206004820152601060248201527f6665652d6f75742d6f662d72616e6765000000000000000000000000000000006044820152606490fd5b60405162461bcd60e51b815260206004820152600b60248201526a1999594b5b9bdd0b5cd95d60aa1b6044820152606490fd5b9094506020813d6020116113cb575b816113bb60209383610ffb565b810103126104305751935f61115d565b3d91506113ae565b6040513d5f823e3d90fd5b60088101549161110f565b60405162461bcd60e51b815260206004820152601060248201527f736574746c656d656e742d64656c6179000000000000000000000000000000006044820152606490fd5b61025860048501546005860154604051906020820192428452446040840152876060840152608083015260a082015260a0815261146c60c082610ffb565b5190200690611052565b606460405162461bcd60e51b8152602060048201526004602482015263646f6e6560e01b6044820152fd5b60405162461bcd60e51b8152602060048201526009602482015268746f6f206561726c7960b81b6044820152606490fd5b156114d957565b60405162461bcd60e51b815260206004820152600e60248201527f706f736974696f6e2d6c696d69740000000000000000000000000000000000006044820152606490fd5b60025f541461152d5760025f55565b633ee5aeb560e01b5f5260045ffd5b6001545f19811461074e5760010180600155610e10420180421161074e57610f3c42019081811161074e576040516101c0810181811067ffffffffffffffff82111761030f576040528381526020810193828552604082019084825260608301955f875260808401925f845260a08501975f895260c086015f815260e08701905f825261010088019a8c8c526101208901975f89526101408a01945f86526101608b01965f88526101808c01985f8a526101a08d019a5f8c525f52600360205260405f209c518d555160018d01555160028c01555160038b01555160048a0155516005890155516006880155519460028610156102fb577fb5d8636ab45e6cac7a4a61cb7c77f77f61a454d73aa2e6139ff8dcaf463537e599611664600d9760078a0161105f565b51600888015551600987015551600a86015551600b850155600c84019051151560ff80198354169116179055519101556116b860015494604051938493846040919493926060820195825260208201520152565b0390a2565b5f80809381935af13d1561172f573d67ffffffffffffffff811161030f57604051906116f3601f8201601f191660200183610ffb565b81525f60203d92013e5b1561170457565b606460405162461bcd60e51b81526020600482015260046024820152633c3332b960e11b6044820152fd5b6116fd565b805f52600360205260405f2091815f52600260205260405f206001600160a01b0382165f5260205260405f209260028401805460ff8160081c166118715761ff001916610100179055600781015460ff1660028110156102fb5715908115611866576004810154915b821561185e576001916118059115611859575b6127106117fe6117f8600d6117ef60068601546117ea6117d560048901548093611077565b6117e460058a01548092611077565b92611052565b611052565b94015484611077565b92611084565b0490611077565b94015484810294818604149015171561074e576112a4930491604051908382527f5f7341a552ae2d452b071917104c05fbac3663936a69be768a05c40605056e7d60206001600160a01b03851693a36116bd565b6117b0565b505050505050565b60058101549161179d565b60405162461bcd60e51b815260206004820152600760248201526618db185a5b595960ca1b6044820152606490fdfea26469706673582212201d89c2bbc4cdd8e3234d9add50fb4bde1a6667fe6944c1c7bc82ce5cf30ba15364736f6c634300081e0033","linkReferences":{}},"methodIdentifiers":{"F()":"28811f59","GRACE_NONREVEAL()":"a556eb82","MAX_BET_PER_ADDRESS()":"52e799d4","MAX_INDIVIDUAL_POSITION_RATIO()":"df88b21a","MAX_TOTAL_POSITION_RATIO()":"7fe74617","MIN_BET()":"6540742f","RAKE_BP()":"22464d73","REVEAL_TIMEOUT()":"3d6ae3a7","REVEAL_WINDOW()":"17e931cf","ROUND_DURATION()":"6641ea08","SETTLE_BOUNTY_BP()":"be9ebe6d","THRESHOLD_REVEAL_TIMEOUT()":"d6f0d290","claim(uint256,uint8,bytes32)":"cea84845","commit(bytes32)":"f14fcbc8","commitRound()":"4ed71302","commitThreshold(bytes32)":"e8740b51","commitTs()":"3b5fa1c4","cur()":"4fe24251","lastRoundParticipated(address)":"c9bc7be7","nextThreshold()":"59d58bcd","owner()":"8da5cb5b","paused()":"5c975abb","reveal(uint8,bytes32)":"3fc8ae06","revealThreshold(uint256,uint256)":"041f1e90","roundBets(address)":"41b99b43","rounds(uint256)":"8c65c81f","settle()":"11da60b4","thresholdCommit()":"c7b0e4cf","tickets(uint256,address)":"b99d6e29"},"id":2}