{"abi":[{"type":"constructor","inputs":[{"name":"oracle","type":"address","internalType":"address"}],"stateMutability":"nonpayable"},{"type":"receive","stateMutability":"payable"},{"type":"function","name":"F","inputs":[],"outputs":[{"name":"","type":"address","internalType":"contract IBlobBaseFee"}],"stateMutability":"view"},{"type":"function","name":"GRACE_NONREVEAL","inputs":[],"outputs":[{"name":"","type":"uint256","internalType":"uint256"}],"stateMutability":"view"},{"type":"function","name":"MIN_BET","inputs":[],"outputs":[{"name":"","type":"uint256","internalType":"uint256"}],"stateMutability":"view"},{"type":"function","name":"RAKE_BP","inputs":[],"outputs":[{"name":"","type":"uint16","internalType":"uint16"}],"stateMutability":"view"},{"type":"function","name":"claim","inputs":[{"name":"id","type":"uint256","internalType":"uint256"},{"name":"side","type":"uint8","internalType":"enum CommitRevealBSP.Side"},{"name":"salt","type":"bytes32","internalType":"bytes32"}],"outputs":[],"stateMutability":"nonpayable"},{"type":"function","name":"commit","inputs":[{"name":"h","type":"bytes32","internalType":"bytes32"}],"outputs":[],"stateMutability":"payable"},{"type":"function","name":"cur","inputs":[],"outputs":[{"name":"","type":"uint256","internalType":"uint256"}],"stateMutability":"view"},{"type":"function","name":"owner","inputs":[],"outputs":[{"name":"","type":"address","internalType":"address"}],"stateMutability":"view"},{"type":"function","name":"reveal","inputs":[{"name":"side","type":"uint8","internalType":"enum CommitRevealBSP.Side"},{"name":"salt","type":"bytes32","internalType":"bytes32"}],"outputs":[],"stateMutability":"nonpayable"},{"type":"function","name":"rounds","inputs":[{"name":"","type":"uint256","internalType":"uint256"}],"outputs":[{"name":"openTs","type":"uint256","internalType":"uint256"},{"name":"closeTs","type":"uint256","internalType":"uint256"},{"name":"revealTs","type":"uint256","internalType":"uint256"},{"name":"hiPool","type":"uint256","internalType":"uint256"},{"name":"loPool","type":"uint256","internalType":"uint256"},{"name":"rake","type":"uint256","internalType":"uint256"},{"name":"thresholdGwei","type":"uint256","internalType":"uint256"},{"name":"feeResult","type":"uint256","internalType":"uint256"},{"name":"settled","type":"bool","internalType":"bool"}],"stateMutability":"view"},{"type":"function","name":"setNextThreshold","inputs":[{"name":"thr","type":"uint256","internalType":"uint256"}],"outputs":[],"stateMutability":"nonpayable"},{"type":"function","name":"settle","inputs":[],"outputs":[],"stateMutability":"nonpayable"},{"type":"function","name":"tickets","inputs":[{"name":"","type":"uint256","internalType":"uint256"},{"name":"","type":"address","internalType":"address"}],"outputs":[{"name":"commit","type":"bytes32","internalType":"bytes32"},{"name":"amount","type":"uint256","internalType":"uint256"}],"stateMutability":"view"},{"type":"event","name":"Commit","inputs":[{"name":"round","type":"uint256","indexed":true,"internalType":"uint256"},{"name":"user","type":"address","indexed":true,"internalType":"address"},{"name":"amount","type":"uint256","indexed":false,"internalType":"uint256"}],"anonymous":false},{"type":"event","name":"NewRound","inputs":[{"name":"round","type":"uint256","indexed":true,"internalType":"uint256"},{"name":"closeTs","type":"uint256","indexed":false,"internalType":"uint256"},{"name":"revealTs","type":"uint256","indexed":false,"internalType":"uint256"},{"name":"thresholdGwei","type":"uint256","indexed":false,"internalType":"uint256"}],"anonymous":false},{"type":"event","name":"Payout","inputs":[{"name":"round","type":"uint256","indexed":true,"internalType":"uint256"},{"name":"user","type":"address","indexed":true,"internalType":"address"},{"name":"amount","type":"uint256","indexed":false,"internalType":"uint256"}],"anonymous":false},{"type":"event","name":"Refund","inputs":[{"name":"round","type":"uint256","indexed":true,"internalType":"uint256"},{"name":"user","type":"address","indexed":true,"internalType":"address"},{"name":"amount","type":"uint256","indexed":false,"internalType":"uint256"}],"anonymous":false},{"type":"event","name":"Reveal","inputs":[{"name":"round","type":"uint256","indexed":true,"internalType":"uint256"},{"name":"user","type":"address","indexed":true,"internalType":"address"},{"name":"side","type":"uint8","indexed":false,"internalType":"enum CommitRevealBSP.Side"},{"name":"amount","type":"uint256","indexed":false,"internalType":"uint256"}],"anonymous":false},{"type":"event","name":"Settled","inputs":[{"name":"round","type":"uint256","indexed":true,"internalType":"uint256"},{"name":"feeGwei","type":"uint256","indexed":false,"internalType":"uint256"},{"name":"rakeWei","type":"uint256","indexed":false,"internalType":"uint256"}],"anonymous":false},{"type":"error","name":"ReentrancyGuardReentrantCall","inputs":[]}],"bytecode":{"object":"0x60c0604052346101dc57604051601f61109b38819003918201601f19168301916001600160401b038311848410176101b4578084926020946040528339810103126101dc57516001600160a01b038116908190036101dc5760015f553360805260a052600154600181018091116101c8578060015561012c4201908142116101c8576102584201918242116101c8576040516101208101929091906001600160401b038411838510176101b45760086060937fb5d8636ab45e6cac7a4a61cb7c77f77f61a454d73aa2e6139ff8dcaf463537e59560405242815260208101848152604082018881528683015f8152608084015f815260a08501915f835260c08601936019855260e08701955f87526101008801995f8b525f52600360205260405f2097518855516001880155516002870155516003860155516004850155516005840155516006830155516007820155019051151560ff8019835416911617905560015493604051918252602082015260196040820152a2604051610eba90816101e18239608051818181610608015281816106d5015281816107d30152610bc0015260a051818181610a4d0152610b1a0152f35b634e487b7160e01b5f52604160045260245ffd5b634e487b7160e01b5f52601160045260245ffd5b5f80fdfe6080604052600436101561001a575b3615610018575f80fd5b005b5f3560e01c806311da60b414610a8d57806322464d7314610a7157806328811f5914610a2e5780633fc8ae06146108bc5780634fe242511461089f5780636540742f1461087e5780638c65c81f146107f75780638da5cb5b146107b4578063a556eb8214610798578063b99d6e291461073f578063c4c8b35b146106ba578063cea84845146102025763f14fcbc80361000e5760203660031901126101fe57600154805f526003602052600160405f2001544210156101d0576100e6662386f26fc10000341015610d21565b805f52600260205260405f206001600160a01b0333165f5260205260405f20546101a55760405190604082019082821067ffffffffffffffff83111761019157600191604052600435835260208301903482525f52600260205260405f206001600160a01b0333165f5260205260405f209251835551910155600154604051903482527f094925310677b39991f64178494fad708beb62f73f36bb0baa493476ecf5870960203393a3005b634e487b7160e01b5f52604160045260245ffd5b60405162461bcd60e51b815260206004820152600360248201526206475760ec1b6044820152606490fd5b60405162461bcd60e51b815260206004820152600660248201526518db1bdcd95960d21b6044820152606490fd5b5f80fd5b346101fe5760603660031901126101fe57600435602435600281101590816101fe5761022c610d53565b825f52600360205260405f209060ff6008830154161561068957835f52600260205260405f206001600160a01b0333165f5260205260405f20916003810190815415918291831561067c575b8554610517575050505f1461033c5750600101546103e380820292508115918304141715610328576103e8900490805f52600260205260405f206001600160a01b0333165f526020525f6001604082200155815f811561031f575b5f80809381933390f115610314576040519182527f21e12a7cad0da5928167e1084ea4d5fdf8d9af66657a2543a9ac76a0ca08147760203393a35b60015f55005b6040513d5f823e3d90fd5b506108fc6102d3565b634e487b7160e01b5f52601160045260245ffd5b9050825f52600360205260405f209160078301546006840154118015928392839461050c575b83156104d3575b505050156104a8571561049a5761039e6003820154915b60056103956003830154600484015490610acf565b91015490610d14565b825f52600260205260405f206001600160a01b0333165f52602052600160405f20015490811561046f57835f52600260205260405f206001600160a01b0333165f526020525f60016040822001558082029182040361032857811561045b57049081801561040c8115610d21565b5f90610452575b5f80809381933390f115610314576040519182527f5f7341a552ae2d452b071917104c05fbac3663936a69be768a05c40605056e7d60203393a361030e565b506108fc610413565b634e487b7160e01b5f52601260045260245ffd5b606460405162461bcd60e51b81526020600482015260046024820152636e6f6e6560e01b6044820152fd5b61039e600482015491610380565b606460405162461bcd60e51b81526020600482015260046024820152636c6f736560e01b6044820152fd5b91925090826104e7575b5050848080610369565b9091506104f85760011484806104dd565b634e487b7160e01b5f52602160045260245ffd5b50801592505f610362565b9350939150949350600282015461038481018091116103285742111561064f576001015493605f8502858104605f148615171561032857606461055c91048096610d14565b9181610642575b50156105ef57610574908254610acf565b90555b805f52600260205260405f206001600160a01b0333165f526020525f6001604082208281550155815f81156105e6575b5f80809381933390f115610314576040519182527f21e12a7cad0da5928167e1084ea4d5fdf8d9af66657a2543a9ac76a0ca08147760203393a361030e565b506108fc6105a7565b5f808093508092818115610639575b6001600160a01b037f00000000000000000000000000000000000000000000000000000000000000001690f1610577576040513d5f823e3d90fd5b506108fc6105fe565b6004915001541585610563565b60405162461bcd60e51b8152602060048201526005602482015264677261636560d81b6044820152606490fd5b6004810154159350610278565b60405162461bcd60e51b81526020600482015260096024820152681d5b9cd95d1d1b195960ba1b6044820152606490fd5b346101fe5760203660031901126101fe576001600160a01b037f0000000000000000000000000000000000000000000000000000000000000000163303610714576001545f526003602052600435600660405f2001555f80f35b606460405162461bcd60e51b815260206004820152600460248201526310b7bbb760e11b6044820152fd5b346101fe5760403660031901126101fe576024356001600160a01b03811681036101fe576004355f5260026020526001600160a01b0360405f2091165f526020526040805f206001815491015482519182526020820152f35b346101fe575f3660031901126101fe5760206040516103848152f35b346101fe575f3660031901126101fe5760206040516001600160a01b037f0000000000000000000000000000000000000000000000000000000000000000168152f35b346101fe5760203660031901126101fe576004355f52600360205261012060405f2080549060018101549060028101546003820154600483015460058401549160068501549360ff600860078801549701541696604051988952602089015260408801526060870152608086015260a085015260c084015260e08301521515610100820152f35b346101fe575f3660031901126101fe576020604051662386f26fc100008152f35b346101fe575f3660031901126101fe576020600154604051908152f35b346101fe5760403660031901126101fe5760043560028110156101fe57600154805f52600360205260405f2090600182015442101580610a21575b156109f2575f52600260205260405f206001600160a01b0333165f5260205260405f2090815460405160208101903360601b82528560f81b603482015260243560358201526035815261094b605582610aad565b519020036109c757826109ac5761096c600360018401549201918254610acf565b90555b5f81556001805491015460405192835260208301527f0447986cbc4e3a2a59f15d77a0b5c7ade84117a770c448cab35f1cf38a8663fa60403393a3005b6109c0600460018401549201918254610acf565b905561096f565b60405162461bcd60e51b815260206004820152600360248201526218985960ea1b6044820152606490fd5b60405162461bcd60e51b8152602060048201526007602482015266085c995d99585b60ca1b6044820152606490fd5b50600282015442106108f7565b346101fe575f3660031901126101fe5760206040516001600160a01b037f0000000000000000000000000000000000000000000000000000000000000000168152f35b346101fe575f3660031901126101fe5760206040516101f48152f35b346101fe575f3660031901126101fe57610aa5610d53565b61030e610adc565b90601f8019910116810190811067ffffffffffffffff82111761019157604052565b9190820180921161032857565b6001545f52600360205260405f2060028101544210610ce3576008810180549060ff8216610cb8576040516303e0818560e61b8152916020836004817f00000000000000000000000000000000000000000000000000000000000000006001600160a01b03165afa928315610314575f93610c83575b506007840183905560ff1916600117905560038201546004830154610b778183610acf565b9115908115610c7a575b50610c32576101f48102908082046101f4149015171561032857612710900491826005820155825f8115610c29575b5f80809381936001600160a01b037f00000000000000000000000000000000000000000000000000000000000000001690f11561031457610c27927f321f57f44af402708b8b3bad0bd10012cd568d8696946e26edeb86178bb7c27e60406006946001549382519182526020820152a20154610d71565b565b506108fc610bb0565b50816006915f6005610c279501557f321f57f44af402708b8b3bad0bd10012cd568d8696946e26edeb86178bb7c27e60406001549281519081525f6020820152a20154610d71565b9050155f610b81565b9092506020813d602011610cb0575b81610c9f60209383610aad565b810103126101fe5751916001610b52565b3d9150610c92565b606460405162461bcd60e51b8152602060048201526004602482015263646f6e6560e01b6044820152fd5b60405162461bcd60e51b8152602060048201526009602482015268746f6f206561726c7960b81b6044820152606490fd5b9190820391821161032857565b15610d2857565b606460405162461bcd60e51b8152602060048201526004602482015263191d5cdd60e21b6044820152fd5b60025f5414610d625760025f55565b633ee5aeb560e01b5f5260045ffd5b60015460018101809111610328578060015561012c42019182421161032857610258420192834211610328576040519161012083019383851067ffffffffffffffff8611176101915760086060947fb5d8636ab45e6cac7a4a61cb7c77f77f61a454d73aa2e6139ff8dcaf463537e59660405242815260208101858152604082018981528783015f8152608084015f815260a08501915f835260c086019389855260e08701955f87526101008801995f8b525f52600360205260405f2097518855516001880155516002870155516003860155516004850155516005840155516006830155516007820155019051151560ff801983541691161790556001549460405192835260208301526040820152a256fea26469706673582212209cb21075041e115e19efaf9c721c32ebf331d94a18f148165c8f9134e4cb238764736f6c634300081e0033","linkReferences":{}},"methodIdentifiers":{"F()":"28811f59","GRACE_NONREVEAL()":"a556eb82","MIN_BET()":"6540742f","RAKE_BP()":"22464d73","claim(uint256,uint8,bytes32)":"cea84845","commit(bytes32)":"f14fcbc8","cur()":"4fe24251","owner()":"8da5cb5b","reveal(uint8,bytes32)":"3fc8ae06","rounds(uint256)":"8c65c81f","setNextThreshold(uint256)":"c4c8b35b","settle()":"11da60b4","tickets(uint256,address)":"b99d6e29"},"id":4}