{"abi":[{"type":"constructor","inputs":[{"name":"oracle","type":"address","internalType":"address"}],"stateMutability":"nonpayable"},{"type":"receive","stateMutability":"payable"},{"type":"function","name":"F","inputs":[],"outputs":[{"name":"","type":"address","internalType":"contract IBlobBaseFee"}],"stateMutability":"view"},{"type":"function","name":"RAKE_BP","inputs":[],"outputs":[{"name":"","type":"uint16","internalType":"uint16"}],"stateMutability":"view"},{"type":"function","name":"claim","inputs":[{"name":"id","type":"uint256","internalType":"uint256"},{"name":"side","type":"uint8","internalType":"enum CommitRevealBSP.Side"},{"name":"salt","type":"bytes32","internalType":"bytes32"}],"outputs":[],"stateMutability":"nonpayable"},{"type":"function","name":"commit","inputs":[{"name":"h","type":"bytes32","internalType":"bytes32"}],"outputs":[],"stateMutability":"payable"},{"type":"function","name":"cur","inputs":[],"outputs":[{"name":"","type":"uint256","internalType":"uint256"}],"stateMutability":"view"},{"type":"function","name":"owner","inputs":[],"outputs":[{"name":"","type":"address","internalType":"address"}],"stateMutability":"view"},{"type":"function","name":"reveal","inputs":[{"name":"side","type":"uint8","internalType":"enum CommitRevealBSP.Side"},{"name":"salt","type":"bytes32","internalType":"bytes32"}],"outputs":[],"stateMutability":"nonpayable"},{"type":"function","name":"rounds","inputs":[{"name":"","type":"uint256","internalType":"uint256"}],"outputs":[{"name":"openTs","type":"uint256","internalType":"uint256"},{"name":"closeTs","type":"uint256","internalType":"uint256"},{"name":"revealTs","type":"uint256","internalType":"uint256"},{"name":"hiPool","type":"uint256","internalType":"uint256"},{"name":"loPool","type":"uint256","internalType":"uint256"},{"name":"rake","type":"uint256","internalType":"uint256"},{"name":"thresholdGwei","type":"uint256","internalType":"uint256"},{"name":"feeResult","type":"uint256","internalType":"uint256"},{"name":"settled","type":"bool","internalType":"bool"}],"stateMutability":"view"},{"type":"function","name":"setNextThreshold","inputs":[{"name":"thr","type":"uint256","internalType":"uint256"}],"outputs":[],"stateMutability":"nonpayable"},{"type":"function","name":"settle","inputs":[],"outputs":[],"stateMutability":"nonpayable"},{"type":"function","name":"tickets","inputs":[{"name":"","type":"uint256","internalType":"uint256"},{"name":"","type":"address","internalType":"address"}],"outputs":[{"name":"commit","type":"bytes32","internalType":"bytes32"},{"name":"amount","type":"uint256","internalType":"uint256"}],"stateMutability":"view"},{"type":"event","name":"Commit","inputs":[{"name":"round","type":"uint256","indexed":true,"internalType":"uint256"},{"name":"user","type":"address","indexed":true,"internalType":"address"},{"name":"amount","type":"uint256","indexed":false,"internalType":"uint256"}],"anonymous":false},{"type":"event","name":"NewRound","inputs":[{"name":"round","type":"uint256","indexed":true,"internalType":"uint256"},{"name":"closeTs","type":"uint256","indexed":false,"internalType":"uint256"},{"name":"revealTs","type":"uint256","indexed":false,"internalType":"uint256"},{"name":"thresholdGwei","type":"uint256","indexed":false,"internalType":"uint256"}],"anonymous":false},{"type":"event","name":"Payout","inputs":[{"name":"round","type":"uint256","indexed":true,"internalType":"uint256"},{"name":"user","type":"address","indexed":true,"internalType":"address"},{"name":"amount","type":"uint256","indexed":false,"internalType":"uint256"}],"anonymous":false},{"type":"event","name":"Refund","inputs":[{"name":"round","type":"uint256","indexed":true,"internalType":"uint256"},{"name":"user","type":"address","indexed":true,"internalType":"address"},{"name":"amount","type":"uint256","indexed":false,"internalType":"uint256"}],"anonymous":false},{"type":"event","name":"Reveal","inputs":[{"name":"round","type":"uint256","indexed":true,"internalType":"uint256"},{"name":"user","type":"address","indexed":true,"internalType":"address"},{"name":"side","type":"uint8","indexed":false,"internalType":"enum CommitRevealBSP.Side"},{"name":"amount","type":"uint256","indexed":false,"internalType":"uint256"}],"anonymous":false},{"type":"event","name":"Settled","inputs":[{"name":"round","type":"uint256","indexed":true,"internalType":"uint256"},{"name":"feeGwei","type":"uint256","indexed":false,"internalType":"uint256"},{"name":"rakeWei","type":"uint256","indexed":false,"internalType":"uint256"}],"anonymous":false}],"bytecode":{"object":"0x60c0604052346101ce57604051601f610f5938819003918201601f19168301916001600160401b038311848410176101a6578084926020946040528339810103126101ce57516001600160a01b038116908190036101ce573360805260a0525f54600181018091116101ba57805f5561012c4201908142116101ba576102584201918242116101ba576040516101208101929091906001600160401b038411838510176101a65760086060937fb5d8636ab45e6cac7a4a61cb7c77f77f61a454d73aa2e6139ff8dcaf463537e59560405242815260208101848152604082018881528683015f8152608084015f815260a08501915f835260c08601936019855260e08701955f87526101008801995f8b525f52600260205260405f2097518855516001880155516002870155516003860155516004850155516005840155516006830155516007820155019051151560ff801983541691161790555f5493604051918252602082015260196040820152a2604051610d8690816101d3823960805181818161064c0152818161072d0152610aee015260a0518181816109840152610a480152f35b634e487b7160e01b5f52604160045260245ffd5b634e487b7160e01b5f52601160045260245ffd5b5f80fdfe6080604052600436101561001a575b3615610018575f80fd5b005b5f3560e01c806311da60b4146109c457806322464d73146109a857806328811f59146109655780633fc8ae06146107f45780634fe24251146107d85780638c65c81f146107515780638da5cb5b1461070e578063b99d6e29146106b5578063c4c8b35b14610631578063cea84845146101d65763f14fcbc80361000e5760203660031901126101d2575f54805f526002602052600160405f2001544210156101a457805f52600160205260405f206001600160a01b0333165f5260205260405f20546101795760405190604082019082821067ffffffffffffffff83111761016557600191604052600435835260208301903482525f528160205260405f206001600160a01b0333165f5260205260405f2092518355519101555f54604051903482527f094925310677b39991f64178494fad708beb62f73f36bb0baa493476ecf5870960203393a3005b634e487b7160e01b5f52604160045260245ffd5b60405162461bcd60e51b815260206004820152600360248201526206475760ec1b6044820152606490fd5b60405162461bcd60e51b815260206004820152600660248201526518db1bdcd95960d21b6044820152606490fd5b5f80fd5b346101d25760603660031901126101d257600435602435600281101590816101d257825f52600260205260405f209060ff6008830154161561060057835f52600160205260405f206001600160a01b0333165f5260205260405f20916003810154159081156105f3575b83546104e45750156102fc5750600101546103e3808202925081159183041417156102e8576103e8900490805f52600160205260405f206001600160a01b0333165f526020525f6001604082200155815f81156102df575b5f80809381933390f1156102d4576040519182527f21e12a7cad0da5928167e1084ea4d5fdf8d9af66657a2543a9ac76a0ca08147760203393a3005b6040513d5f823e3d90fd5b506108fc610298565b634e487b7160e01b5f52601160045260245ffd5b9050825f52600260205260405f20916007830154600684015411801592839283946104d9575b83156104a0575b50505015610475571561046a576003810154905b600561035260038301546004840154906109fe565b91015481039081116102e857825f52600160205260405f206001600160a01b0333165f52602052600160405f20015490811561043f57835f52600160205260405f206001600160a01b0333165f526020525f6001604082200155808202918204036102e857811561042b5704908115610400575f808080853382f1156102d4576040519182527f5f7341a552ae2d452b071917104c05fbac3663936a69be768a05c40605056e7d60203393a3005b606460405162461bcd60e51b8152602060048201526004602482015263191d5cdd60e21b6044820152fd5b634e487b7160e01b5f52601260045260245ffd5b606460405162461bcd60e51b81526020600482015260046024820152636e6f6e6560e01b6044820152fd5b60048101549061033d565b606460405162461bcd60e51b81526020600482015260046024820152636c6f736560e01b6044820152fd5b91925090826104b4575b5050848080610329565b9091506104c55760011484806104aa565b634e487b7160e01b5f52602160045260245ffd5b50801592505f610322565b9150506002919392500154610e1081018091116102e8574211156105c657805f526002602052600360405f2001541580156105af575b1561058c5760018201546103e38102908082046103e314901517156102e8576103e85f9104925b81600182015555815f81156102df575f80809381933390f1156102d4576040519182527f21e12a7cad0da5928167e1084ea4d5fdf8d9af66657a2543a9ac76a0ca08147760203393a3005b60018201546063810290808204606314901517156102e85760645f910492610541565b50805f526002602052600460405f2001541561051a565b60405162461bcd60e51b8152602060048201526005602482015264677261636560d81b6044820152606490fd5b6004810154159150610240565b60405162461bcd60e51b81526020600482015260096024820152681d5b9cd95d1d1b195960ba1b6044820152606490fd5b346101d25760203660031901126101d2576001600160a01b037f000000000000000000000000000000000000000000000000000000000000000016330361068a575f545f526002602052600435600660405f2001555f80f35b606460405162461bcd60e51b815260206004820152600460248201526310b7bbb760e11b6044820152fd5b346101d25760403660031901126101d2576024356001600160a01b03811681036101d2576004355f5260016020526001600160a01b0360405f2091165f526020526040805f206001815491015482519182526020820152f35b346101d2575f3660031901126101d25760206040516001600160a01b037f0000000000000000000000000000000000000000000000000000000000000000168152f35b346101d25760203660031901126101d2576004355f52600260205261012060405f2080549060018101549060028101546003820154600483015460058401549160068501549360ff600860078801549701541696604051988952602089015260408801526060870152608086015260a085015260c084015260e08301521515610100820152f35b346101d2575f3660031901126101d25760205f54604051908152f35b346101d25760403660031901126101d25760043560028110156101d2575f54805f52600260205260405f2090600182015442101580610958575b15610929575f52600160205260405f206001600160a01b0333165f5260205260405f2090815460405160208101903360601b82528560f81b60348201526024356035820152603581526108826055826109dc565b519020036108fe57826108e3576108a36003600184015492019182546109fe565b90555b5f815560015f5491015460405192835260208301527f0447986cbc4e3a2a59f15d77a0b5c7ade84117a770c448cab35f1cf38a8663fa60403393a3005b6108f76004600184015492019182546109fe565b90556108a6565b60405162461bcd60e51b815260206004820152600360248201526218985960ea1b6044820152606490fd5b60405162461bcd60e51b8152602060048201526007602482015266085c995d99585b60ca1b6044820152606490fd5b506002820154421061082e565b346101d2575f3660031901126101d25760206040516001600160a01b037f0000000000000000000000000000000000000000000000000000000000000000168152f35b346101d2575f3660031901126101d25760206040516101f48152f35b346101d2575f3660031901126101d257610018610a0b565b90601f8019910116810190811067ffffffffffffffff82111761016557604052565b919082018092116102e857565b5f545f52600260205260405f2060028101544210610c0f576008810180549060ff8216610be4576040516303e0818560e61b8152916020836004817f00000000000000000000000000000000000000000000000000000000000000006001600160a01b03165afa9283156102d4575f93610baf575b506007840183905560ff1916600117905560038201546004830154610aa581836109fe565b9115908115610ba6575b50610b5f576101f48102908082046101f414901517156102e857612710900491826005820155825f8115610b56575b5f80809381936001600160a01b037f00000000000000000000000000000000000000000000000000000000000000001690f1156102d457610b54927f321f57f44af402708b8b3bad0bd10012cd568d8696946e26edeb86178bb7c27e60406006945f549382519182526020820152a20154610c40565b565b506108fc610ade565b50816006915f6005610b549501557f321f57f44af402708b8b3bad0bd10012cd568d8696946e26edeb86178bb7c27e60405f549281519081525f6020820152a20154610c40565b9050155f610aaf565b9092506020813d602011610bdc575b81610bcb602093836109dc565b810103126101d25751916001610a80565b3d9150610bbe565b606460405162461bcd60e51b8152602060048201526004602482015263646f6e6560e01b6044820152fd5b60405162461bcd60e51b8152602060048201526009602482015268746f6f206561726c7960b81b6044820152606490fd5b5f54600181018091116102e857805f5561012c4201918242116102e8576102584201928342116102e8576040519161012083019383851067ffffffffffffffff8611176101655760086060947fb5d8636ab45e6cac7a4a61cb7c77f77f61a454d73aa2e6139ff8dcaf463537e59660405242815260208101858152604082018981528783015f8152608084015f815260a08501915f835260c086019389855260e08701955f87526101008801995f8b525f52600260205260405f2097518855516001880155516002870155516003860155516004850155516005840155516006830155516007820155019051151560ff801983541691161790555f549460405192835260208301526040820152a256fea26469706673582212205e194bf4dde4989b1f4dbdfb1f3369de89a7af5273e77287fc376b47be879f0764736f6c634300081e0033","linkReferences":{}},"methodIdentifiers":{"F()":"28811f59","RAKE_BP()":"22464d73","claim(uint256,uint8,bytes32)":"cea84845","commit(bytes32)":"f14fcbc8","cur()":"4fe24251","owner()":"8da5cb5b","reveal(uint8,bytes32)":"3fc8ae06","rounds(uint256)":"8c65c81f","setNextThreshold(uint256)":"c4c8b35b","settle()":"11da60b4","tickets(uint256,address)":"b99d6e29"},"id":4}