{"abi":[{"type":"constructor","inputs":[{"name":"oracle","type":"address","internalType":"address"}],"stateMutability":"nonpayable"},{"type":"receive","stateMutability":"payable"},{"type":"function","name":"F","inputs":[],"outputs":[{"name":"","type":"address","internalType":"contract IBlobBaseFee"}],"stateMutability":"view"},{"type":"function","name":"GRACE_NONREVEAL","inputs":[],"outputs":[{"name":"","type":"uint256","internalType":"uint256"}],"stateMutability":"view"},{"type":"function","name":"RAKE_BP","inputs":[],"outputs":[{"name":"","type":"uint16","internalType":"uint16"}],"stateMutability":"view"},{"type":"function","name":"claim","inputs":[{"name":"id","type":"uint256","internalType":"uint256"},{"name":"side","type":"uint8","internalType":"enum CommitRevealBSP.Side"},{"name":"salt","type":"bytes32","internalType":"bytes32"}],"outputs":[],"stateMutability":"nonpayable"},{"type":"function","name":"commit","inputs":[{"name":"h","type":"bytes32","internalType":"bytes32"}],"outputs":[],"stateMutability":"payable"},{"type":"function","name":"cur","inputs":[],"outputs":[{"name":"","type":"uint256","internalType":"uint256"}],"stateMutability":"view"},{"type":"function","name":"owner","inputs":[],"outputs":[{"name":"","type":"address","internalType":"address"}],"stateMutability":"view"},{"type":"function","name":"reveal","inputs":[{"name":"side","type":"uint8","internalType":"enum CommitRevealBSP.Side"},{"name":"salt","type":"bytes32","internalType":"bytes32"}],"outputs":[],"stateMutability":"nonpayable"},{"type":"function","name":"rounds","inputs":[{"name":"","type":"uint256","internalType":"uint256"}],"outputs":[{"name":"openTs","type":"uint256","internalType":"uint256"},{"name":"closeTs","type":"uint256","internalType":"uint256"},{"name":"revealTs","type":"uint256","internalType":"uint256"},{"name":"hiPool","type":"uint256","internalType":"uint256"},{"name":"loPool","type":"uint256","internalType":"uint256"},{"name":"rake","type":"uint256","internalType":"uint256"},{"name":"thresholdGwei","type":"uint256","internalType":"uint256"},{"name":"feeResult","type":"uint256","internalType":"uint256"},{"name":"settled","type":"bool","internalType":"bool"}],"stateMutability":"view"},{"type":"function","name":"setNextThreshold","inputs":[{"name":"thr","type":"uint256","internalType":"uint256"}],"outputs":[],"stateMutability":"nonpayable"},{"type":"function","name":"settle","inputs":[],"outputs":[],"stateMutability":"nonpayable"},{"type":"function","name":"tickets","inputs":[{"name":"","type":"uint256","internalType":"uint256"},{"name":"","type":"address","internalType":"address"}],"outputs":[{"name":"commit","type":"bytes32","internalType":"bytes32"},{"name":"amount","type":"uint256","internalType":"uint256"}],"stateMutability":"view"},{"type":"event","name":"Commit","inputs":[{"name":"round","type":"uint256","indexed":true,"internalType":"uint256"},{"name":"user","type":"address","indexed":true,"internalType":"address"},{"name":"amount","type":"uint256","indexed":false,"internalType":"uint256"}],"anonymous":false},{"type":"event","name":"NewRound","inputs":[{"name":"round","type":"uint256","indexed":true,"internalType":"uint256"},{"name":"closeTs","type":"uint256","indexed":false,"internalType":"uint256"},{"name":"revealTs","type":"uint256","indexed":false,"internalType":"uint256"},{"name":"thresholdGwei","type":"uint256","indexed":false,"internalType":"uint256"}],"anonymous":false},{"type":"event","name":"Payout","inputs":[{"name":"round","type":"uint256","indexed":true,"internalType":"uint256"},{"name":"user","type":"address","indexed":true,"internalType":"address"},{"name":"amount","type":"uint256","indexed":false,"internalType":"uint256"}],"anonymous":false},{"type":"event","name":"Refund","inputs":[{"name":"round","type":"uint256","indexed":true,"internalType":"uint256"},{"name":"user","type":"address","indexed":true,"internalType":"address"},{"name":"amount","type":"uint256","indexed":false,"internalType":"uint256"}],"anonymous":false},{"type":"event","name":"Reveal","inputs":[{"name":"round","type":"uint256","indexed":true,"internalType":"uint256"},{"name":"user","type":"address","indexed":true,"internalType":"address"},{"name":"side","type":"uint8","indexed":false,"internalType":"enum CommitRevealBSP.Side"},{"name":"amount","type":"uint256","indexed":false,"internalType":"uint256"}],"anonymous":false},{"type":"event","name":"Settled","inputs":[{"name":"round","type":"uint256","indexed":true,"internalType":"uint256"},{"name":"feeGwei","type":"uint256","indexed":false,"internalType":"uint256"},{"name":"rakeWei","type":"uint256","indexed":false,"internalType":"uint256"}],"anonymous":false},{"type":"error","name":"ReentrancyGuardReentrantCall","inputs":[]}],"bytecode":{"object":"0x60c0604052346101d557604051601f610f7a38819003918201601f19168301916001600160401b038311848410176101ad578084926020946040528339810103126101d557516001600160a01b038116908190036101d55760015f553360805260a052600154600181018091116101c1578060015561012c4201908142116101c1576102584201918242116101c1576040516101208101929091906001600160401b038411838510176101ad5760086060937fb5d8636ab45e6cac7a4a61cb7c77f77f61a454d73aa2e6139ff8dcaf463537e59560405242815260208101848152604082018881528683015f8152608084015f815260a08501915f835260c08601936019855260e08701955f87526101008801995f8b525f52600360205260405f2097518855516001880155516002870155516003860155516004850155516005840155516006830155516007820155019051151560ff8019835416911617905560015493604051918252602082015260196040820152a2604051610da090816101da823960805181818161061b015281816107190152610ae5015260a0518181816109720152610a3f0152f35b634e487b7160e01b5f52604160045260245ffd5b634e487b7160e01b5f52601160045260245ffd5b5f80fdfe6080604052600436101561001a575b3615610018575f80fd5b005b5f3560e01c806311da60b4146109b257806322464d731461099657806328811f59146109535780633fc8ae06146107e15780634fe24251146107c45780638c65c81f1461073d5780638da5cb5b146106fa578063a556eb82146106de578063b99d6e2914610685578063c4c8b35b14610600578063cea84845146101e45763f14fcbc80361000e5760203660031901126101e057600154805f526003602052600160405f2001544210156101b257805f52600260205260405f206001600160a01b0333165f5260205260405f20546101875760405190604082019082821067ffffffffffffffff83111761017357600191604052600435835260208301903482525f52600260205260405f206001600160a01b0333165f5260205260405f209251835551910155600154604051903482527f094925310677b39991f64178494fad708beb62f73f36bb0baa493476ecf5870960203393a3005b634e487b7160e01b5f52604160045260245ffd5b60405162461bcd60e51b815260206004820152600360248201526206475760ec1b6044820152606490fd5b60405162461bcd60e51b815260206004820152600660248201526518db1bdcd95960d21b6044820152606490fd5b5f80fd5b346101e05760603660031901126101e057600435602435600281101590816101e05761020e610c39565b825f52600360205260405f209060ff600883015416156105cf57835f52600260205260405f206001600160a01b0333165f5260205260405f20916003810154159081156105c2575b83546105025750156103175750600101546103e380820292508115918304141715610303576103e8900490805f52600260205260405f206001600160a01b0333165f526020525f6001604082200155815f81156102fa575b5f80809381933390f1156102ef576040519182527f21e12a7cad0da5928167e1084ea4d5fdf8d9af66657a2543a9ac76a0ca08147760203393a35b60015f55005b6040513d5f823e3d90fd5b506108fc6102ae565b634e487b7160e01b5f52601160045260245ffd5b9050825f52600360205260405f20916007830154600684015411801592839283946104f7575b83156104be575b505050156104935715610488576003810154905b600561036d60038301546004840154906109f4565b910154810390811161030357825f52600260205260405f206001600160a01b0333165f52602052600160405f20015490811561045d57835f52600260205260405f206001600160a01b0333165f526020525f600160408220015580820291820403610303578115610449570490811561041e575f808080853382f1156102ef576040519182527f5f7341a552ae2d452b071917104c05fbac3663936a69be768a05c40605056e7d60203393a36102e9565b606460405162461bcd60e51b8152602060048201526004602482015263191d5cdd60e21b6044820152fd5b634e487b7160e01b5f52601260045260245ffd5b606460405162461bcd60e51b81526020600482015260046024820152636e6f6e6560e01b6044820152fd5b600481015490610358565b606460405162461bcd60e51b81526020600482015260046024820152636c6f736560e01b6044820152fd5b91925090826104d2575b5050848080610344565b9091506104e35760011484806104c8565b634e487b7160e01b5f52602160045260245ffd5b50801592505f61033d565b9150506002919392500154610384810180911161030357421115610595576001820191825490605f820291808304605f1490151715610303575f6064819304945555815f811561058c575b5f80809381933390f1156102ef576040519182527f21e12a7cad0da5928167e1084ea4d5fdf8d9af66657a2543a9ac76a0ca08147760203393a36102e9565b506108fc61054d565b60405162461bcd60e51b8152602060048201526005602482015264677261636560d81b6044820152606490fd5b6004810154159150610256565b60405162461bcd60e51b81526020600482015260096024820152681d5b9cd95d1d1b195960ba1b6044820152606490fd5b346101e05760203660031901126101e0576001600160a01b037f000000000000000000000000000000000000000000000000000000000000000016330361065a576001545f526003602052600435600660405f2001555f80f35b606460405162461bcd60e51b815260206004820152600460248201526310b7bbb760e11b6044820152fd5b346101e05760403660031901126101e0576024356001600160a01b03811681036101e0576004355f5260026020526001600160a01b0360405f2091165f526020526040805f206001815491015482519182526020820152f35b346101e0575f3660031901126101e05760206040516103848152f35b346101e0575f3660031901126101e05760206040516001600160a01b037f0000000000000000000000000000000000000000000000000000000000000000168152f35b346101e05760203660031901126101e0576004355f52600360205261012060405f2080549060018101549060028101546003820154600483015460058401549160068501549360ff600860078801549701541696604051988952602089015260408801526060870152608086015260a085015260c084015260e08301521515610100820152f35b346101e0575f3660031901126101e0576020600154604051908152f35b346101e05760403660031901126101e05760043560028110156101e057600154805f52600360205260405f2090600182015442101580610946575b15610917575f52600260205260405f206001600160a01b0333165f5260205260405f2090815460405160208101903360601b82528560f81b60348201526024356035820152603581526108706055826109d2565b519020036108ec57826108d1576108916003600184015492019182546109f4565b90555b5f81556001805491015460405192835260208301527f0447986cbc4e3a2a59f15d77a0b5c7ade84117a770c448cab35f1cf38a8663fa60403393a3005b6108e56004600184015492019182546109f4565b9055610894565b60405162461bcd60e51b815260206004820152600360248201526218985960ea1b6044820152606490fd5b60405162461bcd60e51b8152602060048201526007602482015266085c995d99585b60ca1b6044820152606490fd5b506002820154421061081c565b346101e0575f3660031901126101e05760206040516001600160a01b037f0000000000000000000000000000000000000000000000000000000000000000168152f35b346101e0575f3660031901126101e05760206040516101f48152f35b346101e0575f3660031901126101e0576109ca610c39565b6102e9610a01565b90601f8019910116810190811067ffffffffffffffff82111761017357604052565b9190820180921161030357565b6001545f52600360205260405f2060028101544210610c08576008810180549060ff8216610bdd576040516303e0818560e61b8152916020836004817f00000000000000000000000000000000000000000000000000000000000000006001600160a01b03165afa9283156102ef575f93610ba8575b506007840183905560ff1916600117905560038201546004830154610a9c81836109f4565b9115908115610b9f575b50610b57576101f48102908082046101f4149015171561030357612710900491826005820155825f8115610b4e575b5f80809381936001600160a01b037f00000000000000000000000000000000000000000000000000000000000000001690f1156102ef57610b4c927f321f57f44af402708b8b3bad0bd10012cd568d8696946e26edeb86178bb7c27e60406006946001549382519182526020820152a20154610c57565b565b506108fc610ad5565b50816006915f6005610b4c9501557f321f57f44af402708b8b3bad0bd10012cd568d8696946e26edeb86178bb7c27e60406001549281519081525f6020820152a20154610c57565b9050155f610aa6565b9092506020813d602011610bd5575b81610bc4602093836109d2565b810103126101e05751916001610a77565b3d9150610bb7565b606460405162461bcd60e51b8152602060048201526004602482015263646f6e6560e01b6044820152fd5b60405162461bcd60e51b8152602060048201526009602482015268746f6f206561726c7960b81b6044820152606490fd5b60025f5414610c485760025f55565b633ee5aeb560e01b5f5260045ffd5b60015460018101809111610303578060015561012c42019182421161030357610258420192834211610303576040519161012083019383851067ffffffffffffffff8611176101735760086060947fb5d8636ab45e6cac7a4a61cb7c77f77f61a454d73aa2e6139ff8dcaf463537e59660405242815260208101858152604082018981528783015f8152608084015f815260a08501915f835260c086019389855260e08701955f87526101008801995f8b525f52600360205260405f2097518855516001880155516002870155516003860155516004850155516005840155516006830155516007820155019051151560ff801983541691161790556001549460405192835260208301526040820152a256fea2646970667358221220cd273016d8bedab58519273f8912f77bb6cdb1d769e7ecf23d443bb3cbb5b7b264736f6c634300081e0033","linkReferences":{}},"methodIdentifiers":{"F()":"28811f59","GRACE_NONREVEAL()":"a556eb82","RAKE_BP()":"22464d73","claim(uint256,uint8,bytes32)":"cea84845","commit(bytes32)":"f14fcbc8","cur()":"4fe24251","owner()":"8da5cb5b","reveal(uint8,bytes32)":"3fc8ae06","rounds(uint256)":"8c65c81f","setNextThreshold(uint256)":"c4c8b35b","settle()":"11da60b4","tickets(uint256,address)":"b99d6e29"},"id":2}