{"abi":[{"type":"constructor","inputs":[{"name":"oracle","type":"address","internalType":"address"}],"stateMutability":"nonpayable"},{"type":"receive","stateMutability":"payable"},{"type":"function","name":"F","inputs":[],"outputs":[{"name":"","type":"address","internalType":"contract IBlobBaseFee"}],"stateMutability":"view"},{"type":"function","name":"GRACE_NONREVEAL","inputs":[],"outputs":[{"name":"","type":"uint256","internalType":"uint256"}],"stateMutability":"view"},{"type":"function","name":"MAX_BET_PER_ADDRESS","inputs":[],"outputs":[{"name":"","type":"uint256","internalType":"uint256"}],"stateMutability":"view"},{"type":"function","name":"MAX_INDIVIDUAL_POSITION_RATIO","inputs":[],"outputs":[{"name":"","type":"uint256","internalType":"uint256"}],"stateMutability":"view"},{"type":"function","name":"MAX_TOTAL_POSITION_RATIO","inputs":[],"outputs":[{"name":"","type":"uint256","internalType":"uint256"}],"stateMutability":"view"},{"type":"function","name":"MIN_BET","inputs":[],"outputs":[{"name":"","type":"uint256","internalType":"uint256"}],"stateMutability":"view"},{"type":"function","name":"RAKE_BP","inputs":[],"outputs":[{"name":"","type":"uint16","internalType":"uint16"}],"stateMutability":"view"},{"type":"function","name":"REVEAL_TIMEOUT","inputs":[],"outputs":[{"name":"","type":"uint256","internalType":"uint256"}],"stateMutability":"view"},{"type":"function","name":"REVEAL_WINDOW","inputs":[],"outputs":[{"name":"","type":"uint256","internalType":"uint256"}],"stateMutability":"view"},{"type":"function","name":"ROUND_DURATION","inputs":[],"outputs":[{"name":"","type":"uint256","internalType":"uint256"}],"stateMutability":"view"},{"type":"function","name":"SETTLE_BOUNTY_BP","inputs":[],"outputs":[{"name":"","type":"uint16","internalType":"uint16"}],"stateMutability":"view"},{"type":"function","name":"THRESHOLD_REVEAL_TIMEOUT","inputs":[],"outputs":[{"name":"","type":"uint256","internalType":"uint256"}],"stateMutability":"view"},{"type":"function","name":"claim","inputs":[{"name":"roundId","type":"uint256","internalType":"uint256"},{"name":"side","type":"uint8","internalType":"enum CommitRevealBSP.Side"},{"name":"salt","type":"bytes32","internalType":"bytes32"}],"outputs":[],"stateMutability":"nonpayable"},{"type":"function","name":"commit","inputs":[{"name":"h","type":"bytes32","internalType":"bytes32"}],"outputs":[],"stateMutability":"payable"},{"type":"function","name":"commitRound","inputs":[],"outputs":[{"name":"","type":"uint256","internalType":"uint256"}],"stateMutability":"view"},{"type":"function","name":"commitThreshold","inputs":[{"name":"h","type":"bytes32","internalType":"bytes32"}],"outputs":[],"stateMutability":"nonpayable"},{"type":"function","name":"commitTs","inputs":[],"outputs":[{"name":"","type":"uint256","internalType":"uint256"}],"stateMutability":"view"},{"type":"function","name":"cur","inputs":[],"outputs":[{"name":"","type":"uint256","internalType":"uint256"}],"stateMutability":"view"},{"type":"function","name":"lastRoundParticipated","inputs":[{"name":"","type":"address","internalType":"address"}],"outputs":[{"name":"","type":"uint256","internalType":"uint256"}],"stateMutability":"view"},{"type":"function","name":"nextThreshold","inputs":[],"outputs":[{"name":"","type":"uint256","internalType":"uint256"}],"stateMutability":"view"},{"type":"function","name":"owner","inputs":[],"outputs":[{"name":"","type":"address","internalType":"address"}],"stateMutability":"view"},{"type":"function","name":"paused","inputs":[],"outputs":[{"name":"","type":"bool","internalType":"bool"}],"stateMutability":"view"},{"type":"function","name":"reveal","inputs":[{"name":"side","type":"uint8","internalType":"enum CommitRevealBSP.Side"},{"name":"salt","type":"bytes32","internalType":"bytes32"}],"outputs":[],"stateMutability":"nonpayable"},{"type":"function","name":"revealThreshold","inputs":[{"name":"thr","type":"uint256","internalType":"uint256"},{"name":"salt","type":"uint256","internalType":"uint256"}],"outputs":[],"stateMutability":"nonpayable"},{"type":"function","name":"roundBets","inputs":[{"name":"","type":"address","internalType":"address"}],"outputs":[{"name":"","type":"uint256","internalType":"uint256"}],"stateMutability":"view"},{"type":"function","name":"rounds","inputs":[{"name":"","type":"uint256","internalType":"uint256"}],"outputs":[{"name":"id","type":"uint256","internalType":"uint256"},{"name":"closeTs","type":"uint256","internalType":"uint256"},{"name":"revealTs","type":"uint256","internalType":"uint256"},{"name":"settleTs","type":"uint256","internalType":"uint256"},{"name":"hiTotal","type":"uint256","internalType":"uint256"},{"name":"loTotal","type":"uint256","internalType":"uint256"},{"name":"totalCommits","type":"uint256","internalType":"uint256"},{"name":"winner","type":"uint8","internalType":"enum CommitRevealBSP.Side"},{"name":"threshold","type":"uint256","internalType":"uint256"},{"name":"thresholdCommit","type":"bytes32","internalType":"bytes32"},{"name":"feeResult","type":"uint256","internalType":"uint256"},{"name":"settlePriceGwei","type":"uint256","internalType":"uint256"},{"name":"settled","type":"bool","internalType":"bool"},{"name":"bounty","type":"uint256","internalType":"uint256"}],"stateMutability":"view"},{"type":"function","name":"settle","inputs":[],"outputs":[],"stateMutability":"nonpayable"},{"type":"function","name":"thresholdCommit","inputs":[],"outputs":[{"name":"","type":"bytes32","internalType":"bytes32"}],"stateMutability":"view"},{"type":"function","name":"tickets","inputs":[{"name":"","type":"uint256","internalType":"uint256"},{"name":"","type":"address","internalType":"address"}],"outputs":[{"name":"commit","type":"bytes32","internalType":"bytes32"},{"name":"amount","type":"uint256","internalType":"uint256"},{"name":"side","type":"uint8","internalType":"enum CommitRevealBSP.Side"},{"name":"claimed","type":"bool","internalType":"bool"}],"stateMutability":"view"},{"type":"event","name":"Commit","inputs":[{"name":"round","type":"uint256","indexed":true,"internalType":"uint256"},{"name":"user","type":"address","indexed":true,"internalType":"address"},{"name":"amount","type":"uint256","indexed":false,"internalType":"uint256"}],"anonymous":false},{"type":"event","name":"NewRound","inputs":[{"name":"round","type":"uint256","indexed":true,"internalType":"uint256"},{"name":"closeTs","type":"uint256","indexed":false,"internalType":"uint256"},{"name":"revealTs","type":"uint256","indexed":false,"internalType":"uint256"},{"name":"thresholdGwei","type":"uint256","indexed":false,"internalType":"uint256"}],"anonymous":false},{"type":"event","name":"Payout","inputs":[{"name":"round","type":"uint256","indexed":true,"internalType":"uint256"},{"name":"user","type":"address","indexed":true,"internalType":"address"},{"name":"amount","type":"uint256","indexed":false,"internalType":"uint256"}],"anonymous":false},{"type":"event","name":"Refund","inputs":[{"name":"round","type":"uint256","indexed":true,"internalType":"uint256"},{"name":"user","type":"address","indexed":true,"internalType":"address"},{"name":"amount","type":"uint256","indexed":false,"internalType":"uint256"}],"anonymous":false},{"type":"event","name":"Reveal","inputs":[{"name":"round","type":"uint256","indexed":true,"internalType":"uint256"},{"name":"user","type":"address","indexed":true,"internalType":"address"},{"name":"side","type":"uint8","indexed":false,"internalType":"enum CommitRevealBSP.Side"},{"name":"amount","type":"uint256","indexed":false,"internalType":"uint256"}],"anonymous":false},{"type":"event","name":"Settled","inputs":[{"name":"round","type":"uint256","indexed":true,"internalType":"uint256"},{"name":"feeGwei","type":"uint256","indexed":false,"internalType":"uint256"},{"name":"rakeWei","type":"uint256","indexed":false,"internalType":"uint256"},{"name":"bountyWei","type":"uint256","indexed":false,"internalType":"uint256"}],"anonymous":false},{"type":"error","name":"ReentrancyGuardReentrantCall","inputs":[]}],"bytecode":{"object":"0x60c06040523461026357604051601f611c1938819003918201601f19168301916001600160401b0383118484101761023b5780849260209460405283398101031261026357516001600160a01b038116908190036102635760015f553360805260a0526001545f19811461024f5760010180600155610e10420180421161024f57610f3c42019182821161024f57604051916101c083016001600160401b0381118482101761023b576040528183526020830192818452604081019385855260608201935f855260808301915f835260a08401965f885260c08501965f885260e08601975f895261010087019964174876e8008b526101208801965f88526101408901935f85526101608a01955f87526101808b01975f89526101a08c01995f8b525f52600360205260405f209b518c555160018c01555160028b01555160038a0155516004890155516005880155516006870155600786019751946002861015610227577fb5d8636ab45e6cac7a4a61cb7c77f77f61a454d73aa2e6139ff8dcaf463537e599606099600d9760ff8019835416911617905551600888015551600987015551600a86015551600b850155600c84019051151560ff801983541691161790555191015560015493604051918252602082015264174876e8006040820152a26040516119b190816102688239608051818181610452015281816106cb015281816108d901528181610ebf0152611238015260a051818181610e1301526111090152f35b634e487b7160e01b5f52602160045260245ffd5b634e487b7160e01b5f52604160045260245ffd5b634e487b7160e01b5f52601160045260245ffd5b5f80fdfe6080604052600436101561001a575b3615610018575f80fd5b005b5f3560e01c8063041f1e9014610e9e57806311da60b414610e6f57806317e931cf14610e5357806322464d7314610e3757806328811f5914610df45780633b5fa1c414610dd75780633d6ae3a7146108b55780633fc8ae0614610af657806341b99b4314610abe5780634ed7130214610aa15780634fe2425114610a8457806352e799d414610a6257806359d58bcd14610a455780635c975abb14610a235780636540742f14610a025780636641ea08146109e65780637fe74617146109ca5780638c65c81f146108fd5780638da5cb5b146108ba578063a556eb82146108b5578063b99d6e2914610837578063be9ebe6d1461081c578063c7b0e4cf146107ff578063c9bc7be7146107c7578063cea8484514610503578063d6f0d290146104e7578063df88b21a146104cb578063e8740b51146104345763f14fcbc80361000e5760203660031901126104305761017860ff600a541615611019565b600154805f52600360205260405f2090600182015442101561040257662386f26fc1000034106103d757678ac7230489e8000034116103a657805f52600260205260405f206001600160a01b0333165f5260205260405f205461037b57335f52600960205260405f205403610358575b335f526008602052678ac7230489e800006102073460405f205461104e565b1161032357335f52600860205260405f2061022334825461104e565b9055604051906080820182811067ffffffffffffffff82111761030f5760405260043582526020820191348352600260408201915f835260608101945f86526001545f528260205260405f206001600160a01b0333165f5260205260405f20915182555160018201550190519260028410156102fb576102a56006948361105b565b51151561ff0082549160081b169061ff001916179055016102c734825461104e565b9055600154604051903482527f094925310677b39991f64178494fad708beb62f73f36bb0baa493476ecf5870960203393a3005b634e487b7160e01b5f52602160045260245ffd5b634e487b7160e01b5f52604160045260245ffd5b60405162461bcd60e51b815260206004820152600d60248201526c1859191c995cdccb5b1a5b5a5d609a1b6044820152606490fd5b335f5260086020525f6040812055600154335f52600960205260405f20556101e8565b60405162461bcd60e51b815260206004820152600360248201526206475760ec1b6044820152606490fd5b60405162461bcd60e51b8152602060048201526009602482015268746f6f2d6c6172676560b81b6044820152606490fd5b606460405162461bcd60e51b8152602060048201526004602482015263191d5cdd60e21b6044820152fd5b60405162461bcd60e51b815260206004820152600660248201526518db1bdcd95960d21b6044820152606490fd5b5f80fd5b34610430576020366003190112610430576104796001600160a01b037f0000000000000000000000000000000000000000000000000000000000000000163314610fc5565b600554600154809110156104965760055542600655600480359055005b60405162461bcd60e51b815260206004820152600d60248201526c636f6d6d69742065786973747360981b6044820152606490fd5b34610430575f3660031901126104305760206040516123288152f35b34610430575f3660031901126104305760206040516115188152f35b346104305760603660031901126104305760043560243560028110156104305761052b6114c2565b61053a60ff600a541615611019565b815f52600360205260405f2060ff600c820154161561079657825f52600260205260405f206001600160a01b0333165f5260205260405f20906004810154908115918215610789575b82610762575b5082546106785750156105fe5760019150015490805f52600260205260405f206001600160a01b0333165f526020525f60016040822001556105cb8233611661565b6040519182527f21e12a7cad0da5928167e1084ea4d5fdf8d9af66657a2543a9ac76a0ca08147760203393a35b60015f55005b50815f52600260205260405f206001600160a01b0333165f5260205260ff600260405f2001541660028110156102fb57036106435761063e9033906116d8565b6105f8565b60405162461bcd60e51b815260206004820152600d60248201526c0e6d2c8ca5adad2e6dac2e8c6d609b1b6044820152606490fd5b905060029192500154610384810180911161074e574211156107215760016106ef910154825f52600260205260405f206001600160a01b0333165f526020525f60026040822082815582600182015501557f0000000000000000000000000000000000000000000000000000000000000000611661565b604051905f82527f21e12a7cad0da5928167e1084ea4d5fdf8d9af66657a2543a9ac76a0ca08147760203393a36105f8565b60405162461bcd60e51b8152602060048201526005602482015264677261636560d81b6044820152606490fd5b634e487b7160e01b5f52601160045260245ffd5b819250610776906006610781930154611073565b600583015490611073565b159085610589565b6005820154159250610583565b60405162461bcd60e51b81526020600482015260096024820152681d5b9cd95d1d1b195960ba1b6044820152606490fd5b34610430576020366003190112610430576001600160a01b036107e8610fa2565b165f526009602052602060405f2054604051908152f35b34610430575f366003190112610430576020600454604051908152f35b34610430575f366003190112610430576020604051600a8152f35b34610430576040366003190112610430576024356001600160a01b0381168103610430576004355f5260026020526001600160a01b0360405f2091165f52602052608060405f2060ff815491600260018201549101549060405193845260208401526108a860408401838316610fb8565b60081c1615156060820152f35b610f86565b34610430575f3660031901126104305760206040516001600160a01b037f0000000000000000000000000000000000000000000000000000000000000000168152f35b34610430576020366003190112610430576004355f52600360205260405f2080549060018101549060028101546003820154600483015460058401546006850154600786015460ff1690600887015492600988015494600a89015496600b8a015498600c8b015460ff169a600d01549b604051809e81526020015260408d015260608c015260808b015260a08a015260c089015260e0880161099e91610fb8565b61010087015261012086015261014085015261016084015215156101808301526101a08201526101c090f35b34610430575f366003190112610430576020604051611d4c8152f35b34610430575f366003190112610430576020604051610e108152f35b34610430575f366003190112610430576020604051662386f26fc100008152f35b34610430575f36600319011261043057602060ff600a54166040519015158152f35b34610430575f366003190112610430576020600754604051908152f35b34610430575f366003190112610430576020604051678ac7230489e800008152f35b34610430575f366003190112610430576020600154604051908152f35b34610430575f366003190112610430576020600554604051908152f35b34610430576020366003190112610430576001600160a01b03610adf610fa2565b165f526008602052602060405f2054604051908152f35b3461043057604036600319011261043057600435600281101561043057610b2260ff600a541615611019565b600154805f52600360205260405f2090600182015442101580610dca575b15610d9b575f52600260205260405f206001600160a01b0333165f5260205260405f2090815460405190602082013360601b81525f928660f81b6034820152602435603582015260358152610b96605582610ff7565b51902003610d7057600482019160058354910191825491610bb7838261104e565b80610c45575b50506102fb5784610c2d575050610bd96001830154825461104e565b90555b5f8155610bec826002830161105b565b60018054910154610c006040518094610fb8565b60208301527f0447986cbc4e3a2a59f15d77a0b5c7ade84117a770c448cab35f1cf38a8663fa60403393a3005b610c3e91925060018401549061104e565b9055610bdc565b5f92509087610d5b576001870154610c5c9161104e565b905b610c6d6001880154809261104e565b91612710810290808204612710149015171561074e57611d4c8302831591848204611d4c1483171561074e5711610d1657612710820291808304612710149015171561074e57612328830292830461232814171561074e5711610cd1578680610bbd565b60405162461bcd60e51b815260206004820152601060248201527f696e646976696475616c2d6c696d6974000000000000000000000000000000006044820152606490fd5b60405162461bcd60e51b815260206004820152600e60248201527f706f736974696f6e2d6c696d69740000000000000000000000000000000000006044820152606490fd5b50610d6a60018701548461104e565b90610c5e565b60405162461bcd60e51b815260206004820152600360248201526218985960ea1b6044820152606490fd5b60405162461bcd60e51b8152602060048201526007602482015266085c995d99585b60ca1b6044820152606490fd5b5060028201544210610b40565b34610430575f366003190112610430576020600654604051908152f35b34610430575f3660031901126104305760206040516001600160a01b037f0000000000000000000000000000000000000000000000000000000000000000168152f35b34610430575f3660031901126104305760206040516101f48152f35b34610430575f36600319011261043057602060405161012c8152f35b34610430575f36600319011261043057610e876114c2565b610e9660ff600a541615611019565b6105f8611080565b3461043057604036600319011261043057600435610ee66001600160a01b037f0000000000000000000000000000000000000000000000000000000000000000163314610fc5565b60055460015403610f55576004546040516020810190838252602435604082015260408152610f16606082610ff7565b51902003610f2357600755005b60405162461bcd60e51b815260206004820152600a602482015269189859081c995d99585b60b21b6044820152606490fd5b60405162461bcd60e51b81526020600482015260096024820152681b9bc818dbdb5b5a5d60ba1b6044820152606490fd5b34610430575f3660031901126104305760206040516103848152f35b600435906001600160a01b038216820361043057565b9060028210156102fb5752565b15610fcc57565b606460405162461bcd60e51b815260206004820152600460248201526310b7bbb760e11b6044820152fd5b90601f8019910116810190811067ffffffffffffffff82111761030f57604052565b1561102057565b60405162461bcd60e51b81526020600482015260066024820152651c185d5cd95960d21b6044820152606490fd5b9190820180921161074e57565b9060028110156102fb5760ff80198354169116179055565b9190820391821161074e57565b600154805f52600360205260405f209060028201549182421061149157600c81019182549360ff8516611466576110c490620186a042101561141e5760019061104e565b42106113d957600554036113ce57600654611518810180911161074e574210156113ce576007548015610d9b57915b6040516303e0818560e61b8152936020856004817f00000000000000000000000000000000000000000000000000000000000000006001600160a01b03165afa9485156113c3575f9561138f575b50841561135c57642e90edd000851161131757600a8301859055600b830185905560ff191660011790556008810154831061130d576111845f5b6007830161105b565b60048101546005820154611198818361104e565b906111b0816111ab856006880154611073565b611073565b9215908115611304575b50806112fc575b6112a557906111cf9161104e565b600a810291811592828104600a1484171561074e576127109004926101f483029283046101f414171561074e576112949483600d6127107f0b88c5bd74fc625a4f651904bf835063c6a449220be319924685261fb7709dd5950493015583611296575b61125c827f0000000000000000000000000000000000000000000000000000000000000000611661565b61128060015494604051938493846040919493926060820195825260208201520152565b0390a25f6007555f6005555f6004556114e0565b565b6112a08433611661565b611232565b5050915f600d6112949401557f0b88c5bd74fc625a4f651904bf835063c6a449220be319924685261fb7709dd56060600154926040519081525f60208201525f6040820152a25f6007555f6005555f6004556114e0565b5081156111c1565b9050155f6111ba565b611184600161117b565b60405162461bcd60e51b815260206004820152601060248201527f6665652d6f75742d6f662d72616e6765000000000000000000000000000000006044820152606490fd5b60405162461bcd60e51b815260206004820152600b60248201526a1999594b5b9bdd0b5cd95d60aa1b6044820152606490fd5b9094506020813d6020116113bb575b816113ab60209383610ff7565b810103126104305751935f611141565b3d915061139e565b6040513d5f823e3d90fd5b6008810154916110f3565b60405162461bcd60e51b815260206004820152601060248201527f736574746c656d656e742d64656c6179000000000000000000000000000000006044820152606490fd5b61025860048501546005860154604051906020820192428452446040840152876060840152608083015260a082015260a0815261145c60c082610ff7565b519020069061104e565b606460405162461bcd60e51b8152602060048201526004602482015263646f6e6560e01b6044820152fd5b60405162461bcd60e51b8152602060048201526009602482015268746f6f206561726c7960b81b6044820152606490fd5b60025f54146114d15760025f55565b633ee5aeb560e01b5f5260045ffd5b6001545f19811461074e5760010180600155610e10420180421161074e57610f3c42019081811161074e576040516101c0810181811067ffffffffffffffff82111761030f576040528381526020810193828552604082019084825260608301955f875260808401925f845260a08501975f895260c086015f815260e08701905f825261010088019a8c8c526101208901975f89526101408a01945f86526101608b01965f88526101808c01985f8a526101a08d019a5f8c525f52600360205260405f209c518d555160018d01555160028c01555160038b01555160048a0155516005890155516006880155519460028610156102fb577fb5d8636ab45e6cac7a4a61cb7c77f77f61a454d73aa2e6139ff8dcaf463537e599611608600d9760078a0161105b565b51600888015551600987015551600a86015551600b850155600c84019051151560ff801983541691161790555191015561165c60015494604051938493846040919493926060820195825260208201520152565b0390a2565b5f80809381935af13d156116d3573d67ffffffffffffffff811161030f5760405190611697601f8201601f191660200183610ff7565b81525f60203d92013e5b156116a857565b606460405162461bcd60e51b81526020600482015260046024820152633c3332b960e11b6044820152fd5b6116a1565b805f52600360205260405f20815f52600260205260405f206001600160a01b0384165f5260205260ff600260405f20015416600a82015460088301541180159182611968575b8215611943575b5050156119185760ff60078201541660028110156102fb571590811561190d576004810154915b156119035760058101545b60068201549161177b600561177160048401548096611073565b9201548092611073565b92159081156118fa575b50806118f2575b6118c2579061179a9161104e565b90825f52600260205260405f206001600160a01b0385165f52602052600160405f2001548281029080820484149015171561074e5781156118ae5704908115908115916118a5575b50156118725760206001600160a01b036118367f5f7341a552ae2d452b071917104c05fbac3663936a69be768a05c40605056e7d93855f526002845260405f208388165f528452600160405f20015461104e565b94845f526002835260405f208282165f528352600260405f200161010061ff00198254161790556118678682611661565b6040519586521693a3565b60405162461bcd60e51b815260206004820152600b60248201526a191d5cdd0b5c185e5bdd5d60aa1b6044820152606490fd5b9050155f6117e2565b634e487b7160e01b5f52601260045260245ffd5b50505090611294915f52600260205260405f206001600160a01b0382165f52602052600160405f20015490611661565b50811561178c565b9050155f611785565b6004810154611757565b60058101549161174c565b606460405162461bcd60e51b81526020600482015260046024820152636c6f736560e01b6044820152fd5b90915081611954575b505f80611725565b905060028110156102fb576001145f61194c565b915060028210156102fb5781159161171e56fea26469706673582212203cc3a80063ed871614b530663de4d159f89a300bdd9b873b6d5f29413b5aceb564736f6c634300081e0033","linkReferences":{}},"methodIdentifiers":{"F()":"28811f59","GRACE_NONREVEAL()":"a556eb82","MAX_BET_PER_ADDRESS()":"52e799d4","MAX_INDIVIDUAL_POSITION_RATIO()":"df88b21a","MAX_TOTAL_POSITION_RATIO()":"7fe74617","MIN_BET()":"6540742f","RAKE_BP()":"22464d73","REVEAL_TIMEOUT()":"3d6ae3a7","REVEAL_WINDOW()":"17e931cf","ROUND_DURATION()":"6641ea08","SETTLE_BOUNTY_BP()":"be9ebe6d","THRESHOLD_REVEAL_TIMEOUT()":"d6f0d290","claim(uint256,uint8,bytes32)":"cea84845","commit(bytes32)":"f14fcbc8","commitRound()":"4ed71302","commitThreshold(bytes32)":"e8740b51","commitTs()":"3b5fa1c4","cur()":"4fe24251","lastRoundParticipated(address)":"c9bc7be7","nextThreshold()":"59d58bcd","owner()":"8da5cb5b","paused()":"5c975abb","reveal(uint8,bytes32)":"3fc8ae06","revealThreshold(uint256,uint256)":"041f1e90","roundBets(address)":"41b99b43","rounds(uint256)":"8c65c81f","settle()":"11da60b4","thresholdCommit()":"c7b0e4cf","tickets(uint256,address)":"b99d6e29"},"id":1}