{"abi":[{"type":"constructor","inputs":[{"name":"oracle","type":"address","internalType":"address"}],"stateMutability":"nonpayable"},{"type":"receive","stateMutability":"payable"},{"type":"function","name":"F","inputs":[],"outputs":[{"name":"","type":"address","internalType":"contract IBlobBaseFee"}],"stateMutability":"view"},{"type":"function","name":"GRACE_NONREVEAL","inputs":[],"outputs":[{"name":"","type":"uint256","internalType":"uint256"}],"stateMutability":"view"},{"type":"function","name":"MIN_BET","inputs":[],"outputs":[{"name":"","type":"uint256","internalType":"uint256"}],"stateMutability":"view"},{"type":"function","name":"RAKE_BP","inputs":[],"outputs":[{"name":"","type":"uint16","internalType":"uint16"}],"stateMutability":"view"},{"type":"function","name":"REVEAL_TIMEOUT","inputs":[],"outputs":[{"name":"","type":"uint256","internalType":"uint256"}],"stateMutability":"view"},{"type":"function","name":"SETTLE_BOUNTY_BP","inputs":[],"outputs":[{"name":"","type":"uint16","internalType":"uint16"}],"stateMutability":"view"},{"type":"function","name":"THRESHOLD_REVEAL_TIMEOUT","inputs":[],"outputs":[{"name":"","type":"uint256","internalType":"uint256"}],"stateMutability":"view"},{"type":"function","name":"claim","inputs":[{"name":"id","type":"uint256","internalType":"uint256"},{"name":"side","type":"uint8","internalType":"enum CommitRevealBSP.Side"},{"name":"","type":"bytes32","internalType":"bytes32"}],"outputs":[],"stateMutability":"nonpayable"},{"type":"function","name":"commit","inputs":[{"name":"h","type":"bytes32","internalType":"bytes32"}],"outputs":[],"stateMutability":"payable"},{"type":"function","name":"commitRound","inputs":[],"outputs":[{"name":"","type":"uint256","internalType":"uint256"}],"stateMutability":"view"},{"type":"function","name":"commitThreshold","inputs":[{"name":"h","type":"bytes32","internalType":"bytes32"}],"outputs":[],"stateMutability":"nonpayable"},{"type":"function","name":"commitTs","inputs":[],"outputs":[{"name":"","type":"uint256","internalType":"uint256"}],"stateMutability":"view"},{"type":"function","name":"cur","inputs":[],"outputs":[{"name":"","type":"uint256","internalType":"uint256"}],"stateMutability":"view"},{"type":"function","name":"nextThreshold","inputs":[],"outputs":[{"name":"","type":"uint256","internalType":"uint256"}],"stateMutability":"view"},{"type":"function","name":"owner","inputs":[],"outputs":[{"name":"","type":"address","internalType":"address"}],"stateMutability":"view"},{"type":"function","name":"pause","inputs":[{"name":"p","type":"bool","internalType":"bool"}],"outputs":[],"stateMutability":"nonpayable"},{"type":"function","name":"paused","inputs":[],"outputs":[{"name":"","type":"bool","internalType":"bool"}],"stateMutability":"view"},{"type":"function","name":"reveal","inputs":[{"name":"side","type":"uint8","internalType":"enum CommitRevealBSP.Side"},{"name":"salt","type":"bytes32","internalType":"bytes32"}],"outputs":[],"stateMutability":"nonpayable"},{"type":"function","name":"reveal","inputs":[{"name":"thr","type":"uint256","internalType":"uint256"},{"name":"nonce","type":"uint256","internalType":"uint256"}],"outputs":[],"stateMutability":"nonpayable"},{"type":"function","name":"rounds","inputs":[{"name":"","type":"uint256","internalType":"uint256"}],"outputs":[{"name":"openTs","type":"uint256","internalType":"uint256"},{"name":"closeTs","type":"uint256","internalType":"uint256"},{"name":"revealTs","type":"uint256","internalType":"uint256"},{"name":"hiPool","type":"uint256","internalType":"uint256"},{"name":"loPool","type":"uint256","internalType":"uint256"},{"name":"rake","type":"uint256","internalType":"uint256"},{"name":"bounty","type":"uint256","internalType":"uint256"},{"name":"thresholdGwei","type":"uint256","internalType":"uint256"},{"name":"feeResult","type":"uint256","internalType":"uint256"},{"name":"settlePriceGwei","type":"uint256","internalType":"uint256"},{"name":"settled","type":"bool","internalType":"bool"}],"stateMutability":"view"},{"type":"function","name":"settle","inputs":[],"outputs":[],"stateMutability":"nonpayable"},{"type":"function","name":"sweepDust","inputs":[{"name":"roundId","type":"uint256","internalType":"uint256"}],"outputs":[],"stateMutability":"nonpayable"},{"type":"function","name":"thresholdCommit","inputs":[],"outputs":[{"name":"","type":"bytes32","internalType":"bytes32"}],"stateMutability":"view"},{"type":"function","name":"tickets","inputs":[{"name":"","type":"uint256","internalType":"uint256"},{"name":"","type":"address","internalType":"address"}],"outputs":[{"name":"commit","type":"bytes32","internalType":"bytes32"},{"name":"amount","type":"uint256","internalType":"uint256"},{"name":"side","type":"uint8","internalType":"enum CommitRevealBSP.Side"}],"stateMutability":"view"},{"type":"event","name":"Commit","inputs":[{"name":"round","type":"uint256","indexed":true,"internalType":"uint256"},{"name":"user","type":"address","indexed":true,"internalType":"address"},{"name":"amount","type":"uint256","indexed":false,"internalType":"uint256"}],"anonymous":false},{"type":"event","name":"NewRound","inputs":[{"name":"round","type":"uint256","indexed":true,"internalType":"uint256"},{"name":"closeTs","type":"uint256","indexed":false,"internalType":"uint256"},{"name":"revealTs","type":"uint256","indexed":false,"internalType":"uint256"},{"name":"thresholdGwei","type":"uint256","indexed":false,"internalType":"uint256"}],"anonymous":false},{"type":"event","name":"Payout","inputs":[{"name":"round","type":"uint256","indexed":true,"internalType":"uint256"},{"name":"user","type":"address","indexed":true,"internalType":"address"},{"name":"amount","type":"uint256","indexed":false,"internalType":"uint256"}],"anonymous":false},{"type":"event","name":"Refund","inputs":[{"name":"round","type":"uint256","indexed":true,"internalType":"uint256"},{"name":"user","type":"address","indexed":true,"internalType":"address"},{"name":"amount","type":"uint256","indexed":false,"internalType":"uint256"}],"anonymous":false},{"type":"event","name":"Reveal","inputs":[{"name":"round","type":"uint256","indexed":true,"internalType":"uint256"},{"name":"user","type":"address","indexed":true,"internalType":"address"},{"name":"side","type":"uint8","indexed":false,"internalType":"enum CommitRevealBSP.Side"},{"name":"amount","type":"uint256","indexed":false,"internalType":"uint256"}],"anonymous":false},{"type":"event","name":"Settled","inputs":[{"name":"round","type":"uint256","indexed":true,"internalType":"uint256"},{"name":"feeGwei","type":"uint256","indexed":false,"internalType":"uint256"},{"name":"rakeWei","type":"uint256","indexed":false,"internalType":"uint256"},{"name":"bountyWei","type":"uint256","indexed":false,"internalType":"uint256"}],"anonymous":false},{"type":"error","name":"ReentrancyGuardReentrantCall","inputs":[]}],"bytecode":{"object":"0x60c06040523461020e57604051601f6116b538819003918201601f19168301916001600160401b038311848410176101e65780849260209460405283398101031261020e57516001600160a01b0381169081900361020e5760015f553360805260a052600154600181018091116101fa578060015561012c4201908142116101fa576102584201918242116101fa576040516101608101929091906001600160401b038411838510176101e657600a6060937fb5d8636ab45e6cac7a4a61cb7c77f77f61a454d73aa2e6139ff8dcaf463537e59560405242815260208101848152604082018881528683015f8152608084015f815260a085015f815260c08601915f835260e0870193601985526101008801955f87526101208901975f89526101408a019b5f8d525f52600360205260405f2099518a555160018a0155516002890155516003880155516004870155516005860155516006850155516007840155516008830155516009820155019051151560ff8019835416911617905560015493604051918252602082015260196040820152a26040516114a2908161021382396080518181816102d70152818161037c01528181610816015281816109a701528181610a6901528181610e090152611091015260a051818181610d6f0152610faf0152f35b634e487b7160e01b5f52604160045260245ffd5b634e487b7160e01b5f52601160045260245ffd5b5f80fdfe6080604052600436101561001a575b3615610018575f80fd5b005b5f3560e01c806302329a2914610dde57806311da60b414610daf57806322464d7314610d9357806328811f5914610d505780633b5fa1c414610d335780633d6ae3a7146109815780633fc8ae0614610bc55780634ed7130214610ba85780634fe2425114610b8b57806359d58bcd14610b6e5780635c975abb14610b4c5780636540742f14610b2b5780638c65c81f14610a8d5780638da5cb5b14610a4a5780639348cef714610986578063a556eb8214610981578063b99d6e291461090f578063be9ebe6d146108f4578063c7b0e4cf146108d7578063cea8484514610474578063d6f0d29014610458578063dcc1f0cf14610369578063e8740b51146102b95763f14fcbc80361000e5760203660031901126102b55761014160ff6008541615610e9d565b600154805f526003602052600160405f2001544210156102875761016e662386f26fc1000034101561125d565b805f52600260205260405f206001600160a01b0333165f5260205260405f205461025c57604051906060820182811067ffffffffffffffff8211176102485760405260043582526020820134815260408301915f83525f52600260205260405f206001600160a01b0333165f5260205260405f20925183555160018301555160028110156102345760026102029201611238565b600154604051903482527f094925310677b39991f64178494fad708beb62f73f36bb0baa493476ecf5870960203393a3005b634e487b7160e01b5f52602160045260245ffd5b634e487b7160e01b5f52604160045260245ffd5b60405162461bcd60e51b815260206004820152600360248201526206475760ec1b6044820152606490fd5b60405162461bcd60e51b815260206004820152600660248201526518db1bdcd95960d21b6044820152606490fd5b5f80fd5b346102b55760203660031901126102b5576102fe6001600160a01b037f0000000000000000000000000000000000000000000000000000000000000000163314610e6b565b60055461033a576001546001810180911161032657600555426006556004803590555f600755005b634e487b7160e01b5f52601160045260245ffd5b60405162461bcd60e51b815260206004820152600760248201526670656e64696e6760c81b6044820152606490fd5b346102b55760203660031901126102b5577f00000000000000000000000000000000000000000000000000000000000000006103af6001600160a01b0382163314610e6b565b6004355f52600360205260405f2060ff600a820154168061043e575b1561040e5780600460036103e493015491015490610ed2565b8047115f14610407576103f79047611250565b806103fe57005b610018916113ec565b505f6103f7565b60405162461bcd60e51b81526020600482015260086024820152673a37b796b9b7b7b760c11b6044820152606490fd5b50600281015462278d0081018091116103265742116103cb565b346102b5575f3660031901126102b5576020604051610e108152f35b346102b55760603660031901126102b55760043560243560028110156102b55761049c61128f565b6104ab60ff6008541615610e9d565b815f52600360205260405f2060ff600a82015416156108a657825f52600260205260405f206001600160a01b0333165f5260205260405f2090600381015415908115610899575b82546107c357501561057d57600101546103e380820292508115918304141715610326576103e8900490805f52600260205260405f206001600160a01b0333165f526020525f600160408220015561054a82336113ec565b6040519182527f21e12a7cad0da5928167e1084ea4d5fdf8d9af66657a2543a9ac76a0ca08147760203393a35b60015f55005b50815f52600260205260405f206001600160a01b0333165f5260205260ff600260405f200154166002811015610234570361078e575f818152600360209081526040808320600280845282852033865290935292200154600882015460078301541180159182919060ff168261077b575b8215610756575b50501561072b571561071d576106376003820154915b600661062e6106236003840154600485015490610ed2565b600584015490611250565b91015490611250565b825f52600260205260405f206001600160a01b0333165f52602052600160405f2001549081156106f257835f52600260205260405f206001600160a01b0333165f526020525f6001604082200155808202918204036103265781156106de5704906106a382151561125d565b6106ad82336113ec565b6040519182527f5f7341a552ae2d452b071917104c05fbac3663936a69be768a05c40605056e7d60203393a3610577565b634e487b7160e01b5f52601260045260245ffd5b606460405162461bcd60e51b81526020600482015260046024820152636e6f6e6560e01b6044820152fd5b61063760048201549161060b565b606460405162461bcd60e51b81526020600482015260046024820152636c6f736560e01b6044820152fd5b90915081610767575b5084806105f5565b90506002811015610234576001148461075f565b91506002821015610234578115916105ee565b60405162461bcd60e51b815260206004820152600d60248201526c0e6d2c8ca5adad2e6dac2e8c6d609b1b6044820152606490fd5b90506002919250015461038481018091116103265742111561086c57600161083a910154825f52600260205260405f206001600160a01b0333165f526020525f60026040822082815582600182015501557f00000000000000000000000000000000000000000000000000000000000000006113ec565b604051905f82527f21e12a7cad0da5928167e1084ea4d5fdf8d9af66657a2543a9ac76a0ca08147760203393a3610577565b60405162461bcd60e51b8152602060048201526005602482015264677261636560d81b6044820152606490fd5b60048101541591506104f2565b60405162461bcd60e51b81526020600482015260096024820152681d5b9cd95d1d1b195960ba1b6044820152606490fd5b346102b5575f3660031901126102b5576020600454604051908152f35b346102b5575f3660031901126102b5576020604051600a8152f35b346102b55760403660031901126102b5576024356001600160a01b03811681036102b5576004355f5260026020526001600160a01b0360405f2091165f52602052606060405f2061097f81549160ff60026001830154920154169060405193845260208401526040830190610e5e565bf35b610e42565b346102b55760403660031901126102b5576004356109ce6001600160a01b037f0000000000000000000000000000000000000000000000000000000000000000163314610e6b565b60055460015403610a1d57610a0a60405160208101908382526024356040820152604081526109fe606082610edf565b51902060045414611206565b6007555f6004555f6005555f6006555f80f35b60405162461bcd60e51b81526020600482015260056024820152641c9bdd5b9960da1b6044820152606490fd5b346102b5575f3660031901126102b55760206040516001600160a01b037f0000000000000000000000000000000000000000000000000000000000000000168152f35b346102b55760203660031901126102b5576004355f52600360205261016060405f20805490600181015490600281015460038201546004830154600584015460068501549160078601549360088701549560ff600a60098a015499015416986040519a8b5260208b015260408a01526060890152608088015260a087015260c086015260e08501526101008401526101208301521515610140820152f35b346102b5575f3660031901126102b5576020604051662386f26fc100008152f35b346102b5575f3660031901126102b557602060ff600854166040519015158152f35b346102b5575f3660031901126102b5576020600754604051908152f35b346102b5575f3660031901126102b5576020600154604051908152f35b346102b5575f3660031901126102b5576020600554604051908152f35b346102b55760403660031901126102b55760043560028110156102b557610bf160ff6008541615610e9d565b600154805f52600360205260405f2090600182015442101580610d26575b15610cf7575f52600260205260405f206001600160a01b0333165f5260205260405f2090610c6f825460405160208101903360601b82528660f81b6034820152602435603582015260358152610c66605582610edf565b51902014611206565b82610cdc57610c88600360018401549201918254610ed2565b90555b5f8155610c9b8260028301611238565b60018054910154610caf6040518094610e5e565b60208301527f0447986cbc4e3a2a59f15d77a0b5c7ade84117a770c448cab35f1cf38a8663fa60403393a3005b610cf0600460018401549201918254610ed2565b9055610c8b565b60405162461bcd60e51b8152602060048201526007602482015266085c995d99585b60ca1b6044820152606490fd5b5060028201544210610c0f565b346102b5575f3660031901126102b5576020600654604051908152f35b346102b5575f3660031901126102b55760206040516001600160a01b037f0000000000000000000000000000000000000000000000000000000000000000168152f35b346102b5575f3660031901126102b55760206040516101f48152f35b346102b5575f3660031901126102b557610dc761128f565b610dd660ff6008541615610e9d565b610577610f01565b346102b55760203660031901126102b5576004358015158091036102b557610e306001600160a01b037f0000000000000000000000000000000000000000000000000000000000000000163314610e6b565b60ff8019600854169116176008555f80f35b346102b5575f3660031901126102b55760206040516103848152f35b9060028210156102345752565b15610e7257565b606460405162461bcd60e51b815260206004820152600460248201526310b7bbb760e11b6044820152fd5b15610ea457565b60405162461bcd60e51b81526020600482015260066024820152651c185d5cd95960d21b6044820152606490fd5b9190820180921161032657565b90601f8019910116810190811067ffffffffffffffff82111761024857604052565b600154805f52600360205260405f2060028101548042106111d557600a82019260ff8454166111aa576005540361119257610e10810180911161032657421015610f8a5760405162461bcd60e51b815260206004820152601660248201527f7468726573686f6c642d6e6f742d72657665616c6564000000000000000000006044820152606490fd5b5f6005555f6004556007810154905b6040516303e0818560e61b8152926020846004817f00000000000000000000000000000000000000000000000000000000000000006001600160a01b03165afa938415611187575f94611153575b50836008830155836009830155600160ff19825416179055600381015460048201546110138183610ed2565b911590811561114a575b506110f657600a810291811592828104600a14841715610326576127109004926101f483029283046101f4141715610326576110e5948360066127107f0b88c5bd74fc625a4f651904bf835063c6a449220be319924685261fb7709dd59504938460058201550155836110e7575b6110b5827f00000000000000000000000000000000000000000000000000000000000000006113ec565b6110d960015494604051938493846040919493926060820195825260208201520152565b0390a25f6007556112ad565b565b6110f184336113ec565b61108b565b50915f6006848260056110e597015501557f0b88c5bd74fc625a4f651904bf835063c6a449220be319924685261fb7709dd56060600154926040519081525f60208201525f6040820152a25f6007556112ad565b9050155f61101d565b9093506020813d60201161117f575b8161116f60209383610edf565b810103126102b55751925f610fe7565b3d9150611162565b6040513d5f823e3d90fd5b5060075480156111a3575b90610f99565b505f61119d565b606460405162461bcd60e51b8152602060048201526004602482015263646f6e6560e01b6044820152fd5b60405162461bcd60e51b8152602060048201526009602482015268746f6f206561726c7960b81b6044820152606490fd5b1561120d57565b60405162461bcd60e51b815260206004820152600360248201526218985960ea1b6044820152606490fd5b9060028110156102345760ff80198354169116179055565b9190820391821161032657565b1561126457565b606460405162461bcd60e51b8152602060048201526004602482015263191d5cdd60e21b6044820152fd5b60025f541461129e5760025f55565b633ee5aeb560e01b5f5260045ffd5b60015460018101809111610326578060015561012c4201804211610326576102584201908142116103265760405192610160840184811067ffffffffffffffff821117610248577fb5d8636ab45e6cac7a4a61cb7c77f77f61a454d73aa2e6139ff8dcaf463537e594600a916040524281526020810184815260408201868152606083015f8152608084015f815260a085015f815260c08601915f835260e08701938d85526101008801955f87526101208901975f89526101408a019b5f8d525f52600360205260405f2099518a555160018a0155516002890155516003880155516004870155516005860155516006850155516007840155516008830155516009820155019051151560ff801983541691161790556113e760015494604051938493846040919493926060820195825260208201520152565b0390a2565b5f8080936001600160a01b038294165af13d15611467573d67ffffffffffffffff8111610248576040519061142b601f8201601f191660200183610edf565b81525f60203d92013e5b1561143c57565b606460405162461bcd60e51b81526020600482015260046024820152633c3332b960e11b6044820152fd5b61143556fea2646970667358221220de0d9c18e4a4343c677906d84ee72034f7b205451f8011444b884cf27347c19264736f6c634300081e0033","linkReferences":{}},"methodIdentifiers":{"F()":"28811f59","GRACE_NONREVEAL()":"a556eb82","MIN_BET()":"6540742f","RAKE_BP()":"22464d73","REVEAL_TIMEOUT()":"3d6ae3a7","SETTLE_BOUNTY_BP()":"be9ebe6d","THRESHOLD_REVEAL_TIMEOUT()":"d6f0d290","claim(uint256,uint8,bytes32)":"cea84845","commit(bytes32)":"f14fcbc8","commitRound()":"4ed71302","commitThreshold(bytes32)":"e8740b51","commitTs()":"3b5fa1c4","cur()":"4fe24251","nextThreshold()":"59d58bcd","owner()":"8da5cb5b","pause(bool)":"02329a29","paused()":"5c975abb","reveal(uint256,uint256)":"9348cef7","reveal(uint8,bytes32)":"3fc8ae06","rounds(uint256)":"8c65c81f","settle()":"11da60b4","sweepDust(uint256)":"dcc1f0cf","thresholdCommit()":"c7b0e4cf","tickets(uint256,address)":"b99d6e29"},"id":3}