{"abi":[{"type":"constructor","inputs":[{"name":"oracle","type":"address","internalType":"address"}],"stateMutability":"nonpayable"},{"type":"function","name":"F","inputs":[],"outputs":[{"name":"","type":"address","internalType":"contract IBlobBaseFee"}],"stateMutability":"view"},{"type":"function","name":"bal","inputs":[{"name":"","type":"uint256","internalType":"uint256"},{"name":"","type":"address","internalType":"address"}],"outputs":[{"name":"","type":"uint256","internalType":"uint256"}],"stateMutability":"view"},{"type":"function","name":"buy","inputs":[{"name":"id","type":"uint256","internalType":"uint256"},{"name":"qty","type":"uint256","internalType":"uint256"}],"outputs":[],"stateMutability":"payable"},{"type":"function","name":"create","inputs":[{"name":"id","type":"uint256","internalType":"uint256"},{"name":"strike","type":"uint256","internalType":"uint256"},{"name":"cap","type":"uint256","internalType":"uint256"},{"name":"expiry","type":"uint256","internalType":"uint256"},{"name":"maxSold","type":"uint256","internalType":"uint256"}],"outputs":[],"stateMutability":"payable"},{"type":"function","name":"exercise","inputs":[{"name":"id","type":"uint256","internalType":"uint256"}],"outputs":[],"stateMutability":"nonpayable"},{"type":"function","name":"premium","inputs":[{"name":"id","type":"uint256","internalType":"uint256"}],"outputs":[{"name":"","type":"uint256","internalType":"uint256"}],"stateMutability":"view"},{"type":"function","name":"sData","inputs":[{"name":"","type":"uint256","internalType":"uint256"}],"outputs":[{"name":"strikeGwei","type":"uint256","internalType":"uint256"},{"name":"capGwei","type":"uint256","internalType":"uint256"},{"name":"expiry","type":"uint256","internalType":"uint256"},{"name":"payWei","type":"uint256","internalType":"uint256"},{"name":"sold","type":"uint256","internalType":"uint256"},{"name":"escBalance","type":"uint256","internalType":"uint256"},{"name":"settled","type":"bool","internalType":"bool"}],"stateMutability":"view"},{"type":"function","name":"settle","inputs":[{"name":"id","type":"uint256","internalType":"uint256"}],"outputs":[],"stateMutability":"nonpayable"},{"type":"function","name":"sweepMargin","inputs":[{"name":"id","type":"uint256","internalType":"uint256"}],"outputs":[],"stateMutability":"nonpayable"},{"type":"function","name":"writer","inputs":[],"outputs":[{"name":"","type":"address","internalType":"address"}],"stateMutability":"view"},{"type":"event","name":"Created","inputs":[{"name":"id","type":"uint256","indexed":true,"internalType":"uint256"},{"name":"strikeGwei","type":"uint256","indexed":false,"internalType":"uint256"},{"name":"expiry","type":"uint256","indexed":false,"internalType":"uint256"},{"name":"maxPayoutWei","type":"uint256","indexed":false,"internalType":"uint256"}],"anonymous":false},{"type":"event","name":"Exercised","inputs":[{"name":"id","type":"uint256","indexed":true,"internalType":"uint256"},{"name":"holder","type":"address","indexed":true,"internalType":"address"},{"name":"qty","type":"uint256","indexed":false,"internalType":"uint256"},{"name":"paid","type":"uint256","indexed":false,"internalType":"uint256"}],"anonymous":false},{"type":"event","name":"Settled","inputs":[{"name":"id","type":"uint256","indexed":true,"internalType":"uint256"},{"name":"feeGwei","type":"uint256","indexed":false,"internalType":"uint256"},{"name":"payWei","type":"uint256","indexed":false,"internalType":"uint256"}],"anonymous":false},{"type":"event","name":"Swept","inputs":[{"name":"id","type":"uint256","indexed":true,"internalType":"uint256"},{"name":"amount","type":"uint256","indexed":false,"internalType":"uint256"}],"anonymous":false}],"bytecode":{"object":"0x60c03461008e57601f610b7838819003918201601f19168301916001600160401b038311848410176100925780849260209460405283398101031261008e57516001600160a01b0381169081900361008e573360805260a052604051610ad190816100a782396080518181816101b5015281816106f8015261085e015260a05181818161055a01526108ef0152f35b5f80fd5b634e487b7160e01b5f52604160045260245ffdfe6080806040526004361015610012575f80fd5b5f3560e01c90816328811f59146108d257508063308f307a14610882578063453a2abc1461083f5780637979de74146107d057806380da9522146106cf5780638df82800146104ff578063b07f0a41146103b2578063bb4fa5dd14610197578063c839f15f146101715763d6febde81461008a575f80fd5b604036600319011261016d5760043560243590805f525f60205260405f209060028201546100b9811515610951565b421015610142576100d2836100cd836109a6565b610993565b340361011757610113916004915f52600160205260405f206001600160a01b0333165f5260205260405f20610108858254610944565b905501918254610944565b9055005b606460405162461bcd60e51b81526020600482015260046024820152637072656d60e01b6044820152fd5b60405162461bcd60e51b815260206004820152600360248201526206578760ec1b6044820152606490fd5b5f80fd5b3461016d57602036600319011261016d57602061018f6004356109a6565b604051908152f35b60a036600319011261016d576004356044356064356024356101e3337f00000000000000000000000000000000000000000000000000000000000000006001600160a01b031614610913565b835f525f602052600260405f2001546103845780831115610351576102088184610986565b633b9aca00810290808204633b9aca00149015171561033d5761022e9060843590610993565b80341061030f576040519260e084019484861067ffffffffffffffff8711176102fb5760066060957f8b0695fcfe9d2847566f18429647df2886f5228aef7eb1086827a508c65b1ebb9760405285815260208101928352604081018481528782015f815260808301905f825260a084019234845260c08501965f88528d5f525f60205260405f2095518655516001860155516002850155516003840155516004830155516005820155019051151560ff8019835416911617905560405192835260208301526040820152a2005b634e487b7160e01b5f52604160045260245ffd5b60405162461bcd60e51b8152602060048201526006602482015265657363726f7760d01b6044820152606490fd5b634e487b7160e01b5f52601160045260245ffd5b60405162461bcd60e51b815260206004820152600b60248201526a6361703c3d737472696b6560a81b6044820152606490fd5b60405162461bcd60e51b815260206004820152600660248201526565786973747360d01b6044820152606490fd5b3461016d57602036600319011261016d57600435805f525f60205260405f209060ff600683015416156104ce575f81815260016020908152604080832033845290915281208054919055600383015490929061040e9084610993565b9081156104a3576005018054828110610478578261042b91610986565b90555f808080843382f11561046d5760405192835260208301527fbb1ea6614cc25f4c8be774d6b5032cf5afa178192d18e27158bb9c1b9af888c160403393a3005b6040513d5f823e3d90fd5b60405162461bcd60e51b815260206004820152600360248201526265736360e81b6044820152606490fd5b606460405162461bcd60e51b81526020600482015260046024820152632169746d60e01b6044820152fd5b60405162461bcd60e51b81526020600482015260096024820152681d5b9cd95d1d1b195960ba1b6044820152606490fd5b3461016d57602036600319011261016d57600435805f525f60205260405f20600281015461052e811515610951565b42106106a257600681019081549160ff8316610677576040516303e0818560e61b8152926020846004817f00000000000000000000000000000000000000000000000000000000000000006001600160a01b03165afa93841561046d575f9461062d575b506001830154808511610625575b5082548085116105ed575b5060ff19166001179055600301546040805192835260208301919091527f321f57f44af402708b8b3bad0bd10012cd568d8696946e26edeb86178bb7c27e91a2005b6105f990859395610986565b92633b9aca00840293808504633b9aca00149015171561033d57600381019390935590929060406105ab565b9350856105a0565b90935060203d602011610670575b601f8101601f1916820167ffffffffffffffff8111838210176102fb5760209183916040528101031261016d57519285610592565b503d61063b565b606460405162461bcd60e51b8152602060048201526004602482015263646f6e6560e01b6044820152fd5b60405162461bcd60e51b81526020600482015260056024820152646561726c7960d81b6044820152606490fd5b3461016d57602036600319011261016d57600435805f525f60205260405f206001600160a01b037f000000000000000000000000000000000000000000000000000000000000000016610723813314610913565b60ff600683015416806107b7575b1561078c575f8080809493600582950190815496879255828215610783575bf11561046d5760207f8ca6abf6b1c0bd37b098133cb9c8a94eb36b3f0f859bbca87c56b032880f5b3591604051908152a2005b506108fc610750565b606460405162461bcd60e51b81526020600482015260046024820152631dd85a5d60e21b6044820152fd5b506002820154610e10810180911161033d574211610731565b3461016d57602036600319011261016d576004355f525f60205260e060405f208054906001810154906002810154600382015460048301549160ff600660058601549501541694604051968752602087015260408601526060850152608084015260a0830152151560c0820152f35b3461016d575f36600319011261016d5760206040516001600160a01b037f0000000000000000000000000000000000000000000000000000000000000000168152f35b3461016d57604036600319011261016d576024356001600160a01b038116810361016d576004355f5260016020526001600160a01b0360405f2091165f52602052602060405f2054604051908152f35b3461016d575f36600319011261016d576020906001600160a01b037f0000000000000000000000000000000000000000000000000000000000000000168152f35b1561091a57565b60405162461bcd60e51b8152602060048201526002602482015261217760f01b6044820152606490fd5b9190820180921161033d57565b1561095857565b60405162461bcd60e51b8152602060048201526006602482015265189859081a5960d21b6044820152606490fd5b9190820391821161033d57565b8181029291811591840414171561033d57565b5f525f602052600260405f2001546109bf811515610951565b42811115610a94576109d2904290610986565b8015610a8f57670de0b6b3a76400008102908104670de0b6b3a76400000361033d576301e1338090045f6003821115610a815750808060011c6001810180911161033d57905b828210610a4e5750505b8068878678326eac900000029068878678326eac90000082040361033d57670de0b6b3a7640000900490565b909150818015610a6d5780610a64918304610944565b60011c90610a18565b634e487b7160e01b5f52601260045260245ffd5b9015610a2257506001610a22565b505f90565b505f6109d256fea2646970667358221220e58bdfa70a7f54bdde9dad1115800155e3ff1396b0b632565487bdfe1424ade664736f6c634300081e0033","linkReferences":{}},"methodIdentifiers":{"F()":"28811f59","bal(uint256,address)":"308f307a","buy(uint256,uint256)":"d6febde8","create(uint256,uint256,uint256,uint256,uint256)":"bb4fa5dd","exercise(uint256)":"b07f0a41","premium(uint256)":"c839f15f","sData(uint256)":"7979de74","settle(uint256)":"8df82800","sweepMargin(uint256)":"80da9522","writer()":"453a2abc"},"id":5}