{"abi":[{"type":"constructor","inputs":[{"name":"oracle","type":"address","internalType":"address"}],"stateMutability":"nonpayable"},{"type":"function","name":"F","inputs":[],"outputs":[{"name":"","type":"address","internalType":"contract IBlobBaseFee"}],"stateMutability":"view"},{"type":"function","name":"bal","inputs":[{"name":"","type":"uint256","internalType":"uint256"},{"name":"","type":"address","internalType":"address"}],"outputs":[{"name":"","type":"uint256","internalType":"uint256"}],"stateMutability":"view"},{"type":"function","name":"buy","inputs":[{"name":"id","type":"uint256","internalType":"uint256"},{"name":"qty","type":"uint256","internalType":"uint256"}],"outputs":[],"stateMutability":"payable"},{"type":"function","name":"create","inputs":[{"name":"id","type":"uint256","internalType":"uint256"},{"name":"strike","type":"uint256","internalType":"uint256"},{"name":"cap","type":"uint256","internalType":"uint256"},{"name":"expiry","type":"uint256","internalType":"uint256"},{"name":"maxSold","type":"uint256","internalType":"uint256"}],"outputs":[],"stateMutability":"payable"},{"type":"function","name":"exercise","inputs":[{"name":"id","type":"uint256","internalType":"uint256"}],"outputs":[],"stateMutability":"nonpayable"},{"type":"function","name":"premium","inputs":[{"name":"id","type":"uint256","internalType":"uint256"}],"outputs":[{"name":"","type":"uint256","internalType":"uint256"}],"stateMutability":"view"},{"type":"function","name":"sData","inputs":[{"name":"","type":"uint256","internalType":"uint256"}],"outputs":[{"name":"strikeGwei","type":"uint256","internalType":"uint256"},{"name":"capGwei","type":"uint256","internalType":"uint256"},{"name":"expiry","type":"uint256","internalType":"uint256"},{"name":"payWei","type":"uint256","internalType":"uint256"},{"name":"sold","type":"uint256","internalType":"uint256"},{"name":"escBalance","type":"uint256","internalType":"uint256"},{"name":"settled","type":"bool","internalType":"bool"}],"stateMutability":"view"},{"type":"function","name":"settle","inputs":[{"name":"id","type":"uint256","internalType":"uint256"}],"outputs":[],"stateMutability":"nonpayable"},{"type":"function","name":"sweepMargin","inputs":[{"name":"id","type":"uint256","internalType":"uint256"}],"outputs":[],"stateMutability":"nonpayable"},{"type":"function","name":"writer","inputs":[],"outputs":[{"name":"","type":"address","internalType":"address"}],"stateMutability":"view"},{"type":"event","name":"Created","inputs":[{"name":"id","type":"uint256","indexed":true,"internalType":"uint256"},{"name":"strikeGwei","type":"uint256","indexed":false,"internalType":"uint256"},{"name":"expiry","type":"uint256","indexed":false,"internalType":"uint256"},{"name":"maxPayoutWei","type":"uint256","indexed":false,"internalType":"uint256"}],"anonymous":false},{"type":"event","name":"Exercised","inputs":[{"name":"id","type":"uint256","indexed":true,"internalType":"uint256"},{"name":"holder","type":"address","indexed":true,"internalType":"address"},{"name":"qty","type":"uint256","indexed":false,"internalType":"uint256"},{"name":"paid","type":"uint256","indexed":false,"internalType":"uint256"}],"anonymous":false},{"type":"event","name":"Settled","inputs":[{"name":"id","type":"uint256","indexed":true,"internalType":"uint256"},{"name":"feeGwei","type":"uint256","indexed":false,"internalType":"uint256"},{"name":"payWei","type":"uint256","indexed":false,"internalType":"uint256"}],"anonymous":false},{"type":"event","name":"Swept","inputs":[{"name":"id","type":"uint256","indexed":true,"internalType":"uint256"},{"name":"amount","type":"uint256","indexed":false,"internalType":"uint256"}],"anonymous":false},{"type":"error","name":"ReentrancyGuardReentrantCall","inputs":[]}],"bytecode":{"object":"0x60c03461009257601f610c5538819003918201601f19168301916001600160401b038311848410176100965780849260209460405283398101031261009257516001600160a01b038116908190036100925760015f553360805260a052604051610baa90816100ab82396080518181816101b6015281816107980152610903015260a0518181816105f101526109940152f35b5f80fd5b634e487b7160e01b5f52604160045260245ffdfe6080806040526004361015610012575f80fd5b5f3560e01c90816328811f591461097757508063308f307a14610927578063453a2abc146108e45780637979de741461087457806380da9522146107665780638df8280014610595578063b07f0a411461043b578063bb4fa5dd14610198578063c839f15f146101725763d6febde81461008a575f80fd5b604036600319011261016e5760043560243590805f52600160205260405f209060028201546100ba8115156109f6565b421015610143576100d3836100ce83610a4b565b610a38565b340361011857610114916004915f52600260205260405f206001600160a01b0333165f5260205260405f206101098582546109e9565b9055019182546109e9565b9055005b606460405162461bcd60e51b81526020600482015260046024820152637072656d60e01b6044820152fd5b60405162461bcd60e51b815260206004820152600360248201526206578760ec1b6044820152606490fd5b5f80fd5b3461016e57602036600319011261016e576020610190600435610a4b565b604051908152f35b60a036600319011261016e576004356044356064356024356101e4337f00000000000000000000000000000000000000000000000000000000000000006001600160a01b0316146109b8565b835f526001602052600260405f20015461040d57808311156103da57606461020c8285610a2b565b116103a65761021b8184610a2b565b633b9aca00810290808204633b9aca001490151715610392576102419060843590610a38565b68056bc75e2d63100000811161036157803410610333576040519260e084019484861067ffffffffffffffff87111761031f5760066060957f8b0695fcfe9d2847566f18429647df2886f5228aef7eb1086827a508c65b1ebb9760405285815260208101928352604081018481528782015f815260808301905f825260a084019234845260c08501965f88528d5f52600160205260405f2095518655516001860155516002850155516003840155516004830155516005820155019051151560ff8019835416911617905560405192835260208301526040820152a2005b634e487b7160e01b5f52604160045260245ffd5b60405162461bcd60e51b8152602060048201526006602482015265657363726f7760d01b6044820152606490fd5b60405162461bcd60e51b81526020600482015260096024820152686c696162696c69747960b81b6044820152606490fd5b634e487b7160e01b5f52601160045260245ffd5b60405162461bcd60e51b815260206004820152600c60248201526b0c6c2e040e8dede40d0d2ced60a31b6044820152606490fd5b60405162461bcd60e51b815260206004820152600b60248201526a6361703c3d737472696b6560a81b6044820152606490fd5b60405162461bcd60e51b815260206004820152600660248201526565786973747360d01b6044820152606490fd5b3461016e57602036600319011261016e57600435610457610b56565b805f52600160205260405f209060ff60068301541615610564575f8181526002602090815260408083203384529091528120805491905560038301549092906104a09084610a38565b90811561053957600501805482811061050e57826104bd91610a2b565b90555f808080843382f1156105035760405192835260208301527fbb1ea6614cc25f4c8be774d6b5032cf5afa178192d18e27158bb9c1b9af888c160403393a360015f55005b6040513d5f823e3d90fd5b60405162461bcd60e51b815260206004820152600360248201526265736360e81b6044820152606490fd5b606460405162461bcd60e51b81526020600482015260046024820152632169746d60e01b6044820152fd5b60405162461bcd60e51b81526020600482015260096024820152681d5b9cd95d1d1b195960ba1b6044820152606490fd5b3461016e57602036600319011261016e57600435805f52600160205260405f2060028101546105c58115156109f6565b421061073957600681019081549160ff831661070e576040516303e0818560e61b8152926020846004817f00000000000000000000000000000000000000000000000000000000000000006001600160a01b03165afa938415610503575f946106c4575b5060018301548085116106bc575b508254808511610684575b5060ff19166001179055600301546040805192835260208301919091527f321f57f44af402708b8b3bad0bd10012cd568d8696946e26edeb86178bb7c27e91a2005b61069090859395610a2b565b92633b9aca00840293808504633b9aca0014901517156103925760038101939093559092906040610642565b935085610637565b90935060203d602011610707575b601f8101601f1916820167ffffffffffffffff81118382101761031f5760209183916040528101031261016e57519285610629565b503d6106d2565b606460405162461bcd60e51b8152602060048201526004602482015263646f6e6560e01b6044820152fd5b60405162461bcd60e51b81526020600482015260056024820152646561726c7960d81b6044820152606490fd5b3461016e57602036600319011261016e57600435610782610b56565b805f52600160205260405f206001600160a01b037f0000000000000000000000000000000000000000000000000000000000000000166107c38133146109b8565b60ff6006830154168061085b575b15610830575f8080809493600582950190815496879255828215610827575bf1156105035760207f8ca6abf6b1c0bd37b098133cb9c8a94eb36b3f0f859bbca87c56b032880f5b3591604051908152a260015f55005b506108fc6107f0565b606460405162461bcd60e51b81526020600482015260046024820152631dd85a5d60e21b6044820152fd5b506002820154610e1081018091116103925742116107d1565b3461016e57602036600319011261016e576004355f52600160205260e060405f208054906001810154906002810154600382015460048301549160ff600660058601549501541694604051968752602087015260408601526060850152608084015260a0830152151560c0820152f35b3461016e575f36600319011261016e5760206040516001600160a01b037f0000000000000000000000000000000000000000000000000000000000000000168152f35b3461016e57604036600319011261016e576024356001600160a01b038116810361016e576004355f5260026020526001600160a01b0360405f2091165f52602052602060405f2054604051908152f35b3461016e575f36600319011261016e576020906001600160a01b037f0000000000000000000000000000000000000000000000000000000000000000168152f35b156109bf57565b60405162461bcd60e51b8152602060048201526002602482015261217760f01b6044820152606490fd5b9190820180921161039257565b156109fd57565b60405162461bcd60e51b8152602060048201526006602482015265189859081a5960d21b6044820152606490fd5b9190820391821161039257565b8181029291811591840414171561039257565b5f526001602052600260405f200154610a658115156109f6565b42811115610b4f57610a78904290610a2b565b62278d008111610b45575b8015610b4057670de0b6b3a76400008102908104670de0b6b3a764000003610392576301e1338090045f6003821115610b325750808060011c6001810180911161039257905b828210610aff5750505b8068878678326eac900000029068878678326eac90000082040361039257670de0b6b3a7640000900490565b909150818015610b1e5780610b159183046109e9565b60011c90610ac9565b634e487b7160e01b5f52601260045260245ffd5b9015610ad357506001610ad3565b505f90565b5062278d00610a83565b505f610a78565b60025f5414610b655760025f55565b633ee5aeb560e01b5f5260045ffdfea264697066735822122057be4b033cdd6acabd4dbdd826c1db04e23d7c4bc09251a2bc7f371352d53de464736f6c634300081e0033","linkReferences":{}},"methodIdentifiers":{"F()":"28811f59","bal(uint256,address)":"308f307a","buy(uint256,uint256)":"d6febde8","create(uint256,uint256,uint256,uint256,uint256)":"bb4fa5dd","exercise(uint256)":"b07f0a41","premium(uint256)":"c839f15f","sData(uint256)":"7979de74","settle(uint256)":"8df82800","sweepMargin(uint256)":"80da9522","writer()":"453a2abc"},"id":3}