{"abi":[{"type":"constructor","inputs":[{"name":"feeOracle","type":"address","internalType":"address"}],"stateMutability":"nonpayable"},{"type":"receive","stateMutability":"payable"},{"type":"function","name":"BET_CUTOFF","inputs":[],"outputs":[{"name":"","type":"uint256","internalType":"uint256"}],"stateMutability":"view"},{"type":"function","name":"BUFFER","inputs":[],"outputs":[{"name":"","type":"uint256","internalType":"uint256"}],"stateMutability":"view"},{"type":"function","name":"F","inputs":[],"outputs":[{"name":"","type":"address","internalType":"contract IBlobBaseFee"}],"stateMutability":"view"},{"type":"function","name":"MIN_BET","inputs":[],"outputs":[{"name":"","type":"uint256","internalType":"uint256"}],"stateMutability":"view"},{"type":"function","name":"RAKE_BP","inputs":[],"outputs":[{"name":"","type":"uint256","internalType":"uint256"}],"stateMutability":"view"},{"type":"function","name":"SETTLE_BOUNTY_BP","inputs":[],"outputs":[{"name":"","type":"uint256","internalType":"uint256"}],"stateMutability":"view"},{"type":"function","name":"betHi","inputs":[],"outputs":[],"stateMutability":"payable"},{"type":"function","name":"betLo","inputs":[],"outputs":[],"stateMutability":"payable"},{"type":"function","name":"claim","inputs":[{"name":"id","type":"uint256","internalType":"uint256"}],"outputs":[],"stateMutability":"nonpayable"},{"type":"function","name":"cur","inputs":[],"outputs":[{"name":"","type":"uint256","internalType":"uint256"}],"stateMutability":"view"},{"type":"function","name":"hiBet","inputs":[{"name":"","type":"uint256","internalType":"uint256"},{"name":"","type":"address","internalType":"address"}],"outputs":[{"name":"","type":"uint256","internalType":"uint256"}],"stateMutability":"view"},{"type":"function","name":"loBet","inputs":[{"name":"","type":"uint256","internalType":"uint256"},{"name":"","type":"address","internalType":"address"}],"outputs":[{"name":"","type":"uint256","internalType":"uint256"}],"stateMutability":"view"},{"type":"function","name":"nextThresholdGwei","inputs":[],"outputs":[{"name":"","type":"uint256","internalType":"uint256"}],"stateMutability":"view"},{"type":"function","name":"owner","inputs":[],"outputs":[{"name":"","type":"address","internalType":"address"}],"stateMutability":"view"},{"type":"function","name":"rounds","inputs":[{"name":"","type":"uint256","internalType":"uint256"}],"outputs":[{"name":"closeTs","type":"uint256","internalType":"uint256"},{"name":"hiPool","type":"uint256","internalType":"uint256"},{"name":"loPool","type":"uint256","internalType":"uint256"},{"name":"feeWei","type":"uint256","internalType":"uint256"},{"name":"thresholdGwei","type":"uint256","internalType":"uint256"},{"name":"settlePriceGwei","type":"uint256","internalType":"uint256"}],"stateMutability":"view"},{"type":"function","name":"setNextThreshold","inputs":[{"name":"thr","type":"uint256","internalType":"uint256"}],"outputs":[],"stateMutability":"nonpayable"},{"type":"function","name":"settle","inputs":[],"outputs":[],"stateMutability":"nonpayable"},{"type":"function","name":"settlePriceGwei","inputs":[],"outputs":[{"name":"","type":"uint256","internalType":"uint256"}],"stateMutability":"view"},{"type":"function","name":"settled","inputs":[],"outputs":[{"name":"","type":"bool","internalType":"bool"}],"stateMutability":"view"},{"type":"function","name":"sweepDust","inputs":[],"outputs":[],"stateMutability":"nonpayable"},{"type":"event","name":"Bet","inputs":[{"name":"id","type":"uint256","indexed":false,"internalType":"uint256"},{"name":"user","type":"address","indexed":false,"internalType":"address"},{"name":"hi","type":"bool","indexed":false,"internalType":"bool"},{"name":"amt","type":"uint256","indexed":false,"internalType":"uint256"}],"anonymous":false},{"type":"event","name":"NewRound","inputs":[{"name":"id","type":"uint256","indexed":false,"internalType":"uint256"},{"name":"close","type":"uint256","indexed":false,"internalType":"uint256"},{"name":"thr","type":"uint256","indexed":false,"internalType":"uint256"}],"anonymous":false},{"type":"event","name":"RefundAll","inputs":[{"name":"id","type":"uint256","indexed":true,"internalType":"uint256"}],"anonymous":false},{"type":"event","name":"RoundVoided","inputs":[{"name":"id","type":"uint256","indexed":true,"internalType":"uint256"},{"name":"refundWei","type":"uint256","indexed":false,"internalType":"uint256"}],"anonymous":false},{"type":"event","name":"SettleBounty","inputs":[{"name":"id","type":"uint256","indexed":true,"internalType":"uint256"},{"name":"caller","type":"address","indexed":true,"internalType":"address"},{"name":"bountyWei","type":"uint256","indexed":false,"internalType":"uint256"}],"anonymous":false},{"type":"event","name":"Settled","inputs":[{"name":"feeGwei","type":"uint256","indexed":false,"internalType":"uint256"}],"anonymous":false},{"type":"error","name":"ReentrancyGuardReentrantCall","inputs":[]}],"bytecode":{"object":"0x60a0604052346101a557604051601f61104c38819003918201601f19168301916001600160401b03831184841017610174578084926020946040528339810103126101a557516001600160a01b038116908190036101a55760016002553360018060a01b0319600454161760045560805260ff196001541660015560035460018101809111610188576003819055600554801561019c57905b5f600555610e1042018042116101885760405160c0810193906001600160401b038511818610176101745760056060947f5aec57d81928b24d30b1a2aec0d23d693412c37d7ec106b5d8259413716bb1f496604052848352602083015f8152604084015f8152878501905f8252608086019287845260a08701945f86525f52600660205260405f2096518755516001870155516002860155516003850155516004840155519101556003549160405192835260208301526040820152a1604051610ea290816101aa823960805181818161066501526107740152f35b634e487b7160e01b5f52604160045260245ffd5b634e487b7160e01b5f52601160045260245ffd5b50601990610098565b5f80fdfe6080604052600436101561001a575b3615610018575f80fd5b005b5f3560e01c80630a25ede6146106c557806311da60b4146106a557806322464d731461068957806328811f5914610646578063379607f51461061b5780634fe24251146105fe5780636540742f146105dd57806375ad76891461052257806375f55859146105065780638510ff87146104e95780638c65c81f146104885780638da5cb5b146104625780638f775839146104405780638fbc3ecd14610425578063a53df2e214610339578063a6786904146101fd578063be9ebe6d146101e2578063c1a654d5146101aa578063c4a762431461018e5763c4c8b35b0361000e573461018a57602036600319011261018a576101216001600160a01b03600454163314610d29565b6003545f52600660205260405f20600181015415908161017d575b501561014a57600435600555005b60405162461bcd60e51b815260206004820152600b60248201526a18995d1cc81c1b1858d95960aa1b6044820152606490fd5b600291500154155f61013c565b5f80fd5b3461018a575f36600319011261018a5760205f54604051908152f35b3461018a576101b8366106fd565b905f5260076020526001600160a01b0360405f2091165f52602052602060405f2054604051908152f35b3461018a575f36600319011261018a576020604051600a8152f35b5f36600319011261018a57600354805f52600660205260405f2060b4420180421161032557815411156102e057662386f26fc1000034106102b5576002915f52600860205260405f206001600160a01b0333165f5260205260405f20610264348254610723565b905501610272348254610723565b90557f27566cdd95dbce2805a5e40f467651a701882e8a51eaa28c53331fdc5e24f85960806003546040519081523360208201525f6040820152346060820152a1005b606460405162461bcd60e51b8152602060048201526004602482015263191d5cdd60e21b6044820152fd5b60405162461bcd60e51b815260206004820152601160248201527f6265742d77696e646f772d636c6f7365640000000000000000000000000000006044820152606490fd5b634e487b7160e01b5f52601160045260245ffd5b3461018a575f36600319011261018a576001600160a01b0360045416610360813314610d29565b600354805f52600660205260405f205462278d008101809111610325574211156103f5575f90815260066020526040902060018101546002909101546103a591610723565b8047115f146103ee576103b89047610730565b80159182156103c357005b5f9283928392839283906103e5575bf1156103da57005b6040513d5f823e3d90fd5b506108fc6103d2565b505f6103b8565b60405162461bcd60e51b81526020600482015260086024820152673a37b796b9b7b7b760c11b6044820152606490fd5b3461018a575f36600319011261018a57602060405160b48152f35b3461018a575f36600319011261018a57602060ff600154166040519015158152f35b3461018a575f36600319011261018a5760206001600160a01b0360045416604051908152f35b3461018a57602036600319011261018a576004355f52600660205260c060405f2080549060018101549060028101546003820154906005600484015493015493604051958652602086015260408501526060840152608083015260a0820152f35b3461018a575f36600319011261018a576020600554604051908152f35b3461018a575f36600319011261018a57602060405161012c8152f35b5f36600319011261018a576003545f52600660205260405f2060b4420180421161032557815411156102e057662386f26fc1000034106102b5576001906003545f52600760205260405f206001600160a01b0333165f5260205260405f2061058b348254610723565b905501610599348254610723565b90557f27566cdd95dbce2805a5e40f467651a701882e8a51eaa28c53331fdc5e24f859608060035460405190815233602082015260016040820152346060820152a1005b3461018a575f36600319011261018a576020604051662386f26fc100008152f35b3461018a575f36600319011261018a576020600354604051908152f35b3461018a57602036600319011261018a57610634610d5b565b61063f600435610aa6565b6001600255005b3461018a575f36600319011261018a5760206040516001600160a01b037f0000000000000000000000000000000000000000000000000000000000000000168152f35b3461018a575f36600319011261018a5760206040516101f48152f35b3461018a575f36600319011261018a576106bd610d5b565b61063f61073d565b3461018a576106d3366106fd565b905f5260086020526001600160a01b0360405f2091165f52602052602060405f2054604051908152f35b604090600319011261018a57600435906024356001600160a01b038116810361018a5790565b9190820180921161032557565b9190820391821161032557565b6003545f52600660205260405f208054600c8101809111610325574210610a41576040516303e0818560e61b8152906020826004817f00000000000000000000000000000000000000000000000000000000000000006001600160a01b03165afa9182156103da575f926109e3575b5081600582015560018101546002820154906107c88282610723565b91811580156109db575b61092557505047600a810290808204600a149015171561032557612710900490811580156108c4575b506101f480820292508115918304141715610325575f80806127108194048060038701556001600160a01b03600454168282156108bb575bf1156103da576001549060ff821661088c577fcc3183593ff0e17b930d6f19f832ddcf865bf7ef55eb16754850c55ac447b2ad602061088a94600160049560ff191617600155805f55604051908152a10154610d79565b565b60405162461bcd60e51b81526020600482015260076024820152661cd95d1d1b195960ca1b6044820152606490fd5b506108fc610833565b82905f9061091c575b5f80809381933390f1156103da57816108e591610730565b906003546040519182527fa8771a67c56919613ce2ba5d4a7425d832742950434c76c75350869f8e62a2d060203393a3805f6107fb565b506108fc6108cd565b7fc147173c1fd31618a0a4e069af57571238b6f23c2332926b1f587f0f770ac4b19192506109836020915f600387015560035494857fa70a53972d6afb0fc38bd683cd5955faa5fa55e6629744a51e7a2aaa0ecc4e045f80a2610723565b604051908152a26001549060ff821661088c577fcc3183593ff0e17b930d6f19f832ddcf865bf7ef55eb16754850c55ac447b2ad602061088a94600160049560ff191617600155805f55604051908152a10154610d79565b5080156107d2565b90915060203d602011610a3a575b601f8101601f1916820167ffffffffffffffff811183821017610a265760209183916040528101031261018a5751905f6107ac565b634e487b7160e01b5f52604160045260245ffd5b503d6109f1565b60405162461bcd60e51b815260206004820152600b60248201526a19dc9a59598819dd585c9960aa1b6044820152606490fd5b15610a7b57565b606460405162461bcd60e51b81526020600482015260046024820152636e6f6e6560e01b6044820152fd5b805f52600660205260405f206005810191825415610ce45760018201928354158015610cd8575b610c135754600483015411801592610b5c91610bed57825f52600760205260405f206001600160a01b0333165f5260205260405f2054935b841593610b128515610a74565b8115610bc8575f52600760205260405f206001600160a01b0333165f526020525f60408120555b15610bb8576003610b538654965b54600284015490610723565b91015490610730565b808302928304141715610325578115610ba4575f8080938193048047809111610b9c575b50818115610b93575b3390f1156103da57565b506108fc610b89565b90505f610b80565b634e487b7160e01b5f52601260045260245ffd5b6003610b53600283015496610b47565b5f52600860205260405f206001600160a01b0333165f526020525f6040812055610b39565b825f52600860205260405f206001600160a01b0333165f5260205260405f205493610b05565b505f80935080925081819282526007602052604082206001600160a01b0333168352602052610c6660408320548284526008602052604084206001600160a01b0333168552602052604084205490610723565b90610c72821515610a74565b8083526007602052604083206001600160a01b033316845260205282604081205582526008602052604082206001600160a01b033316835260205281604081205547908181118314610cd157505b818115610b93573390f1156103da57565b9050610cc0565b50600283015415610acd565b60405162461bcd60e51b815260206004820152600f60248201527f726f756e6420756e736574746c656400000000000000000000000000000000006044820152606490fd5b15610d3057565b606460405162461bcd60e51b815260206004820152600460248201526310b7bbb760e11b6044820152fd5b6002805414610d6a5760028055565b633ee5aeb560e01b5f5260045ffd5b60ff19600154166001556003549060018201809211610325576003829055600554908115610e645750905b5f600555610e104201804211610325576040519260c084019380851067ffffffffffffffff861117610a265760056060947f5aec57d81928b24d30b1a2aec0d23d693412c37d7ec106b5d8259413716bb1f496604052848352602083015f8152604084015f8152878501905f8252608086019287845260a08701945f86525f52600660205260405f2096518755516001870155516002860155516003850155516004840155519101556003549160405192835260208301526040820152a1565b905090610da456fea264697066735822122021436791c03a89726e7077fdb04865bc6b552bf434f8b0ba91f7ac437243394f64736f6c634300081e0033","linkReferences":{}},"methodIdentifiers":{"BET_CUTOFF()":"75f55859","BUFFER()":"8fbc3ecd","F()":"28811f59","MIN_BET()":"6540742f","RAKE_BP()":"22464d73","SETTLE_BOUNTY_BP()":"be9ebe6d","betHi()":"75ad7689","betLo()":"a6786904","claim(uint256)":"379607f5","cur()":"4fe24251","hiBet(uint256,address)":"c1a654d5","loBet(uint256,address)":"0a25ede6","nextThresholdGwei()":"8510ff87","owner()":"8da5cb5b","rounds(uint256)":"8c65c81f","setNextThreshold(uint256)":"c4c8b35b","settle()":"11da60b4","settlePriceGwei()":"c4a76243","settled()":"8f775839","sweepDust()":"a53df2e2"},"id":3}