{"abi":[{"type":"constructor","inputs":[],"stateMutability":"nonpayable"},{"type":"receive","stateMutability":"payable"},{"type":"function","name":"RAKE_BP","inputs":[],"outputs":[{"name":"","type":"uint256","internalType":"uint256"}],"stateMutability":"view"},{"type":"function","name":"betHi","inputs":[],"outputs":[],"stateMutability":"payable"},{"type":"function","name":"betLo","inputs":[],"outputs":[],"stateMutability":"payable"},{"type":"function","name":"claim","inputs":[{"name":"id","type":"uint256","internalType":"uint256"}],"outputs":[],"stateMutability":"nonpayable"},{"type":"function","name":"cur","inputs":[],"outputs":[{"name":"","type":"uint256","internalType":"uint256"}],"stateMutability":"view"},{"type":"function","name":"hiBet","inputs":[{"name":"","type":"uint256","internalType":"uint256"},{"name":"","type":"address","internalType":"address"}],"outputs":[{"name":"","type":"uint256","internalType":"uint256"}],"stateMutability":"view"},{"type":"function","name":"loBet","inputs":[{"name":"","type":"uint256","internalType":"uint256"},{"name":"","type":"address","internalType":"address"}],"outputs":[{"name":"","type":"uint256","internalType":"uint256"}],"stateMutability":"view"},{"type":"function","name":"owner","inputs":[],"outputs":[{"name":"","type":"address","internalType":"address"}],"stateMutability":"view"},{"type":"function","name":"rounds","inputs":[{"name":"","type":"uint256","internalType":"uint256"}],"outputs":[{"name":"closeTs","type":"uint256","internalType":"uint256"},{"name":"hiPool","type":"uint256","internalType":"uint256"},{"name":"loPool","type":"uint256","internalType":"uint256"},{"name":"feeWei","type":"uint256","internalType":"uint256"},{"name":"thresholdGwei","type":"uint256","internalType":"uint256"}],"stateMutability":"view"},{"type":"function","name":"setThreshold","inputs":[{"name":"nextThr","type":"uint256","internalType":"uint256"}],"outputs":[],"stateMutability":"nonpayable"},{"type":"function","name":"settle","inputs":[],"outputs":[],"stateMutability":"nonpayable"},{"type":"function","name":"settlePriceGwei","inputs":[],"outputs":[{"name":"","type":"uint256","internalType":"uint256"}],"stateMutability":"view"},{"type":"function","name":"settled","inputs":[],"outputs":[{"name":"","type":"bool","internalType":"bool"}],"stateMutability":"view"},{"type":"event","name":"Bet","inputs":[{"name":"id","type":"uint256","indexed":false,"internalType":"uint256"},{"name":"user","type":"address","indexed":false,"internalType":"address"},{"name":"hi","type":"bool","indexed":false,"internalType":"bool"},{"name":"amt","type":"uint256","indexed":false,"internalType":"uint256"}],"anonymous":false},{"type":"event","name":"NewRound","inputs":[{"name":"id","type":"uint256","indexed":false,"internalType":"uint256"},{"name":"close","type":"uint256","indexed":false,"internalType":"uint256"},{"name":"thr","type":"uint256","indexed":false,"internalType":"uint256"}],"anonymous":false},{"type":"event","name":"Settled","inputs":[{"name":"feeGwei","type":"uint256","indexed":false,"internalType":"uint256"}],"anonymous":false}],"bytecode":{"object":"0x60803461010a57600380546001600160a01b03191633179055600254600181019081106100f65780600255610e1042018042116100f65760a08301926001600160401b038411818510176100e25760046060937f5aec57d81928b24d30b1a2aec0d23d693412c37d7ec106b5d8259413716bb1f495604052838352602083015f8152604084015f8152868501915f83526080860193601985525f528460205260405f20955186555160018601555160028501555160038401555191015560025490604051918252602082015260196040820152a160405161089d908161010f8239f35b634e487b7160e01b5f52604160045260245ffd5b634e487b7160e01b5f52601160045260245ffd5b5f80fdfe6080604052600436101561001a575b3615610018575f80fd5b005b5f3560e01c80630a25ede6146107fc57806311da60b41461058357806322464d7314610567578063379607f5146103985780634fe242511461037b57806375ad7689146102d85780638c65c81f146102825780638da5cb5b1461025c5780638f7758391461023a578063960bfe04146101d3578063a678690414610105578063c1a654d5146100cd5763c4a762430361000e57346100c9575f3660031901126100c95760205f54604051908152f35b5f80fd5b346100c9576100db36610834565b905f5260056020526001600160a01b0360405f2091165f52602052602060405f2054604051908152f35b5f3660031901126100c957600254805f52600460205260405f2080544210156101a5576002915f52600660205260405f206001600160a01b0333165f5260205260405f2061015434825461085a565b90550161016234825461085a565b90557f27566cdd95dbce2805a5e40f467651a701882e8a51eaa28c53331fdc5e24f85960806002546040519081523360208201525f6040820152346060820152a1005b60405162461bcd60e51b815260206004820152600660248201526518db1bdcd95960d21b6044820152606490fd5b346100c95760203660031901126100c9576001600160a01b0360035416330361020f576002545f526004602052600435600460405f2001555f80f35b606460405162461bcd60e51b815260206004820152600460248201526310b7bbb760e11b6044820152fd5b346100c9575f3660031901126100c957602060ff600154166040519015158152f35b346100c9575f3660031901126100c95760206001600160a01b0360035416604051908152f35b346100c95760203660031901126100c9576004355f52600460205260a060405f20805490600181015490600281015460046003830154920154926040519485526020850152604084015260608301526080820152f35b5f3660031901126100c9576002545f52600460205260405f2080544210156101a5576001906002545f52600560205260405f206001600160a01b0333165f5260205260405f2061032934825461085a565b90550161033734825461085a565b90557f27566cdd95dbce2805a5e40f467651a701882e8a51eaa28c53331fdc5e24f859608060025460405190815233602082015260016040820152346060820152a1005b346100c9575f3660031901126100c9576020600254604051908152f35b346100c95760203660031901126100c957600435805f52600460205260405f209060ff6001541615610536575f5460048301541180159061051057815f52600560205260405f206001600160a01b0333165f5260205260405f2054915b82156104e55781156104c0575f52600560205260405f206001600160a01b0333165f526020525f60408120555b156104b5576001820154915b6003610443600183015460028401549061085a565b91015481039081116104a157808202918204036104a157811561048d575f808093819304818115610484575b3390f11561047957005b6040513d5f823e3d90fd5b506108fc61046f565b634e487b7160e01b5f52601260045260245ffd5b634e487b7160e01b5f52601160045260245ffd5b60028201549161042e565b5f52600660205260405f206001600160a01b0333165f526020525f6040812055610422565b606460405162461bcd60e51b81526020600482015260046024820152636e6f6e6560e01b6044820152fd5b815f52600660205260405f206001600160a01b0333165f5260205260405f2054916103f5565b60405162461bcd60e51b81526020600482015260096024820152681d5b9cd95d1d1b195960ba1b6044820152606490fd5b346100c9575f3660031901126100c95760206040516101f48152f35b346100c9575f3660031901126100c9576002545f52600460205260405f208054600c81018091116104a15742106107c9576040516303e0818560e61b8152906020826004815f5afa918215610479575f9261077f575b506105ed600182015460028301549061085a565b6101f48102908082046101f414901517156104a1575f80806127108194048060038701556001600160a01b0360035416828215610776575bf115610479576001549160ff83166107475760207fcc3183593ff0e17b930d6f19f832ddcf865bf7ef55eb16754850c55ac447b2ad91600160049560ff191617600155805f55604051908152a10154600254600181018091116104a15780600255610e1042018042116104a1576040519260a084019380851067ffffffffffffffff8611176107335760046060947f5aec57d81928b24d30b1a2aec0d23d693412c37d7ec106b5d8259413716bb1f496604052848352602083015f8152604084015f8152878501915f835260808601938785525f528460205260405f2095518655516001860155516002850155516003840155519101556002549160405192835260208301526040820152a1005b634e487b7160e01b5f52604160045260245ffd5b60405162461bcd60e51b81526020600482015260076024820152661cd95d1d1b195960ca1b6044820152606490fd5b506108fc610625565b90915060203d6020116107c2575b601f8101601f1916820167ffffffffffffffff811183821017610733576020918391604052810103126100c9575190826105d9565b503d61078d565b60405162461bcd60e51b815260206004820152600b60248201526a19dc9a59598819dd585c9960aa1b6044820152606490fd5b346100c95761080a36610834565b905f5260066020526001600160a01b0360405f2091165f52602052602060405f2054604051908152f35b60409060031901126100c957600435906024356001600160a01b03811681036100c95790565b919082018092116104a15756fea2646970667358221220688770801faf376e8b19455ccbbabfc2037e94fb738d864a15992de9c935d27b64736f6c634300081e0033","linkReferences":{}},"methodIdentifiers":{"RAKE_BP()":"22464d73","betHi()":"75ad7689","betLo()":"a6786904","claim(uint256)":"379607f5","cur()":"4fe24251","hiBet(uint256,address)":"c1a654d5","loBet(uint256,address)":"0a25ede6","owner()":"8da5cb5b","rounds(uint256)":"8c65c81f","setThreshold(uint256)":"960bfe04","settle()":"11da60b4","settlePriceGwei()":"c4a76243","settled()":"8f775839"},"id":2}