{"abi":[{"type":"constructor","inputs":[{"name":"feeOracle","type":"address","internalType":"address"}],"stateMutability":"nonpayable"},{"type":"receive","stateMutability":"payable"},{"type":"function","name":"BET_CUTOFF","inputs":[],"outputs":[{"name":"","type":"uint256","internalType":"uint256"}],"stateMutability":"view"},{"type":"function","name":"F","inputs":[],"outputs":[{"name":"","type":"address","internalType":"contract IBlobBaseFee"}],"stateMutability":"view"},{"type":"function","name":"RAKE_BP","inputs":[],"outputs":[{"name":"","type":"uint256","internalType":"uint256"}],"stateMutability":"view"},{"type":"function","name":"betHi","inputs":[],"outputs":[],"stateMutability":"payable"},{"type":"function","name":"betLo","inputs":[],"outputs":[],"stateMutability":"payable"},{"type":"function","name":"claim","inputs":[{"name":"id","type":"uint256","internalType":"uint256"}],"outputs":[],"stateMutability":"nonpayable"},{"type":"function","name":"cur","inputs":[],"outputs":[{"name":"","type":"uint256","internalType":"uint256"}],"stateMutability":"view"},{"type":"function","name":"hiBet","inputs":[{"name":"","type":"uint256","internalType":"uint256"},{"name":"","type":"address","internalType":"address"}],"outputs":[{"name":"","type":"uint256","internalType":"uint256"}],"stateMutability":"view"},{"type":"function","name":"loBet","inputs":[{"name":"","type":"uint256","internalType":"uint256"},{"name":"","type":"address","internalType":"address"}],"outputs":[{"name":"","type":"uint256","internalType":"uint256"}],"stateMutability":"view"},{"type":"function","name":"nextThresholdGwei","inputs":[],"outputs":[{"name":"","type":"uint256","internalType":"uint256"}],"stateMutability":"view"},{"type":"function","name":"owner","inputs":[],"outputs":[{"name":"","type":"address","internalType":"address"}],"stateMutability":"view"},{"type":"function","name":"rounds","inputs":[{"name":"","type":"uint256","internalType":"uint256"}],"outputs":[{"name":"closeTs","type":"uint256","internalType":"uint256"},{"name":"hiPool","type":"uint256","internalType":"uint256"},{"name":"loPool","type":"uint256","internalType":"uint256"},{"name":"feeWei","type":"uint256","internalType":"uint256"},{"name":"thresholdGwei","type":"uint256","internalType":"uint256"},{"name":"settlePriceGwei","type":"uint256","internalType":"uint256"}],"stateMutability":"view"},{"type":"function","name":"setNextThreshold","inputs":[{"name":"thr","type":"uint256","internalType":"uint256"}],"outputs":[],"stateMutability":"nonpayable"},{"type":"function","name":"settle","inputs":[],"outputs":[],"stateMutability":"nonpayable"},{"type":"function","name":"settlePriceGwei","inputs":[],"outputs":[{"name":"","type":"uint256","internalType":"uint256"}],"stateMutability":"view"},{"type":"function","name":"settled","inputs":[],"outputs":[{"name":"","type":"bool","internalType":"bool"}],"stateMutability":"view"},{"type":"event","name":"Bet","inputs":[{"name":"id","type":"uint256","indexed":false,"internalType":"uint256"},{"name":"user","type":"address","indexed":false,"internalType":"address"},{"name":"hi","type":"bool","indexed":false,"internalType":"bool"},{"name":"amt","type":"uint256","indexed":false,"internalType":"uint256"}],"anonymous":false},{"type":"event","name":"NewRound","inputs":[{"name":"id","type":"uint256","indexed":false,"internalType":"uint256"},{"name":"close","type":"uint256","indexed":false,"internalType":"uint256"},{"name":"thr","type":"uint256","indexed":false,"internalType":"uint256"}],"anonymous":false},{"type":"event","name":"RefundAll","inputs":[{"name":"id","type":"uint256","indexed":true,"internalType":"uint256"}],"anonymous":false},{"type":"event","name":"Settled","inputs":[{"name":"feeGwei","type":"uint256","indexed":false,"internalType":"uint256"}],"anonymous":false},{"type":"error","name":"ReentrancyGuardReentrantCall","inputs":[]}],"bytecode":{"object":"0x60a0604052346101a557604051601f610df238819003918201601f19168301916001600160401b03831184841017610174578084926020946040528339810103126101a557516001600160a01b038116908190036101a55760016002553360018060a01b0319600454161760045560805260ff196001541660015560035460018101809111610188576003819055600554801561019c57905b5f600555610e1042018042116101885760405160c0810193906001600160401b038511818610176101745760056060947f5aec57d81928b24d30b1a2aec0d23d693412c37d7ec106b5d8259413716bb1f496604052848352602083015f8152604084015f8152878501905f8252608086019287845260a08701945f86525f52600660205260405f2096518755516001870155516002860155516003850155516004840155519101556003549160405192835260208301526040820152a1604051610c4890816101aa82396080518181816104c501526105c70152f35b634e487b7160e01b5f52604160045260245ffd5b634e487b7160e01b5f52601160045260245ffd5b50601990610098565b5f80fdfe6080604052600436101561001a575b3615610018575f80fd5b005b5f3560e01c80630a25ede61461052557806311da60b41461050557806322464d73146104e957806328811f59146104a6578063379607f51461047b5780634fe242511461045e57806375ad7689146103ae57806375f55859146103925780638510ff87146103755780638c65c81f146103145780638da5cb5b146102ee5780638f775839146102cc578063a6786904146101dd578063c1a654d5146101a5578063c4a76243146101895763c4c8b35b0361000e5734610185576020366003190112610185576001600160a01b0360045416330361015a576003545f52600660205260405f20600181015415908161014d575b501561011a57600435600555005b60405162461bcd60e51b815260206004820152600b60248201526a18995d1cc81c1b1858d95960aa1b6044820152606490fd5b600291500154155f61010c565b606460405162461bcd60e51b815260206004820152600460248201526310b7bbb760e11b6044820152fd5b5f80fd5b34610185575f3660031901126101855760205f54604051908152f35b34610185576101b33661055d565b905f5260076020526001600160a01b0360405f2091165f52602052602060405f2054604051908152f35b5f36600319011261018557600354805f52600660205260405f20805461012b1981019081116102b85742101561028a576002915f52600860205260405f206001600160a01b0333165f5260205260405f20610239348254610583565b905501610247348254610583565b90557f27566cdd95dbce2805a5e40f467651a701882e8a51eaa28c53331fdc5e24f85960806003546040519081523360208201525f6040820152346060820152a1005b60405162461bcd60e51b815260206004820152600660248201526531baba37b33360d11b6044820152606490fd5b634e487b7160e01b5f52601160045260245ffd5b34610185575f36600319011261018557602060ff600154166040519015158152f35b34610185575f3660031901126101855760206001600160a01b0360045416604051908152f35b34610185576020366003190112610185576004355f52600660205260c060405f2080549060018101549060028101546003820154906005600484015493015493604051958652602086015260408501526060840152608083015260a0820152f35b34610185575f366003190112610185576020600554604051908152f35b34610185575f36600319011261018557602060405161012c8152f35b5f366003190112610185576003545f52600660205260405f20805461012b1981019081116102b85742101561028a576001906003545f52600760205260405f206001600160a01b0333165f5260205260405f2061040c348254610583565b90550161041a348254610583565b90557f27566cdd95dbce2805a5e40f467651a701882e8a51eaa28c53331fdc5e24f859608060035460405190815233602082015260016040820152346060820152a1005b34610185575f366003190112610185576020600354604051908152f35b3461018557602036600319011261018557610494610b01565b61049f60043561087b565b6001600255005b34610185575f3660031901126101855760206040516001600160a01b037f0000000000000000000000000000000000000000000000000000000000000000168152f35b34610185575f3660031901126101855760206040516101f48152f35b34610185575f3660031901126101855761051d610b01565b61049f610590565b34610185576105333661055d565b905f5260086020526001600160a01b0360405f2091165f52602052602060405f2054604051908152f35b604090600319011261018557600435906024356001600160a01b03811681036101855790565b919082018092116102b857565b6003545f52600660205260405f208054600c81018091116102b8574210610816576040516303e0818560e61b8152906020826004817f00000000000000000000000000000000000000000000000000000000000000006001600160a01b03165afa9182156106e9575f926107b8575b508160058201556001810154600282015461061a8183610583565b91159081156107af575b506106fd576101f48102908082046101f414901517156102b8575f80806127108194048060038701556001600160a01b03600454168282156106f4575bf1156106e9576001549060ff82166106ba577fcc3183593ff0e17b930d6f19f832ddcf865bf7ef55eb16754850c55ac447b2ad60206106b894600160049560ff191617600155805f55604051908152a10154610b1f565b565b60405162461bcd60e51b81526020600482015260076024820152661cd95d1d1b195960ca1b6044820152606490fd5b6040513d5f823e3d90fd5b506108fc610661565b50905f6003830155600354604051907fa70a53972d6afb0fc38bd683cd5955faa5fa55e6629744a51e7a2aaa0ecc4e045f80a26001549060ff82166107835750917fcc3183593ff0e17b930d6f19f832ddcf865bf7ef55eb16754850c55ac447b2ad602060049360016106b89660ff191617600155805f55604051908152a10154610b1f565b62461bcd60e51b81526020600482015260076024820152661cd95d1d1b195960ca1b6044820152606490fd5b9050155f610624565b90915060203d60201161080f575b601f8101601f1916820167ffffffffffffffff8111838210176107fb576020918391604052810103126101855751905f6105ff565b634e487b7160e01b5f52604160045260245ffd5b503d6107c6565b60405162461bcd60e51b815260206004820152600b60248201526a19dc9a59598819dd585c9960aa1b6044820152606490fd5b1561085057565b606460405162461bcd60e51b81526020600482015260046024820152636e6f6e6560e01b6044820152fd5b805f52600660205260405f206005810191825415610abc5760018201928354158015610ab0575b6109e85754600483015411801592906109c257815f52600760205260405f206001600160a01b0333165f5260205260405f2054925b8315926108e48415610849565b811561099d575f52600760205260405f206001600160a01b0333165f526020525f60408120555b1561098d5760036109258554955b54600284015490610583565b91015481039081116102b8578083029283041417156102b8578115610979575f8080938193048047809111610971575b50818115610968575b3390f1156106e957565b506108fc61095e565b90505f610955565b634e487b7160e01b5f52601260045260245ffd5b6003610925600283015495610919565b5f52600860205260405f206001600160a01b0333165f526020525f604081205561090b565b815f52600860205260405f206001600160a01b0333165f5260205260405f2054926108d7565b50915050805f52600760205260405f206001600160a01b0333165f52602052610a3560405f2054825f52600860205260405f206001600160a01b0333165f5260205260405f205490610583565b90811590610a438215610849565b805f52600760205260405f206001600160a01b0333165f526020525f60408120555f52600860205260405f206001600160a01b0333165f526020525f60408120556103e382029182046103e31417156102b8575f80806103e8819404818115610968573390f1156106e957565b506002830154156108a2565b60405162461bcd60e51b815260206004820152600f60248201527f726f756e6420756e736574746c656400000000000000000000000000000000006044820152606490fd5b6002805414610b105760028055565b633ee5aeb560e01b5f5260045ffd5b60ff196001541660015560035490600182018092116102b8576003829055600554908115610c0a5750905b5f600555610e1042018042116102b8576040519260c084019380851067ffffffffffffffff8611176107fb5760056060947f5aec57d81928b24d30b1a2aec0d23d693412c37d7ec106b5d8259413716bb1f496604052848352602083015f8152604084015f8152878501905f8252608086019287845260a08701945f86525f52600660205260405f2096518755516001870155516002860155516003850155516004840155519101556003549160405192835260208301526040820152a1565b905090610b4a56fea2646970667358221220f6f1a6198c95277fb458f35c298ce179f90a1d2275edca9f8b8ab59ff0bedb3a64736f6c634300081e0033","linkReferences":{}},"methodIdentifiers":{"BET_CUTOFF()":"75f55859","F()":"28811f59","RAKE_BP()":"22464d73","betHi()":"75ad7689","betLo()":"a6786904","claim(uint256)":"379607f5","cur()":"4fe24251","hiBet(uint256,address)":"c1a654d5","loBet(uint256,address)":"0a25ede6","nextThresholdGwei()":"8510ff87","owner()":"8da5cb5b","rounds(uint256)":"8c65c81f","setNextThreshold(uint256)":"c4c8b35b","settle()":"11da60b4","settlePriceGwei()":"c4a76243","settled()":"8f775839"},"id":3}