{"abi":[{"type":"constructor","inputs":[{"name":"feeOracle","type":"address","internalType":"address"}],"stateMutability":"nonpayable"},{"type":"receive","stateMutability":"payable"},{"type":"function","name":"F","inputs":[],"outputs":[{"name":"","type":"address","internalType":"contract IBlobBaseFee"}],"stateMutability":"view"},{"type":"function","name":"RAKE_BP","inputs":[],"outputs":[{"name":"","type":"uint256","internalType":"uint256"}],"stateMutability":"view"},{"type":"function","name":"betHi","inputs":[],"outputs":[],"stateMutability":"payable"},{"type":"function","name":"betLo","inputs":[],"outputs":[],"stateMutability":"payable"},{"type":"function","name":"claim","inputs":[{"name":"id","type":"uint256","internalType":"uint256"}],"outputs":[],"stateMutability":"nonpayable"},{"type":"function","name":"cur","inputs":[],"outputs":[{"name":"","type":"uint256","internalType":"uint256"}],"stateMutability":"view"},{"type":"function","name":"hiBet","inputs":[{"name":"","type":"uint256","internalType":"uint256"},{"name":"","type":"address","internalType":"address"}],"outputs":[{"name":"","type":"uint256","internalType":"uint256"}],"stateMutability":"view"},{"type":"function","name":"loBet","inputs":[{"name":"","type":"uint256","internalType":"uint256"},{"name":"","type":"address","internalType":"address"}],"outputs":[{"name":"","type":"uint256","internalType":"uint256"}],"stateMutability":"view"},{"type":"function","name":"owner","inputs":[],"outputs":[{"name":"","type":"address","internalType":"address"}],"stateMutability":"view"},{"type":"function","name":"rounds","inputs":[{"name":"","type":"uint256","internalType":"uint256"}],"outputs":[{"name":"closeTs","type":"uint256","internalType":"uint256"},{"name":"hiPool","type":"uint256","internalType":"uint256"},{"name":"loPool","type":"uint256","internalType":"uint256"},{"name":"feeWei","type":"uint256","internalType":"uint256"},{"name":"thresholdGwei","type":"uint256","internalType":"uint256"},{"name":"settlePriceGwei","type":"uint256","internalType":"uint256"}],"stateMutability":"view"},{"type":"function","name":"setThreshold","inputs":[{"name":"nextThr","type":"uint256","internalType":"uint256"}],"outputs":[],"stateMutability":"nonpayable"},{"type":"function","name":"settle","inputs":[],"outputs":[],"stateMutability":"nonpayable"},{"type":"function","name":"settlePriceGwei","inputs":[],"outputs":[{"name":"","type":"uint256","internalType":"uint256"}],"stateMutability":"view"},{"type":"function","name":"settled","inputs":[],"outputs":[{"name":"","type":"bool","internalType":"bool"}],"stateMutability":"view"},{"type":"event","name":"Bet","inputs":[{"name":"id","type":"uint256","indexed":false,"internalType":"uint256"},{"name":"user","type":"address","indexed":false,"internalType":"address"},{"name":"hi","type":"bool","indexed":false,"internalType":"bool"},{"name":"amt","type":"uint256","indexed":false,"internalType":"uint256"}],"anonymous":false},{"type":"event","name":"NewRound","inputs":[{"name":"id","type":"uint256","indexed":false,"internalType":"uint256"},{"name":"close","type":"uint256","indexed":false,"internalType":"uint256"},{"name":"thr","type":"uint256","indexed":false,"internalType":"uint256"}],"anonymous":false},{"type":"event","name":"RefundAll","inputs":[{"name":"id","type":"uint256","indexed":true,"internalType":"uint256"}],"anonymous":false},{"type":"event","name":"Settled","inputs":[{"name":"feeGwei","type":"uint256","indexed":false,"internalType":"uint256"}],"anonymous":false},{"type":"error","name":"ReentrancyGuardReentrantCall","inputs":[]}],"bytecode":{"object":"0x60a06040523461018f57604051601f610d0738819003918201601f19168301916001600160401b038311848410176101675780849260209460405283398101031261018f57516001600160a01b0381169081900361018f5760016002553360018060a01b0319600454161760045560805260ff19600154166001556003546001810180911161017b5780600355610e1042019081421161017b5760405160c0810192906001600160401b038411818510176101675760056060937f5aec57d81928b24d30b1a2aec0d23d693412c37d7ec106b5d8259413716bb1f495604052838352602083015f8152604084015f8152868501905f825260808601926019845260a08701945f86525f528560205260405f20965187555160018701555160028601555160038501555160048401555191015560035490604051918252602082015260196040820152a1604051610b73908161019482396080518181816103f8015261050e0152f35b634e487b7160e01b5f52604160045260245ffd5b634e487b7160e01b5f52601160045260245ffd5b5f80fdfe6080604052600436101561001a575b3615610018575f80fd5b005b5f3560e01c80630a25ede61461045857806311da60b41461043857806322464d731461041c57806328811f59146103d9578063379607f5146103ae5780634fe242511461039157806375ad7689146102ee5780638c65c81f1461028d5780638da5cb5b146102675780638f77583914610245578063960bfe04146101de578063a678690414610110578063c1a654d5146100d85763c4a762430361000e57346100d4575f3660031901126100d45760205f54604051908152f35b5f80fd5b346100d4576100e636610490565b905f5260066020526001600160a01b0360405f2091165f52602052602060405f2054604051908152f35b5f3660031901126100d457600354805f52600560205260405f2080544210156101b0576002915f52600760205260405f206001600160a01b0333165f5260205260405f2061015f3482546104b6565b90550161016d3482546104b6565b90557f27566cdd95dbce2805a5e40f467651a701882e8a51eaa28c53331fdc5e24f85960806003546040519081523360208201525f6040820152346060820152a1005b60405162461bcd60e51b815260206004820152600660248201526518db1bdcd95960d21b6044820152606490fd5b346100d45760203660031901126100d4576001600160a01b0360045416330361021a576003545f526005602052600435600460405f2001555f80f35b606460405162461bcd60e51b815260206004820152600460248201526310b7bbb760e11b6044820152fd5b346100d4575f3660031901126100d457602060ff600154166040519015158152f35b346100d4575f3660031901126100d45760206001600160a01b0360045416604051908152f35b346100d45760203660031901126100d4576004355f52600560205260c060405f2080549060018101549060028101546003820154906005600484015493015493604051958652602086015260408501526060840152608083015260a0820152f35b5f3660031901126100d4576003545f52600560205260405f2080544210156101b0576001906003545f52600660205260405f206001600160a01b0333165f5260205260405f2061033f3482546104b6565b90550161034d3482546104b6565b90557f27566cdd95dbce2805a5e40f467651a701882e8a51eaa28c53331fdc5e24f859608060035460405190815233602082015260016040820152346060820152a1005b346100d4575f3660031901126100d4576020600354604051908152f35b346100d45760203660031901126100d4576103c7610a48565b6103d26004356107c2565b6001600255005b346100d4575f3660031901126100d45760206040516001600160a01b037f0000000000000000000000000000000000000000000000000000000000000000168152f35b346100d4575f3660031901126100d45760206040516101f48152f35b346100d4575f3660031901126100d457610450610a48565b6103d26104d7565b346100d45761046636610490565b905f5260076020526001600160a01b0360405f2091165f52602052602060405f2054604051908152f35b60409060031901126100d457600435906024356001600160a01b03811681036100d45790565b919082018092116104c357565b634e487b7160e01b5f52601160045260245ffd5b6003545f52600560205260405f208054600c81018091116104c357421061075d576040516303e0818560e61b8152906020826004817f00000000000000000000000000000000000000000000000000000000000000006001600160a01b03165afa918215610630575f926106ff575b508160058201556001810154600282015461056181836104b6565b91159081156106f6575b50610644576101f48102908082046101f414901517156104c3575f80806127108194048060038701556001600160a01b036004541682821561063b575bf115610630576001549060ff8216610601577fcc3183593ff0e17b930d6f19f832ddcf865bf7ef55eb16754850c55ac447b2ad60206105ff94600160049560ff191617600155805f55604051908152a10154610a66565b565b60405162461bcd60e51b81526020600482015260076024820152661cd95d1d1b195960ca1b6044820152606490fd5b6040513d5f823e3d90fd5b506108fc6105a8565b50905f6003830155600354604051907fa70a53972d6afb0fc38bd683cd5955faa5fa55e6629744a51e7a2aaa0ecc4e045f80a26001549060ff82166106ca5750917fcc3183593ff0e17b930d6f19f832ddcf865bf7ef55eb16754850c55ac447b2ad602060049360016105ff9660ff191617600155805f55604051908152a10154610a66565b62461bcd60e51b81526020600482015260076024820152661cd95d1d1b195960ca1b6044820152606490fd5b9050155f61056b565b90915060203d602011610756575b601f8101601f1916820167ffffffffffffffff811183821017610742576020918391604052810103126100d45751905f610546565b634e487b7160e01b5f52604160045260245ffd5b503d61070d565b60405162461bcd60e51b815260206004820152600b60248201526a19dc9a59598819dd585c9960aa1b6044820152606490fd5b1561079757565b606460405162461bcd60e51b81526020600482015260046024820152636e6f6e6560e01b6044820152fd5b805f52600560205260405f206005810191825415610a0357600182019283541580156109f7575b61092f57546004830154118015929061090957815f52600660205260405f206001600160a01b0333165f5260205260405f2054925b83159261082b8415610790565b81156108e4575f52600660205260405f206001600160a01b0333165f526020525f60408120555b156108d457600361086c8554955b546002840154906104b6565b91015481039081116104c3578083029283041417156104c35781156108c0575f80809381930480478091116108b8575b508181156108af575b3390f11561063057565b506108fc6108a5565b90505f61089c565b634e487b7160e01b5f52601260045260245ffd5b600361086c600283015495610860565b5f52600760205260405f206001600160a01b0333165f526020525f6040812055610852565b815f52600760205260405f206001600160a01b0333165f5260205260405f20549261081e565b50915050805f52600660205260405f206001600160a01b0333165f5260205261097c60405f2054825f52600760205260405f206001600160a01b0333165f5260205260405f2054906104b6565b9081159061098a8215610790565b805f52600660205260405f206001600160a01b0333165f526020525f60408120555f52600760205260405f206001600160a01b0333165f526020525f60408120556103e382029182046103e31417156104c3575f80806103e88194048181156108af573390f11561063057565b506002830154156107e9565b60405162461bcd60e51b815260206004820152600f60248201527f726f756e6420756e736574746c656400000000000000000000000000000000006044820152606490fd5b6002805414610a575760028055565b633ee5aeb560e01b5f5260045ffd5b60ff1960015416600155600354600181018091116104c35780600355610e1042018042116104c3576040519260c084019380851067ffffffffffffffff8611176107425760056060947f5aec57d81928b24d30b1a2aec0d23d693412c37d7ec106b5d8259413716bb1f496604052848352602083015f8152604084015f8152878501905f8252608086019287845260a08701945f86525f528560205260405f2096518755516001870155516002860155516003850155516004840155519101556003549160405192835260208301526040820152a156fea26469706673582212203c0d619df03b00de37a5916d0a1717a481807f4e855a7d36d7629fd096b13cc564736f6c634300081e0033","linkReferences":{}},"methodIdentifiers":{"F()":"28811f59","RAKE_BP()":"22464d73","betHi()":"75ad7689","betLo()":"a6786904","claim(uint256)":"379607f5","cur()":"4fe24251","hiBet(uint256,address)":"c1a654d5","loBet(uint256,address)":"0a25ede6","owner()":"8da5cb5b","rounds(uint256)":"8c65c81f","setThreshold(uint256)":"960bfe04","settle()":"11da60b4","settlePriceGwei()":"c4a76243","settled()":"8f775839"},"id":3}