{"abi":[{"type":"constructor","inputs":[{"name":"feeOracle","type":"address","internalType":"address"}],"stateMutability":"nonpayable"},{"type":"receive","stateMutability":"payable"},{"type":"function","name":"F","inputs":[],"outputs":[{"name":"","type":"address","internalType":"contract IBlobBaseFee"}],"stateMutability":"view"},{"type":"function","name":"RAKE_BP","inputs":[],"outputs":[{"name":"","type":"uint256","internalType":"uint256"}],"stateMutability":"view"},{"type":"function","name":"betHi","inputs":[],"outputs":[],"stateMutability":"payable"},{"type":"function","name":"betLo","inputs":[],"outputs":[],"stateMutability":"payable"},{"type":"function","name":"claim","inputs":[{"name":"id","type":"uint256","internalType":"uint256"}],"outputs":[],"stateMutability":"nonpayable"},{"type":"function","name":"cur","inputs":[],"outputs":[{"name":"","type":"uint256","internalType":"uint256"}],"stateMutability":"view"},{"type":"function","name":"hiBet","inputs":[{"name":"","type":"uint256","internalType":"uint256"},{"name":"","type":"address","internalType":"address"}],"outputs":[{"name":"","type":"uint256","internalType":"uint256"}],"stateMutability":"view"},{"type":"function","name":"loBet","inputs":[{"name":"","type":"uint256","internalType":"uint256"},{"name":"","type":"address","internalType":"address"}],"outputs":[{"name":"","type":"uint256","internalType":"uint256"}],"stateMutability":"view"},{"type":"function","name":"owner","inputs":[],"outputs":[{"name":"","type":"address","internalType":"address"}],"stateMutability":"view"},{"type":"function","name":"rounds","inputs":[{"name":"","type":"uint256","internalType":"uint256"}],"outputs":[{"name":"closeTs","type":"uint256","internalType":"uint256"},{"name":"hiPool","type":"uint256","internalType":"uint256"},{"name":"loPool","type":"uint256","internalType":"uint256"},{"name":"feeWei","type":"uint256","internalType":"uint256"},{"name":"thresholdGwei","type":"uint256","internalType":"uint256"},{"name":"settlePriceGwei","type":"uint256","internalType":"uint256"}],"stateMutability":"view"},{"type":"function","name":"setThreshold","inputs":[{"name":"nextThr","type":"uint256","internalType":"uint256"}],"outputs":[],"stateMutability":"nonpayable"},{"type":"function","name":"settle","inputs":[],"outputs":[],"stateMutability":"nonpayable"},{"type":"function","name":"settlePriceGwei","inputs":[],"outputs":[{"name":"","type":"uint256","internalType":"uint256"}],"stateMutability":"view"},{"type":"function","name":"settled","inputs":[],"outputs":[{"name":"","type":"bool","internalType":"bool"}],"stateMutability":"view"},{"type":"event","name":"Bet","inputs":[{"name":"id","type":"uint256","indexed":false,"internalType":"uint256"},{"name":"user","type":"address","indexed":false,"internalType":"address"},{"name":"hi","type":"bool","indexed":false,"internalType":"bool"},{"name":"amt","type":"uint256","indexed":false,"internalType":"uint256"}],"anonymous":false},{"type":"event","name":"NewRound","inputs":[{"name":"id","type":"uint256","indexed":false,"internalType":"uint256"},{"name":"close","type":"uint256","indexed":false,"internalType":"uint256"},{"name":"thr","type":"uint256","indexed":false,"internalType":"uint256"}],"anonymous":false},{"type":"event","name":"Settled","inputs":[{"name":"feeGwei","type":"uint256","indexed":false,"internalType":"uint256"}],"anonymous":false}],"bytecode":{"object":"0x60a06040523461018b57604051601f610aee38819003918201601f19168301916001600160401b038311848410176101635780849260209460405283398101031261018b57516001600160a01b0381169081900361018b57600380546001600160a01b031916331790556080526001805460ff191681556002549081019081106101775780600255610e104201908142116101775760405160c0810192906001600160401b038411818510176101635760056060937f5aec57d81928b24d30b1a2aec0d23d693412c37d7ec106b5d8259413716bb1f495604052838352602083015f8152604084015f8152868501905f825260808601926019845260a08701945f86525f52600460205260405f20965187555160018701555160028601555160038501555160048401555191015560025490604051918252602082015260196040820152a160405161095e908161019082396080518181816105c101526106480152f35b634e487b7160e01b5f52604160045260245ffd5b634e487b7160e01b5f52601160045260245ffd5b5f80fdfe6080604052600436101561001a575b3615610018575f80fd5b005b5f3560e01c80630a25ede6146108bd57806311da60b41461060157806322464d73146105e557806328811f59146105a2578063379607f5146103ae5780634fe242511461039157806375ad7689146102ee5780638c65c81f1461028d5780638da5cb5b146102675780638f77583914610245578063960bfe04146101de578063a678690414610110578063c1a654d5146100d85763c4a762430361000e57346100d4575f3660031901126100d45760205f54604051908152f35b5f80fd5b346100d4576100e6366108f5565b905f5260056020526001600160a01b0360405f2091165f52602052602060405f2054604051908152f35b5f3660031901126100d457600254805f52600460205260405f2080544210156101b0576002915f52600660205260405f206001600160a01b0333165f5260205260405f2061015f34825461091b565b90550161016d34825461091b565b90557f27566cdd95dbce2805a5e40f467651a701882e8a51eaa28c53331fdc5e24f85960806002546040519081523360208201525f6040820152346060820152a1005b60405162461bcd60e51b815260206004820152600660248201526518db1bdcd95960d21b6044820152606490fd5b346100d45760203660031901126100d4576001600160a01b0360035416330361021a576002545f526004602052600435600460405f2001555f80f35b606460405162461bcd60e51b815260206004820152600460248201526310b7bbb760e11b6044820152fd5b346100d4575f3660031901126100d457602060ff600154166040519015158152f35b346100d4575f3660031901126100d45760206001600160a01b0360035416604051908152f35b346100d45760203660031901126100d4576004355f52600460205260c060405f2080549060018101549060028101546003820154906005600484015493015493604051958652602086015260408501526060840152608083015260a0820152f35b5f3660031901126100d4576002545f52600460205260405f2080544210156101b0576001906002545f52600560205260405f206001600160a01b0333165f5260205260405f2061033f34825461091b565b90550161034d34825461091b565b90557f27566cdd95dbce2805a5e40f467651a701882e8a51eaa28c53331fdc5e24f859608060025460405190815233602082015260016040820152346060820152a1005b346100d4575f3660031901126100d4576020600254604051908152f35b346100d45760203660031901126100d457600435805f52600460205260405f20906005820154801561055d5760048301541180159061053757815f52600560205260405f206001600160a01b0333165f5260205260405f2054915b821561050c5781156104e7575f52600560205260405f206001600160a01b0333165f526020525f60408120555b156104dc576001820154915b6003610457600183015460028401549061091b565b91015481039081116104c857808202918204036104c85781156104b4575f80809381930480478091116104ac575b508181156104a3575b3390f11561049857005b6040513d5f823e3d90fd5b506108fc61048e565b905085610485565b634e487b7160e01b5f52601260045260245ffd5b634e487b7160e01b5f52601160045260245ffd5b600282015491610442565b5f52600660205260405f206001600160a01b0333165f526020525f6040812055610436565b606460405162461bcd60e51b81526020600482015260046024820152636e6f6e6560e01b6044820152fd5b815f52600660205260405f206001600160a01b0333165f5260205260405f205491610409565b60405162461bcd60e51b815260206004820152600f60248201527f726f756e6420756e736574746c656400000000000000000000000000000000006044820152606490fd5b346100d4575f3660031901126100d45760206040516001600160a01b037f0000000000000000000000000000000000000000000000000000000000000000168152f35b346100d4575f3660031901126100d45760206040516101f48152f35b346100d4575f3660031901126100d4576002545f52600460205260405f208054600c81018091116104c857421061088a576040516303e0818560e61b8152906020826004817f00000000000000000000000000000000000000000000000000000000000000006001600160a01b03165afa918215610498575f92610840575b50610694600182015460028301549061091b565b6101f48102908082046101f414901517156104c8575f80806127108194048060038701556001600160a01b0360035416828215610837575bf115610498578160058201556001549060ff8216610808577fcc3183593ff0e17b930d6f19f832ddcf865bf7ef55eb16754850c55ac447b2ad602060049360ff19169460018617600155805f55604051908152a1015490600155600254600181018091116104c85780600255610e1042018042116104c8576040519260c084019380851067ffffffffffffffff8611176107f45760056060947f5aec57d81928b24d30b1a2aec0d23d693412c37d7ec106b5d8259413716bb1f496604052848352602083015f8152604084015f8152878501905f8252608086019287845260a08701945f86525f52600460205260405f2096518755516001870155516002860155516003850155516004840155519101556002549160405192835260208301526040820152a1005b634e487b7160e01b5f52604160045260245ffd5b60405162461bcd60e51b81526020600482015260076024820152661cd95d1d1b195960ca1b6044820152606490fd5b506108fc6106cc565b90915060203d602011610883575b601f8101601f1916820167ffffffffffffffff8111838210176107f4576020918391604052810103126100d457519082610680565b503d61084e565b60405162461bcd60e51b815260206004820152600b60248201526a19dc9a59598819dd585c9960aa1b6044820152606490fd5b346100d4576108cb366108f5565b905f5260066020526001600160a01b0360405f2091165f52602052602060405f2054604051908152f35b60409060031901126100d457600435906024356001600160a01b03811681036100d45790565b919082018092116104c85756fea2646970667358221220a4c8e2da3c80c4c9016c51321152b16e5a93afad135d420beee4d2736fa8b11d64736f6c634300081e0033","linkReferences":{}},"methodIdentifiers":{"F()":"28811f59","RAKE_BP()":"22464d73","betHi()":"75ad7689","betLo()":"a6786904","claim(uint256)":"379607f5","cur()":"4fe24251","hiBet(uint256,address)":"c1a654d5","loBet(uint256,address)":"0a25ede6","owner()":"8da5cb5b","rounds(uint256)":"8c65c81f","setThreshold(uint256)":"960bfe04","settle()":"11da60b4","settlePriceGwei()":"c4a76243","settled()":"8f775839"},"id":3}