{"abi":[{"type":"constructor","inputs":[{"name":"feeOracle","type":"address","internalType":"address"}],"stateMutability":"nonpayable"},{"type":"receive","stateMutability":"payable"},{"type":"function","name":"BET_CUTOFF","inputs":[],"outputs":[{"name":"","type":"uint256","internalType":"uint256"}],"stateMutability":"view"},{"type":"function","name":"F","inputs":[],"outputs":[{"name":"","type":"address","internalType":"contract IBlobBaseFee"}],"stateMutability":"view"},{"type":"function","name":"RAKE_BP","inputs":[],"outputs":[{"name":"","type":"uint256","internalType":"uint256"}],"stateMutability":"view"},{"type":"function","name":"SETTLE_BOUNTY_BP","inputs":[],"outputs":[{"name":"","type":"uint256","internalType":"uint256"}],"stateMutability":"view"},{"type":"function","name":"betHi","inputs":[],"outputs":[],"stateMutability":"payable"},{"type":"function","name":"betLo","inputs":[],"outputs":[],"stateMutability":"payable"},{"type":"function","name":"claim","inputs":[{"name":"id","type":"uint256","internalType":"uint256"}],"outputs":[],"stateMutability":"nonpayable"},{"type":"function","name":"cur","inputs":[],"outputs":[{"name":"","type":"uint256","internalType":"uint256"}],"stateMutability":"view"},{"type":"function","name":"hiBet","inputs":[{"name":"","type":"uint256","internalType":"uint256"},{"name":"","type":"address","internalType":"address"}],"outputs":[{"name":"","type":"uint256","internalType":"uint256"}],"stateMutability":"view"},{"type":"function","name":"loBet","inputs":[{"name":"","type":"uint256","internalType":"uint256"},{"name":"","type":"address","internalType":"address"}],"outputs":[{"name":"","type":"uint256","internalType":"uint256"}],"stateMutability":"view"},{"type":"function","name":"nextThresholdGwei","inputs":[],"outputs":[{"name":"","type":"uint256","internalType":"uint256"}],"stateMutability":"view"},{"type":"function","name":"owner","inputs":[],"outputs":[{"name":"","type":"address","internalType":"address"}],"stateMutability":"view"},{"type":"function","name":"rounds","inputs":[{"name":"","type":"uint256","internalType":"uint256"}],"outputs":[{"name":"closeTs","type":"uint256","internalType":"uint256"},{"name":"hiPool","type":"uint256","internalType":"uint256"},{"name":"loPool","type":"uint256","internalType":"uint256"},{"name":"feeWei","type":"uint256","internalType":"uint256"},{"name":"thresholdGwei","type":"uint256","internalType":"uint256"},{"name":"settlePriceGwei","type":"uint256","internalType":"uint256"}],"stateMutability":"view"},{"type":"function","name":"setNextThreshold","inputs":[{"name":"thr","type":"uint256","internalType":"uint256"}],"outputs":[],"stateMutability":"nonpayable"},{"type":"function","name":"settle","inputs":[],"outputs":[],"stateMutability":"nonpayable"},{"type":"function","name":"settlePriceGwei","inputs":[],"outputs":[{"name":"","type":"uint256","internalType":"uint256"}],"stateMutability":"view"},{"type":"function","name":"settled","inputs":[],"outputs":[{"name":"","type":"bool","internalType":"bool"}],"stateMutability":"view"},{"type":"function","name":"sweepDust","inputs":[],"outputs":[],"stateMutability":"nonpayable"},{"type":"event","name":"Bet","inputs":[{"name":"id","type":"uint256","indexed":false,"internalType":"uint256"},{"name":"user","type":"address","indexed":false,"internalType":"address"},{"name":"hi","type":"bool","indexed":false,"internalType":"bool"},{"name":"amt","type":"uint256","indexed":false,"internalType":"uint256"}],"anonymous":false},{"type":"event","name":"NewRound","inputs":[{"name":"id","type":"uint256","indexed":false,"internalType":"uint256"},{"name":"close","type":"uint256","indexed":false,"internalType":"uint256"},{"name":"thr","type":"uint256","indexed":false,"internalType":"uint256"}],"anonymous":false},{"type":"event","name":"RefundAll","inputs":[{"name":"id","type":"uint256","indexed":true,"internalType":"uint256"}],"anonymous":false},{"type":"event","name":"RoundVoided","inputs":[{"name":"id","type":"uint256","indexed":true,"internalType":"uint256"},{"name":"refundWei","type":"uint256","indexed":false,"internalType":"uint256"}],"anonymous":false},{"type":"event","name":"SettleBounty","inputs":[{"name":"id","type":"uint256","indexed":true,"internalType":"uint256"},{"name":"caller","type":"address","indexed":true,"internalType":"address"},{"name":"bountyWei","type":"uint256","indexed":false,"internalType":"uint256"}],"anonymous":false},{"type":"event","name":"Settled","inputs":[{"name":"feeGwei","type":"uint256","indexed":false,"internalType":"uint256"}],"anonymous":false},{"type":"error","name":"ReentrancyGuardReentrantCall","inputs":[]}],"bytecode":{"object":"0x60a0604052346101a557604051601f610fa238819003918201601f19168301916001600160401b03831184841017610174578084926020946040528339810103126101a557516001600160a01b038116908190036101a55760016002553360018060a01b0319600454161760045560805260ff196001541660015560035460018101809111610188576003819055600554801561019c57905b5f600555610e1042018042116101885760405160c0810193906001600160401b038511818610176101745760056060947f5aec57d81928b24d30b1a2aec0d23d693412c37d7ec106b5d8259413716bb1f496604052848352602083015f8152604084015f8152878501905f8252608086019287845260a08701945f86525f52600660205260405f2096518755516001870155516002860155516003850155516004840155519101556003549160405192835260208301526040820152a1604051610df890816101aa82396080518181816105bb01526106ca0152f35b634e487b7160e01b5f52604160045260245ffd5b634e487b7160e01b5f52601160045260245ffd5b50601990610098565b5f80fdfe6080604052600436101561001a575b3615610018575f80fd5b005b5f3560e01c80630a25ede61461061b57806311da60b4146105fb57806322464d73146105df57806328811f591461059c578063379607f5146105715780634fe242511461055457806375ad7689146104a457806375f55859146104885780638510ff871461046b5780638c65c81f1461040a5780638da5cb5b146103e45780638f775839146103c2578063a53df2e2146102d6578063a6786904146101e7578063be9ebe6d146101cc578063c1a654d514610194578063c4a76243146101785763c4c8b35b0361000e57346101745760203660031901126101745761010b6001600160a01b03600454163314610c7f565b6003545f52600660205260405f206001810154159081610167575b501561013457600435600555005b60405162461bcd60e51b815260206004820152600b60248201526a18995d1cc81c1b1858d95960aa1b6044820152606490fd5b600291500154155f610126565b5f80fd5b34610174575f3660031901126101745760205f54604051908152f35b34610174576101a236610653565b905f5260076020526001600160a01b0360405f2091165f52602052602060405f2054604051908152f35b34610174575f366003190112610174576020604051600a8152f35b5f36600319011261017457600354805f52600660205260405f20805461012b1981019081116102c257421015610294576002915f52600860205260405f206001600160a01b0333165f5260205260405f20610243348254610679565b905501610251348254610679565b90557f27566cdd95dbce2805a5e40f467651a701882e8a51eaa28c53331fdc5e24f85960806003546040519081523360208201525f6040820152346060820152a1005b60405162461bcd60e51b815260206004820152600660248201526531baba37b33360d11b6044820152606490fd5b634e487b7160e01b5f52601160045260245ffd5b34610174575f366003190112610174576001600160a01b03600454166102fd813314610c7f565b600354805f52600660205260405f205462278d0081018091116102c257421115610392575f908152600660205260409020600181015460029091015461034291610679565b8047115f1461038b576103559047610686565b801591821561036057005b5f928392839283928390610382575bf11561037757005b6040513d5f823e3d90fd5b506108fc61036f565b505f610355565b60405162461bcd60e51b81526020600482015260086024820152673a37b796b9b7b7b760c11b6044820152606490fd5b34610174575f36600319011261017457602060ff600154166040519015158152f35b34610174575f3660031901126101745760206001600160a01b0360045416604051908152f35b34610174576020366003190112610174576004355f52600660205260c060405f2080549060018101549060028101546003820154906005600484015493015493604051958652602086015260408501526060840152608083015260a0820152f35b34610174575f366003190112610174576020600554604051908152f35b34610174575f36600319011261017457602060405161012c8152f35b5f366003190112610174576003545f52600660205260405f20805461012b1981019081116102c257421015610294576001906003545f52600760205260405f206001600160a01b0333165f5260205260405f20610502348254610679565b905501610510348254610679565b90557f27566cdd95dbce2805a5e40f467651a701882e8a51eaa28c53331fdc5e24f859608060035460405190815233602082015260016040820152346060820152a1005b34610174575f366003190112610174576020600354604051908152f35b346101745760203660031901126101745761058a610cb1565b6105956004356109fc565b6001600255005b34610174575f3660031901126101745760206040516001600160a01b037f0000000000000000000000000000000000000000000000000000000000000000168152f35b34610174575f3660031901126101745760206040516101f48152f35b34610174575f36600319011261017457610613610cb1565b610595610693565b346101745761062936610653565b905f5260086020526001600160a01b0360405f2091165f52602052602060405f2054604051908152f35b604090600319011261017457600435906024356001600160a01b03811681036101745790565b919082018092116102c257565b919082039182116102c257565b6003545f52600660205260405f208054600c81018091116102c2574210610997576040516303e0818560e61b8152906020826004817f00000000000000000000000000000000000000000000000000000000000000006001600160a01b03165afa918215610377575f92610939575b50816005820155600181015460028201549061071e8282610679565b9181158015610931575b61087b57505047600a810290808204600a14901517156102c2576127109004908115801561081a575b506101f4808202925081159183041417156102c2575f80806127108194048060038701556001600160a01b0360045416828215610811575bf115610377576001549060ff82166107e2577fcc3183593ff0e17b930d6f19f832ddcf865bf7ef55eb16754850c55ac447b2ad60206107e094600160049560ff191617600155805f55604051908152a10154610ccf565b565b60405162461bcd60e51b81526020600482015260076024820152661cd95d1d1b195960ca1b6044820152606490fd5b506108fc610789565b82905f90610872575b5f80809381933390f115610377578161083b91610686565b906003546040519182527fa8771a67c56919613ce2ba5d4a7425d832742950434c76c75350869f8e62a2d060203393a3805f610751565b506108fc610823565b7fc147173c1fd31618a0a4e069af57571238b6f23c2332926b1f587f0f770ac4b19192506108d96020915f600387015560035494857fa70a53972d6afb0fc38bd683cd5955faa5fa55e6629744a51e7a2aaa0ecc4e045f80a2610679565b604051908152a26001549060ff82166107e2577fcc3183593ff0e17b930d6f19f832ddcf865bf7ef55eb16754850c55ac447b2ad60206107e094600160049560ff191617600155805f55604051908152a10154610ccf565b508015610728565b90915060203d602011610990575b601f8101601f1916820167ffffffffffffffff81118382101761097c576020918391604052810103126101745751905f610702565b634e487b7160e01b5f52604160045260245ffd5b503d610947565b60405162461bcd60e51b815260206004820152600b60248201526a19dc9a59598819dd585c9960aa1b6044820152606490fd5b156109d157565b606460405162461bcd60e51b81526020600482015260046024820152636e6f6e6560e01b6044820152fd5b805f52600660205260405f206005810191825415610c3a5760018201928354158015610c2e575b610b695754600483015411801592610ab291610b4357825f52600760205260405f206001600160a01b0333165f5260205260405f2054935b841593610a6885156109ca565b8115610b1e575f52600760205260405f206001600160a01b0333165f526020525f60408120555b15610b0e576003610aa98654965b54600284015490610679565b91015490610686565b8083029283041417156102c2578115610afa575f8080938193048047809111610af2575b50818115610ae9575b3390f11561037757565b506108fc610adf565b90505f610ad6565b634e487b7160e01b5f52601260045260245ffd5b6003610aa9600283015496610a9d565b5f52600860205260405f206001600160a01b0333165f526020525f6040812055610a8f565b825f52600860205260405f206001600160a01b0333165f5260205260405f205493610a5b565b505f80935080925081819282526007602052604082206001600160a01b0333168352602052610bbc60408320548284526008602052604084206001600160a01b0333168552602052604084205490610679565b90610bc88215156109ca565b8083526007602052604083206001600160a01b033316845260205282604081205582526008602052604082206001600160a01b033316835260205281604081205547908181118314610c2757505b818115610ae9573390f11561037757565b9050610c16565b50600283015415610a23565b60405162461bcd60e51b815260206004820152600f60248201527f726f756e6420756e736574746c656400000000000000000000000000000000006044820152606490fd5b15610c8657565b606460405162461bcd60e51b815260206004820152600460248201526310b7bbb760e11b6044820152fd5b6002805414610cc05760028055565b633ee5aeb560e01b5f5260045ffd5b60ff196001541660015560035490600182018092116102c2576003829055600554908115610dba5750905b5f600555610e1042018042116102c2576040519260c084019380851067ffffffffffffffff86111761097c5760056060947f5aec57d81928b24d30b1a2aec0d23d693412c37d7ec106b5d8259413716bb1f496604052848352602083015f8152604084015f8152878501905f8252608086019287845260a08701945f86525f52600660205260405f2096518755516001870155516002860155516003850155516004840155519101556003549160405192835260208301526040820152a1565b905090610cfa56fea2646970667358221220018310606763d6e80b7f2192fda47bd6f1bbcf2d34bb920708737caa03e8cc5064736f6c634300081e0033","linkReferences":{}},"methodIdentifiers":{"BET_CUTOFF()":"75f55859","F()":"28811f59","RAKE_BP()":"22464d73","SETTLE_BOUNTY_BP()":"be9ebe6d","betHi()":"75ad7689","betLo()":"a6786904","claim(uint256)":"379607f5","cur()":"4fe24251","hiBet(uint256,address)":"c1a654d5","loBet(uint256,address)":"0a25ede6","nextThresholdGwei()":"8510ff87","owner()":"8da5cb5b","rounds(uint256)":"8c65c81f","setNextThreshold(uint256)":"c4c8b35b","settle()":"11da60b4","settlePriceGwei()":"c4a76243","settled()":"8f775839","sweepDust()":"a53df2e2"},"id":3}