{"abi":[{"type":"constructor","inputs":[{"name":"feeOracle","type":"address","internalType":"address"}],"stateMutability":"nonpayable"},{"type":"receive","stateMutability":"payable"},{"type":"function","name":"BET_CUTOFF","inputs":[],"outputs":[{"name":"","type":"uint256","internalType":"uint256"}],"stateMutability":"view"},{"type":"function","name":"F","inputs":[],"outputs":[{"name":"","type":"address","internalType":"contract IBlobBaseFee"}],"stateMutability":"view"},{"type":"function","name":"RAKE_BP","inputs":[],"outputs":[{"name":"","type":"uint256","internalType":"uint256"}],"stateMutability":"view"},{"type":"function","name":"SETTLE_BOUNTY_BP","inputs":[],"outputs":[{"name":"","type":"uint256","internalType":"uint256"}],"stateMutability":"view"},{"type":"function","name":"betHi","inputs":[],"outputs":[],"stateMutability":"payable"},{"type":"function","name":"betLo","inputs":[],"outputs":[],"stateMutability":"payable"},{"type":"function","name":"claim","inputs":[{"name":"id","type":"uint256","internalType":"uint256"}],"outputs":[],"stateMutability":"nonpayable"},{"type":"function","name":"cur","inputs":[],"outputs":[{"name":"","type":"uint256","internalType":"uint256"}],"stateMutability":"view"},{"type":"function","name":"hiBet","inputs":[{"name":"","type":"uint256","internalType":"uint256"},{"name":"","type":"address","internalType":"address"}],"outputs":[{"name":"","type":"uint256","internalType":"uint256"}],"stateMutability":"view"},{"type":"function","name":"loBet","inputs":[{"name":"","type":"uint256","internalType":"uint256"},{"name":"","type":"address","internalType":"address"}],"outputs":[{"name":"","type":"uint256","internalType":"uint256"}],"stateMutability":"view"},{"type":"function","name":"nextThresholdGwei","inputs":[],"outputs":[{"name":"","type":"uint256","internalType":"uint256"}],"stateMutability":"view"},{"type":"function","name":"owner","inputs":[],"outputs":[{"name":"","type":"address","internalType":"address"}],"stateMutability":"view"},{"type":"function","name":"rounds","inputs":[{"name":"","type":"uint256","internalType":"uint256"}],"outputs":[{"name":"closeTs","type":"uint256","internalType":"uint256"},{"name":"hiPool","type":"uint256","internalType":"uint256"},{"name":"loPool","type":"uint256","internalType":"uint256"},{"name":"feeWei","type":"uint256","internalType":"uint256"},{"name":"thresholdGwei","type":"uint256","internalType":"uint256"},{"name":"settlePriceGwei","type":"uint256","internalType":"uint256"}],"stateMutability":"view"},{"type":"function","name":"setNextThreshold","inputs":[{"name":"thr","type":"uint256","internalType":"uint256"}],"outputs":[],"stateMutability":"nonpayable"},{"type":"function","name":"settle","inputs":[],"outputs":[],"stateMutability":"nonpayable"},{"type":"function","name":"settlePriceGwei","inputs":[],"outputs":[{"name":"","type":"uint256","internalType":"uint256"}],"stateMutability":"view"},{"type":"function","name":"settled","inputs":[],"outputs":[{"name":"","type":"bool","internalType":"bool"}],"stateMutability":"view"},{"type":"event","name":"Bet","inputs":[{"name":"id","type":"uint256","indexed":false,"internalType":"uint256"},{"name":"user","type":"address","indexed":false,"internalType":"address"},{"name":"hi","type":"bool","indexed":false,"internalType":"bool"},{"name":"amt","type":"uint256","indexed":false,"internalType":"uint256"}],"anonymous":false},{"type":"event","name":"NewRound","inputs":[{"name":"id","type":"uint256","indexed":false,"internalType":"uint256"},{"name":"close","type":"uint256","indexed":false,"internalType":"uint256"},{"name":"thr","type":"uint256","indexed":false,"internalType":"uint256"}],"anonymous":false},{"type":"event","name":"RefundAll","inputs":[{"name":"id","type":"uint256","indexed":true,"internalType":"uint256"}],"anonymous":false},{"type":"event","name":"RoundVoided","inputs":[{"name":"id","type":"uint256","indexed":true,"internalType":"uint256"},{"name":"refundWei","type":"uint256","indexed":false,"internalType":"uint256"}],"anonymous":false},{"type":"event","name":"SettleBounty","inputs":[{"name":"id","type":"uint256","indexed":true,"internalType":"uint256"},{"name":"caller","type":"address","indexed":true,"internalType":"address"},{"name":"bountyWei","type":"uint256","indexed":false,"internalType":"uint256"}],"anonymous":false},{"type":"event","name":"Settled","inputs":[{"name":"feeGwei","type":"uint256","indexed":false,"internalType":"uint256"}],"anonymous":false},{"type":"error","name":"ReentrancyGuardReentrantCall","inputs":[]}],"bytecode":{"object":"0x60a0604052346101a557604051601f610eab38819003918201601f19168301916001600160401b03831184841017610174578084926020946040528339810103126101a557516001600160a01b038116908190036101a55760016002553360018060a01b0319600454161760045560805260ff196001541660015560035460018101809111610188576003819055600554801561019c57905b5f600555610e1042018042116101885760405160c0810193906001600160401b038511818610176101745760056060947f5aec57d81928b24d30b1a2aec0d23d693412c37d7ec106b5d8259413716bb1f496604052848352602083015f8152604084015f8152878501905f8252608086019287845260a08701945f86525f52600660205260405f2096518755516001870155516002860155516003850155516004840155519101556003549160405192835260208301526040820152a1604051610d0190816101aa82396080518181816104eb01526105fa0152f35b634e487b7160e01b5f52604160045260245ffd5b634e487b7160e01b5f52601160045260245ffd5b50601990610098565b5f80fdfe6080604052600436101561001a575b3615610018575f80fd5b005b5f3560e01c80630a25ede61461054b57806311da60b41461052b57806322464d731461050f57806328811f59146104cc578063379607f5146104a15780634fe242511461048457806375ad7689146103d457806375f55859146103b85780638510ff871461039b5780638c65c81f1461033a5780638da5cb5b146103145780638f775839146102f2578063a678690414610203578063be9ebe6d146101e8578063c1a654d5146101b0578063c4a76243146101945763c4c8b35b0361000e5734610190576020366003190112610190576001600160a01b03600454163303610165576003545f52600660205260405f206001810154159081610158575b501561012557600435600555005b60405162461bcd60e51b815260206004820152600b60248201526a18995d1cc81c1b1858d95960aa1b6044820152606490fd5b600291500154155f610117565b606460405162461bcd60e51b815260206004820152600460248201526310b7bbb760e11b6044820152fd5b5f80fd5b34610190575f3660031901126101905760205f54604051908152f35b34610190576101be36610583565b905f5260076020526001600160a01b0360405f2091165f52602052602060405f2054604051908152f35b34610190575f366003190112610190576020604051600a8152f35b5f36600319011261019057600354805f52600660205260405f20805461012b1981019081116102de574210156102b0576002915f52600860205260405f206001600160a01b0333165f5260205260405f2061025f3482546105a9565b90550161026d3482546105a9565b90557f27566cdd95dbce2805a5e40f467651a701882e8a51eaa28c53331fdc5e24f85960806003546040519081523360208201525f6040820152346060820152a1005b60405162461bcd60e51b815260206004820152600660248201526531baba37b33360d11b6044820152606490fd5b634e487b7160e01b5f52601160045260245ffd5b34610190575f36600319011261019057602060ff600154166040519015158152f35b34610190575f3660031901126101905760206001600160a01b0360045416604051908152f35b34610190576020366003190112610190576004355f52600660205260c060405f2080549060018101549060028101546003820154906005600484015493015493604051958652602086015260408501526060840152608083015260a0820152f35b34610190575f366003190112610190576020600554604051908152f35b34610190575f36600319011261019057602060405161012c8152f35b5f366003190112610190576003545f52600660205260405f20805461012b1981019081116102de574210156102b0576001906003545f52600760205260405f206001600160a01b0333165f5260205260405f206104323482546105a9565b9055016104403482546105a9565b90557f27566cdd95dbce2805a5e40f467651a701882e8a51eaa28c53331fdc5e24f859608060035460405190815233602082015260016040820152346060820152a1005b34610190575f366003190112610190576020600354604051908152f35b34610190576020366003190112610190576104ba610bba565b6104c5600435610937565b6001600255005b34610190575f3660031901126101905760206040516001600160a01b037f0000000000000000000000000000000000000000000000000000000000000000168152f35b34610190575f3660031901126101905760206040516101f48152f35b34610190575f36600319011261019057610543610bba565b6104c56105c3565b346101905761055936610583565b905f5260086020526001600160a01b0360405f2091165f52602052602060405f2054604051908152f35b604090600319011261019057600435906024356001600160a01b03811681036101905790565b919082018092116102de57565b919082039182116102de57565b6003545f52600660205260405f208054600c81018091116102de5742106108d2576040516303e0818560e61b8152906020826004817f00000000000000000000000000000000000000000000000000000000000000006001600160a01b03165afa918215610741575f92610874575b50816005820155600181015460028201549061064e82826105a9565b918115801561086c575b6107b657505047600a810290808204600a14901517156102de5761271090049081158015610755575b506101f4808202925081159183041417156102de575f80806127108194048060038701556001600160a01b036004541682821561074c575bf115610741576001549060ff8216610712577fcc3183593ff0e17b930d6f19f832ddcf865bf7ef55eb16754850c55ac447b2ad602061071094600160049560ff191617600155805f55604051908152a10154610bd8565b565b60405162461bcd60e51b81526020600482015260076024820152661cd95d1d1b195960ca1b6044820152606490fd5b6040513d5f823e3d90fd5b506108fc6106b9565b82905f906107ad575b5f80809381933390f1156107415781610776916105b6565b906003546040519182527fa8771a67c56919613ce2ba5d4a7425d832742950434c76c75350869f8e62a2d060203393a3805f610681565b506108fc61075e565b7fc147173c1fd31618a0a4e069af57571238b6f23c2332926b1f587f0f770ac4b19192506108146020915f600387015560035494857fa70a53972d6afb0fc38bd683cd5955faa5fa55e6629744a51e7a2aaa0ecc4e045f80a26105a9565b604051908152a26001549060ff8216610712577fcc3183593ff0e17b930d6f19f832ddcf865bf7ef55eb16754850c55ac447b2ad602061071094600160049560ff191617600155805f55604051908152a10154610bd8565b508015610658565b90915060203d6020116108cb575b601f8101601f1916820167ffffffffffffffff8111838210176108b7576020918391604052810103126101905751905f610632565b634e487b7160e01b5f52604160045260245ffd5b503d610882565b60405162461bcd60e51b815260206004820152600b60248201526a19dc9a59598819dd585c9960aa1b6044820152606490fd5b1561090c57565b606460405162461bcd60e51b81526020600482015260046024820152636e6f6e6560e01b6044820152fd5b805f52600660205260405f206005810191825415610b755760018201928354158015610b69575b610aa457546004830154118015926109ed91610a7e57825f52600760205260405f206001600160a01b0333165f5260205260405f2054935b8415936109a38515610905565b8115610a59575f52600760205260405f206001600160a01b0333165f526020525f60408120555b15610a495760036109e48654965b546002840154906105a9565b910154906105b6565b8083029283041417156102de578115610a35575f8080938193048047809111610a2d575b50818115610a24575b3390f11561074157565b506108fc610a1a565b90505f610a11565b634e487b7160e01b5f52601260045260245ffd5b60036109e46002830154966109d8565b5f52600860205260405f206001600160a01b0333165f526020525f60408120556109ca565b825f52600860205260405f206001600160a01b0333165f5260205260405f205493610996565b505f80935080925081819282526007602052604082206001600160a01b0333168352602052610af760408320548284526008602052604084206001600160a01b03331685526020526040842054906105a9565b90610b03821515610905565b8083526007602052604083206001600160a01b033316845260205282604081205582526008602052604082206001600160a01b033316835260205281604081205547908181118314610b6257505b818115610a24573390f11561074157565b9050610b51565b5060028301541561095e565b60405162461bcd60e51b815260206004820152600f60248201527f726f756e6420756e736574746c656400000000000000000000000000000000006044820152606490fd5b6002805414610bc95760028055565b633ee5aeb560e01b5f5260045ffd5b60ff196001541660015560035490600182018092116102de576003829055600554908115610cc35750905b5f600555610e1042018042116102de576040519260c084019380851067ffffffffffffffff8611176108b75760056060947f5aec57d81928b24d30b1a2aec0d23d693412c37d7ec106b5d8259413716bb1f496604052848352602083015f8152604084015f8152878501905f8252608086019287845260a08701945f86525f52600660205260405f2096518755516001870155516002860155516003850155516004840155519101556003549160405192835260208301526040820152a1565b905090610c0356fea26469706673582212207ffb1d088570ab1ddbd65043988a700e4cbe2b64590eaa390c7ca970022f78bf64736f6c634300081e0033","linkReferences":{}},"methodIdentifiers":{"BET_CUTOFF()":"75f55859","F()":"28811f59","RAKE_BP()":"22464d73","SETTLE_BOUNTY_BP()":"be9ebe6d","betHi()":"75ad7689","betLo()":"a6786904","claim(uint256)":"379607f5","cur()":"4fe24251","hiBet(uint256,address)":"c1a654d5","loBet(uint256,address)":"0a25ede6","nextThresholdGwei()":"8510ff87","owner()":"8da5cb5b","rounds(uint256)":"8c65c81f","setNextThreshold(uint256)":"c4c8b35b","settle()":"11da60b4","settlePriceGwei()":"c4a76243","settled()":"8f775839"},"id":3}