{"abi":[{"type":"constructor","inputs":[{"name":"feeOracle","type":"address","internalType":"address"}],"stateMutability":"nonpayable"},{"type":"receive","stateMutability":"payable"},{"type":"function","name":"BET_CUTOFF","inputs":[],"outputs":[{"name":"","type":"uint256","internalType":"uint256"}],"stateMutability":"view"},{"type":"function","name":"F","inputs":[],"outputs":[{"name":"","type":"address","internalType":"contract IBlobBaseFee"}],"stateMutability":"view"},{"type":"function","name":"RAKE_BP","inputs":[],"outputs":[{"name":"","type":"uint256","internalType":"uint256"}],"stateMutability":"view"},{"type":"function","name":"betHi","inputs":[],"outputs":[],"stateMutability":"payable"},{"type":"function","name":"betLo","inputs":[],"outputs":[],"stateMutability":"payable"},{"type":"function","name":"claim","inputs":[{"name":"id","type":"uint256","internalType":"uint256"}],"outputs":[],"stateMutability":"nonpayable"},{"type":"function","name":"cur","inputs":[],"outputs":[{"name":"","type":"uint256","internalType":"uint256"}],"stateMutability":"view"},{"type":"function","name":"hiBet","inputs":[{"name":"","type":"uint256","internalType":"uint256"},{"name":"","type":"address","internalType":"address"}],"outputs":[{"name":"","type":"uint256","internalType":"uint256"}],"stateMutability":"view"},{"type":"function","name":"loBet","inputs":[{"name":"","type":"uint256","internalType":"uint256"},{"name":"","type":"address","internalType":"address"}],"outputs":[{"name":"","type":"uint256","internalType":"uint256"}],"stateMutability":"view"},{"type":"function","name":"owner","inputs":[],"outputs":[{"name":"","type":"address","internalType":"address"}],"stateMutability":"view"},{"type":"function","name":"rounds","inputs":[{"name":"","type":"uint256","internalType":"uint256"}],"outputs":[{"name":"closeTs","type":"uint256","internalType":"uint256"},{"name":"hiPool","type":"uint256","internalType":"uint256"},{"name":"loPool","type":"uint256","internalType":"uint256"},{"name":"feeWei","type":"uint256","internalType":"uint256"},{"name":"thresholdGwei","type":"uint256","internalType":"uint256"},{"name":"settlePriceGwei","type":"uint256","internalType":"uint256"}],"stateMutability":"view"},{"type":"function","name":"setThreshold","inputs":[{"name":"nextThr","type":"uint256","internalType":"uint256"}],"outputs":[],"stateMutability":"nonpayable"},{"type":"function","name":"settle","inputs":[],"outputs":[],"stateMutability":"nonpayable"},{"type":"function","name":"settlePriceGwei","inputs":[],"outputs":[{"name":"","type":"uint256","internalType":"uint256"}],"stateMutability":"view"},{"type":"function","name":"settled","inputs":[],"outputs":[{"name":"","type":"bool","internalType":"bool"}],"stateMutability":"view"},{"type":"event","name":"Bet","inputs":[{"name":"id","type":"uint256","indexed":false,"internalType":"uint256"},{"name":"user","type":"address","indexed":false,"internalType":"address"},{"name":"hi","type":"bool","indexed":false,"internalType":"bool"},{"name":"amt","type":"uint256","indexed":false,"internalType":"uint256"}],"anonymous":false},{"type":"event","name":"NewRound","inputs":[{"name":"id","type":"uint256","indexed":false,"internalType":"uint256"},{"name":"close","type":"uint256","indexed":false,"internalType":"uint256"},{"name":"thr","type":"uint256","indexed":false,"internalType":"uint256"}],"anonymous":false},{"type":"event","name":"RefundAll","inputs":[{"name":"id","type":"uint256","indexed":true,"internalType":"uint256"}],"anonymous":false},{"type":"event","name":"Settled","inputs":[{"name":"feeGwei","type":"uint256","indexed":false,"internalType":"uint256"}],"anonymous":false},{"type":"error","name":"ReentrancyGuardReentrantCall","inputs":[]}],"bytecode":{"object":"0x60a06040523461018f57604051601f610d9638819003918201601f19168301916001600160401b038311848410176101675780849260209460405283398101031261018f57516001600160a01b0381169081900361018f5760016002553360018060a01b0319600454161760045560805260ff19600154166001556003546001810180911161017b5780600355610e1042019081421161017b5760405160c0810192906001600160401b038411818510176101675760056060937f5aec57d81928b24d30b1a2aec0d23d693412c37d7ec106b5d8259413716bb1f495604052838352602083015f8152604084015f8152868501905f825260808601926019845260a08701945f86525f528560205260405f20965187555160018701555160028601555160038501555160048401555191015560035490604051918252602082015260196040820152a1604051610c029081610194823960805181818161049b015261059d0152f35b634e487b7160e01b5f52604160045260245ffd5b634e487b7160e01b5f52601160045260245ffd5b5f80fdfe6080604052600436101561001a575b3615610018575f80fd5b005b5f3560e01c80630a25ede6146104fb57806311da60b4146104db57806322464d73146104bf57806328811f591461047c578063379607f5146104515780634fe242511461043457806375ad76891461038457806375f55859146103685780638c65c81f146103075780638da5cb5b146102e15780638f775839146102bf578063960bfe041461020a578063a67869041461011b578063c1a654d5146100e35763c4a762430361000e57346100df575f3660031901126100df5760205f54604051908152f35b5f80fd5b346100df576100f136610533565b905f5260066020526001600160a01b0360405f2091165f52602052602060405f2054604051908152f35b5f3660031901126100df57600354805f52600560205260405f20805461012b1981019081116101f6574210156101c8576002915f52600760205260405f206001600160a01b0333165f5260205260405f20610177348254610559565b905501610185348254610559565b90557f27566cdd95dbce2805a5e40f467651a701882e8a51eaa28c53331fdc5e24f85960806003546040519081523360208201525f6040820152346060820152a1005b60405162461bcd60e51b815260206004820152600660248201526531baba37b33360d11b6044820152606490fd5b634e487b7160e01b5f52601160045260245ffd5b346100df5760203660031901126100df576001600160a01b03600454163303610294576003545f52600560205260405f2060018101541580610288575b156102555760048035910155005b60405162461bcd60e51b815260206004820152600b60248201526a18995d1cc81c1b1858d95960aa1b6044820152606490fd5b50600281015415610247565b606460405162461bcd60e51b815260206004820152600460248201526310b7bbb760e11b6044820152fd5b346100df575f3660031901126100df57602060ff600154166040519015158152f35b346100df575f3660031901126100df5760206001600160a01b0360045416604051908152f35b346100df5760203660031901126100df576004355f52600560205260c060405f2080549060018101549060028101546003820154906005600484015493015493604051958652602086015260408501526060840152608083015260a0820152f35b346100df575f3660031901126100df57602060405161012c8152f35b5f3660031901126100df576003545f52600560205260405f20805461012b1981019081116101f6574210156101c8576001906003545f52600660205260405f206001600160a01b0333165f5260205260405f206103e2348254610559565b9055016103f0348254610559565b90557f27566cdd95dbce2805a5e40f467651a701882e8a51eaa28c53331fdc5e24f859608060035460405190815233602082015260016040820152346060820152a1005b346100df575f3660031901126100df576020600354604051908152f35b346100df5760203660031901126100df5761046a610ad7565b610475600435610851565b6001600255005b346100df575f3660031901126100df5760206040516001600160a01b037f0000000000000000000000000000000000000000000000000000000000000000168152f35b346100df575f3660031901126100df5760206040516101f48152f35b346100df575f3660031901126100df576104f3610ad7565b610475610566565b346100df5761050936610533565b905f5260076020526001600160a01b0360405f2091165f52602052602060405f2054604051908152f35b60409060031901126100df57600435906024356001600160a01b03811681036100df5790565b919082018092116101f657565b6003545f52600560205260405f208054600c81018091116101f65742106107ec576040516303e0818560e61b8152906020826004817f00000000000000000000000000000000000000000000000000000000000000006001600160a01b03165afa9182156106bf575f9261078e575b50816005820155600181015460028201546105f08183610559565b9115908115610785575b506106d3576101f48102908082046101f414901517156101f6575f80806127108194048060038701556001600160a01b03600454168282156106ca575bf1156106bf576001549060ff8216610690577fcc3183593ff0e17b930d6f19f832ddcf865bf7ef55eb16754850c55ac447b2ad602061068e94600160049560ff191617600155805f55604051908152a10154610af5565b565b60405162461bcd60e51b81526020600482015260076024820152661cd95d1d1b195960ca1b6044820152606490fd5b6040513d5f823e3d90fd5b506108fc610637565b50905f6003830155600354604051907fa70a53972d6afb0fc38bd683cd5955faa5fa55e6629744a51e7a2aaa0ecc4e045f80a26001549060ff82166107595750917fcc3183593ff0e17b930d6f19f832ddcf865bf7ef55eb16754850c55ac447b2ad6020600493600161068e9660ff191617600155805f55604051908152a10154610af5565b62461bcd60e51b81526020600482015260076024820152661cd95d1d1b195960ca1b6044820152606490fd5b9050155f6105fa565b90915060203d6020116107e5575b601f8101601f1916820167ffffffffffffffff8111838210176107d1576020918391604052810103126100df5751905f6105d5565b634e487b7160e01b5f52604160045260245ffd5b503d61079c565b60405162461bcd60e51b815260206004820152600b60248201526a19dc9a59598819dd585c9960aa1b6044820152606490fd5b1561082657565b606460405162461bcd60e51b81526020600482015260046024820152636e6f6e6560e01b6044820152fd5b805f52600560205260405f206005810191825415610a925760018201928354158015610a86575b6109be57546004830154118015929061099857815f52600660205260405f206001600160a01b0333165f5260205260405f2054925b8315926108ba841561081f565b8115610973575f52600660205260405f206001600160a01b0333165f526020525f60408120555b156109635760036108fb8554955b54600284015490610559565b91015481039081116101f6578083029283041417156101f657811561094f575f8080938193048047809111610947575b5081811561093e575b3390f1156106bf57565b506108fc610934565b90505f61092b565b634e487b7160e01b5f52601260045260245ffd5b60036108fb6002830154956108ef565b5f52600760205260405f206001600160a01b0333165f526020525f60408120556108e1565b815f52600760205260405f206001600160a01b0333165f5260205260405f2054926108ad565b50915050805f52600660205260405f206001600160a01b0333165f52602052610a0b60405f2054825f52600760205260405f206001600160a01b0333165f5260205260405f205490610559565b90811590610a19821561081f565b805f52600660205260405f206001600160a01b0333165f526020525f60408120555f52600760205260405f206001600160a01b0333165f526020525f60408120556103e382029182046103e31417156101f6575f80806103e881940481811561093e573390f1156106bf57565b50600283015415610878565b60405162461bcd60e51b815260206004820152600f60248201527f726f756e6420756e736574746c656400000000000000000000000000000000006044820152606490fd5b6002805414610ae65760028055565b633ee5aeb560e01b5f5260045ffd5b60ff1960015416600155600354600181018091116101f65780600355610e1042018042116101f6576040519260c084019380851067ffffffffffffffff8611176107d15760056060947f5aec57d81928b24d30b1a2aec0d23d693412c37d7ec106b5d8259413716bb1f496604052848352602083015f8152604084015f8152878501905f8252608086019287845260a08701945f86525f528560205260405f2096518755516001870155516002860155516003850155516004840155519101556003549160405192835260208301526040820152a156fea2646970667358221220cee66d496acc790db4ee31231ad8101c1b1356ca052121e3fd95c835777d2cf064736f6c634300081e0033","linkReferences":{}},"methodIdentifiers":{"BET_CUTOFF()":"75f55859","F()":"28811f59","RAKE_BP()":"22464d73","betHi()":"75ad7689","betLo()":"a6786904","claim(uint256)":"379607f5","cur()":"4fe24251","hiBet(uint256,address)":"c1a654d5","loBet(uint256,address)":"0a25ede6","owner()":"8da5cb5b","rounds(uint256)":"8c65c81f","setThreshold(uint256)":"960bfe04","settle()":"11da60b4","settlePriceGwei()":"c4a76243","settled()":"8f775839"},"id":3}