{"abi":[{"type":"constructor","inputs":[{"name":"_signers","type":"address[]","internalType":"address[]"},{"name":"_quorum","type":"uint256","internalType":"uint256"}],"stateMutability":"nonpayable"},{"type":"function","name":"OVERRIDE_DELAY","inputs":[],"outputs":[{"name":"","type":"uint256","internalType":"uint256"}],"stateMutability":"view"},{"type":"function","name":"UPGRADE_DELAY","inputs":[],"outputs":[{"name":"","type":"uint256","internalType":"uint256"}],"stateMutability":"view"},{"type":"function","name":"blobBaseFee","inputs":[],"outputs":[{"name":"","type":"uint256","internalType":"uint256"}],"stateMutability":"view"},{"type":"function","name":"eip712Domain","inputs":[],"outputs":[{"name":"fields","type":"bytes1","internalType":"bytes1"},{"name":"name","type":"string","internalType":"string"},{"name":"version","type":"string","internalType":"string"},{"name":"chainId","type":"uint256","internalType":"uint256"},{"name":"verifyingContract","type":"address","internalType":"address"},{"name":"salt","type":"bytes32","internalType":"bytes32"},{"name":"extensions","type":"uint256[]","internalType":"uint256[]"}],"stateMutability":"view"},{"type":"function","name":"execUpgrade","inputs":[],"outputs":[],"stateMutability":"nonpayable"},{"type":"function","name":"isSigner","inputs":[{"name":"","type":"address","internalType":"address"}],"outputs":[{"name":"","type":"bool","internalType":"bool"}],"stateMutability":"view"},{"type":"function","name":"jailSigner","inputs":[{"name":"s","type":"address","internalType":"address"},{"name":"j","type":"bool","internalType":"bool"}],"outputs":[],"stateMutability":"nonpayable"},{"type":"function","name":"jailed","inputs":[{"name":"","type":"address","internalType":"address"}],"outputs":[{"name":"","type":"bool","internalType":"bool"}],"stateMutability":"view"},{"type":"function","name":"lastFee","inputs":[],"outputs":[{"name":"","type":"uint256","internalType":"uint256"}],"stateMutability":"view"},{"type":"function","name":"lastTs","inputs":[],"outputs":[{"name":"","type":"uint256","internalType":"uint256"}],"stateMutability":"view"},{"type":"function","name":"minSigners","inputs":[],"outputs":[{"name":"","type":"uint256","internalType":"uint256"}],"stateMutability":"view"},{"type":"function","name":"overrideFee","inputs":[{"name":"slot","type":"uint256","internalType":"uint256"},{"name":"feeGwei","type":"uint256","internalType":"uint256"}],"outputs":[],"stateMutability":"nonpayable"},{"type":"function","name":"pause","inputs":[{"name":"p","type":"bool","internalType":"bool"}],"outputs":[],"stateMutability":"nonpayable"},{"type":"function","name":"paused","inputs":[],"outputs":[{"name":"","type":"bool","internalType":"bool"}],"stateMutability":"view"},{"type":"function","name":"proposeSigners","inputs":[{"name":"_new","type":"address[]","internalType":"address[]"},{"name":"_q","type":"uint256","internalType":"uint256"}],"outputs":[],"stateMutability":"nonpayable"},{"type":"function","name":"push","inputs":[{"name":"m","type":"tuple","internalType":"struct BlobFeeOracle.FeedMsg","components":[{"name":"fee","type":"uint256","internalType":"uint256"},{"name":"deadline","type":"uint256","internalType":"uint256"}]},{"name":"sigs","type":"bytes[]","internalType":"bytes[]"}],"outputs":[],"stateMutability":"nonpayable"},{"type":"function","name":"signerCount","inputs":[],"outputs":[{"name":"","type":"uint256","internalType":"uint256"}],"stateMutability":"view"},{"type":"function","name":"signers","inputs":[{"name":"","type":"uint256","internalType":"uint256"}],"outputs":[{"name":"","type":"address","internalType":"address"}],"stateMutability":"view"},{"type":"function","name":"slotPushed","inputs":[{"name":"","type":"uint256","internalType":"uint256"}],"outputs":[{"name":"","type":"bool","internalType":"bool"}],"stateMutability":"view"},{"type":"function","name":"timelock","inputs":[],"outputs":[{"name":"","type":"address","internalType":"address"}],"stateMutability":"view"},{"type":"event","name":"EIP712DomainChanged","inputs":[],"anonymous":false},{"type":"event","name":"Pushed","inputs":[{"name":"feeGwei","type":"uint256","indexed":false,"internalType":"uint256"}],"anonymous":false},{"type":"error","name":"ECDSAInvalidSignature","inputs":[]},{"type":"error","name":"ECDSAInvalidSignatureLength","inputs":[{"name":"length","type":"uint256","internalType":"uint256"}]},{"type":"error","name":"ECDSAInvalidSignatureS","inputs":[{"name":"s","type":"bytes32","internalType":"bytes32"}]},{"type":"error","name":"InvalidShortString","inputs":[]},{"type":"error","name":"StringTooLong","inputs":[{"name":"str","type":"string","internalType":"string"}]}],"bytecode":{"object":"0x610180806040523461042357611b29803803809161001d8285610427565b833981016040828203126104235781516001600160401b0381116104235782019181601f84011215610423578251926001600160401b038411610335578360051b92604051946100706020860187610427565b855260208501916020839582010191821161042357602001915b8183106104035750505060200151906040516100a7604082610427565b600d815260208101906c426c6f624665654f7261636c6560981b8252604051916100d2604084610427565b600183526020830191603160f81b83526100eb81610488565b610120526100f884610614565b61014052519020918260e05251902080610100524660a0526040519060208201927f8b73c3c69bb8fe3d512ecc4cf759cc79239f7b179b0ffacaa9a75d522b39400f8452604083015260608201524660808201523060a082015260a0815261016160c082610427565b5190206080523060c052825180151590816103f6575b50156103c35781158015806103b8575b1561038a5760038302908382046003141715610376578351908160011b91808304600214901517156103765710610349578251906001600160401b0382116103355768010000000000000000821161033557600254826002558083106102fb575b5060025f5260205f205f5b8381106102de5785856003555f5b815181101561025b576001906001600160a01b0361021f8285610460565b51165f5260046020528060405f2055818060a01b0361023e8285610460565b51165f52600560205260405f208260ff1982541617905501610201565b33610160526040516113e69081610743823960805181610f9c015260a05181611059015260c05181610f6d015260e05181610feb01526101005181611011015261012051816101aa015261014051816101d301526101605181818161013501528181610326015281816109b201528181610ab001528181610b9d0152610d860152f35b82516001600160a01b0316818301556020909201916001016101f3565b60025f5261032f907f405787fa12a823e0f2b7631cc41b3ba8828b3321ca811111fa75cd3aa3bb5ace90810190840161044a565b5f6101e8565b634e487b7160e01b5f52604160045260245ffd5b60405162461bcd60e51b8152602060048201526005602482015264713c322f3360d81b6044820152606490fd5b634e487b7160e01b5f52601160045260245ffd5b60405162461bcd60e51b815260206004820152600660248201526571756f72756d60d01b6044820152606490fd5b508351831115610187565b60405162461bcd60e51b815260206004820152600b60248201526a626164207369676e65727360a81b6044820152606490fd5b610100915011155f610177565b82516001600160a01b03811681036104235781526020928301920161008a565b5f80fd5b601f909101601f19168101906001600160401b0382119082101761033557604052565b818110610455575050565b5f815560010161044a565b80518210156104745760209160051b010190565b634e487b7160e01b5f52603260045260245ffd5b908151602081105f14610502575090601f8151116104c25760208151910151602082106104b3571790565b5f198260200360031b1b161790565b604460209160405192839163305a27a960e01b83528160048401528051918291826024860152018484015e5f828201840152601f01601f19168101030190fd5b6001600160401b038111610335575f54600181811c9116801561060a575b60208210146105f657601f81116105ce575b50602092601f821160011461056f57928192935f92610564575b50508160011b915f199060031b1c1916175f5560ff90565b015190505f8061054c565b601f198216935f8052805f20915f5b8681106105b6575083600195961061059e575b505050811b015f5560ff90565b01515f1960f88460031b161c191690555f8080610591565b9192602060018192868501518155019401920161057e565b6105f0905f8052601f60205f20910160051c810190601f840160051c0161044a565b5f610532565b634e487b7160e01b5f52602260045260245ffd5b90607f1690610520565b908151602081105f1461063f575090601f8151116104c25760208151910151602082106104b3571790565b6001600160401b03811161033557600154600181811c91168015610738575b60208210146105f657601f811161070f575b50602092601f82116001146106ae57928192935f926106a3575b50508160011b915f199060031b1c19161760015560ff90565b015190505f8061068a565b601f1982169360015f52805f20915f5b8681106106f757508360019596106106df575b505050811b0160015560ff90565b01515f1960f88460031b161c191690555f80806106d1565b919260206001819286850151815501940192016106be565b6107329060015f52601f60205f20910160051c810190601f840160051c0161044a565b5f610670565b90607f169061065e56fe60806040526004361015610011575f80fd5b5f3560e01c806302329a2914610d5b57806303bab17a14610b8057806317082d9c14610a935780632079fb9a14610a3a5780632c402c751461097c5780633305ab901461094d57806347fe8b1d146109305780634e4f8289146109135780635c975abb146108f15780636a2cff6e1461055d5780637043e5dd14610520578063738bc5d6146102e45780637ca548c6146102c75780637df73e271461028a57806384b0196e146101925780639801134e146100f5578063b70f7e8414610175578063cbeeef5014610159578063d33219b4146101165763f8206140146100f5575f80fd5b34610112575f366003190112610112576020600854604051908152f35b5f80fd5b34610112575f3660031901126101125760206040516001600160a01b037f0000000000000000000000000000000000000000000000000000000000000000168152f35b34610112575f366003190112610112576020604051611c208152f35b34610112575f366003190112610112576020600354604051908152f35b34610112575f3660031901126101125761022e6101ce7f000000000000000000000000000000000000000000000000000000000000000061112d565b6101f77f0000000000000000000000000000000000000000000000000000000000000000611253565b602061023c6040519261020a8385610f41565b5f84525f368137604051958695600f60f81b875260e08588015260e0870190610e1e565b908582036040870152610e1e565b4660608501523060808501525f60a085015283810360c08501528180845192838152019301915f5b82811061027357505050500390f35b835185528695509381019392810192600101610264565b34610112576020366003190112610112576001600160a01b036102ab610dd7565b165f526005602052602060ff60405f2054166040519015158152f35b34610112575f366003190112610112576020600254604051908152f35b346101125760403660031901126101125760043567ffffffffffffffff811161011257610315903690600401610ded565b9060243561034d6001600160a01b037f0000000000000000000000000000000000000000000000000000000000000000163314610e42565b8215801580610514575b156104e95781158015806104df575b156104b65760038302908382046003141715610433578460011b918583046002141715610433571061048957600b545f600b5580610447575b505f5b8381101561041d578060051b830135906001600160a01b03821680920361011257600b549168010000000000000000831015610409576103e9836001809501600b55610dbf565b6001600160a01b03829392549160031b92831b921b1916179055016103a2565b634e487b7160e01b5f52604160045260245ffd5b50600c556202a300420180421161043357600d55005b634e487b7160e01b5f52601160045260245ffd5b600b5f527f0175b7a638427703f0dbe7bb9bbf987a2551717b34e79f33b5b1008d1fa01db9908101905b81811061047e575061039f565b5f8155600101610471565b60405162461bcd60e51b8152602060048201526005602482015264713c322f3360d81b6044820152606490fd5b60405162461bcd60e51b81526020600482015260016024820152607160f81b6044820152606490fd5b5084831115610366565b60405162461bcd60e51b815260206004820152600360248201526218985960ea1b6044820152606490fd5b50610100841115610357565b34610112576020366003190112610112576001600160a01b03610541610dd7565b165f526006602052602060ff60405f2054166040519015158152f35b3461011257366003190160608112610112576040136101125760443567ffffffffffffffff811161011257610596903690600401610ded565b60ff600a54166108c3576024359081421161089457600435916105bc6127108410610ec0565b6008548015908115610827575b50506042906105e060039593949554851015610f0c565b600c4204805f5260076020526105fd60ff60405f20541615610e74565b5f52600760205260405f20600160ff1982541617905560405160208101917f53743b43f6023c44a0e850ee32647ba97089395069f26ae87e63af4c98443eff8352866040830152606082015260608152610658608082610f41565b519020610663610f63565b906040519161190160f01b83526002830152602282015220905f905f94601e1982360301925b858710156107c2578660051b83013584811215610112578301803567ffffffffffffffff81116101125760208201813603811361011257604051926106d8601f8401601f191660200185610f41565b828452602083369201011161011257825f6020846107139561070a95836001600160a01b03990137830101528861107f565b909291926110b9565b16805f52600560205260ff60405f205416806107ab575b1561077c575f526004602052600160405f20541b8082166107515760019117960195610689565b60405162461bcd60e51b815260206004820152600360248201526206475760ec1b6044820152606490fd5b60405162461bcd60e51b815260206004820152600760248201526610b9b4b3b732b960c91b6044820152606490fd5b50805f52600660205260ff60405f2054161561072a565b805f915b61080d577f596330851ac25e6ec8c92072a44a9e57b03eb6a0a2388a73770a0ac191524f986020846107fc856003541115610f0c565b8060085542600955604051908152a1005b905f198201828111610433576001921691829101916107c6565b8060011c8510159182610877575b5050156108435784806105c9565b60405162461bcd60e51b815260206004820152600c60248201526b6665652d756e737461626c6560a01b6044820152606490fd5b9080925060011b9182046002141715610433578311158580610835565b60405162461bcd60e51b8152602060048201526007602482015266195e1c1a5c995960ca1b6044820152606490fd5b60405162461bcd60e51b81526020600482015260066024820152651c185d5cd95960d21b6044820152606490fd5b34610112575f36600319011261011257602060ff600a54166040519015158152f35b34610112575f366003190112610112576020600954604051908152f35b34610112575f3660031901126101125760206040516202a3008152f35b34610112576020366003190112610112576004355f526007602052602060ff60405f2054166040519015158152f35b3461011257604036600319011261011257610995610dd7565b60243590811515809203610112576001600160a01b03906109d9827f0000000000000000000000000000000000000000000000000000000000000000163314610e42565b16805f52600560205260ff60405f20541615610a0b575f52600660205260405f209060ff801983541691161790555f80f35b60405162461bcd60e51b81526020600482015260076024820152663ab735b737bbb760c91b6044820152606490fd5b346101125760203660031901126101125760043560025481101561011257600254811015610a7f576001600160a01b0360209160025f52825f20015416604051908152f35b634e487b7160e01b5f52603260045260245ffd5b3461011257604036600319011261011257602435600435610ade337f00000000000000000000000000000000000000000000000000000000000000006001600160a01b031614610e42565b611c20810180821161043357600c420410610b52577f596330851ac25e6ec8c92072a44a9e57b03eb6a0a2388a73770a0ac191524f9891816020925f5260078352610b3060ff60405f20541615610e74565b5f526007825260405f20600160ff198254161790556107fc6127108210610ec0565b60405162461bcd60e51b815260206004820152600660248201526561637469766560d01b6044820152606490fd5b34610112575f36600319011261011257610bc46001600160a01b037f0000000000000000000000000000000000000000000000000000000000000000163314610e42565b600d548015159081610d50575b5015610d1f57600b5467ffffffffffffffff8111610409576801000000000000000081116104095760025481600255808210610cdb575b5060025f9081527f0175b7a638427703f0dbe7bb9bbf987a2551717b34e79f33b5b1008d1fa01db980547f405787fa12a823e0f2b7631cc41b3ba8828b3321ca811111fa75cd3aa3bb5ace939291905b838310610cbc57600c546003555f5b600b54811015610cb657806001600160a01b03610c85600193610dbf565b90549060031b1c16805f5260046020528160405f20555f52600560205260405f208260ff1982541617905501610c67565b5f600d55005b60016001600160a01b0381921692019283549281870155019190610c58565b60025f527f405787fa12a823e0f2b7631cc41b3ba8828b3321ca811111fa75cd3aa3bb5ace9081019082015b818110610d145750610c08565b5f8155600101610d07565b60405162461bcd60e51b8152602060048201526009602482015268746f6f206561726c7960b81b6044820152606490fd5b905042101581610bd1565b346101125760203660031901126101125760043580151580910361011257610dad6001600160a01b037f0000000000000000000000000000000000000000000000000000000000000000163314610e42565b60ff8019600a5416911617600a555f80f35b600b54811015610a7f57600b5f5260205f2001905f90565b600435906001600160a01b038216820361011257565b9181601f840112156101125782359167ffffffffffffffff8311610112576020808501948460051b01011161011257565b805180835260209291819084018484015e5f828201840152601f01601f1916010190565b15610e4957565b60405162461bcd60e51b8152602060048201526003602482015262085d1b60ea1b6044820152606490fd5b15610e7b57565b60405162461bcd60e51b815260206004820152600e60248201527f616c72656164792d7075736865640000000000000000000000000000000000006044820152606490fd5b15610ec757565b60405162461bcd60e51b815260206004820152601060248201527f6665652d6f75742d6f662d72616e6765000000000000000000000000000000006044820152606490fd5b15610f1357565b60405162461bcd60e51b815260206004820152600660248201526571756f72756d60d01b6044820152606490fd5b90601f8019910116810190811067ffffffffffffffff82111761040957604052565b6001600160a01b037f000000000000000000000000000000000000000000000000000000000000000016301480611056575b15610fbe577f000000000000000000000000000000000000000000000000000000000000000090565b60405160208101907f8b73c3c69bb8fe3d512ecc4cf759cc79239f7b179b0ffacaa9a75d522b39400f82527f000000000000000000000000000000000000000000000000000000000000000060408201527f000000000000000000000000000000000000000000000000000000000000000060608201524660808201523060a082015260a0815261105060c082610f41565b51902090565b507f00000000000000000000000000000000000000000000000000000000000000004614610f95565b81519190604183036110af576110a89250602082015190606060408401519301515f1a90611323565b9192909190565b50505f9160029190565b600481101561111957806110cb575050565b600181036110e25763f645eedf60e01b5f5260045ffd5b600281036110fd575063fce698f760e01b5f5260045260245ffd5b6003146111075750565b6335e2f38360e21b5f5260045260245ffd5b634e487b7160e01b5f52602160045260245ffd5b60ff81146111735760ff811690601f82116111645760405191611151604084610f41565b6020808452838101919036833783525290565b632cd44ac360e21b5f5260045ffd5b506040515f5f548060011c9160018216918215611249575b60208410831461123557838552849290811561121657506001146111b9575b6111b692500382610f41565b90565b505f80805290917f290decd9548b62a8d60345a988386fc84ba6bc95484008f6362f93160ef3e5635b8183106111fa5750509060206111b6928201016111aa565b60209193508060019154838588010152019101909183926111e2565b602092506111b694915060ff191682840152151560051b8201016111aa565b634e487b7160e01b5f52602260045260245ffd5b92607f169261118b565b60ff81146112775760ff811690601f82116111645760405191611151604084610f41565b506040515f6001548060011c9160018216918215611319575b60208410831461123557838552849290811561121657506001146112ba576111b692500382610f41565b5060015f90815290917fb10e2d527612073b26eecdfd717e6a320cf44b4afac2b0732d9fcbe2b7fa0cf65b8183106112fd5750509060206111b6928201016111aa565b60209193508060019154838588010152019101909183926112e5565b92607f1692611290565b91907f7fffffffffffffffffffffffffffffff5d576e7357a4501ddfe92f46681b20a084116113a5579160209360809260ff5f9560405194855216868401526040830152606082015282805260015afa1561139a575f516001600160a01b0381161561139057905f905f90565b505f906001905f90565b6040513d5f823e3d90fd5b5050505f916003919056fea2646970667358221220008b946f41358e63c781c495e4622a5fc0939ad6dac4ff6c0f190e7dad0a685864736f6c634300081e0033","linkReferences":{}},"methodIdentifiers":{"OVERRIDE_DELAY()":"cbeeef50","UPGRADE_DELAY()":"47fe8b1d","blobBaseFee()":"f8206140","eip712Domain()":"84b0196e","execUpgrade()":"03bab17a","isSigner(address)":"7df73e27","jailSigner(address,bool)":"2c402c75","jailed(address)":"7043e5dd","lastFee()":"9801134e","lastTs()":"4e4f8289","minSigners()":"b70f7e84","overrideFee(uint256,uint256)":"17082d9c","pause(bool)":"02329a29","paused()":"5c975abb","proposeSigners(address[],uint256)":"738bc5d6","push((uint256,uint256),bytes[])":"6a2cff6e","signerCount()":"7ca548c6","signers(uint256)":"2079fb9a","slotPushed(uint256)":"3305ab90","timelock()":"d33219b4"},"id":1}