{"abi":[{"type":"constructor","inputs":[{"name":"_signers","type":"address[]","internalType":"address[]"},{"name":"_quorum","type":"uint256","internalType":"uint256"}],"stateMutability":"nonpayable"},{"type":"function","name":"DOMAIN_SEPARATOR","inputs":[],"outputs":[{"name":"","type":"bytes32","internalType":"bytes32"}],"stateMutability":"view"},{"type":"function","name":"OVERRIDE_DELAY","inputs":[],"outputs":[{"name":"","type":"uint256","internalType":"uint256"}],"stateMutability":"view"},{"type":"function","name":"UPGRADE_DELAY","inputs":[],"outputs":[{"name":"","type":"uint256","internalType":"uint256"}],"stateMutability":"view"},{"type":"function","name":"blobBaseFee","inputs":[],"outputs":[{"name":"","type":"uint256","internalType":"uint256"}],"stateMutability":"view"},{"type":"function","name":"eip712Domain","inputs":[],"outputs":[{"name":"fields","type":"bytes1","internalType":"bytes1"},{"name":"name","type":"string","internalType":"string"},{"name":"version","type":"string","internalType":"string"},{"name":"chainId","type":"uint256","internalType":"uint256"},{"name":"verifyingContract","type":"address","internalType":"address"},{"name":"salt","type":"bytes32","internalType":"bytes32"},{"name":"extensions","type":"uint256[]","internalType":"uint256[]"}],"stateMutability":"view"},{"type":"function","name":"execUpgrade","inputs":[],"outputs":[],"stateMutability":"nonpayable"},{"type":"function","name":"isSigner","inputs":[{"name":"","type":"address","internalType":"address"}],"outputs":[{"name":"","type":"bool","internalType":"bool"}],"stateMutability":"view"},{"type":"function","name":"jailSigner","inputs":[{"name":"s","type":"address","internalType":"address"},{"name":"j","type":"bool","internalType":"bool"}],"outputs":[],"stateMutability":"nonpayable"},{"type":"function","name":"jailed","inputs":[{"name":"","type":"address","internalType":"address"}],"outputs":[{"name":"","type":"bool","internalType":"bool"}],"stateMutability":"view"},{"type":"function","name":"lastFee","inputs":[],"outputs":[{"name":"","type":"uint256","internalType":"uint256"}],"stateMutability":"view"},{"type":"function","name":"lastTs","inputs":[],"outputs":[{"name":"","type":"uint256","internalType":"uint256"}],"stateMutability":"view"},{"type":"function","name":"minSigners","inputs":[],"outputs":[{"name":"","type":"uint256","internalType":"uint256"}],"stateMutability":"view"},{"type":"function","name":"overrideFee","inputs":[{"name":"slot","type":"uint256","internalType":"uint256"},{"name":"feeGwei","type":"uint256","internalType":"uint256"}],"outputs":[],"stateMutability":"nonpayable"},{"type":"function","name":"pause","inputs":[{"name":"p","type":"bool","internalType":"bool"}],"outputs":[],"stateMutability":"nonpayable"},{"type":"function","name":"paused","inputs":[],"outputs":[{"name":"","type":"bool","internalType":"bool"}],"stateMutability":"view"},{"type":"function","name":"proposeSigners","inputs":[{"name":"_new","type":"address[]","internalType":"address[]"},{"name":"_q","type":"uint256","internalType":"uint256"}],"outputs":[],"stateMutability":"nonpayable"},{"type":"function","name":"push","inputs":[{"name":"m","type":"tuple","internalType":"struct BlobFeeOracle.FeedMsg","components":[{"name":"fee","type":"uint256","internalType":"uint256"},{"name":"deadline","type":"uint256","internalType":"uint256"}]},{"name":"sigs","type":"bytes[]","internalType":"bytes[]"}],"outputs":[],"stateMutability":"nonpayable"},{"type":"function","name":"signerCount","inputs":[],"outputs":[{"name":"","type":"uint256","internalType":"uint256"}],"stateMutability":"view"},{"type":"function","name":"signers","inputs":[{"name":"","type":"uint256","internalType":"uint256"}],"outputs":[{"name":"","type":"address","internalType":"address"}],"stateMutability":"view"},{"type":"function","name":"slotPushed","inputs":[{"name":"","type":"uint256","internalType":"uint256"}],"outputs":[{"name":"","type":"bool","internalType":"bool"}],"stateMutability":"view"},{"type":"function","name":"timelock","inputs":[],"outputs":[{"name":"","type":"address","internalType":"address"}],"stateMutability":"view"},{"type":"event","name":"EIP712DomainChanged","inputs":[],"anonymous":false},{"type":"event","name":"Pushed","inputs":[{"name":"feeGwei","type":"uint256","indexed":false,"internalType":"uint256"}],"anonymous":false},{"type":"error","name":"ECDSAInvalidSignature","inputs":[]},{"type":"error","name":"ECDSAInvalidSignatureLength","inputs":[{"name":"length","type":"uint256","internalType":"uint256"}]},{"type":"error","name":"ECDSAInvalidSignatureS","inputs":[{"name":"s","type":"bytes32","internalType":"bytes32"}]},{"type":"error","name":"InvalidShortString","inputs":[]},{"type":"error","name":"StringTooLong","inputs":[{"name":"str","type":"string","internalType":"string"}]}],"bytecode":{"object":"0x610180806040523461042357611b56803803809161001d8285610427565b833981016040828203126104235781516001600160401b0381116104235782019181601f84011215610423578251926001600160401b038411610335578360051b92604051946100706020860187610427565b855260208501916020839582010191821161042357602001915b8183106104035750505060200151906040516100a7604082610427565b600d815260208101906c426c6f624665654f7261636c6560981b8252604051916100d2604084610427565b600183526020830191603160f81b83526100eb81610488565b610120526100f884610614565b61014052519020918260e05251902080610100524660a0526040519060208201927f8b73c3c69bb8fe3d512ecc4cf759cc79239f7b179b0ffacaa9a75d522b39400f8452604083015260608201524660808201523060a082015260a0815261016160c082610427565b5190206080523060c052825180151590816103f6575b50156103c35781158015806103b8575b1561038a5760038302908382046003141715610376578351908160011b91808304600214901517156103765710610349578251906001600160401b0382116103355768010000000000000000821161033557600254826002558083106102fb575b5060025f5260205f205f5b8381106102de5785856003555f5b815181101561025b576001906001600160a01b0361021f8285610460565b51165f5260046020528060405f2055818060a01b0361023e8285610460565b51165f52600560205260405f208260ff1982541617905501610201565b33610160526040516114139081610743823960805181610fc9015260a05181611086015260c05181610f9a015260e051816110180152610100518161103e015261012051816101b5015261014051816101de01526101605181818161014001528181610331015281816109df01528181610add01528181610bca0152610db30152f35b82516001600160a01b0316818301556020909201916001016101f3565b60025f5261032f907f405787fa12a823e0f2b7631cc41b3ba8828b3321ca811111fa75cd3aa3bb5ace90810190840161044a565b5f6101e8565b634e487b7160e01b5f52604160045260245ffd5b60405162461bcd60e51b8152602060048201526005602482015264713c322f3360d81b6044820152606490fd5b634e487b7160e01b5f52601160045260245ffd5b60405162461bcd60e51b815260206004820152600660248201526571756f72756d60d01b6044820152606490fd5b508351831115610187565b60405162461bcd60e51b815260206004820152600b60248201526a626164207369676e65727360a81b6044820152606490fd5b610100915011155f610177565b82516001600160a01b03811681036104235781526020928301920161008a565b5f80fd5b601f909101601f19168101906001600160401b0382119082101761033557604052565b818110610455575050565b5f815560010161044a565b80518210156104745760209160051b010190565b634e487b7160e01b5f52603260045260245ffd5b908151602081105f14610502575090601f8151116104c25760208151910151602082106104b3571790565b5f198260200360031b1b161790565b604460209160405192839163305a27a960e01b83528160048401528051918291826024860152018484015e5f828201840152601f01601f19168101030190fd5b6001600160401b038111610335575f54600181811c9116801561060a575b60208210146105f657601f81116105ce575b50602092601f821160011461056f57928192935f92610564575b50508160011b915f199060031b1c1916175f5560ff90565b015190505f8061054c565b601f198216935f8052805f20915f5b8681106105b6575083600195961061059e575b505050811b015f5560ff90565b01515f1960f88460031b161c191690555f8080610591565b9192602060018192868501518155019401920161057e565b6105f0905f8052601f60205f20910160051c810190601f840160051c0161044a565b5f610532565b634e487b7160e01b5f52602260045260245ffd5b90607f1690610520565b908151602081105f1461063f575090601f8151116104c25760208151910151602082106104b3571790565b6001600160401b03811161033557600154600181811c91168015610738575b60208210146105f657601f811161070f575b50602092601f82116001146106ae57928192935f926106a3575b50508160011b915f199060031b1c19161760015560ff90565b015190505f8061068a565b601f1982169360015f52805f20915f5b8681106106f757508360019596106106df575b505050811b0160015560ff90565b01515f1960f88460031b161c191690555f80806106d1565b919260206001819286850151815501940192016106be565b6107329060015f52601f60205f20910160051c810190601f840160051c0161044a565b5f610670565b90607f169061065e56fe60806040526004361015610011575f80fd5b5f3560e01c806302329a2914610d8857806303bab17a14610bad57806317082d9c14610ac05780632079fb9a14610a675780632c402c75146109a95780633305ab901461097a5780633644e5151461095857806347fe8b1d1461093b5780634e4f82891461091e5780635c975abb146108fc5780636a2cff6e146105685780637043e5dd1461052b578063738bc5d6146102ef5780637ca548c6146102d25780637df73e271461029557806384b0196e1461019d5780639801134e14610100578063b70f7e8414610180578063cbeeef5014610164578063d33219b4146101215763f820614014610100575f80fd5b3461011d575f36600319011261011d576020600854604051908152f35b5f80fd5b3461011d575f36600319011261011d5760206040516001600160a01b037f0000000000000000000000000000000000000000000000000000000000000000168152f35b3461011d575f36600319011261011d576020604051611c208152f35b3461011d575f36600319011261011d576020600354604051908152f35b3461011d575f36600319011261011d576102396101d97f000000000000000000000000000000000000000000000000000000000000000061115a565b6102027f0000000000000000000000000000000000000000000000000000000000000000611280565b6020610247604051926102158385610f6e565b5f84525f368137604051958695600f60f81b875260e08588015260e0870190610e4b565b908582036040870152610e4b565b4660608501523060808501525f60a085015283810360c08501528180845192838152019301915f5b82811061027e57505050500390f35b83518552869550938101939281019260010161026f565b3461011d57602036600319011261011d576001600160a01b036102b6610e04565b165f526005602052602060ff60405f2054166040519015158152f35b3461011d575f36600319011261011d576020600254604051908152f35b3461011d57604036600319011261011d5760043567ffffffffffffffff811161011d57610320903690600401610e1a565b906024356103586001600160a01b037f0000000000000000000000000000000000000000000000000000000000000000163314610e6f565b821580158061051f575b156104f45781158015806104ea575b156104c1576003830290838204600314171561043e578460011b91858304600214171561043e571061049457600b545f600b5580610452575b505f5b83811015610428578060051b830135906001600160a01b03821680920361011d57600b549168010000000000000000831015610414576103f4836001809501600b55610dec565b6001600160a01b03829392549160031b92831b921b1916179055016103ad565b634e487b7160e01b5f52604160045260245ffd5b50600c556202a300420180421161043e57600d55005b634e487b7160e01b5f52601160045260245ffd5b600b5f527f0175b7a638427703f0dbe7bb9bbf987a2551717b34e79f33b5b1008d1fa01db9908101905b81811061048957506103aa565b5f815560010161047c565b60405162461bcd60e51b8152602060048201526005602482015264713c322f3360d81b6044820152606490fd5b60405162461bcd60e51b81526020600482015260016024820152607160f81b6044820152606490fd5b5084831115610371565b60405162461bcd60e51b815260206004820152600360248201526218985960ea1b6044820152606490fd5b50610100841115610362565b3461011d57602036600319011261011d576001600160a01b0361054c610e04565b165f526006602052602060ff60405f2054166040519015158152f35b3461011d5736600319016060811261011d5760401361011d5760443567ffffffffffffffff811161011d576105a1903690600401610e1a565b60ff600a54166108ce576024359081421161089f57600435916105c76127108410610eed565b6008548015908115610832575b50506042906105eb60039593949554851015610f39565b600c4204805f52600760205261060860ff60405f20541615610ea1565b5f52600760205260405f20600160ff1982541617905560405160208101917f53743b43f6023c44a0e850ee32647ba97089395069f26ae87e63af4c98443eff8352866040830152606082015260608152610663608082610f6e565b51902061066e610f90565b906040519161190160f01b83526002830152602282015220905f905f94601e1982360301925b858710156107cd578660051b8301358481121561011d578301803567ffffffffffffffff811161011d5760208201813603811361011d57604051926106e3601f8401601f191660200185610f6e565b828452602083369201011161011d57825f60208461071e9561071595836001600160a01b0399013783010152886110ac565b909291926110e6565b16805f52600560205260ff60405f205416806107b6575b15610787575f526004602052600160405f20541b80821661075c5760019117960195610694565b60405162461bcd60e51b815260206004820152600360248201526206475760ec1b6044820152606490fd5b60405162461bcd60e51b815260206004820152600760248201526610b9b4b3b732b960c91b6044820152606490fd5b50805f52600660205260ff60405f20541615610735565b805f915b610818577f596330851ac25e6ec8c92072a44a9e57b03eb6a0a2388a73770a0ac191524f98602084610807856003541115610f39565b8060085542600955604051908152a1005b905f19820182811161043e576001921691829101916107d1565b8060011c8510159182610882575b50501561084e5784806105d4565b60405162461bcd60e51b815260206004820152600c60248201526b6665652d756e737461626c6560a01b6044820152606490fd5b9080925060011b918204600214171561043e578311158580610840565b60405162461bcd60e51b8152602060048201526007602482015266195e1c1a5c995960ca1b6044820152606490fd5b60405162461bcd60e51b81526020600482015260066024820152651c185d5cd95960d21b6044820152606490fd5b3461011d575f36600319011261011d57602060ff600a54166040519015158152f35b3461011d575f36600319011261011d576020600954604051908152f35b3461011d575f36600319011261011d5760206040516202a3008152f35b3461011d575f36600319011261011d576020610972610f90565b604051908152f35b3461011d57602036600319011261011d576004355f526007602052602060ff60405f2054166040519015158152f35b3461011d57604036600319011261011d576109c2610e04565b6024359081151580920361011d576001600160a01b0390610a06827f0000000000000000000000000000000000000000000000000000000000000000163314610e6f565b16805f52600560205260ff60405f20541615610a38575f52600660205260405f209060ff801983541691161790555f80f35b60405162461bcd60e51b81526020600482015260076024820152663ab735b737bbb760c91b6044820152606490fd5b3461011d57602036600319011261011d5760043560025481101561011d57600254811015610aac576001600160a01b0360209160025f52825f20015416604051908152f35b634e487b7160e01b5f52603260045260245ffd5b3461011d57604036600319011261011d57602435600435610b0b337f00000000000000000000000000000000000000000000000000000000000000006001600160a01b031614610e6f565b611c20810180821161043e57600c420410610b7f577f596330851ac25e6ec8c92072a44a9e57b03eb6a0a2388a73770a0ac191524f9891816020925f5260078352610b5d60ff60405f20541615610ea1565b5f526007825260405f20600160ff198254161790556108076127108210610eed565b60405162461bcd60e51b815260206004820152600660248201526561637469766560d01b6044820152606490fd5b3461011d575f36600319011261011d57610bf16001600160a01b037f0000000000000000000000000000000000000000000000000000000000000000163314610e6f565b600d548015159081610d7d575b5015610d4c57600b5467ffffffffffffffff8111610414576801000000000000000081116104145760025481600255808210610d08575b5060025f9081527f0175b7a638427703f0dbe7bb9bbf987a2551717b34e79f33b5b1008d1fa01db980547f405787fa12a823e0f2b7631cc41b3ba8828b3321ca811111fa75cd3aa3bb5ace939291905b838310610ce957600c546003555f5b600b54811015610ce357806001600160a01b03610cb2600193610dec565b90549060031b1c16805f5260046020528160405f20555f52600560205260405f208260ff1982541617905501610c94565b5f600d55005b60016001600160a01b0381921692019283549281870155019190610c85565b60025f527f405787fa12a823e0f2b7631cc41b3ba8828b3321ca811111fa75cd3aa3bb5ace9081019082015b818110610d415750610c35565b5f8155600101610d34565b60405162461bcd60e51b8152602060048201526009602482015268746f6f206561726c7960b81b6044820152606490fd5b905042101581610bfe565b3461011d57602036600319011261011d5760043580151580910361011d57610dda6001600160a01b037f0000000000000000000000000000000000000000000000000000000000000000163314610e6f565b60ff8019600a5416911617600a555f80f35b600b54811015610aac57600b5f5260205f2001905f90565b600435906001600160a01b038216820361011d57565b9181601f8401121561011d5782359167ffffffffffffffff831161011d576020808501948460051b01011161011d57565b805180835260209291819084018484015e5f828201840152601f01601f1916010190565b15610e7657565b60405162461bcd60e51b8152602060048201526003602482015262085d1b60ea1b6044820152606490fd5b15610ea857565b60405162461bcd60e51b815260206004820152600e60248201527f616c72656164792d7075736865640000000000000000000000000000000000006044820152606490fd5b15610ef457565b60405162461bcd60e51b815260206004820152601060248201527f6665652d6f75742d6f662d72616e6765000000000000000000000000000000006044820152606490fd5b15610f4057565b60405162461bcd60e51b815260206004820152600660248201526571756f72756d60d01b6044820152606490fd5b90601f8019910116810190811067ffffffffffffffff82111761041457604052565b6001600160a01b037f000000000000000000000000000000000000000000000000000000000000000016301480611083575b15610feb577f000000000000000000000000000000000000000000000000000000000000000090565b60405160208101907f8b73c3c69bb8fe3d512ecc4cf759cc79239f7b179b0ffacaa9a75d522b39400f82527f000000000000000000000000000000000000000000000000000000000000000060408201527f000000000000000000000000000000000000000000000000000000000000000060608201524660808201523060a082015260a0815261107d60c082610f6e565b51902090565b507f00000000000000000000000000000000000000000000000000000000000000004614610fc2565b81519190604183036110dc576110d59250602082015190606060408401519301515f1a90611350565b9192909190565b50505f9160029190565b600481101561114657806110f8575050565b6001810361110f5763f645eedf60e01b5f5260045ffd5b6002810361112a575063fce698f760e01b5f5260045260245ffd5b6003146111345750565b6335e2f38360e21b5f5260045260245ffd5b634e487b7160e01b5f52602160045260245ffd5b60ff81146111a05760ff811690601f8211611191576040519161117e604084610f6e565b6020808452838101919036833783525290565b632cd44ac360e21b5f5260045ffd5b506040515f5f548060011c9160018216918215611276575b60208410831461126257838552849290811561124357506001146111e6575b6111e392500382610f6e565b90565b505f80805290917f290decd9548b62a8d60345a988386fc84ba6bc95484008f6362f93160ef3e5635b8183106112275750509060206111e3928201016111d7565b602091935080600191548385880101520191019091839261120f565b602092506111e394915060ff191682840152151560051b8201016111d7565b634e487b7160e01b5f52602260045260245ffd5b92607f16926111b8565b60ff81146112a45760ff811690601f8211611191576040519161117e604084610f6e565b506040515f6001548060011c9160018216918215611346575b60208410831461126257838552849290811561124357506001146112e7576111e392500382610f6e565b5060015f90815290917fb10e2d527612073b26eecdfd717e6a320cf44b4afac2b0732d9fcbe2b7fa0cf65b81831061132a5750509060206111e3928201016111d7565b6020919350806001915483858801015201910190918392611312565b92607f16926112bd565b91907f7fffffffffffffffffffffffffffffff5d576e7357a4501ddfe92f46681b20a084116113d2579160209360809260ff5f9560405194855216868401526040830152606082015282805260015afa156113c7575f516001600160a01b038116156113bd57905f905f90565b505f906001905f90565b6040513d5f823e3d90fd5b5050505f916003919056fea264697066735822122026100d14be2e061f36eec7e428747dce7c9ead7b2c43cd5e8e06983f2fd381d564736f6c634300081e0033","linkReferences":{}},"methodIdentifiers":{"DOMAIN_SEPARATOR()":"3644e515","OVERRIDE_DELAY()":"cbeeef50","UPGRADE_DELAY()":"47fe8b1d","blobBaseFee()":"f8206140","eip712Domain()":"84b0196e","execUpgrade()":"03bab17a","isSigner(address)":"7df73e27","jailSigner(address,bool)":"2c402c75","jailed(address)":"7043e5dd","lastFee()":"9801134e","lastTs()":"4e4f8289","minSigners()":"b70f7e84","overrideFee(uint256,uint256)":"17082d9c","pause(bool)":"02329a29","paused()":"5c975abb","proposeSigners(address[],uint256)":"738bc5d6","push((uint256,uint256),bytes[])":"6a2cff6e","signerCount()":"7ca548c6","signers(uint256)":"2079fb9a","slotPushed(uint256)":"3305ab90","timelock()":"d33219b4"},"id":1}