{"abi":[{"type":"constructor","inputs":[{"name":"_signers","type":"address[]","internalType":"address[]"},{"name":"_quorum","type":"uint256","internalType":"uint256"}],"stateMutability":"nonpayable"},{"type":"function","name":"DOMAIN_SEPARATOR","inputs":[],"outputs":[{"name":"","type":"bytes32","internalType":"bytes32"}],"stateMutability":"view"},{"type":"function","name":"OVERRIDE_DELAY","inputs":[],"outputs":[{"name":"","type":"uint256","internalType":"uint256"}],"stateMutability":"view"},{"type":"function","name":"UPGRADE_DELAY","inputs":[],"outputs":[{"name":"","type":"uint256","internalType":"uint256"}],"stateMutability":"view"},{"type":"function","name":"blobBaseFee","inputs":[],"outputs":[{"name":"","type":"uint256","internalType":"uint256"}],"stateMutability":"view"},{"type":"function","name":"eip712Domain","inputs":[],"outputs":[{"name":"fields","type":"bytes1","internalType":"bytes1"},{"name":"name","type":"string","internalType":"string"},{"name":"version","type":"string","internalType":"string"},{"name":"chainId","type":"uint256","internalType":"uint256"},{"name":"verifyingContract","type":"address","internalType":"address"},{"name":"salt","type":"bytes32","internalType":"bytes32"},{"name":"extensions","type":"uint256[]","internalType":"uint256[]"}],"stateMutability":"view"},{"type":"function","name":"execUpgrade","inputs":[],"outputs":[],"stateMutability":"nonpayable"},{"type":"function","name":"isSigner","inputs":[{"name":"","type":"address","internalType":"address"}],"outputs":[{"name":"","type":"bool","internalType":"bool"}],"stateMutability":"view"},{"type":"function","name":"jailSigner","inputs":[{"name":"s","type":"address","internalType":"address"},{"name":"j","type":"bool","internalType":"bool"}],"outputs":[],"stateMutability":"nonpayable"},{"type":"function","name":"jailed","inputs":[{"name":"","type":"address","internalType":"address"}],"outputs":[{"name":"","type":"bool","internalType":"bool"}],"stateMutability":"view"},{"type":"function","name":"lastFee","inputs":[],"outputs":[{"name":"","type":"uint256","internalType":"uint256"}],"stateMutability":"view"},{"type":"function","name":"lastTs","inputs":[],"outputs":[{"name":"","type":"uint256","internalType":"uint256"}],"stateMutability":"view"},{"type":"function","name":"minSigners","inputs":[],"outputs":[{"name":"","type":"uint256","internalType":"uint256"}],"stateMutability":"view"},{"type":"function","name":"overrideFee","inputs":[{"name":"slot","type":"uint256","internalType":"uint256"},{"name":"feeGwei","type":"uint256","internalType":"uint256"}],"outputs":[],"stateMutability":"nonpayable"},{"type":"function","name":"pause","inputs":[{"name":"p","type":"bool","internalType":"bool"}],"outputs":[],"stateMutability":"nonpayable"},{"type":"function","name":"paused","inputs":[],"outputs":[{"name":"","type":"bool","internalType":"bool"}],"stateMutability":"view"},{"type":"function","name":"proposeSigners","inputs":[{"name":"_new","type":"address[]","internalType":"address[]"},{"name":"_q","type":"uint256","internalType":"uint256"}],"outputs":[],"stateMutability":"nonpayable"},{"type":"function","name":"push","inputs":[{"name":"msg","type":"tuple","internalType":"struct BlobFeeOracle.FeedMsg","components":[{"name":"fee","type":"uint256","internalType":"uint256"},{"name":"deadline","type":"uint256","internalType":"uint256"}]},{"name":"sigs","type":"bytes[]","internalType":"bytes[]"}],"outputs":[],"stateMutability":"nonpayable"},{"type":"function","name":"signerCount","inputs":[],"outputs":[{"name":"","type":"uint256","internalType":"uint256"}],"stateMutability":"view"},{"type":"function","name":"signers","inputs":[{"name":"","type":"uint256","internalType":"uint256"}],"outputs":[{"name":"","type":"address","internalType":"address"}],"stateMutability":"view"},{"type":"function","name":"slotPushed","inputs":[{"name":"","type":"uint256","internalType":"uint256"}],"outputs":[{"name":"","type":"bool","internalType":"bool"}],"stateMutability":"view"},{"type":"function","name":"timelock","inputs":[],"outputs":[{"name":"","type":"address","internalType":"address"}],"stateMutability":"view"},{"type":"event","name":"EIP712DomainChanged","inputs":[],"anonymous":false},{"type":"event","name":"Pushed","inputs":[{"name":"feeGwei","type":"uint256","indexed":false,"internalType":"uint256"}],"anonymous":false},{"type":"error","name":"ECDSAInvalidSignature","inputs":[]},{"type":"error","name":"ECDSAInvalidSignatureLength","inputs":[{"name":"length","type":"uint256","internalType":"uint256"}]},{"type":"error","name":"ECDSAInvalidSignatureS","inputs":[{"name":"s","type":"bytes32","internalType":"bytes32"}]},{"type":"error","name":"InvalidShortString","inputs":[]},{"type":"error","name":"StringTooLong","inputs":[{"name":"str","type":"string","internalType":"string"}]}],"bytecode":{"object":"0x610180806040523461042b57611a6b803803809161001d828561042f565b8339810160408282031261042b5781516001600160401b03811161042b5782019181601f8401121561042b578251926001600160401b03841161033d578360051b9260405194610070602086018761042f565b855260208501916020839582010191821161042b57602001915b81831061040b5750505060200151906040516100a760408261042f565b600d815260208101906c426c6f624665654f7261636c6560981b8252604051916100d260408461042f565b600183526020830191603160f81b83526100eb81610490565b610120526100f88461061c565b61014052519020918260e05251902080610100524660a0526040519060208201927f8b73c3c69bb8fe3d512ecc4cf759cc79239f7b179b0ffacaa9a75d522b39400f8452604083015260608201524660808201523060a082015260a0815261016160c08261042f565b5190206080523060c052825180151590816103fe575b50156103cb5781158015806103c0575b15610392576003830290838204600314171561037e578351908160011b918083046002149015171561037e5710610351578251906001600160401b03821161033d5768010000000000000000821161033d5760025482600255808310610303575b5060025f5260205f205f5b8381106102e65785856003555f5b815181101561025b576001906001600160a01b0361021f8285610468565b51165f5260046020528060405f2055818060a01b0361023e8285610468565b51165f52600560205260405f208260ff1982541617905501610201565b3361016052633b9aca00600855604051611320908161074b823960805181610ed6015260a05181610f93015260c05181610ea7015260e05181610f2501526101005181610f4b015261012051816101b5015261014051816101de015261016051818181610140015281816103310152818161092501528181610a2301528181610ba40152610d8d0152f35b82516001600160a01b0316818301556020909201916001016101f3565b60025f52610337907f405787fa12a823e0f2b7631cc41b3ba8828b3321ca811111fa75cd3aa3bb5ace908101908401610452565b5f6101e8565b634e487b7160e01b5f52604160045260245ffd5b60405162461bcd60e51b8152602060048201526005602482015264713c322f3360d81b6044820152606490fd5b634e487b7160e01b5f52601160045260245ffd5b60405162461bcd60e51b815260206004820152600660248201526571756f72756d60d01b6044820152606490fd5b508351831115610187565b60405162461bcd60e51b815260206004820152600b60248201526a626164207369676e65727360a81b6044820152606490fd5b610100915011155f610177565b82516001600160a01b038116810361042b5781526020928301920161008a565b5f80fd5b601f909101601f19168101906001600160401b0382119082101761033d57604052565b81811061045d575050565b5f8155600101610452565b805182101561047c5760209160051b010190565b634e487b7160e01b5f52603260045260245ffd5b908151602081105f1461050a575090601f8151116104ca5760208151910151602082106104bb571790565b5f198260200360031b1b161790565b604460209160405192839163305a27a960e01b83528160048401528051918291826024860152018484015e5f828201840152601f01601f19168101030190fd5b6001600160401b03811161033d575f54600181811c91168015610612575b60208210146105fe57601f81116105d6575b50602092601f821160011461057757928192935f9261056c575b50508160011b915f199060031b1c1916175f5560ff90565b015190505f80610554565b601f198216935f8052805f20915f5b8681106105be57508360019596106105a6575b505050811b015f5560ff90565b01515f1960f88460031b161c191690555f8080610599565b91926020600181928685015181550194019201610586565b6105f8905f8052601f60205f20910160051c810190601f840160051c01610452565b5f61053a565b634e487b7160e01b5f52602260045260245ffd5b90607f1690610528565b908151602081105f14610647575090601f8151116104ca5760208151910151602082106104bb571790565b6001600160401b03811161033d57600154600181811c91168015610740575b60208210146105fe57601f8111610717575b50602092601f82116001146106b657928192935f926106ab575b50508160011b915f199060031b1c19161760015560ff90565b015190505f80610692565b601f1982169360015f52805f20915f5b8681106106ff57508360019596106106e7575b505050811b0160015560ff90565b01515f1960f88460031b161c191690555f80806106d9565b919260206001819286850151815501940192016106c6565b61073a9060015f52601f60205f20910160051c810190601f840160051c01610452565b5f610678565b90607f169061066656fe60806040526004361015610011575f80fd5b5f3560e01c806302329a2914610d6257806303bab17a14610b8757806317082d9c14610a065780632079fb9a146109ad5780632c402c75146108ef5780633305ab90146108c05780633644e5151461089e57806347fe8b1d146108815780634e4f8289146108645780635c975abb146108425780636a2cff6e146105685780637043e5dd1461052b578063738bc5d6146102ef5780637ca548c6146102d25780637df73e271461029557806384b0196e1461019d5780639801134e14610100578063b70f7e8414610180578063cbeeef5014610164578063d33219b4146101215763f820614014610100575f80fd5b3461011d575f36600319011261011d576020600854604051908152f35b5f80fd5b3461011d575f36600319011261011d5760206040516001600160a01b037f0000000000000000000000000000000000000000000000000000000000000000168152f35b3461011d575f36600319011261011d576020604051611c208152f35b3461011d575f36600319011261011d576020600354604051908152f35b3461011d575f36600319011261011d576102396101d97f0000000000000000000000000000000000000000000000000000000000000000611067565b6102027f000000000000000000000000000000000000000000000000000000000000000061118d565b6020610247604051926102158385610e7b565b5f84525f368137604051958695600f60f81b875260e08588015260e0870190610e25565b908582036040870152610e25565b4660608501523060808501525f60a085015283810360c08501528180845192838152019301915f5b82811061027e57505050500390f35b83518552869550938101939281019260010161026f565b3461011d57602036600319011261011d576001600160a01b036102b6610dde565b165f526005602052602060ff60405f2054166040519015158152f35b3461011d575f36600319011261011d576020600254604051908152f35b3461011d57604036600319011261011d5760043567ffffffffffffffff811161011d57610320903690600401610df4565b906024356103586001600160a01b037f0000000000000000000000000000000000000000000000000000000000000000163314610e49565b821580158061051f575b156104f45781158015806104ea575b156104c1576003830290838204600314171561043e578460011b91858304600214171561043e571061049457600b545f600b5580610452575b505f5b83811015610428578060051b830135906001600160a01b03821680920361011d57600b549168010000000000000000831015610414576103f4836001809501600b55610dc6565b6001600160a01b03829392549160031b92831b921b1916179055016103ad565b634e487b7160e01b5f52604160045260245ffd5b50600c556202a300420180421161043e57600d55005b634e487b7160e01b5f52601160045260245ffd5b600b5f527f0175b7a638427703f0dbe7bb9bbf987a2551717b34e79f33b5b1008d1fa01db9908101905b81811061048957506103aa565b5f815560010161047c565b60405162461bcd60e51b8152602060048201526005602482015264713c322f3360d81b6044820152606490fd5b60405162461bcd60e51b81526020600482015260016024820152607160f81b6044820152606490fd5b5084831115610371565b60405162461bcd60e51b815260206004820152600360248201526218985960ea1b6044820152606490fd5b50610100841115610362565b3461011d57602036600319011261011d576001600160a01b0361054c610dde565b165f526006602052602060ff60405f2054166040519015158152f35b3461011d5736600319016060811261011d5760401361011d5760443567ffffffffffffffff811161011d576105a1903690600401610df4565b9060243591824210156108125760035481106107e45760426004359360405160208101917f53743b43f6023c44a0e850ee32647ba97089395069f26ae87e63af4c98443eff8352866040830152606082015260608152610602608082610e7b565b51902061060d610e9d565b906040519161190160f01b8352600283015260228201522090600c420492835f52600760205260ff60405f2054166107b6575f94919336829003601e19019290865b8688101561076b578760051b8401358581121561011d578401803567ffffffffffffffff811161011d5760208201813603811361011d576040519261069e601f8401601f191660200185610e7b565b828452602083369201011161011d57825f6020846106d9956106d095836001600160a01b039901378301015289610fb9565b90929192610ff3565b16805f52600560205260ff60405f2054161561073c575f526004602052600160405f20541b808216610711576001911797019661064f565b60405162461bcd60e51b815260206004820152600360248201526206475760ec1b6044820152606490fd5b60405162461bcd60e51b815260206004820152600760248201526610b9b4b3b732b960c91b6044820152606490fd5b7f596330851ac25e6ec8c92072a44a9e57b03eb6a0a2388a73770a0ac191524f98602084845f526007825260405f20600160ff198254161790558060085542600955604051908152a1005b60405162461bcd60e51b81526020600482015260066024820152651c1d5cda195960d21b6044820152606490fd5b60405162461bcd60e51b815260206004820152600660248201526571756f72756d60d01b6044820152606490fd5b60405162461bcd60e51b8152602060048201526008602482015267646561646c696e6560c01b6044820152606490fd5b3461011d575f36600319011261011d57602060ff600a54166040519015158152f35b3461011d575f36600319011261011d576020600954604051908152f35b3461011d575f36600319011261011d5760206040516202a3008152f35b3461011d575f36600319011261011d5760206108b8610e9d565b604051908152f35b3461011d57602036600319011261011d576004355f526007602052602060ff60405f2054166040519015158152f35b3461011d57604036600319011261011d57610908610dde565b6024359081151580920361011d576001600160a01b039061094c827f0000000000000000000000000000000000000000000000000000000000000000163314610e49565b16805f52600560205260ff60405f2054161561097e575f52600660205260405f209060ff801983541691161790555f80f35b60405162461bcd60e51b81526020600482015260076024820152663ab735b737bbb760c91b6044820152606490fd5b3461011d57602036600319011261011d5760043560025481101561011d576002548110156109f2576001600160a01b0360209160025f52825f20015416604051908152f35b634e487b7160e01b5f52603260045260245ffd5b3461011d57604036600319011261011d57602435600435610a51337f00000000000000000000000000000000000000000000000000000000000000006001600160a01b031614610e49565b611c20810180821161043e57600c420410610b5957805f52600760205260ff60405f205416610b14575f52600760205260405f20600160ff19825416179055612710811015610acf576020817f596330851ac25e6ec8c92072a44a9e57b03eb6a0a2388a73770a0ac191524f989260085542600955604051908152a1005b60405162461bcd60e51b815260206004820152601060248201527f6665652d6f75742d6f662d72616e6765000000000000000000000000000000006044820152606490fd5b60405162461bcd60e51b815260206004820152600e60248201527f616c72656164792d7075736865640000000000000000000000000000000000006044820152606490fd5b60405162461bcd60e51b815260206004820152600660248201526561637469766560d01b6044820152606490fd5b3461011d575f36600319011261011d57610bcb6001600160a01b037f0000000000000000000000000000000000000000000000000000000000000000163314610e49565b600d548015159081610d57575b5015610d2657600b5467ffffffffffffffff8111610414576801000000000000000081116104145760025481600255808210610ce2575b5060025f9081527f0175b7a638427703f0dbe7bb9bbf987a2551717b34e79f33b5b1008d1fa01db980547f405787fa12a823e0f2b7631cc41b3ba8828b3321ca811111fa75cd3aa3bb5ace939291905b838310610cc357600c546003555f5b600b54811015610cbd57806001600160a01b03610c8c600193610dc6565b90549060031b1c16805f5260046020528160405f20555f52600560205260405f208260ff1982541617905501610c6e565b5f600d55005b60016001600160a01b0381921692019283549281870155019190610c5f565b60025f527f405787fa12a823e0f2b7631cc41b3ba8828b3321ca811111fa75cd3aa3bb5ace9081019082015b818110610d1b5750610c0f565b5f8155600101610d0e565b60405162461bcd60e51b8152602060048201526009602482015268746f6f206561726c7960b81b6044820152606490fd5b905042101581610bd8565b3461011d57602036600319011261011d5760043580151580910361011d57610db46001600160a01b037f0000000000000000000000000000000000000000000000000000000000000000163314610e49565b60ff8019600a5416911617600a555f80f35b600b548110156109f257600b5f5260205f2001905f90565b600435906001600160a01b038216820361011d57565b9181601f8401121561011d5782359167ffffffffffffffff831161011d576020808501948460051b01011161011d57565b805180835260209291819084018484015e5f828201840152601f01601f1916010190565b15610e5057565b60405162461bcd60e51b8152602060048201526003602482015262085d1b60ea1b6044820152606490fd5b90601f8019910116810190811067ffffffffffffffff82111761041457604052565b6001600160a01b037f000000000000000000000000000000000000000000000000000000000000000016301480610f90575b15610ef8577f000000000000000000000000000000000000000000000000000000000000000090565b60405160208101907f8b73c3c69bb8fe3d512ecc4cf759cc79239f7b179b0ffacaa9a75d522b39400f82527f000000000000000000000000000000000000000000000000000000000000000060408201527f000000000000000000000000000000000000000000000000000000000000000060608201524660808201523060a082015260a08152610f8a60c082610e7b565b51902090565b507f00000000000000000000000000000000000000000000000000000000000000004614610ecf565b8151919060418303610fe957610fe29250602082015190606060408401519301515f1a9061125d565b9192909190565b50505f9160029190565b60048110156110535780611005575050565b6001810361101c5763f645eedf60e01b5f5260045ffd5b60028103611037575063fce698f760e01b5f5260045260245ffd5b6003146110415750565b6335e2f38360e21b5f5260045260245ffd5b634e487b7160e01b5f52602160045260245ffd5b60ff81146110ad5760ff811690601f821161109e576040519161108b604084610e7b565b6020808452838101919036833783525290565b632cd44ac360e21b5f5260045ffd5b506040515f5f548060011c9160018216918215611183575b60208410831461116f57838552849290811561115057506001146110f3575b6110f092500382610e7b565b90565b505f80805290917f290decd9548b62a8d60345a988386fc84ba6bc95484008f6362f93160ef3e5635b8183106111345750509060206110f0928201016110e4565b602091935080600191548385880101520191019091839261111c565b602092506110f094915060ff191682840152151560051b8201016110e4565b634e487b7160e01b5f52602260045260245ffd5b92607f16926110c5565b60ff81146111b15760ff811690601f821161109e576040519161108b604084610e7b565b506040515f6001548060011c9160018216918215611253575b60208410831461116f57838552849290811561115057506001146111f4576110f092500382610e7b565b5060015f90815290917fb10e2d527612073b26eecdfd717e6a320cf44b4afac2b0732d9fcbe2b7fa0cf65b8183106112375750509060206110f0928201016110e4565b602091935080600191548385880101520191019091839261121f565b92607f16926111ca565b91907f7fffffffffffffffffffffffffffffff5d576e7357a4501ddfe92f46681b20a084116112df579160209360809260ff5f9560405194855216868401526040830152606082015282805260015afa156112d4575f516001600160a01b038116156112ca57905f905f90565b505f906001905f90565b6040513d5f823e3d90fd5b5050505f916003919056fea2646970667358221220e595ee6dc6f774191b2b111c357378878a46b54c907fa964d40c5f2d286c17ef64736f6c634300081e0033","linkReferences":{}},"methodIdentifiers":{"DOMAIN_SEPARATOR()":"3644e515","OVERRIDE_DELAY()":"cbeeef50","UPGRADE_DELAY()":"47fe8b1d","blobBaseFee()":"f8206140","eip712Domain()":"84b0196e","execUpgrade()":"03bab17a","isSigner(address)":"7df73e27","jailSigner(address,bool)":"2c402c75","jailed(address)":"7043e5dd","lastFee()":"9801134e","lastTs()":"4e4f8289","minSigners()":"b70f7e84","overrideFee(uint256,uint256)":"17082d9c","pause(bool)":"02329a29","paused()":"5c975abb","proposeSigners(address[],uint256)":"738bc5d6","push((uint256,uint256),bytes[])":"6a2cff6e","signerCount()":"7ca548c6","signers(uint256)":"2079fb9a","slotPushed(uint256)":"3305ab90","timelock()":"d33219b4"},"id":0}