{"abi":[{"type":"constructor","inputs":[{"name":"_signers","type":"address[]","internalType":"address[]"},{"name":"_quorum","type":"uint256","internalType":"uint256"}],"stateMutability":"nonpayable"},{"type":"function","name":"blobBaseFee","inputs":[],"outputs":[{"name":"","type":"uint256","internalType":"uint256"}],"stateMutability":"view"},{"type":"function","name":"lastFee","inputs":[],"outputs":[{"name":"","type":"uint256","internalType":"uint256"}],"stateMutability":"view"},{"type":"function","name":"lastTs","inputs":[],"outputs":[{"name":"","type":"uint256","internalType":"uint256"}],"stateMutability":"view"},{"type":"function","name":"push","inputs":[{"name":"feeGwei","type":"uint256","internalType":"uint256"}],"outputs":[],"stateMutability":"nonpayable"},{"type":"function","name":"quorum","inputs":[],"outputs":[{"name":"","type":"uint256","internalType":"uint256"}],"stateMutability":"view"},{"type":"function","name":"signers","inputs":[{"name":"","type":"uint256","internalType":"uint256"}],"outputs":[{"name":"","type":"address","internalType":"address"}],"stateMutability":"view"},{"type":"event","name":"NewFee","inputs":[{"name":"feeGwei","type":"uint256","indexed":false,"internalType":"uint256"}],"anonymous":false}],"bytecode":{"object":"0x60a06040523461021b57610615803803806100198161021f565b928339810160408282031261021b5781516001600160401b03811161021b5782019181601f8401121561021b578251926001600160401b03841161016a578360051b92602061006981860161021f565b8096815201916020839582010191821161021b57602001915b8183106101fb575050506020015191805180151590816101ee575b50156101bb57821515806101b0575b1561017e5751906001600160401b03821161016a5768010000000000000000821161016a575f54825f5580831061013a575b505f8080525f5160206105f55f395f51905f52905b83811061011d57846080526040516103b09081610245823960805181818161011e015261032d0152f35b82516001600160a01b0316818301556020909201916001016100f3565b5f80525f5160206105f55f395f51905f529081019083015b81811061015f57506100de565b5f8155600101610152565b634e487b7160e01b5f52604160045260245ffd5b60405162461bcd60e51b815260206004820152600a6024820152696261642071756f72756d60b01b6044820152606490fd5b5080518311156100ac565b60405162461bcd60e51b815260206004820152600b60248201526a626164207369676e65727360a81b6044820152606490fd5b610100915011155f61009d565b82516001600160a01b038116810361021b57815260209283019201610082565b5f80fd5b6040519190601f01601f191682016001600160401b0381118382101761016a5760405256fe6080806040526004361015610012575f80fd5b5f3560e01c9081631703a01814610318575080632079fb9a146102d85780634e4f8289146102bb578063959ac4841461007f5780639801134e1461005e5763f82061401461005e575f80fd5b3461007b575f36600319011261007b576020600154604051908152f35b5f80fd5b3461007b57602036600319011261007b575f80549060043590805b83811061028a575b501561025b576103e881101561022d57600c4204915f905f5b8181106101fc575b5050825f526003602052600160405f2054911b908181166101d157835f5260036020521760405f2055815f52600460205260405f2080549182018092116101bd5755805f52600360205260405f205490815f925b6101a357507f000000000000000000000000000000000000000000000000000000000000000082101561014657005b5f52600460205260405f2054811561018f577f63fe946ed58429ac3c5e64d4356ff92c26d7fa1e73586515df8ba9f059ab54a591602091048060015542600255604051908152a1005b634e487b7160e01b5f52601260045260245ffd5b915f1983018381116101bd57600193169283910192610117565b634e487b7160e01b5f52601160045260245ffd5b60405162461bcd60e51b815260206004820152600360248201526206475760ec1b6044820152606490fd5b6001600160a01b0361020d82610350565b90549060031b1c163314610223576001016100bb565b91505083806100c3565b60405162461bcd60e51b815260206004820152600660248201526573616e69747960d01b6044820152606490fd5b60405162461bcd60e51b815260206004820152600760248201526610b9b4b3b732b960c91b6044820152606490fd5b6001600160a01b0361029b82610350565b90549060031b1c1633146102b15760010161009a565b50506001836100a2565b3461007b575f36600319011261007b576020600254604051908152f35b3461007b57602036600319011261007b576004355f5481101561007b576001600160a01b03610308602092610350565b90549060031b1c16604051908152f35b3461007b575f36600319011261007b576020907f00000000000000000000000000000000000000000000000000000000000000008152f35b5f54811015610366575f805260205f2001905f90565b634e487b7160e01b5f52603260045260245ffdfea26469706673582212202016599af1c2f5ffc7b028cb90fa76e4f5d24ebd9475c654c9f7b39d7f4a156a64736f6c634300081e0033290decd9548b62a8d60345a988386fc84ba6bc95484008f6362f93160ef3e563","linkReferences":{}},"methodIdentifiers":{"blobBaseFee()":"f8206140","lastFee()":"9801134e","lastTs()":"4e4f8289","push(uint256)":"959ac484","quorum()":"1703a018","signers(uint256)":"2079fb9a"},"id":1}