{"abi":[{"type":"constructor","inputs":[{"name":"_signers","type":"address[]","internalType":"address[]"},{"name":"_quorum","type":"uint256","internalType":"uint256"}],"stateMutability":"nonpayable"},{"type":"function","name":"DOMAIN_SEPARATOR","inputs":[],"outputs":[{"name":"","type":"bytes32","internalType":"bytes32"}],"stateMutability":"view"},{"type":"function","name":"OVERRIDE_DELAY","inputs":[],"outputs":[{"name":"","type":"uint256","internalType":"uint256"}],"stateMutability":"view"},{"type":"function","name":"UPGRADE_DELAY","inputs":[],"outputs":[{"name":"","type":"uint256","internalType":"uint256"}],"stateMutability":"view"},{"type":"function","name":"blobBaseFee","inputs":[],"outputs":[{"name":"","type":"uint256","internalType":"uint256"}],"stateMutability":"view"},{"type":"function","name":"eip712Domain","inputs":[],"outputs":[{"name":"fields","type":"bytes1","internalType":"bytes1"},{"name":"name","type":"string","internalType":"string"},{"name":"version","type":"string","internalType":"string"},{"name":"chainId","type":"uint256","internalType":"uint256"},{"name":"verifyingContract","type":"address","internalType":"address"},{"name":"salt","type":"bytes32","internalType":"bytes32"},{"name":"extensions","type":"uint256[]","internalType":"uint256[]"}],"stateMutability":"view"},{"type":"function","name":"execUpgrade","inputs":[],"outputs":[],"stateMutability":"nonpayable"},{"type":"function","name":"isSigner","inputs":[{"name":"","type":"address","internalType":"address"}],"outputs":[{"name":"","type":"bool","internalType":"bool"}],"stateMutability":"view"},{"type":"function","name":"jailSigner","inputs":[{"name":"s","type":"address","internalType":"address"},{"name":"j","type":"bool","internalType":"bool"}],"outputs":[],"stateMutability":"nonpayable"},{"type":"function","name":"jailed","inputs":[{"name":"","type":"address","internalType":"address"}],"outputs":[{"name":"","type":"bool","internalType":"bool"}],"stateMutability":"view"},{"type":"function","name":"lastFee","inputs":[],"outputs":[{"name":"","type":"uint256","internalType":"uint256"}],"stateMutability":"view"},{"type":"function","name":"lastTs","inputs":[],"outputs":[{"name":"","type":"uint256","internalType":"uint256"}],"stateMutability":"view"},{"type":"function","name":"minSigners","inputs":[],"outputs":[{"name":"","type":"uint256","internalType":"uint256"}],"stateMutability":"view"},{"type":"function","name":"nonces","inputs":[{"name":"","type":"address","internalType":"address"}],"outputs":[{"name":"","type":"uint256","internalType":"uint256"}],"stateMutability":"view"},{"type":"function","name":"overrideFee","inputs":[{"name":"slot","type":"uint256","internalType":"uint256"},{"name":"feeGwei","type":"uint256","internalType":"uint256"}],"outputs":[],"stateMutability":"nonpayable"},{"type":"function","name":"pause","inputs":[{"name":"p","type":"bool","internalType":"bool"}],"outputs":[],"stateMutability":"nonpayable"},{"type":"function","name":"paused","inputs":[],"outputs":[{"name":"","type":"bool","internalType":"bool"}],"stateMutability":"view"},{"type":"function","name":"proposeSigners","inputs":[{"name":"_new","type":"address[]","internalType":"address[]"},{"name":"_q","type":"uint256","internalType":"uint256"}],"outputs":[],"stateMutability":"nonpayable"},{"type":"function","name":"push","inputs":[{"name":"msg","type":"tuple","internalType":"struct BlobFeeOracle.FeedMsg","components":[{"name":"fee","type":"uint256","internalType":"uint256"},{"name":"deadline","type":"uint256","internalType":"uint256"},{"name":"nonce","type":"uint256","internalType":"uint256"}]},{"name":"sigs","type":"bytes[]","internalType":"bytes[]"}],"outputs":[],"stateMutability":"nonpayable"},{"type":"function","name":"signerCount","inputs":[],"outputs":[{"name":"","type":"uint256","internalType":"uint256"}],"stateMutability":"view"},{"type":"function","name":"signers","inputs":[{"name":"","type":"uint256","internalType":"uint256"}],"outputs":[{"name":"","type":"address","internalType":"address"}],"stateMutability":"view"},{"type":"function","name":"slotPushed","inputs":[{"name":"","type":"uint256","internalType":"uint256"}],"outputs":[{"name":"","type":"bool","internalType":"bool"}],"stateMutability":"view"},{"type":"function","name":"timelock","inputs":[],"outputs":[{"name":"","type":"address","internalType":"address"}],"stateMutability":"view"},{"type":"event","name":"EIP712DomainChanged","inputs":[],"anonymous":false},{"type":"event","name":"Pushed","inputs":[{"name":"feeGwei","type":"uint256","indexed":false,"internalType":"uint256"}],"anonymous":false},{"type":"error","name":"ECDSAInvalidSignature","inputs":[]},{"type":"error","name":"ECDSAInvalidSignatureLength","inputs":[{"name":"length","type":"uint256","internalType":"uint256"}]},{"type":"error","name":"ECDSAInvalidSignatureS","inputs":[{"name":"s","type":"bytes32","internalType":"bytes32"}]},{"type":"error","name":"InvalidShortString","inputs":[]},{"type":"error","name":"StringTooLong","inputs":[{"name":"str","type":"string","internalType":"string"}]}],"bytecode":{"object":"0x610180806040523461042b57611ba8803803809161001d828561042f565b8339810160408282031261042b5781516001600160401b03811161042b5782019181601f8401121561042b578251926001600160401b03841161033d578360051b9260405194610070602086018761042f565b855260208501916020839582010191821161042b57602001915b81831061040b5750505060200151906040516100a760408261042f565b600d815260208101906c426c6f624665654f7261636c6560981b8252604051916100d260408461042f565b600183526020830191603160f81b83526100eb81610490565b610120526100f88461061c565b61014052519020918260e05251902080610100524660a0526040519060208201927f8b73c3c69bb8fe3d512ecc4cf759cc79239f7b179b0ffacaa9a75d522b39400f8452604083015260608201524660808201523060a082015260a0815261016160c08261042f565b5190206080523060c052825180151590816103fe575b50156103cb5781158015806103c0575b15610392576003830290838204600314171561037e578351908160011b918083046002149015171561037e5710610351578251906001600160401b03821161033d5768010000000000000000821161033d5760025482600255808310610303575b5060025f5260205f205f5b8381106102e65785856003555f5b815181101561025b576001906001600160a01b0361021f8285610468565b51165f5260046020528060405f2055818060a01b0361023e8285610468565b51165f52600560205260405f208260ff1982541617905501610201565b3361016052633b9aca0060095560405161145d908161074b823960805181611013015260a051816110d0015260c05181610fe4015260e05181611062015261010051816110880152610120518161054e015261014051816105770152610160518181816104d90152818161070201528181610a1c01528181610b1a01528181610c9b0152610e840152f35b82516001600160a01b0316818301556020909201916001016101f3565b60025f52610337907f405787fa12a823e0f2b7631cc41b3ba8828b3321ca811111fa75cd3aa3bb5ace908101908401610452565b5f6101e8565b634e487b7160e01b5f52604160045260245ffd5b60405162461bcd60e51b8152602060048201526005602482015264713c322f3360d81b6044820152606490fd5b634e487b7160e01b5f52601160045260245ffd5b60405162461bcd60e51b815260206004820152600660248201526571756f72756d60d01b6044820152606490fd5b508351831115610187565b60405162461bcd60e51b815260206004820152600b60248201526a626164207369676e65727360a81b6044820152606490fd5b610100915011155f610177565b82516001600160a01b038116810361042b5781526020928301920161008a565b5f80fd5b601f909101601f19168101906001600160401b0382119082101761033d57604052565b81811061045d575050565b5f8155600101610452565b805182101561047c5760209160051b010190565b634e487b7160e01b5f52603260045260245ffd5b908151602081105f1461050a575090601f8151116104ca5760208151910151602082106104bb571790565b5f198260200360031b1b161790565b604460209160405192839163305a27a960e01b83528160048401528051918291826024860152018484015e5f828201840152601f01601f19168101030190fd5b6001600160401b03811161033d575f54600181811c91168015610612575b60208210146105fe57601f81116105d6575b50602092601f821160011461057757928192935f9261056c575b50508160011b915f199060031b1c1916175f5560ff90565b015190505f80610554565b601f198216935f8052805f20915f5b8681106105be57508360019596106105a6575b505050811b015f5560ff90565b01515f1960f88460031b161c191690555f8080610599565b91926020600181928685015181550194019201610586565b6105f8905f8052601f60205f20910160051c810190601f840160051c01610452565b5f61053a565b634e487b7160e01b5f52602260045260245ffd5b90607f1690610528565b908151602081105f14610647575090601f8151116104ca5760208151910151602082106104bb571790565b6001600160401b03811161033d57600154600181811c91168015610740575b60208210146105fe57601f8111610717575b50602092601f82116001146106b657928192935f926106ab575b50508160011b915f199060031b1c19161760015560ff90565b015190505f80610692565b601f1982169360015f52805f20915f5b8681106106ff57508360019596106106e7575b505050811b0160015560ff90565b01515f1960f88460031b161c191690555f80806106d9565b919260206001819286850151815501940192016106c6565b61073a9060015f52601f60205f20910160051c810190601f840160051c01610452565b5f610678565b90607f169061066656fe60806040526004361015610011575f80fd5b5f3560e01c806302329a2914610e5957806303bab17a14610c7e57806317082d9c14610afd5780632079fb9a14610aa45780632c402c75146109e65780633305ab90146109b75780633644e5151461099557806347fe8b1d146109785780634e4f82891461095b5780635c975abb146109395780637043e5dd146108fc578063738bc5d6146106c05780637ca548c6146106a35780637df73e27146106665780637ecebe001461062e57806384b0196e146105365780639801134e1461010b578063b70f7e8414610519578063cbeeef50146104fd578063d33219b4146104ba578063f23d2eb71461012c5763f82061401461010b575f80fd5b34610128575f366003190112610128576020600954604051908152f35b5f80fd5b3461012857366003190160808112610128576060136101285760643567ffffffffffffffff811161012857610165903690600401610eeb565b906024358042101561048a57600354831061045c576004359260426044359260405160208101917f74f17e99a84edc2e605e04fef74a96861f297c21baf956cccf481eb9d246624483528760408301526060820152846080820152608081526101cf60a082610f72565b5190206101da610fda565b906040519161190160f01b8352600283015260228201522090600c420493845f52600860205260ff60405f20541661042e575f95919436829003601e19019290875b878910156103e3578860051b84013585811215610128578401803567ffffffffffffffff811161012857602082018136038113610128576040519261026b601f8401601f191660200185610f72565b828452602083369201011161012857825f6020846102a69561029d95836001600160a01b0399013783010152896112ec565b90929192611326565b16805f52600560205260ff60405f205416156103b457805f52600660205260ff60405f205416610386578961035257805f5260076020526102ec60405f20548914610f94565b805f52600760205260405f206103028154610fcc565b90555b5f526004602052600160405f20541b808216610327576001911798019761021c565b60405162461bcd60e51b815260206004820152600360248201526206475760ec1b6044820152606490fd5b805f52600760205261036960405f20548914610f94565b805f52600760205260405f2061037f8154610fcc565b9055610305565b60405162461bcd60e51b81526020600482015260066024820152651a985a5b195960d21b6044820152606490fd5b60405162461bcd60e51b815260206004820152600760248201526610b9b4b3b732b960c91b6044820152606490fd5b7f596330851ac25e6ec8c92072a44a9e57b03eb6a0a2388a73770a0ac191524f98602084845f526008825260405f20600160ff198254161790558060095542600a55604051908152a1005b60405162461bcd60e51b81526020600482015260066024820152651c1d5cda195960d21b6044820152606490fd5b60405162461bcd60e51b815260206004820152600660248201526571756f72756d60d01b6044820152606490fd5b60405162461bcd60e51b8152602060048201526008602482015267646561646c696e6560c01b6044820152606490fd5b34610128575f3660031901126101285760206040516001600160a01b037f0000000000000000000000000000000000000000000000000000000000000000168152f35b34610128575f366003190112610128576020604051611c208152f35b34610128575f366003190112610128576020600354604051908152f35b34610128575f366003190112610128576105d26105727f00000000000000000000000000000000000000000000000000000000000000006110f6565b61059b7f000000000000000000000000000000000000000000000000000000000000000061121c565b60206105e0604051926105ae8385610f72565b5f84525f368137604051958695600f60f81b875260e08588015260e0870190610f1c565b908582036040870152610f1c565b4660608501523060808501525f60a085015283810360c08501528180845192838152019301915f5b82811061061757505050500390f35b835185528695509381019392810192600101610608565b34610128576020366003190112610128576001600160a01b0361064f610ed5565b165f526007602052602060405f2054604051908152f35b34610128576020366003190112610128576001600160a01b03610687610ed5565b165f526005602052602060ff60405f2054166040519015158152f35b34610128575f366003190112610128576020600254604051908152f35b346101285760403660031901126101285760043567ffffffffffffffff8111610128576106f1903690600401610eeb565b906024356107296001600160a01b037f0000000000000000000000000000000000000000000000000000000000000000163314610f40565b82158015806108f0575b156108c55781158015806108bb575b15610892576003830290838204600314171561080f578460011b91858304600214171561080f571061086557600c545f600c5580610823575b505f5b838110156107f9578060051b830135906001600160a01b03821680920361012857600c5491680100000000000000008310156107e5576107c5836001809501600c55610ebd565b6001600160a01b03829392549160031b92831b921b19161790550161077e565b634e487b7160e01b5f52604160045260245ffd5b50600d556202a300420180421161080f57600e55005b634e487b7160e01b5f52601160045260245ffd5b600c5f527fdf6966c971051c3d54ec59162606531493a51404a002842f56009d7e5cf4a8c7908101905b81811061085a575061077b565b5f815560010161084d565b60405162461bcd60e51b8152602060048201526005602482015264713c322f3360d81b6044820152606490fd5b60405162461bcd60e51b81526020600482015260016024820152607160f81b6044820152606490fd5b5084831115610742565b60405162461bcd60e51b815260206004820152600360248201526218985960ea1b6044820152606490fd5b50610100841115610733565b34610128576020366003190112610128576001600160a01b0361091d610ed5565b165f526006602052602060ff60405f2054166040519015158152f35b34610128575f36600319011261012857602060ff600b54166040519015158152f35b34610128575f366003190112610128576020600a54604051908152f35b34610128575f3660031901126101285760206040516202a3008152f35b34610128575f3660031901126101285760206109af610fda565b604051908152f35b34610128576020366003190112610128576004355f526008602052602060ff60405f2054166040519015158152f35b34610128576040366003190112610128576109ff610ed5565b60243590811515809203610128576001600160a01b0390610a43827f0000000000000000000000000000000000000000000000000000000000000000163314610f40565b16805f52600560205260ff60405f20541615610a75575f52600660205260405f209060ff801983541691161790555f80f35b60405162461bcd60e51b81526020600482015260076024820152663ab735b737bbb760c91b6044820152606490fd5b346101285760203660031901126101285760043560025481101561012857600254811015610ae9576001600160a01b0360209160025f52825f20015416604051908152f35b634e487b7160e01b5f52603260045260245ffd5b3461012857604036600319011261012857602435600435610b48337f00000000000000000000000000000000000000000000000000000000000000006001600160a01b031614610f40565b611c20810180821161080f57600c420410610c5057805f52600860205260ff60405f205416610c0b575f52600860205260405f20600160ff19825416179055612710811015610bc6576020817f596330851ac25e6ec8c92072a44a9e57b03eb6a0a2388a73770a0ac191524f989260095542600a55604051908152a1005b60405162461bcd60e51b815260206004820152601060248201527f6665652d6f75742d6f662d72616e6765000000000000000000000000000000006044820152606490fd5b60405162461bcd60e51b815260206004820152600e60248201527f616c72656164792d7075736865640000000000000000000000000000000000006044820152606490fd5b60405162461bcd60e51b815260206004820152600660248201526561637469766560d01b6044820152606490fd5b34610128575f36600319011261012857610cc26001600160a01b037f0000000000000000000000000000000000000000000000000000000000000000163314610f40565b600e548015159081610e4e575b5015610e1d57600c5467ffffffffffffffff81116107e5576801000000000000000081116107e55760025481600255808210610dd9575b5060025f9081527fdf6966c971051c3d54ec59162606531493a51404a002842f56009d7e5cf4a8c780547f405787fa12a823e0f2b7631cc41b3ba8828b3321ca811111fa75cd3aa3bb5ace939291905b838310610dba57600d546003555f5b600c54811015610db457806001600160a01b03610d83600193610ebd565b90549060031b1c16805f5260046020528160405f20555f52600560205260405f208260ff1982541617905501610d65565b5f600e55005b60016001600160a01b0381921692019283549281870155019190610d56565b60025f527f405787fa12a823e0f2b7631cc41b3ba8828b3321ca811111fa75cd3aa3bb5ace9081019082015b818110610e125750610d06565b5f8155600101610e05565b60405162461bcd60e51b8152602060048201526009602482015268746f6f206561726c7960b81b6044820152606490fd5b905042101581610ccf565b346101285760203660031901126101285760043580151580910361012857610eab6001600160a01b037f0000000000000000000000000000000000000000000000000000000000000000163314610f40565b60ff8019600b5416911617600b555f80f35b600c54811015610ae957600c5f5260205f2001905f90565b600435906001600160a01b038216820361012857565b9181601f840112156101285782359167ffffffffffffffff8311610128576020808501948460051b01011161012857565b805180835260209291819084018484015e5f828201840152601f01601f1916010190565b15610f4757565b60405162461bcd60e51b8152602060048201526003602482015262085d1b60ea1b6044820152606490fd5b90601f8019910116810190811067ffffffffffffffff8211176107e557604052565b15610f9b57565b60405162461bcd60e51b81526020600482015260096024820152686261642d6e6f6e636560b81b6044820152606490fd5b5f19811461080f5760010190565b6001600160a01b037f0000000000000000000000000000000000000000000000000000000000000000163014806110cd575b15611035577f000000000000000000000000000000000000000000000000000000000000000090565b60405160208101907f8b73c3c69bb8fe3d512ecc4cf759cc79239f7b179b0ffacaa9a75d522b39400f82527f000000000000000000000000000000000000000000000000000000000000000060408201527f000000000000000000000000000000000000000000000000000000000000000060608201524660808201523060a082015260a081526110c760c082610f72565b51902090565b507f0000000000000000000000000000000000000000000000000000000000000000461461100c565b60ff811461113c5760ff811690601f821161112d576040519161111a604084610f72565b6020808452838101919036833783525290565b632cd44ac360e21b5f5260045ffd5b506040515f5f548060011c9160018216918215611212575b6020841083146111fe5783855284929081156111df5750600114611182575b61117f92500382610f72565b90565b505f80805290917f290decd9548b62a8d60345a988386fc84ba6bc95484008f6362f93160ef3e5635b8183106111c357505090602061117f92820101611173565b60209193508060019154838588010152019101909183926111ab565b6020925061117f94915060ff191682840152151560051b820101611173565b634e487b7160e01b5f52602260045260245ffd5b92607f1692611154565b60ff81146112405760ff811690601f821161112d576040519161111a604084610f72565b506040515f6001548060011c91600182169182156112e2575b6020841083146111fe5783855284929081156111df57506001146112835761117f92500382610f72565b5060015f90815290917fb10e2d527612073b26eecdfd717e6a320cf44b4afac2b0732d9fcbe2b7fa0cf65b8183106112c657505090602061117f92820101611173565b60209193508060019154838588010152019101909183926112ae565b92607f1692611259565b815191906041830361131c576113159250602082015190606060408401519301515f1a9061139a565b9192909190565b50505f9160029190565b60048110156113865780611338575050565b6001810361134f5763f645eedf60e01b5f5260045ffd5b6002810361136a575063fce698f760e01b5f5260045260245ffd5b6003146113745750565b6335e2f38360e21b5f5260045260245ffd5b634e487b7160e01b5f52602160045260245ffd5b91907f7fffffffffffffffffffffffffffffff5d576e7357a4501ddfe92f46681b20a0841161141c579160209360809260ff5f9560405194855216868401526040830152606082015282805260015afa15611411575f516001600160a01b0381161561140757905f905f90565b505f906001905f90565b6040513d5f823e3d90fd5b5050505f916003919056fea2646970667358221220f1e401586ac84216733c8bf98f2a2c142d8a5262cf1eff1472d0f6da38b5d0f764736f6c634300081e0033","linkReferences":{}},"methodIdentifiers":{"DOMAIN_SEPARATOR()":"3644e515","OVERRIDE_DELAY()":"cbeeef50","UPGRADE_DELAY()":"47fe8b1d","blobBaseFee()":"f8206140","eip712Domain()":"84b0196e","execUpgrade()":"03bab17a","isSigner(address)":"7df73e27","jailSigner(address,bool)":"2c402c75","jailed(address)":"7043e5dd","lastFee()":"9801134e","lastTs()":"4e4f8289","minSigners()":"b70f7e84","nonces(address)":"7ecebe00","overrideFee(uint256,uint256)":"17082d9c","pause(bool)":"02329a29","paused()":"5c975abb","proposeSigners(address[],uint256)":"738bc5d6","push((uint256,uint256,uint256),bytes[])":"f23d2eb7","signerCount()":"7ca548c6","signers(uint256)":"2079fb9a","slotPushed(uint256)":"3305ab90","timelock()":"d33219b4"},"id":0}