{"abi":[{"type":"constructor","inputs":[{"name":"_signers","type":"address[]","internalType":"address[]"},{"name":"_quorum","type":"uint256","internalType":"uint256"}],"stateMutability":"nonpayable"},{"type":"function","name":"UPGRADE_DELAY","inputs":[],"outputs":[{"name":"","type":"uint256","internalType":"uint256"}],"stateMutability":"view"},{"type":"function","name":"blobBaseFee","inputs":[],"outputs":[{"name":"","type":"uint256","internalType":"uint256"}],"stateMutability":"view"},{"type":"function","name":"execUpgrade","inputs":[],"outputs":[],"stateMutability":"nonpayable"},{"type":"function","name":"isSigner","inputs":[{"name":"","type":"address","internalType":"address"}],"outputs":[{"name":"","type":"bool","internalType":"bool"}],"stateMutability":"view"},{"type":"function","name":"lastFee","inputs":[],"outputs":[{"name":"","type":"uint256","internalType":"uint256"}],"stateMutability":"view"},{"type":"function","name":"lastTs","inputs":[],"outputs":[{"name":"","type":"uint256","internalType":"uint256"}],"stateMutability":"view"},{"type":"function","name":"minSigners","inputs":[],"outputs":[{"name":"","type":"uint256","internalType":"uint256"}],"stateMutability":"view"},{"type":"function","name":"pause","inputs":[{"name":"p","type":"bool","internalType":"bool"}],"outputs":[],"stateMutability":"nonpayable"},{"type":"function","name":"paused","inputs":[],"outputs":[{"name":"","type":"bool","internalType":"bool"}],"stateMutability":"view"},{"type":"function","name":"proposeSigners","inputs":[{"name":"_new","type":"address[]","internalType":"address[]"},{"name":"_q","type":"uint256","internalType":"uint256"}],"outputs":[],"stateMutability":"nonpayable"},{"type":"function","name":"push","inputs":[{"name":"feeGwei","type":"uint256","internalType":"uint256"},{"name":"sigs","type":"bytes[]","internalType":"bytes[]"}],"outputs":[],"stateMutability":"nonpayable"},{"type":"function","name":"signers","inputs":[{"name":"","type":"uint256","internalType":"uint256"}],"outputs":[{"name":"","type":"address","internalType":"address"}],"stateMutability":"view"},{"type":"function","name":"timelock","inputs":[],"outputs":[{"name":"","type":"address","internalType":"address"}],"stateMutability":"view"},{"type":"event","name":"NewFee","inputs":[{"name":"feeGwei","type":"uint256","indexed":false,"internalType":"uint256"}],"anonymous":false},{"type":"error","name":"ECDSAInvalidSignature","inputs":[]},{"type":"error","name":"ECDSAInvalidSignatureLength","inputs":[{"name":"length","type":"uint256","internalType":"uint256"}]},{"type":"error","name":"ECDSAInvalidSignatureS","inputs":[{"name":"s","type":"bytes32","internalType":"bytes32"}]}],"bytecode":{"object":"0x60a06040523461027e57610e408038038061001981610282565b928339810160408282031261027e5781516001600160401b03811161027e5782019181601f8401121561027e578251926001600160401b0384116101d8578360051b926020610069818601610282565b8096815201916020839582010191821161027e57602001915b81831061025e57505050602001519082518015159081610251575b501561021e57825160011c8211156101ec578251906001600160401b0382116101d8576801000000000000000082116101d8575f54825f558083106101a8575b505f8080525f516020610e205f395f51905f52905b83811061018b5785856001555f5b815181101561015a576001906001600160a01b0361011e82856102a7565b51165f5260026020528060405f2055818060a01b0361013d82856102a7565b51165f52600360205260405f208260ff1982541617905501610100565b33608052604051610b5090816102d08239608051818181610403015281816104c60152818161072501526109090152f35b82516001600160a01b0316818301556020909201916001016100f2565b5f80525f516020610e205f395f51905f529081019083015b8181106101cd57506100dd565b5f81556001016101c0565b634e487b7160e01b5f52604160045260245ffd5b60405162461bcd60e51b815260206004820152600a60248201526971756f72756d3c35302560b01b6044820152606490fd5b60405162461bcd60e51b815260206004820152600b60248201526a626164207369676e65727360a81b6044820152606490fd5b610100915011155f61009d565b82516001600160a01b038116810361027e57815260209283019201610082565b5f80fd5b6040519190601f01601f191682016001600160401b038111838210176101d857604052565b80518210156102bb5760209160051b010190565b634e487b7160e01b5f52603260045260245ffdfe60806040526004361015610011575f80fd5b5f3560e01c806302329a29146108de57806303bab17a146107085780632079fb9a146106b257806347fe8b1d146106955780634e4f8289146106785780635c975abb14610656578063738bc5d6146104845780637df73e27146104445780639801134e146100a8578063b70f7e8414610427578063d33219b4146103e4578063d3f7833e146100c95763f8206140146100a8575f80fd5b346100c5575f3660031901126100c5576020600454604051908152f35b5f80fd5b346100c55760403660031901126100c55760043560243567ffffffffffffffff81116100c5576100fd90369060040161095a565b919060ff600654166103b657612710821015610371578290604051602081019067424c4f425f46454560c01b8252846028820152600c42046048820152604881526101496068826109bd565b5190205f905f94601e1984360301925b858710156102a1577f19457468657265756d205369676e6564204d6573736167653a0a3332000000005f5282601c52603c5f208760051b860135858112156100c557860180359067ffffffffffffffff82116100c557602081019082360382136100c557604051906101d5601f8501601f1916602001836109bd565b83825260208436920101116100c5576001600160a01b03935f60208561020f966102069683870137840101526109df565b90929192610a19565b16805f52600360205260ff60405f20541615610272575f526002602052600160405f20541b8082166102475760019117960195610159565b60405162461bcd60e51b815260206004820152600360248201526206475760ec1b6044820152606490fd5b60405162461bcd60e51b815260206004820152600760248201526610b9b4b3b732b960c91b6044820152606490fd5b805f915b61035757506001541161032957600454806102f257506004555b426005557f63fe946ed58429ac3c5e64d4356ff92c26d7fa1e73586515df8ba9f059ab54a56020600454604051908152a1005b90600382029182046003036103155781018091116103155760021c6004556102bf565b634e487b7160e01b5f52601160045260245ffd5b60405162461bcd60e51b815260206004820152600660248201526571756f72756d60d01b6044820152606490fd5b905f198201828111610315576001921691829101916102a5565b60405162461bcd60e51b815260206004820152601060248201527f6665652d6f75742d6f662d72616e6765000000000000000000000000000000006044820152606490fd5b60405162461bcd60e51b81526020600482015260066024820152651c185d5cd95960d21b6044820152606490fd5b346100c5575f3660031901126100c55760206040516001600160a01b037f0000000000000000000000000000000000000000000000000000000000000000168152f35b346100c5575f3660031901126100c5576020600154604051908152f35b346100c55760203660031901126100c5576004356001600160a01b0381168091036100c5575f526003602052602060ff60405f2054166040519015158152f35b346100c55760403660031901126100c55760043567ffffffffffffffff81116100c5576104b590369060040161095a565b906024356104ed6001600160a01b037f000000000000000000000000000000000000000000000000000000000000000016331461098b565b8215158061064a575b1561061f5780151580610615575b156105ec576007545f600755806105aa575b505f5b83811015610594578060051b830135906001600160a01b0382168092036100c557600754916801000000000000000083101561058057610560836001809501600755610942565b6001600160a01b03829392549160031b92831b921b191617905501610519565b634e487b7160e01b5f52604160045260245ffd5b506008556202a300420180421161031557600955005b60075f527fa66cc928b5edb82af9bd49922954155ab7b0942694bea4ce44661d9a8736c688908101905b8181106105e15750610516565b5f81556001016105d4565b60405162461bcd60e51b81526020600482015260016024820152607160f81b6044820152606490fd5b5082811115610504565b60405162461bcd60e51b815260206004820152600360248201526218985960ea1b6044820152606490fd5b506101008311156104f6565b346100c5575f3660031901126100c557602060ff600654166040519015158152f35b346100c5575f3660031901126100c5576020600554604051908152f35b346100c5575f3660031901126100c55760206040516202a3008152f35b346100c55760203660031901126100c5576004355f548110156100c5575f548110156106f4576001600160a01b036020915f8052825f20015416604051908152f35b634e487b7160e01b5f52603260045260245ffd5b346100c5575f3660031901126100c55761074c6001600160a01b037f000000000000000000000000000000000000000000000000000000000000000016331461098b565b60095480151590816108d3575b50156108a25760075467ffffffffffffffff811161058057680100000000000000008111610580575f54815f5580821061085f575b505f8080527fa66cc928b5edb82af9bd49922954155ab7b0942694bea4ce44661d9a8736c68880547f290decd9548b62a8d60345a988386fc84ba6bc95484008f6362f93160ef3e563939291905b838310610840576008546001555f5b60075481101561083a57806001600160a01b03610809600193610942565b90549060031b1c16805f5260026020528160405f20555f52600360205260405f208260ff19825416179055016107eb565b5f600955005b60016001600160a01b03819216920192835492818701550191906107dc565b5f80527f290decd9548b62a8d60345a988386fc84ba6bc95484008f6362f93160ef3e5639081019082015b818110610897575061078e565b5f815560010161088a565b60405162461bcd60e51b8152602060048201526009602482015268746f6f206561726c7960b81b6044820152606490fd5b905042101581610759565b346100c55760203660031901126100c5576004358015158091036100c5576109306001600160a01b037f000000000000000000000000000000000000000000000000000000000000000016331461098b565b60ff8019600654169116176006555f80f35b6007548110156106f45760075f5260205f2001905f90565b9181601f840112156100c55782359167ffffffffffffffff83116100c5576020808501948460051b0101116100c557565b1561099257565b60405162461bcd60e51b8152602060048201526003602482015262085d1b60ea1b6044820152606490fd5b90601f8019910116810190811067ffffffffffffffff82111761058057604052565b8151919060418303610a0f57610a089250602082015190606060408401519301515f1a90610a8d565b9192909190565b50505f9160029190565b6004811015610a795780610a2b575050565b60018103610a425763f645eedf60e01b5f5260045ffd5b60028103610a5d575063fce698f760e01b5f5260045260245ffd5b600314610a675750565b6335e2f38360e21b5f5260045260245ffd5b634e487b7160e01b5f52602160045260245ffd5b91907f7fffffffffffffffffffffffffffffff5d576e7357a4501ddfe92f46681b20a08411610b0f579160209360809260ff5f9560405194855216868401526040830152606082015282805260015afa15610b04575f516001600160a01b03811615610afa57905f905f90565b505f906001905f90565b6040513d5f823e3d90fd5b5050505f916003919056fea2646970667358221220236b7788023bcb42327c0e541ccdd2803fec71c7d760f9f69dffbec0482def4a64736f6c634300081e0033290decd9548b62a8d60345a988386fc84ba6bc95484008f6362f93160ef3e563","linkReferences":{}},"methodIdentifiers":{"UPGRADE_DELAY()":"47fe8b1d","blobBaseFee()":"f8206140","execUpgrade()":"03bab17a","isSigner(address)":"7df73e27","lastFee()":"9801134e","lastTs()":"4e4f8289","minSigners()":"b70f7e84","pause(bool)":"02329a29","paused()":"5c975abb","proposeSigners(address[],uint256)":"738bc5d6","push(uint256,bytes[])":"d3f7833e","signers(uint256)":"2079fb9a","timelock()":"d33219b4"},"id":1}