{"abi":[{"type":"constructor","inputs":[{"name":"_signers","type":"address[]","internalType":"address[]"},{"name":"_quorum","type":"uint256","internalType":"uint256"}],"stateMutability":"nonpayable"},{"type":"function","name":"UPGRADE_DELAY","inputs":[],"outputs":[{"name":"","type":"uint256","internalType":"uint256"}],"stateMutability":"view"},{"type":"function","name":"blobBaseFee","inputs":[],"outputs":[{"name":"","type":"uint256","internalType":"uint256"}],"stateMutability":"view"},{"type":"function","name":"execUpgrade","inputs":[],"outputs":[],"stateMutability":"nonpayable"},{"type":"function","name":"lastFee","inputs":[],"outputs":[{"name":"","type":"uint256","internalType":"uint256"}],"stateMutability":"view"},{"type":"function","name":"lastTs","inputs":[],"outputs":[{"name":"","type":"uint256","internalType":"uint256"}],"stateMutability":"view"},{"type":"function","name":"pause","inputs":[{"name":"p","type":"bool","internalType":"bool"}],"outputs":[],"stateMutability":"nonpayable"},{"type":"function","name":"paused","inputs":[],"outputs":[{"name":"","type":"bool","internalType":"bool"}],"stateMutability":"view"},{"type":"function","name":"proposeSigners","inputs":[{"name":"_new","type":"address[]","internalType":"address[]"},{"name":"_q","type":"uint256","internalType":"uint256"}],"outputs":[],"stateMutability":"nonpayable"},{"type":"function","name":"push","inputs":[{"name":"feeGwei","type":"uint256","internalType":"uint256"}],"outputs":[],"stateMutability":"nonpayable"},{"type":"function","name":"quorum","inputs":[],"outputs":[{"name":"","type":"uint256","internalType":"uint256"}],"stateMutability":"view"},{"type":"function","name":"signers","inputs":[{"name":"","type":"uint256","internalType":"uint256"}],"outputs":[{"name":"","type":"address","internalType":"address"}],"stateMutability":"view"},{"type":"function","name":"timelock","inputs":[],"outputs":[{"name":"","type":"address","internalType":"address"}],"stateMutability":"view"},{"type":"event","name":"NewFee","inputs":[{"name":"feeGwei","type":"uint256","indexed":false,"internalType":"uint256"}],"anonymous":false}],"bytecode":{"object":"0x60a06040523461022c57610af88038038061001981610230565b928339810160408282031261022c5781516001600160401b03811161022c5782019181601f8401121561022c578251926001600160401b03841161017b578360051b926020610069818601610230565b8096815201916020839582010191821161022c57602001915b81831061020c575050506020015191805180151590816101ff575b50156101cc57821515806101c1575b1561018f5751906001600160401b03821161017b5768010000000000000000821161017b575f54825f5580831061014b575b505f8080525f516020610ad85f395f51905f52905b83811061012e5784600155336080526040516108829081610256823960805181818160dd015281816103b90152818161063801526107cb0152f35b82516001600160a01b0316818301556020909201916001016100f3565b5f80525f516020610ad85f395f51905f529081019083015b81811061017057506100de565b5f8155600101610163565b634e487b7160e01b5f52604160045260245ffd5b60405162461bcd60e51b815260206004820152600a6024820152696261642071756f72756d60b01b6044820152606490fd5b5080518311156100ac565b60405162461bcd60e51b815260206004820152600b60248201526a626164207369676e65727360a81b6044820152606490fd5b610100915011155f61009d565b82516001600160a01b038116810361022c57815260209283019201610082565b5f80fd5b6040519190601f01601f191682016001600160401b0381118382101761017b5760405256fe60806040526004361015610011575f80fd5b5f3560e01c806302329a29146107a057806303bab17a1461061b5780631703a018146105fe5780632079fb9a146105be57806347fe8b1d146105a15780634e4f8289146105845780635c975abb14610562578063738bc5d614610357578063959ac484146101015780639801134e1461009d578063d33219b4146100be5763f82061401461009d575f80fd5b346100ba575f3660031901126100ba576020600254604051908152f35b5f80fd5b346100ba575f3660031901126100ba5760206040516001600160a01b037f0000000000000000000000000000000000000000000000000000000000000000168152f35b346100ba5760203660031901126100ba575f80549060043590805b838110610326575b50156102f75760ff600654166102c9576103e881101561029b57600c4204915f905f5b81811061026a575b5050825f526004602052600160405f2054911b9081811661023f57835f5260046020521760405f2055815f52600560205260405f20805491820180921161022b5755805f52600460205260405f205490815f925b61021157506001548210156101b457005b5f52600560205260405f205481156101fd577f63fe946ed58429ac3c5e64d4356ff92c26d7fa1e73586515df8ba9f059ab54a591602091048060025542600355604051908152a1005b634e487b7160e01b5f52601260045260245ffd5b915f19830183811161022b576001931692839101926101a3565b634e487b7160e01b5f52601160045260245ffd5b60405162461bcd60e51b815260206004820152600360248201526206475760ec1b6044820152606490fd5b6001600160a01b0361027b82610804565b90549060031b1c16331461029157600101610147565b915050838061014f565b60405162461bcd60e51b815260206004820152600660248201526573616e69747960d01b6044820152606490fd5b60405162461bcd60e51b81526020600482015260066024820152651c185d5cd95960d21b6044820152606490fd5b60405162461bcd60e51b815260206004820152600760248201526610b9b4b3b732b960c91b6044820152606490fd5b6001600160a01b0361033782610804565b90549060031b1c16331461034d5760010161011c565b5050600183610124565b346100ba5760403660031901126100ba5760043567ffffffffffffffff81116100ba57366023820112156100ba5780600401359067ffffffffffffffff82116100ba573660248360051b830101116100ba576024356103e06001600160a01b037f000000000000000000000000000000000000000000000000000000000000000016331461081a565b82151580610556575b1561052b5780151580610521575b156104f8576007545f600755806104b6575b505f5b838110156104a05760248160051b84010135906001600160a01b0382168092036100ba57600754916801000000000000000083101561048c57600183016007556007548310156104785760019260075f5260205f2001906001600160a01b03198254161790550161040c565b634e487b7160e01b5f52603260045260245ffd5b634e487b7160e01b5f52604160045260245ffd5b506008556202a300420180421161022b57600955005b60075f527fa66cc928b5edb82af9bd49922954155ab7b0942694bea4ce44661d9a8736c688908101905b8181106104ed5750610409565b5f81556001016104e0565b60405162461bcd60e51b81526020600482015260016024820152607160f81b6044820152606490fd5b50828111156103f7565b60405162461bcd60e51b815260206004820152600360248201526218985960ea1b6044820152606490fd5b506101008311156103e9565b346100ba575f3660031901126100ba57602060ff600654166040519015158152f35b346100ba575f3660031901126100ba576020600354604051908152f35b346100ba575f3660031901126100ba5760206040516202a3008152f35b346100ba5760203660031901126100ba576004355f548110156100ba576001600160a01b036105ee602092610804565b90549060031b1c16604051908152f35b346100ba575f3660031901126100ba576020600154604051908152f35b346100ba575f3660031901126100ba5761065f6001600160a01b037f000000000000000000000000000000000000000000000000000000000000000016331461081a565b6009548015159081610795575b50156107645760075467ffffffffffffffff811161048c5768010000000000000000811161048c575f54815f55808210610721575b505f8080527fa66cc928b5edb82af9bd49922954155ab7b0942694bea4ce44661d9a8736c68880547f290decd9548b62a8d60345a988386fc84ba6bc95484008f6362f93160ef3e563939291905b838310610702576008546001555f600955005b60016001600160a01b03819216920192835492818701550191906106ef565b5f80527f290decd9548b62a8d60345a988386fc84ba6bc95484008f6362f93160ef3e5639081019082015b81811061075957506106a1565b5f815560010161074c565b60405162461bcd60e51b8152602060048201526009602482015268746f6f206561726c7960b81b6044820152606490fd5b90504210158161066c565b346100ba5760203660031901126100ba576004358015158091036100ba576107f26001600160a01b037f000000000000000000000000000000000000000000000000000000000000000016331461081a565b60ff8019600654169116176006555f80f35b5f54811015610478575f805260205f2001905f90565b1561082157565b60405162461bcd60e51b8152602060048201526003602482015262085d1b60ea1b6044820152606490fdfea264697066735822122017e6a3afc3c7429bcaf351fa885b6e14968afaff15313c8e129ef236f96d250464736f6c634300081e0033290decd9548b62a8d60345a988386fc84ba6bc95484008f6362f93160ef3e563","linkReferences":{}},"methodIdentifiers":{"UPGRADE_DELAY()":"47fe8b1d","blobBaseFee()":"f8206140","execUpgrade()":"03bab17a","lastFee()":"9801134e","lastTs()":"4e4f8289","pause(bool)":"02329a29","paused()":"5c975abb","proposeSigners(address[],uint256)":"738bc5d6","push(uint256)":"959ac484","quorum()":"1703a018","signers(uint256)":"2079fb9a","timelock()":"d33219b4"},"id":0}