{"abi":[{"type":"constructor","inputs":[{"name":"feeOracle","type":"address","internalType":"address"}],"stateMutability":"payable"},{"type":"function","name":"F","inputs":[],"outputs":[{"name":"","type":"address","internalType":"contract IBlobBaseFee"}],"stateMutability":"view"},{"type":"function","name":"GRACE_PERIOD","inputs":[],"outputs":[{"name":"","type":"uint256","internalType":"uint256"}],"stateMutability":"view"},{"type":"function","name":"bal","inputs":[{"name":"","type":"address","internalType":"address"},{"name":"","type":"uint256","internalType":"uint256"}],"outputs":[{"name":"","type":"uint256","internalType":"uint256"}],"stateMutability":"view"},{"type":"function","name":"buy","inputs":[{"name":"id","type":"uint256","internalType":"uint256"},{"name":"qty","type":"uint256","internalType":"uint256"}],"outputs":[],"stateMutability":"payable"},{"type":"function","name":"create","inputs":[{"name":"id","type":"uint256","internalType":"uint256"},{"name":"strikeGwei","type":"uint256","internalType":"uint256"},{"name":"expiry","type":"uint256","internalType":"uint256"},{"name":"maxSold","type":"uint256","internalType":"uint256"}],"outputs":[],"stateMutability":"payable"},{"type":"function","name":"exercise","inputs":[{"name":"id","type":"uint256","internalType":"uint256"}],"outputs":[],"stateMutability":"nonpayable"},{"type":"function","name":"k","inputs":[],"outputs":[{"name":"","type":"uint256","internalType":"uint256"}],"stateMutability":"view"},{"type":"function","name":"premium","inputs":[{"name":"strike","type":"uint256","internalType":"uint256"},{"name":"expiry","type":"uint256","internalType":"uint256"}],"outputs":[{"name":"","type":"uint256","internalType":"uint256"}],"stateMutability":"view"},{"type":"function","name":"series","inputs":[{"name":"","type":"uint256","internalType":"uint256"}],"outputs":[{"name":"strike","type":"uint256","internalType":"uint256"},{"name":"expiry","type":"uint256","internalType":"uint256"},{"name":"sold","type":"uint256","internalType":"uint256"},{"name":"payWei","type":"uint256","internalType":"uint256"},{"name":"margin","type":"uint256","internalType":"uint256"}],"stateMutability":"view"},{"type":"function","name":"seriesSettled","inputs":[{"name":"","type":"uint256","internalType":"uint256"}],"outputs":[{"name":"","type":"bool","internalType":"bool"}],"stateMutability":"view"},{"type":"function","name":"settle","inputs":[{"name":"id","type":"uint256","internalType":"uint256"}],"outputs":[],"stateMutability":"nonpayable"},{"type":"function","name":"sweepMargin","inputs":[{"name":"id","type":"uint256","internalType":"uint256"}],"outputs":[],"stateMutability":"nonpayable"},{"type":"function","name":"topUpMargin","inputs":[],"outputs":[],"stateMutability":"payable"},{"type":"function","name":"withdrawMargin","inputs":[{"name":"id","type":"uint256","internalType":"uint256"}],"outputs":[],"stateMutability":"nonpayable"},{"type":"function","name":"withdrawPremiums","inputs":[],"outputs":[],"stateMutability":"nonpayable"},{"type":"function","name":"writer","inputs":[],"outputs":[{"name":"","type":"address","internalType":"address"}],"stateMutability":"view"},{"type":"function","name":"writerPremiumEscrow","inputs":[],"outputs":[{"name":"","type":"uint256","internalType":"uint256"}],"stateMutability":"view"}],"bytecode":{"object":"0x60c0601f610d8038819003918201601f19168301916001600160401b038311848410176100b3578084926020946040528339810103126100af57516001600160a01b038116908190036100af576618de76816d80005f553360805260a052604051610cb890816100c882396080518181816103f60152818161068e015281816106cb01528181610852015281816108df015281816109890152610a1a015260a05181818161060201526109cc0152f35b5f80fd5b634e487b7160e01b5f52604160045260245ffdfe60806040526004361015610011575f80fd5b5f3560e01c806305d3a04f14610abb5780630cea7534146109f057806328811f59146109ad578063453a2abc1461096a5780634eaba194146109485780635043ef2d1461092b5780636193cdfb146108c157806380da9522146107d85780638df82800146105ad57806392848c9e146103d75780639c4a5f1414610390578063a7290e8314610361578063b07f0a411461023e578063b4f40c6114610222578063c1a287e214610205578063d6febde81461012e5763dc22cb6a146100d4575f80fd5b3461012a57602036600319011261012a576004355f52600160205260a060405f20805490600181015490600281015460046003830154920154926040519485526020850152604084015260608301526080820152f35b5f80fd5b61013736610ac8565b90805f52600160205260405f206001810154804210156101da578361015e61016392610b99565b610b86565b34036101ad57600201610177838254610c75565b9055335f52600360205260405f20905f5260205261019a60405f20918254610c75565b90556101a834600454610c75565b600455005b60405162461bcd60e51b8152602060048201526005602482015264217072656d60d81b6044820152606490fd5b60405162461bcd60e51b815260206004820152600360248201526206578760ec1b6044820152606490fd5b3461012a575f36600319011261012a57602060405162093a808152f35b3461012a575f36600319011261012a5760205f54604051908152f35b3461012a57602036600319011261012a57600435805f52600160205260405f2090805f52600260205261027760ff60405f205416610b0f565b335f9081526003602081815260408084209484529390529181208054919055908201546102a49082610b86565b91824710610333576004810192835490808210610305575f808083886102dd8396888b6102d660028d01918254610b79565b9055610b79565b90558181156102fc575b3390f1156102f157005b6040513d5f823e3d90fd5b506108fc6102e7565b60405162461bcd60e51b815260206004820152600660248201526536b0b933b4b760d11b6044820152606490fd5b60405162461bcd60e51b815260206004820152600660248201526534b739b7b63b60d11b6044820152606490fd5b3461012a57602036600319011261012a576004355f526002602052602060ff60405f2054166040519015158152f35b3461012a57604036600319011261012a576004356001600160a01b03811680910361012a575f52600360205260405f206024355f52602052602060405f2054604051908152f35b608036600319011261012a5760043560243561041d6001600160a01b037f0000000000000000000000000000000000000000000000000000000000000000163314610ade565b815f52600160205260405f205461057f5760c881101561053a578060c80360c8811161052657633b9aca008102908104633b9aca00148260c81417156105265761046a9060643590610b86565b34106104f1576040519160a083019183831067ffffffffffffffff8411176104dd576004926040528352602083016044358152604084015f815260608501915f835260808601933485525f52600160205260405f2095518655516001860155516002850155516003840155519101555f80f35b634e487b7160e01b5f52604160045260245ffd5b60405162461bcd60e51b815260206004820152600d60248201526c34b739bab3331036b0b933b4b760991b6044820152606490fd5b634e487b7160e01b5f52601160045260245ffd5b60405162461bcd60e51b815260206004820152600f60248201527f737472696b6520746f6f206869676800000000000000000000000000000000006044820152606490fd5b60405162461bcd60e51b815260206004820152600660248201526565786973747360d01b6044820152606490fd5b3461012a57602036600319011261012a57600435805f52600160205260405f2090600182015442106107ad57805f52600260205260ff60405f205416610768576040516303e0818560e61b81526020816004817f00000000000000000000000000000000000000000000000000000000000000006001600160a01b03165afa9081156102f1575f91610720575b5082548082116106f2575b50505f52600260205260405f20600160ff19825416179055600381015415806106c0575b61066f57005b5f8080600481940181815491558181156106b7575b6001600160a01b037f00000000000000000000000000000000000000000000000000000000000000001690f1156102f157005b506108fc610684565b506001600160a01b037f0000000000000000000000000000000000000000000000000000000000000000163314610669565b6106fb91610b79565b633b9aca00810290808204633b9aca0014901517156105265760038301558280610645565b905060203d602011610761575b601f8101601f1916820167ffffffffffffffff8111838210176104dd5760209183916040528101031261012a57518361063a565b503d61072d565b60405162461bcd60e51b815260206004820152600e60248201527f73657269657320736574746c65640000000000000000000000000000000000006044820152606490fd5b606460405162461bcd60e51b81526020600482015260046024820152630216578760e41b6044820152fd5b3461012a57602036600319011261012a57600435805f52600160205260405f20905f52600260205261081060ff60405f205416610b0f565b60048101908154908115906108258215610b47565b6002810154159081156108a6575b501561087b575f808093819382875582906106b7576001600160a01b037f00000000000000000000000000000000000000000000000000000000000000001690f1156102f157005b606460405162461bcd60e51b815260206004820152600460248201526337b832b760e11b6044820152fd5b60019150015462093a80810180911161052657421184610833565b3461012a575f36600319011261012a575f8080806001600160a01b037f00000000000000000000000000000000000000000000000000000000000000001661090a813314610ade565b6004549082600455828215610922575bf1156102f157005b506108fc61091a565b3461012a575f36600319011261012a576020600454604051908152f35b3461012a57602061096261095b36610ac8565b9050610b99565b604051908152f35b3461012a575f36600319011261012a5760206040516001600160a01b037f0000000000000000000000000000000000000000000000000000000000000000168152f35b3461012a575f36600319011261012a5760206040516001600160a01b037f0000000000000000000000000000000000000000000000000000000000000000168152f35b3461012a57602036600319011261012a57600435805f52600160205260405f206001600160a01b037f00000000000000000000000000000000000000000000000000000000000000001691610a46833314610ade565b5f526002602052610a5d60ff60405f205416610b0f565b6003810154610a90575f80809360048294019081549183831591610a818315610b47565b55839061092257f1156102f157005b60405162461bcd60e51b815260206004820152600360248201526249544d60e81b6044820152606490fd5b5f36600319011261012a57005b604090600319011261012a576004359060243590565b15610ae557565b60405162461bcd60e51b8152602060048201526002602482015261217760f01b6044820152606490fd5b15610b1657565b60405162461bcd60e51b81526020600482015260096024820152681d5b9cd95d1d1b195960ba1b6044820152606490fd5b15610b4e57565b606460405162461bcd60e51b81526020600482015260046024820152636e6f6e6560e01b6044820152fd5b9190820391821161052657565b8181029291811591840414171561052657565b610ba4904290610b79565b5f54906402cb4178008202918083046402cb417800149015171561052657670de0b6b3a7640000810290808204670de0b6b3a7640000149015171561052657610e109004905f6003831115610c595750818060011c6001810180911161052657905b838210610c26575050670de0b6b3a764000091610c2291610b86565b0490565b909250828015610c455780610c3c918304610c75565b60011c90610c06565b634e487b7160e01b5f52601260045260245ffd5b610c2291670de0b6b3a76400009315610b865760019150610b86565b919082018092116105265756fea2646970667358221220e5bc4e52b9af6e1ec8e7f54cafe25b6411329690024df182f13f7198f000eb6c64736f6c634300081e0033","linkReferences":{}},"methodIdentifiers":{"F()":"28811f59","GRACE_PERIOD()":"c1a287e2","bal(address,uint256)":"9c4a5f14","buy(uint256,uint256)":"d6febde8","create(uint256,uint256,uint256,uint256)":"92848c9e","exercise(uint256)":"b07f0a41","k()":"b4f40c61","premium(uint256,uint256)":"4eaba194","series(uint256)":"dc22cb6a","seriesSettled(uint256)":"a7290e83","settle(uint256)":"8df82800","sweepMargin(uint256)":"80da9522","topUpMargin()":"05d3a04f","withdrawMargin(uint256)":"0cea7534","withdrawPremiums()":"6193cdfb","writer()":"453a2abc","writerPremiumEscrow()":"5043ef2d"},"id":2}