{"abi":[{"type":"constructor","inputs":[{"name":"feeOracle","type":"address","internalType":"address"}],"stateMutability":"nonpayable"},{"type":"receive","stateMutability":"payable"},{"type":"function","name":"BUY_CUTOFF","inputs":[],"outputs":[{"name":"","type":"uint256","internalType":"uint256"}],"stateMutability":"view"},{"type":"function","name":"F","inputs":[],"outputs":[{"name":"","type":"address","internalType":"contract IBlobBaseFee"}],"stateMutability":"view"},{"type":"function","name":"GRACE_PERIOD","inputs":[],"outputs":[{"name":"","type":"uint256","internalType":"uint256"}],"stateMutability":"pure"},{"type":"function","name":"SETTLE_BOUNTY_BP","inputs":[],"outputs":[{"name":"","type":"uint256","internalType":"uint256"}],"stateMutability":"pure"},{"type":"function","name":"bal","inputs":[{"name":"","type":"address","internalType":"address"},{"name":"","type":"uint256","internalType":"uint256"}],"outputs":[{"name":"","type":"uint256","internalType":"uint256"}],"stateMutability":"view"},{"type":"function","name":"buy","inputs":[{"name":"id","type":"uint256","internalType":"uint256"},{"name":"num","type":"uint256","internalType":"uint256"}],"outputs":[],"stateMutability":"payable"},{"type":"function","name":"create","inputs":[{"name":"id","type":"uint256","internalType":"uint256"},{"name":"strike","type":"uint256","internalType":"uint256"},{"name":"cap","type":"uint256","internalType":"uint256"},{"name":"expiry","type":"uint256","internalType":"uint256"},{"name":"maxSold","type":"uint256","internalType":"uint256"}],"outputs":[],"stateMutability":"payable"},{"type":"function","name":"exercise","inputs":[{"name":"id","type":"uint256","internalType":"uint256"},{"name":"num","type":"uint256","internalType":"uint256"}],"outputs":[],"stateMutability":"nonpayable"},{"type":"function","name":"intrinsic","inputs":[{"name":"strike","type":"uint256","internalType":"uint256"}],"outputs":[{"name":"","type":"uint256","internalType":"uint256"}],"stateMutability":"view"},{"type":"function","name":"k","inputs":[],"outputs":[{"name":"","type":"uint256","internalType":"uint256"}],"stateMutability":"view"},{"type":"function","name":"pause","inputs":[{"name":"p","type":"bool","internalType":"bool"}],"outputs":[],"stateMutability":"nonpayable"},{"type":"function","name":"paused","inputs":[],"outputs":[{"name":"","type":"bool","internalType":"bool"}],"stateMutability":"view"},{"type":"function","name":"premCollected","inputs":[{"name":"","type":"uint256","internalType":"uint256"}],"outputs":[{"name":"","type":"uint256","internalType":"uint256"}],"stateMutability":"view"},{"type":"function","name":"premium","inputs":[{"name":"strike","type":"uint256","internalType":"uint256"},{"name":"expiry","type":"uint256","internalType":"uint256"}],"outputs":[{"name":"","type":"uint256","internalType":"uint256"}],"stateMutability":"view"},{"type":"function","name":"series","inputs":[{"name":"","type":"uint256","internalType":"uint256"}],"outputs":[{"name":"writer","type":"address","internalType":"address"},{"name":"strike","type":"uint256","internalType":"uint256"},{"name":"cap","type":"uint256","internalType":"uint256"},{"name":"expiry","type":"uint256","internalType":"uint256"},{"name":"sold","type":"uint256","internalType":"uint256"},{"name":"payoutPerUnit","type":"uint256","internalType":"uint256"},{"name":"margin","type":"uint256","internalType":"uint256"},{"name":"paidOut","type":"bool","internalType":"bool"}],"stateMutability":"view"},{"type":"function","name":"seriesMaxSold","inputs":[{"name":"","type":"uint256","internalType":"uint256"}],"outputs":[{"name":"","type":"uint256","internalType":"uint256"}],"stateMutability":"view"},{"type":"function","name":"seriesSettled","inputs":[{"name":"","type":"uint256","internalType":"uint256"}],"outputs":[{"name":"","type":"bool","internalType":"bool"}],"stateMutability":"view"},{"type":"function","name":"settle","inputs":[{"name":"id","type":"uint256","internalType":"uint256"}],"outputs":[],"stateMutability":"nonpayable"},{"type":"function","name":"unlockTs","inputs":[{"name":"","type":"uint256","internalType":"uint256"}],"outputs":[{"name":"","type":"uint256","internalType":"uint256"}],"stateMutability":"view"},{"type":"function","name":"withdrawMargin","inputs":[{"name":"id","type":"uint256","internalType":"uint256"}],"outputs":[],"stateMutability":"nonpayable"},{"type":"function","name":"withdrawPremium","inputs":[{"name":"id","type":"uint256","internalType":"uint256"}],"outputs":[],"stateMutability":"nonpayable"},{"type":"function","name":"writer","inputs":[],"outputs":[{"name":"","type":"address","internalType":"address"}],"stateMutability":"view"},{"type":"event","name":"PayCapped","inputs":[{"name":"id","type":"uint256","indexed":true,"internalType":"uint256"},{"name":"rawWei","type":"uint256","indexed":false,"internalType":"uint256"},{"name":"capWei","type":"uint256","indexed":false,"internalType":"uint256"}],"anonymous":false},{"type":"event","name":"Purchase","inputs":[{"name":"id","type":"uint256","indexed":true,"internalType":"uint256"},{"name":"buyer","type":"address","indexed":true,"internalType":"address"},{"name":"qty","type":"uint256","indexed":false,"internalType":"uint256"},{"name":"timeValue","type":"uint256","indexed":false,"internalType":"uint256"},{"name":"intrinsic","type":"uint256","indexed":false,"internalType":"uint256"}],"anonymous":false},{"type":"event","name":"SettleBounty","inputs":[{"name":"id","type":"uint256","indexed":true,"internalType":"uint256"},{"name":"caller","type":"address","indexed":true,"internalType":"address"},{"name":"bountyWei","type":"uint256","indexed":false,"internalType":"uint256"}],"anonymous":false},{"type":"error","name":"ReentrancyGuardReentrantCall","inputs":[]}],"bytecode":{"object":"0x60a0346100a857601f61133f38819003918201601f19168301916001600160401b038311848410176100ac578084926020946040528339810103126100a857516001600160a01b038116908190036100a85760015f819055653faa25226000905560088054610100600160a81b03191633821b610100600160a81b031617905560805260405161127e90816100c18239608051818181610b2701528181610e11015261112a0152f35b5f80fd5b634e487b7160e01b5f52604160045260245ffdfe608080604052600436101561001c575b50361561001a575f80fd5b005b5f3560e01c90816302329a291461102b575080630cea753414610f565780631f01664a14610e3557806328811f5914610df25780633adc9f1e14610dc85780633b2bea5114610dac578063453a2abc14610d835780634eaba19414610d5d5780635c38a1fb14610d375780635c975abb14610d155780635f770c3c14610ceb5780638df8280014610aa35780639c4a5f1414610a5c578063a7290e8314610a2d578063a86265bb14610884578063b4f40c6114610867578063bb4fa5dd1461065c578063be9ebe6d14610641578063c1a287e214610625578063d6febde8146101cd578063dc22cb6a146101485763fb49efc11461011a575f61000f565b34610144576020366003190112610144576004355f526007602052602060405f2054604051908152f35b5f80fd5b34610144576020366003190112610144576004355f52600260205261010060405f206001600160a01b03815416906001810154906002810154600382015460048301549060058401549260ff600760068701549601541695604051978852602088015260408701526060860152608085015260a084015260c0830152151560e0820152f35b6101d6366110a0565b9060ff600854166105f757805f52600260205260405f206001600160a01b038154165f8061024761025b60405161020e6040826110f2565b600881526739973bb934ba32b960c11b602082015260405192839163319af33360e01b60208401526040602484015260648301906111ca565b86604483015203601f1981018352826110f2565b6020815191016a636f6e736f6c652e6c6f675afa50156105c5576102b76040516102866040826110f2565b600f81527f626c6f636b2e74696d657374616d700000000000000000000000000000000000602082015242906111ee565b600381018054909161012b1982018281116105b15761030d816040516102de6040826110f2565b601581527f732e657870697279202d204255595f4355544f4646000000000000000000000060208201526111ee565b421161056c57600481019182549161035461032888856110c5565b6040516103366040826110f2565b600c81526b732e736f6c64202b206e756d60a01b60208201526111ee565b855f5260046020526103a160405f20546040516103726040826110f2565b601181527f7365726965734d6178536f6c645b69645d00000000000000000000000000000060208201526111ee565b6103ab87846110c5565b865f52600460205260405f20541061053c57866103f060016103f59301936103ea6103e46103dc87549342906110e5565b6001546110d2565b91611114565b906110c5565b6110d2565b6104236040516104066040826110f2565b60098152686d73672e76616c756560b81b602082015234906111ee565b61044f816040516104356040826110f2565b6008815267195e1c1958dd195960c21b60208201526111ee565b3403610509576104b86103dc6104c1926104d0956104708a6103e4976110c5565b9055335f52600560205260405f20885f5260205260405f206104938a82546110c5565b9055875f52600660205260405f206104ac3482546110c5565b905554954290546110e5565b6103ea85611114565b6104ca84611114565b906110e5565b90604051938452602084015260408301527f275f7c93f7842d147750d649c372d858ce20bda3ca095824ba8afdc22fb6910660603393a3005b60405162461bcd60e51b815260206004820152600b60248201526a6261642d7072656d69756d60a81b6044820152606490fd5b60405162461bcd60e51b81526020600482015260086024820152671cdbdb190b5bdd5d60c21b6044820152606490fd5b60405162461bcd60e51b815260206004820152600f60248201527f746f6f2d6c6174652d746f2d62757900000000000000000000000000000000006044820152606490fd5b634e487b7160e01b5f52601160045260245ffd5b60405162461bcd60e51b815260206004820152600a6024820152696261642d73657269657360b01b6044820152606490fd5b60405162461bcd60e51b81526020600482015260066024820152651c185d5cd95960d21b6044820152606490fd5b34610144575f366003190112610144576020604051610e108152f35b34610144575f36600319011261014457602060405160648152f35b60a0366003190112610144576004356024359060643591815f5260026020526001600160a01b0360405f20541661083257801561080257610e1042018042116105b15783106107d25734156107a15760405161010081019080821067ffffffffffffffff83111761078d576007916040523381526020810192835260408101604435815260608201868152608083015f815260a08401915f835260c085019334855260e08601975f8952895f5260026020526001600160a01b0360405f209751166001600160a01b0319885416178755516001870155516002860155516003850155516004840155516005830155516006820155019051151560ff80198354169116179055805f52600460205260843560405f2055610e1082018092116105b1575f52600760205260405f20555f80f35b634e487b7160e01b5f52604160045260245ffd5b60405162461bcd60e51b8152602060048201526009602482015268373796b6b0b933b4b760b91b6044820152606490fd5b60405162461bcd60e51b81526020600482015260086024820152673a37b796b9b7b7b760c11b6044820152606490fd5b60405162461bcd60e51b8152602060048201526008602482015267302d737472696b6560c01b6044820152606490fd5b60405162461bcd60e51b815260206004820152600d60248201526c7365726965732d65786973747360981b6044820152606490fd5b34610144575f366003190112610144576020600154604051908152f35b3461014457610892366110a0565b60025f5414610a1e5760025f55815f52600260205260405f20906001600160a01b03825416156105c557825f52600360205260ff60405f205416156109eb576108de60038301546110b6565b42116109a657335f52600560205260405f20835f526020528060405f205410610961575f808061093781946005878933865282602052604086209086526020526040852061092d8482546110e5565b90550154906110d2565b818115610958575b3390f11561094d5760015f55005b6040513d5f823e3d90fd5b506108fc61093f565b60405162461bcd60e51b815260206004820152601460248201527f696e73756666696369656e742d62616c616e63650000000000000000000000006044820152606490fd5b60405162461bcd60e51b815260206004820152601460248201527f746f6f2d6c6174652d746f2d65786572636973650000000000000000000000006044820152606490fd5b60405162461bcd60e51b815260206004820152600b60248201526a1b9bdd0b5cd95d1d1b195960aa1b6044820152606490fd5b633ee5aeb560e01b5f5260045ffd5b34610144576020366003190112610144576004355f526003602052602060ff60405f2054166040519015158152f35b34610144576040366003190112610144576004356001600160a01b038116809103610144575f52600560205260405f206024355f52602052602060405f2054604051908152f35b3461014457602036600319011261014457600435805f52600260205260405f206001600160a01b03815416156105c557815f52600360205260ff60405f205416610ca657600381015442106107d257815f52600360205260405f20600160ff19825416179055604051906303e0818560e61b82526020826004816001600160a01b037f0000000000000000000000000000000000000000000000000000000000000000165afa91821561094d575f92610c72575b5060018101545f92818111610bc6575b5050806064926005600693015501540490815f8115610bbd575b5f80809381933390f11561094d576040519182527fa8771a67c56919613ce2ba5d4a7425d832742950434c76c75350869f8e62a2d060203393a3005b506108fc610b81565b909250610bd383826110e5565b633b9aca00810290808204633b9aca0014901517156105b15792600283015491828111610c01575b50610b67565b9092919350610c1083856110e5565b93633b9aca00850294808604633b9aca0014901517156105b1577f5fca269afe7ca6a5bdfca5d4b118ee769a28288eb191ac6aee2a3af389bfb3aa60408792610c5e600697606499966110e5565b9082519182526020820152a2928192610bfb565b9091506020813d602011610c9e575b81610c8e602093836110f2565b8101031261014457519083610b57565b3d9150610c81565b60405162461bcd60e51b815260206004820152600f60248201527f616c72656164792d736574746c656400000000000000000000000000000000006044820152606490fd5b34610144576020366003190112610144576004355f526006602052602060405f2054604051908152f35b34610144575f36600319011261014457602060ff600854166040519015158152f35b34610144576020366003190112610144576020610d55600435611114565b604051908152f35b34610144576020610d556103dc6103ea6103e4610d79366110a0565b93909342906110e5565b34610144575f3660031901126101445760206001600160a01b0360085460081c16604051908152f35b34610144575f36600319011261014457602060405161012c8152f35b34610144576020366003190112610144576004355f526004602052602060405f2054604051908152f35b34610144575f3660031901126101445760206040516001600160a01b037f0000000000000000000000000000000000000000000000000000000000000000168152f35b3461014457602036600319011261014457600435805f52600260205260405f206001600160a01b038154163303610f2457815f52600760205260405f20544210610ef6576007019081549160ff8316610ec65760ff19831660011790555f908152600660205260408120805490829055819081908190818115610ebd575b3390f11561094d57005b506108fc610eb3565b60405162461bcd60e51b81526020600482015260086024820152671c185a590b5bdd5d60c21b6044820152606490fd5b60405162461bcd60e51b81526020600482015260066024820152651b1bd8dad95960d21b6044820152606490fd5b60405162461bcd60e51b815260206004820152600a6024820152693737ba16bbb934ba32b960b11b6044820152606490fd5b3461014457602036600319011261014457600435805f52600260205260405f20906001600160a01b038254163303610f24575f52600360205260ff60405f205416156109eb57610fa960038201546110b6565b4210610ffe5760068101805480156107a1575f8080610fed8194610fe88784610fdc8b60056004820154910154906110d2565b915560648304926110e5565b6110e5565b818115610ebd573390f11561094d57005b60405162461bcd60e51b8152602060048201526005602482015264677261636560d81b6044820152606490fd5b346101445760203660031901126101445760043580151580910361014457600854916001600160a01b038360081c163303611071575060ff169060ff1916176008555f80f35b62461bcd60e51b815260206004820152600a6024820152693737ba16bbb934ba32b960b11b6044820152606490fd5b6040906003190112610144576004359060243590565b90610e1082018092116105b157565b919082018092116105b157565b818102929181159184041417156105b157565b919082039182116105b157565b90601f8019910116810190811067ffffffffffffffff82111761078d57604052565b6040516303e0818560e61b8152906020826004817f00000000000000000000000000000000000000000000000000000000000000006001600160a01b03165afa91821561094d575f92611196575b508082111561119057611174916110e5565b633b9aca00810290808204633b9aca0014901517156105b15790565b50505f90565b9091506020813d6020116111c2575b816111b2602093836110f2565b810103126101445751905f611162565b3d91506111a5565b805180835260209291819084018484015e5f828201840152601f01601f1916010190565b61121d6112315f93928493604051938492632d839cb360e21b60208501526040602485015260648401906111ca565b90604483015203601f1981018352826110f2565b6020815191016a636f6e736f6c652e6c6f675afa5056fea2646970667358221220f532463de7040745c5c5d24f1258e411d9bc966289c32c1234ca46fe1aa06db864736f6c634300081e0033","linkReferences":{}},"methodIdentifiers":{"BUY_CUTOFF()":"3b2bea51","F()":"28811f59","GRACE_PERIOD()":"c1a287e2","SETTLE_BOUNTY_BP()":"be9ebe6d","bal(address,uint256)":"9c4a5f14","buy(uint256,uint256)":"d6febde8","create(uint256,uint256,uint256,uint256,uint256)":"bb4fa5dd","exercise(uint256,uint256)":"a86265bb","intrinsic(uint256)":"5c38a1fb","k()":"b4f40c61","pause(bool)":"02329a29","paused()":"5c975abb","premCollected(uint256)":"5f770c3c","premium(uint256,uint256)":"4eaba194","series(uint256)":"dc22cb6a","seriesMaxSold(uint256)":"3adc9f1e","seriesSettled(uint256)":"a7290e83","settle(uint256)":"8df82800","unlockTs(uint256)":"fb49efc1","withdrawMargin(uint256)":"0cea7534","withdrawPremium(uint256)":"1f01664a","writer()":"453a2abc"},"id":1}