{"abi":[{"type":"constructor","inputs":[{"name":"feeOracle","type":"address","internalType":"address"}],"stateMutability":"nonpayable"},{"type":"receive","stateMutability":"payable"},{"type":"function","name":"BUY_CUTOFF","inputs":[],"outputs":[{"name":"","type":"uint256","internalType":"uint256"}],"stateMutability":"view"},{"type":"function","name":"F","inputs":[],"outputs":[{"name":"","type":"address","internalType":"contract IBlobBaseFee"}],"stateMutability":"view"},{"type":"function","name":"GRACE_PERIOD","inputs":[],"outputs":[{"name":"","type":"uint256","internalType":"uint256"}],"stateMutability":"pure"},{"type":"function","name":"SETTLE_BOUNTY_BP","inputs":[],"outputs":[{"name":"","type":"uint256","internalType":"uint256"}],"stateMutability":"pure"},{"type":"function","name":"bal","inputs":[{"name":"","type":"address","internalType":"address"},{"name":"","type":"uint256","internalType":"uint256"}],"outputs":[{"name":"","type":"uint256","internalType":"uint256"}],"stateMutability":"view"},{"type":"function","name":"buy","inputs":[{"name":"id","type":"uint256","internalType":"uint256"},{"name":"num","type":"uint256","internalType":"uint256"}],"outputs":[],"stateMutability":"payable"},{"type":"function","name":"create","inputs":[{"name":"id","type":"uint256","internalType":"uint256"},{"name":"strike","type":"uint256","internalType":"uint256"},{"name":"cap","type":"uint256","internalType":"uint256"},{"name":"expiry","type":"uint256","internalType":"uint256"},{"name":"maxSold","type":"uint256","internalType":"uint256"}],"outputs":[],"stateMutability":"payable"},{"type":"function","name":"exercise","inputs":[{"name":"id","type":"uint256","internalType":"uint256"},{"name":"num","type":"uint256","internalType":"uint256"}],"outputs":[],"stateMutability":"nonpayable"},{"type":"function","name":"intrinsic","inputs":[{"name":"strike","type":"uint256","internalType":"uint256"}],"outputs":[{"name":"","type":"uint256","internalType":"uint256"}],"stateMutability":"view"},{"type":"function","name":"k","inputs":[],"outputs":[{"name":"","type":"uint256","internalType":"uint256"}],"stateMutability":"view"},{"type":"function","name":"pause","inputs":[{"name":"p","type":"bool","internalType":"bool"}],"outputs":[],"stateMutability":"nonpayable"},{"type":"function","name":"paused","inputs":[],"outputs":[{"name":"","type":"bool","internalType":"bool"}],"stateMutability":"view"},{"type":"function","name":"premCollected","inputs":[{"name":"","type":"uint256","internalType":"uint256"}],"outputs":[{"name":"","type":"uint256","internalType":"uint256"}],"stateMutability":"view"},{"type":"function","name":"premium","inputs":[{"name":"strike","type":"uint256","internalType":"uint256"},{"name":"expiry","type":"uint256","internalType":"uint256"}],"outputs":[{"name":"","type":"uint256","internalType":"uint256"}],"stateMutability":"view"},{"type":"function","name":"series","inputs":[{"name":"","type":"uint256","internalType":"uint256"}],"outputs":[{"name":"writer","type":"address","internalType":"address"},{"name":"strike","type":"uint256","internalType":"uint256"},{"name":"cap","type":"uint256","internalType":"uint256"},{"name":"expiry","type":"uint256","internalType":"uint256"},{"name":"sold","type":"uint256","internalType":"uint256"},{"name":"payWei","type":"uint256","internalType":"uint256"},{"name":"margin","type":"uint256","internalType":"uint256"},{"name":"paidOut","type":"bool","internalType":"bool"}],"stateMutability":"view"},{"type":"function","name":"seriesMaxSold","inputs":[{"name":"","type":"uint256","internalType":"uint256"}],"outputs":[{"name":"","type":"uint256","internalType":"uint256"}],"stateMutability":"view"},{"type":"function","name":"seriesSettled","inputs":[{"name":"","type":"uint256","internalType":"uint256"}],"outputs":[{"name":"","type":"bool","internalType":"bool"}],"stateMutability":"view"},{"type":"function","name":"settle","inputs":[{"name":"id","type":"uint256","internalType":"uint256"}],"outputs":[],"stateMutability":"nonpayable"},{"type":"function","name":"unlockTs","inputs":[{"name":"","type":"uint256","internalType":"uint256"}],"outputs":[{"name":"","type":"uint256","internalType":"uint256"}],"stateMutability":"view"},{"type":"function","name":"withdrawMargin","inputs":[{"name":"id","type":"uint256","internalType":"uint256"}],"outputs":[],"stateMutability":"nonpayable"},{"type":"function","name":"withdrawPremium","inputs":[{"name":"id","type":"uint256","internalType":"uint256"}],"outputs":[],"stateMutability":"nonpayable"},{"type":"function","name":"writer","inputs":[],"outputs":[{"name":"","type":"address","internalType":"address"}],"stateMutability":"view"},{"type":"event","name":"PayCapped","inputs":[{"name":"id","type":"uint256","indexed":true,"internalType":"uint256"},{"name":"rawWei","type":"uint256","indexed":false,"internalType":"uint256"},{"name":"capWei","type":"uint256","indexed":false,"internalType":"uint256"}],"anonymous":false},{"type":"event","name":"Purchase","inputs":[{"name":"id","type":"uint256","indexed":true,"internalType":"uint256"},{"name":"buyer","type":"address","indexed":true,"internalType":"address"},{"name":"qty","type":"uint256","indexed":false,"internalType":"uint256"},{"name":"timeValue","type":"uint256","indexed":false,"internalType":"uint256"},{"name":"intrinsic","type":"uint256","indexed":false,"internalType":"uint256"}],"anonymous":false},{"type":"event","name":"SettleBounty","inputs":[{"name":"id","type":"uint256","indexed":true,"internalType":"uint256"},{"name":"caller","type":"address","indexed":true,"internalType":"address"},{"name":"bountyWei","type":"uint256","indexed":false,"internalType":"uint256"}],"anonymous":false},{"type":"error","name":"ReentrancyGuardReentrantCall","inputs":[]}],"bytecode":{"object":"0x60a0346100a857601f6110ae38819003918201601f19168301916001600160401b038311848410176100ac578084926020946040528339810103126100a857516001600160a01b038116908190036100a85760015f819055653faa25226000905560088054610100600160a81b03191633821b610100600160a81b0316179055608052604051610fed90816100c1823960805181818161075301528181610bd90152610f170152f35b5f80fd5b634e487b7160e01b5f52604160045260245ffdfe608080604052600436101561001c575b50361561001a575f80fd5b005b5f3560e01c90816302329a2914610e18575080630cea753414610d1e5780631f01664a14610bfd57806328811f5914610bba5780633adc9f1e14610b905780633b2bea5114610b74578063453a2abc14610b4b5780634eaba19414610b255780635c38a1fb14610aff5780635c975abb14610add5780635f770c3c14610ab35780638df82800146109a55780639c4a5f141461095e578063a7290e831461092f578063a86265bb146106a9578063b4f40c611461068c578063bb4fa5dd14610481578063be9ebe6d14610466578063c1a287e21461044a578063d6febde8146101cd578063dc22cb6a146101485763fb49efc11461011a575f61000f565b34610144576020366003190112610144576004355f526007602052602060405f2054604051908152f35b5f80fd5b34610144576020366003190112610144576004355f52600260205261010060405f206001600160a01b03815416906001810154906002810154600382015460048301549060058401549260ff600760068701549601541695604051978852602088015260408701526060860152608085015260a084015260c0830152151560e0820152f35b6101d636610e8d565b9060ff6008541661041c57805f52600260205260405f206001600160a01b03815416156103ea57600381018054909161012b1982018281116103d657421161039157600481019182549161022a8784610eb2565b865f52600460205260405f205410610361578661026f600161027493019361026961026361025b8754934290610ebf565b600154610ecc565b91610f01565b90610eb2565b610ecc565b340361032e576102dd61025b6102e6926102f5956102958a61026397610eb2565b9055335f52600560205260405f20885f5260205260405f206102b88a8254610eb2565b9055875f52600660205260405f206102d1348254610eb2565b90555495429054610ebf565b61026985610f01565b6102ef84610f01565b90610ebf565b90604051938452602084015260408301527f275f7c93f7842d147750d649c372d858ce20bda3ca095824ba8afdc22fb6910660603393a3005b60405162461bcd60e51b815260206004820152600b60248201526a6261642d7072656d69756d60a81b6044820152606490fd5b60405162461bcd60e51b81526020600482015260086024820152671cdbdb190b5bdd5d60c21b6044820152606490fd5b60405162461bcd60e51b815260206004820152600f60248201527f746f6f2d6c6174652d746f2d62757900000000000000000000000000000000006044820152606490fd5b634e487b7160e01b5f52601160045260245ffd5b60405162461bcd60e51b815260206004820152600a6024820152696261642d73657269657360b01b6044820152606490fd5b60405162461bcd60e51b81526020600482015260066024820152651c185d5cd95960d21b6044820152606490fd5b34610144575f366003190112610144576020604051610e108152f35b34610144575f36600319011261014457602060405160648152f35b60a0366003190112610144576004356024359060643591815f5260026020526001600160a01b0360405f20541661065757801561062757610e1042018042116103d65783106105f75734156105c65760405161010081019080821067ffffffffffffffff8311176105b2576007916040523381526020810192835260408101604435815260608201868152608083015f815260a08401915f835260c085019334855260e08601975f8952895f5260026020526001600160a01b0360405f209751166001600160a01b0319885416178755516001870155516002860155516003850155516004840155516005830155516006820155019051151560ff80198354169116179055805f52600460205260843560405f2055610e1082018092116103d6575f52600760205260405f20555f80f35b634e487b7160e01b5f52604160045260245ffd5b60405162461bcd60e51b8152602060048201526009602482015268373796b6b0b933b4b760b91b6044820152606490fd5b60405162461bcd60e51b81526020600482015260086024820152673a37b796b9b7b7b760c11b6044820152606490fd5b60405162461bcd60e51b8152602060048201526008602482015267302d737472696b6560c01b6044820152606490fd5b60405162461bcd60e51b815260206004820152600d60248201526c7365726965732d65786973747360981b6044820152606490fd5b34610144575f366003190112610144576020600154604051908152f35b34610144576106b736610e8d565b9060025f54146109205760025f55805f52600260205260405f20916001600160a01b03835416156103ea5760038301548042106105f7576106f790610ea3565b42116108db57335f52600560205260405f20825f526020528060405f20541061089657335f52600560205260405f20825f5260205260405f2061073b828254610ebf565b90556040516303e0818560e61b8152926020846004817f00000000000000000000000000000000000000000000000000000000000000006001600160a01b03165afa9283156107e1575f93610860575b5f94508493849384936107cb9385936001830154918282116107f5575b5050506107c460056107ba8585610ecc565b9201918254610eb2565b9055610ecc565b8181156107ec575b3390f1156107e15760015f55005b6040513d5f823e3d90fd5b506108fc6107d3565b909194506108038583610ebf565b94600284015490818711610818575b506107a8565b7f5fca269afe7ca6a5bdfca5d4b118ee769a28288eb191ac6aee2a3af389bfb3aa929396509061084b6040928298610ebf565b9082519182526020820152a288808080610812565b92506020843d60201161088e575b8161087b60209383610edf565b810103126101445792515f93909261078b565b3d915061086e565b60405162461bcd60e51b815260206004820152601460248201527f696e73756666696369656e742d62616c616e63650000000000000000000000006044820152606490fd5b60405162461bcd60e51b815260206004820152601460248201527f746f6f2d6c6174652d746f2d65786572636973650000000000000000000000006044820152606490fd5b633ee5aeb560e01b5f5260045ffd5b34610144576020366003190112610144576004355f526003602052602060ff60405f2054166040519015158152f35b34610144576040366003190112610144576004356001600160a01b038116809103610144575f52600560205260405f206024355f52602052602060405f2054604051908152f35b3461014457602036600319011261014457600435805f52600260205260405f206001600160a01b03815416156103ea57815f52600360205260ff60405f205416610a6e576003810154610e1081018091116103d65742106105f7576006606491835f52600360205260405f20600160ff1982541617905501540490815f8115610a65575b5f80809381933390f1156107e1576040519182527fa8771a67c56919613ce2ba5d4a7425d832742950434c76c75350869f8e62a2d060203393a3005b506108fc610a29565b60405162461bcd60e51b815260206004820152600f60248201527f616c72656164792d736574746c656400000000000000000000000000000000006044820152606490fd5b34610144576020366003190112610144576004355f526006602052602060405f2054604051908152f35b34610144575f36600319011261014457602060ff600854166040519015158152f35b34610144576020366003190112610144576020610b1d600435610f01565b604051908152f35b34610144576020610b1d61025b610269610263610b4136610e8d565b9390934290610ebf565b34610144575f3660031901126101445760206001600160a01b0360085460081c16604051908152f35b34610144575f36600319011261014457602060405161012c8152f35b34610144576020366003190112610144576004355f526004602052602060405f2054604051908152f35b34610144575f3660031901126101445760206040516001600160a01b037f0000000000000000000000000000000000000000000000000000000000000000168152f35b3461014457602036600319011261014457600435805f52600260205260405f206001600160a01b038154163303610cec57815f52600760205260405f20544210610cbe576007019081549160ff8316610c8e5760ff19831660011790555f908152600660205260408120805490829055819081908190818115610c85575b3390f1156107e157005b506108fc610c7b565b60405162461bcd60e51b81526020600482015260086024820152671c185a590b5bdd5d60c21b6044820152606490fd5b60405162461bcd60e51b81526020600482015260066024820152651b1bd8dad95960d21b6044820152606490fd5b60405162461bcd60e51b815260206004820152600a6024820152693737ba16bbb934ba32b960b11b6044820152606490fd5b3461014457602036600319011261014457600435805f52600260205260405f20906001600160a01b038254163303610cec575f52600360205260ff60405f20541615610de557610d716003820154610ea3565b4210610db8576006810190815480156105c6575f8080610da781946064610d9f600589868c55015483610ebf565b910490610ebf565b818115610c85573390f1156107e157005b60405162461bcd60e51b8152602060048201526005602482015264677261636560d81b6044820152606490fd5b60405162461bcd60e51b815260206004820152600b60248201526a1b9bdd0b5cd95d1d1b195960aa1b6044820152606490fd5b346101445760203660031901126101445760043580151580910361014457600854916001600160a01b038360081c163303610e5e575060ff169060ff1916176008555f80f35b62461bcd60e51b815260206004820152600a6024820152693737ba16bbb934ba32b960b11b6044820152606490fd5b6040906003190112610144576004359060243590565b90610e1082018092116103d657565b919082018092116103d657565b919082039182116103d657565b818102929181159184041417156103d657565b90601f8019910116810190811067ffffffffffffffff8211176105b257604052565b6040516303e0818560e61b8152906020826004817f00000000000000000000000000000000000000000000000000000000000000006001600160a01b03165afa9182156107e1575f92610f83575b5080821115610f7d57610f6191610ebf565b633b9aca00810290808204633b9aca0014901517156103d65790565b50505f90565b9091506020813d602011610faf575b81610f9f60209383610edf565b810103126101445751905f610f4f565b3d9150610f9256fea2646970667358221220015dd517559245f98b30b777f994e26849f2c0ce141a39c905c08b403d8813bb64736f6c634300081e0033","linkReferences":{}},"methodIdentifiers":{"BUY_CUTOFF()":"3b2bea51","F()":"28811f59","GRACE_PERIOD()":"c1a287e2","SETTLE_BOUNTY_BP()":"be9ebe6d","bal(address,uint256)":"9c4a5f14","buy(uint256,uint256)":"d6febde8","create(uint256,uint256,uint256,uint256,uint256)":"bb4fa5dd","exercise(uint256,uint256)":"a86265bb","intrinsic(uint256)":"5c38a1fb","k()":"b4f40c61","pause(bool)":"02329a29","paused()":"5c975abb","premCollected(uint256)":"5f770c3c","premium(uint256,uint256)":"4eaba194","series(uint256)":"dc22cb6a","seriesMaxSold(uint256)":"3adc9f1e","seriesSettled(uint256)":"a7290e83","settle(uint256)":"8df82800","unlockTs(uint256)":"fb49efc1","withdrawMargin(uint256)":"0cea7534","withdrawPremium(uint256)":"1f01664a","writer()":"453a2abc"},"id":2}