{"abi":[{"type":"constructor","inputs":[{"name":"feeOracle","type":"address","internalType":"address"}],"stateMutability":"payable"},{"type":"function","name":"F","inputs":[],"outputs":[{"name":"","type":"address","internalType":"contract IBlobBaseFee"}],"stateMutability":"view"},{"type":"function","name":"GRACE_PERIOD","inputs":[],"outputs":[{"name":"","type":"uint256","internalType":"uint256"}],"stateMutability":"view"},{"type":"function","name":"SETTLE_BOUNTY_BP","inputs":[],"outputs":[{"name":"","type":"uint256","internalType":"uint256"}],"stateMutability":"view"},{"type":"function","name":"bal","inputs":[{"name":"","type":"address","internalType":"address"},{"name":"","type":"uint256","internalType":"uint256"}],"outputs":[{"name":"","type":"uint256","internalType":"uint256"}],"stateMutability":"view"},{"type":"function","name":"buy","inputs":[{"name":"id","type":"uint256","internalType":"uint256"},{"name":"qty","type":"uint256","internalType":"uint256"}],"outputs":[],"stateMutability":"payable"},{"type":"function","name":"create","inputs":[{"name":"id","type":"uint256","internalType":"uint256"},{"name":"strikeGwei","type":"uint256","internalType":"uint256"},{"name":"capGwei","type":"uint256","internalType":"uint256"},{"name":"expiry","type":"uint256","internalType":"uint256"},{"name":"maxSold","type":"uint256","internalType":"uint256"}],"outputs":[],"stateMutability":"payable"},{"type":"function","name":"exercise","inputs":[{"name":"id","type":"uint256","internalType":"uint256"}],"outputs":[],"stateMutability":"nonpayable"},{"type":"function","name":"k","inputs":[],"outputs":[{"name":"","type":"uint256","internalType":"uint256"}],"stateMutability":"view"},{"type":"function","name":"premium","inputs":[{"name":"strike","type":"uint256","internalType":"uint256"},{"name":"expiry","type":"uint256","internalType":"uint256"}],"outputs":[{"name":"","type":"uint256","internalType":"uint256"}],"stateMutability":"view"},{"type":"function","name":"premiumUnlock","inputs":[{"name":"","type":"uint256","internalType":"uint256"}],"outputs":[{"name":"","type":"uint256","internalType":"uint256"}],"stateMutability":"view"},{"type":"function","name":"series","inputs":[{"name":"","type":"uint256","internalType":"uint256"}],"outputs":[{"name":"strike","type":"uint256","internalType":"uint256"},{"name":"cap","type":"uint256","internalType":"uint256"},{"name":"expiry","type":"uint256","internalType":"uint256"},{"name":"sold","type":"uint256","internalType":"uint256"},{"name":"payWei","type":"uint256","internalType":"uint256"},{"name":"margin","type":"uint256","internalType":"uint256"},{"name":"maxSold","type":"uint256","internalType":"uint256"}],"stateMutability":"view"},{"type":"function","name":"seriesSettled","inputs":[{"name":"","type":"uint256","internalType":"uint256"}],"outputs":[{"name":"","type":"bool","internalType":"bool"}],"stateMutability":"view"},{"type":"function","name":"settle","inputs":[{"name":"id","type":"uint256","internalType":"uint256"}],"outputs":[],"stateMutability":"nonpayable"},{"type":"function","name":"sweepMargin","inputs":[{"name":"id","type":"uint256","internalType":"uint256"}],"outputs":[],"stateMutability":"nonpayable"},{"type":"function","name":"topUpMargin","inputs":[{"name":"id","type":"uint256","internalType":"uint256"}],"outputs":[],"stateMutability":"payable"},{"type":"function","name":"withdrawMargin","inputs":[{"name":"id","type":"uint256","internalType":"uint256"}],"outputs":[],"stateMutability":"nonpayable"},{"type":"function","name":"withdrawPremiums","inputs":[{"name":"id","type":"uint256","internalType":"uint256"}],"outputs":[],"stateMutability":"nonpayable"},{"type":"function","name":"writer","inputs":[],"outputs":[{"name":"","type":"address","internalType":"address"}],"stateMutability":"view"},{"type":"function","name":"writerPremiumEscrow","inputs":[],"outputs":[{"name":"","type":"uint256","internalType":"uint256"}],"stateMutability":"view"},{"type":"event","name":"PayCapped","inputs":[{"name":"id","type":"uint256","indexed":true,"internalType":"uint256"},{"name":"rawWei","type":"uint256","indexed":false,"internalType":"uint256"},{"name":"capWei","type":"uint256","indexed":false,"internalType":"uint256"}],"anonymous":false},{"type":"event","name":"SettleBounty","inputs":[{"name":"id","type":"uint256","indexed":true,"internalType":"uint256"},{"name":"caller","type":"address","indexed":true,"internalType":"address"},{"name":"bountyWei","type":"uint256","indexed":false,"internalType":"uint256"}],"anonymous":false}],"bytecode":{"object":"0x60c0601f6110b638819003918201601f19168301916001600160401b038311848410176100b3578084926020946040528339810103126100af57516001600160a01b038116908190036100af576618de76816d80005f553360805260a052604051610fee90816100c8823960805181818161031001528181610862015281816108a701528181610ab801528181610b8101528181610c340152610d53015260a05181818161074d0152610d050152f35b5f80fd5b634e487b7160e01b5f52604160045260245ffdfe60806040526004361015610011575f80fd5b5f3560e01c80630cea753414610d2957806328811f5914610ce65780633da5d6df14610cbc57806342d863d614610c58578063453a2abc14610c155780634e8d9c4d14610b665780634eaba19414610b445780635043ef2d14610b2757806380da952214610a3e5780638df82800146106f85780639c4a5f14146106b1578063a7290e8314610682578063b07f0a411461055e578063b4f40c6114610542578063bb4fa5dd146102f2578063be9ebe6d146102d7578063c1a287e2146102ba578063d6febde8146101595763dc22cb6a146100ea575f80fd5b34610155576020366003190112610155576004355f52600160205260e060405f20805490600181015490600281015460038201546004830154916006600585015494015494604051968752602087015260408601526060850152608084015260a083015260c0820152f35b5f80fd5b61016236610df4565b815f52600160205260405f2060028101548042101561028f578261018861018d92610ef0565b610ebf565b340361026257600381019081549060066101a78584610ea5565b9101541061023257826101b991610ea5565b9055335f52600360205260405f20825f526020526101dc60405f20918254610ea5565b90556101ea34600454610ea5565b600455805f52600560205260405f20541561020157005b611c2042019081421161021e575f52600560205260405f20555f80f35b634e487b7160e01b5f52601160045260245ffd5b60405162461bcd60e51b81526020600482015260086024820152671bdd995c9cd95b1b60c21b6044820152606490fd5b60405162461bcd60e51b8152602060048201526005602482015264217072656d60d81b6044820152606490fd5b60405162461bcd60e51b815260206004820152600360248201526206578760ec1b6044820152606490fd5b34610155575f36600319011261015557602060405162093a808152f35b34610155575f366003190112610155576020604051600a8152f35b60a03660031901126101555760443560243560843560043561033e337f00000000000000000000000000000000000000000000000000000000000000006001600160a01b031614610e0a565b805f52600160205260405f205461051457828411156104e15760646103638486610eb2565b116104ad576103728385610eb2565b633b9aca00810290808204633b9aca00149015171561021e578261039591610ebf565b68056bc75e2d63100000811161047c573410610447576040519360e085019385851067ffffffffffffffff8611176104335760069460405285526020850190815260408501606435815260608601905f825260808701925f845260a088019434865260c089019687525f52600160205260405f2097518855516001880155516002870155516003860155516004850155516005840155519101555f80f35b634e487b7160e01b5f52604160045260245ffd5b60405162461bcd60e51b815260206004820152600d60248201526c34b739bab3331036b0b933b4b760991b6044820152606490fd5b60405162461bcd60e51b81526020600482015260096024820152686c696162696c69747960b81b6044820152606490fd5b60405162461bcd60e51b815260206004820152600c60248201526b0c6c2e040e8dede40d0d2ced60a31b6044820152606490fd5b60405162461bcd60e51b815260206004820152600b60248201526a6361703c3d737472696b6560a81b6044820152606490fd5b60405162461bcd60e51b815260206004820152600660248201526565786973747360d01b6044820152606490fd5b34610155575f3660031901126101555760205f54604051908152f35b3461015557602036600319011261015557600435805f52600160205260405f2090805f52600260205261059760ff60405f205416610e3b565b335f908152600360209081526040808320938352929052908120805491905560048201546105c59082610ebf565b91824710610654576005810192835490808210610626575f808083886105fe8396888b6105f760038d01918254610eb2565b9055610eb2565b905581811561061d575b3390f11561061257005b6040513d5f823e3d90fd5b506108fc610608565b60405162461bcd60e51b815260206004820152600660248201526536b0b933b4b760d11b6044820152606490fd5b60405162461bcd60e51b815260206004820152600660248201526534b739b7b63b60d11b6044820152606490fd5b34610155576020366003190112610155576004355f526002602052602060ff60405f2054166040519015158152f35b34610155576040366003190112610155576004356001600160a01b038116809103610155575f52600360205260405f206024355f52602052602060405f2054604051908152f35b3461015557602036600319011261015557600435805f52600160205260405f209060028201544210610a1357805f52600260205260ff60405f2054166109ce576040516303e0818560e61b81526020816004817f00000000000000000000000000000000000000000000000000000000000000006001600160a01b03165afa908115610612575f91610986575b50600183015480821161097e575b50825480821115610975576107a791610eb2565b633b9aca00810290808204633b9aca00149015171561021e57905b80600384015480155f1461096157505f925b83811193841561095a5780945b60048701958655610922575b50505047600a810290808204600a149015171561021e576127109004801580156108ce575b50505f52600260205260405f20600160ff1982541617905554158061089c575b61083857005b5f8080600581940180549047808311610894575b5082905581811561088b575b6001600160a01b037f00000000000000000000000000000000000000000000000000000000000000001690f11561061257005b506108fc610858565b91508261084c565b506001600160a01b037f0000000000000000000000000000000000000000000000000000000000000000163314610832565b81905f90610919575b5f80809381933390f11561061257604051908152817fa8771a67c56919613ce2ba5d4a7425d832742950434c76c75350869f8e62a2d060203393a38380610812565b506108fc6108d7565b7f5fca269afe7ca6a5bdfca5d4b118ee769a28288eb191ac6aee2a3af389bfb3aa9160409182519182526020820152a28084806107ed565b81946107e1565b61096f906005860154610ed2565b926107d4565b50505f906107c2565b905083610793565b905060203d6020116109c7575b601f8101601f1916820167ffffffffffffffff81118382101761043357602091839160405281010312610155575183610785565b503d610993565b60405162461bcd60e51b815260206004820152600e60248201527f73657269657320736574746c65640000000000000000000000000000000000006044820152606490fd5b606460405162461bcd60e51b81526020600482015260046024820152630216578760e41b6044820152fd5b3461015557602036600319011261015557600435805f52600160205260405f20905f526002602052610a7660ff60405f205416610e3b565b6005810190815490811590610a8b8215610e73565b600381015415908115610b0c575b5015610ae1575f8080938193828755829061088b576001600160a01b037f00000000000000000000000000000000000000000000000000000000000000001690f11561061257005b606460405162461bcd60e51b815260206004820152600460248201526337b832b760e11b6044820152fd5b60029150015462093a80810180911161021e57421184610a99565b34610155575f366003190112610155576020600454604051908152f35b34610155576020610b5e610b5736610df4565b9050610ef0565b604051908152f35b34610155576020366003190112610155576001600160a01b037f000000000000000000000000000000000000000000000000000000000000000016610bac813314610e0a565b6004355f52600560205260405f20544210610be7575f808080936004549082600455828215610bde575bf11561061257005b506108fc610bd6565b60405162461bcd60e51b81526020600482015260066024820152651b1bd8dad95960d21b6044820152606490fd5b34610155575f3660031901126101555760206040516001600160a01b037f0000000000000000000000000000000000000000000000000000000000000000168152f35b6020366003190112610155576004355f52600160205260405f20600281015415610c8e57600501610c8a348254610ea5565b9055005b60405162461bcd60e51b8152602060048201526006602482015265189859081a5960d21b6044820152606490fd5b34610155576020366003190112610155576004355f526005602052602060405f2054604051908152f35b34610155575f3660031901126101555760206040516001600160a01b037f0000000000000000000000000000000000000000000000000000000000000000168152f35b3461015557602036600319011261015557600435805f52600160205260405f206001600160a01b037f00000000000000000000000000000000000000000000000000000000000000001691610d7f833314610e0a565b5f526002602052610d9660ff60405f205416610e3b565b6004810154610dc9575f80809360058294019081549183831591610dba8315610e73565b558390610bde57f11561061257005b60405162461bcd60e51b815260206004820152600360248201526249544d60e81b6044820152606490fd5b6040906003190112610155576004359060243590565b15610e1157565b60405162461bcd60e51b8152602060048201526002602482015261217760f01b6044820152606490fd5b15610e4257565b60405162461bcd60e51b81526020600482015260096024820152681d5b9cd95d1d1b195960ba1b6044820152606490fd5b15610e7a57565b606460405162461bcd60e51b81526020600482015260046024820152636e6f6e6560e01b6044820152fd5b9190820180921161021e57565b9190820391821161021e57565b8181029291811591840414171561021e57565b8115610edc570490565b634e487b7160e01b5f52601260045260245ffd5b610efb904290610eb2565b5f54906402cb4178008202918083046402cb417800149015171561021e57670de0b6b3a7640000810290808204670de0b6b3a7640000149015171561021e57610e109004905f6003831115610f9c5750818060011c6001810180911161021e57905b838210610f7d575050670de0b6b3a764000091610f7991610ebf565b0490565b909250610f9383610f8e8184610ed2565b610ea5565b60011c90610f5d565b610f7991670de0b6b3a76400009315610ebf5760019150610ebf56fea26469706673582212202d93707d68558b078a850649e4da8cdf792d61cd269c4b707aff5cfe8afd2eb964736f6c634300081e0033","linkReferences":{}},"methodIdentifiers":{"F()":"28811f59","GRACE_PERIOD()":"c1a287e2","SETTLE_BOUNTY_BP()":"be9ebe6d","bal(address,uint256)":"9c4a5f14","buy(uint256,uint256)":"d6febde8","create(uint256,uint256,uint256,uint256,uint256)":"bb4fa5dd","exercise(uint256)":"b07f0a41","k()":"b4f40c61","premium(uint256,uint256)":"4eaba194","premiumUnlock(uint256)":"3da5d6df","series(uint256)":"dc22cb6a","seriesSettled(uint256)":"a7290e83","settle(uint256)":"8df82800","sweepMargin(uint256)":"80da9522","topUpMargin(uint256)":"42d863d6","withdrawMargin(uint256)":"0cea7534","withdrawPremiums(uint256)":"4e8d9c4d","writer()":"453a2abc","writerPremiumEscrow()":"5043ef2d"},"id":2}