{"abi":[{"type":"constructor","inputs":[{"name":"feeOracle","type":"address","internalType":"address"}],"stateMutability":"payable"},{"type":"function","name":"F","inputs":[],"outputs":[{"name":"","type":"address","internalType":"contract IBlobBaseFee"}],"stateMutability":"view"},{"type":"function","name":"GRACE_PERIOD","inputs":[],"outputs":[{"name":"","type":"uint256","internalType":"uint256"}],"stateMutability":"view"},{"type":"function","name":"bal","inputs":[{"name":"","type":"address","internalType":"address"},{"name":"","type":"uint256","internalType":"uint256"}],"outputs":[{"name":"","type":"uint256","internalType":"uint256"}],"stateMutability":"view"},{"type":"function","name":"buy","inputs":[{"name":"id","type":"uint256","internalType":"uint256"},{"name":"qty","type":"uint256","internalType":"uint256"}],"outputs":[],"stateMutability":"payable"},{"type":"function","name":"create","inputs":[{"name":"id","type":"uint256","internalType":"uint256"},{"name":"strikeGwei","type":"uint256","internalType":"uint256"},{"name":"capGwei","type":"uint256","internalType":"uint256"},{"name":"expiry","type":"uint256","internalType":"uint256"},{"name":"maxSold","type":"uint256","internalType":"uint256"}],"outputs":[],"stateMutability":"payable"},{"type":"function","name":"exercise","inputs":[{"name":"id","type":"uint256","internalType":"uint256"}],"outputs":[],"stateMutability":"nonpayable"},{"type":"function","name":"k","inputs":[],"outputs":[{"name":"","type":"uint256","internalType":"uint256"}],"stateMutability":"view"},{"type":"function","name":"premium","inputs":[{"name":"strike","type":"uint256","internalType":"uint256"},{"name":"expiry","type":"uint256","internalType":"uint256"}],"outputs":[{"name":"","type":"uint256","internalType":"uint256"}],"stateMutability":"view"},{"type":"function","name":"series","inputs":[{"name":"","type":"uint256","internalType":"uint256"}],"outputs":[{"name":"strike","type":"uint256","internalType":"uint256"},{"name":"cap","type":"uint256","internalType":"uint256"},{"name":"expiry","type":"uint256","internalType":"uint256"},{"name":"sold","type":"uint256","internalType":"uint256"},{"name":"payWei","type":"uint256","internalType":"uint256"},{"name":"margin","type":"uint256","internalType":"uint256"},{"name":"maxSold","type":"uint256","internalType":"uint256"}],"stateMutability":"view"},{"type":"function","name":"seriesSettled","inputs":[{"name":"","type":"uint256","internalType":"uint256"}],"outputs":[{"name":"","type":"bool","internalType":"bool"}],"stateMutability":"view"},{"type":"function","name":"settle","inputs":[{"name":"id","type":"uint256","internalType":"uint256"}],"outputs":[],"stateMutability":"nonpayable"},{"type":"function","name":"sweepMargin","inputs":[{"name":"id","type":"uint256","internalType":"uint256"}],"outputs":[],"stateMutability":"nonpayable"},{"type":"function","name":"topUpMargin","inputs":[{"name":"id","type":"uint256","internalType":"uint256"}],"outputs":[],"stateMutability":"payable"},{"type":"function","name":"withdrawMargin","inputs":[{"name":"id","type":"uint256","internalType":"uint256"}],"outputs":[],"stateMutability":"nonpayable"},{"type":"function","name":"withdrawPremiums","inputs":[],"outputs":[],"stateMutability":"nonpayable"},{"type":"function","name":"writer","inputs":[],"outputs":[{"name":"","type":"address","internalType":"address"}],"stateMutability":"view"},{"type":"function","name":"writerPremiumEscrow","inputs":[],"outputs":[{"name":"","type":"uint256","internalType":"uint256"}],"stateMutability":"view"}],"bytecode":{"object":"0x60c0601f610ed938819003918201601f19168301916001600160401b038311848410176100b3578084926020946040528339810103126100af57516001600160a01b038116908190036100af576618de76816d80005f553360805260a052604051610e1190816100c8823960805181818161029d01528181610788015281816107c501528181610954015281816109e101528181610a8b0152610b80015260a0518181816106ee0152610b320152f35b5f80fd5b634e487b7160e01b5f52604160045260245ffdfe60806040526004361015610011575f80fd5b5f3560e01c80630cea753414610b5657806328811f5914610b1357806342d863d614610aaf578063453a2abc14610a6c5780634eaba19414610a4a5780635043ef2d14610a2d5780636193cdfb146109c357806380da9522146108da5780638df82800146106995780639c4a5f1414610652578063a7290e8314610623578063b07f0a41146104ff578063b4f40c61146104e3578063bb4fa5dd1461027f578063c1a287e214610262578063d6febde8146101435763dc22cb6a146100d4575f80fd5b3461013f57602036600319011261013f576004355f52600160205260e060405f20805490600181015490600281015460038201546004830154916006600585015494015494604051968752602087015260408601526060850152608084015260a083015260c0820152f35b5f80fd5b61014c36610c21565b90805f52600160205260405f20600281015480421015610237578361017361017892610cff565b610cec565b340361020a57600381019081549060066101928684610cd2565b910154106101da57836101a491610cd2565b9055335f52600360205260405f20905f526020526101c760405f20918254610cd2565b90556101d534600454610cd2565b600455005b60405162461bcd60e51b81526020600482015260086024820152671bdd995c9cd95b1b60c21b6044820152606490fd5b60405162461bcd60e51b8152602060048201526005602482015264217072656d60d81b6044820152606490fd5b60405162461bcd60e51b815260206004820152600360248201526206578760ec1b6044820152606490fd5b3461013f575f36600319011261013f57602060405162093a808152f35b60a036600319011261013f576044356024356084356004356102cb337f00000000000000000000000000000000000000000000000000000000000000006001600160a01b031614610c37565b805f52600160205260405f20546104b557828411156104825760646102f08486610cdf565b1161044e576102ff8385610cdf565b633b9aca00810290808204633b9aca00149015171561043a578261032291610cec565b68056bc75e2d6310000081116104095734106103d4576040519360e085019385851067ffffffffffffffff8611176103c05760069460405285526020850190815260408501606435815260608601905f825260808701925f845260a088019434865260c089019687525f52600160205260405f2097518855516001880155516002870155516003860155516004850155516005840155519101555f80f35b634e487b7160e01b5f52604160045260245ffd5b60405162461bcd60e51b815260206004820152600d60248201526c34b739bab3331036b0b933b4b760991b6044820152606490fd5b60405162461bcd60e51b81526020600482015260096024820152686c696162696c69747960b81b6044820152606490fd5b634e487b7160e01b5f52601160045260245ffd5b60405162461bcd60e51b815260206004820152600c60248201526b0c6c2e040e8dede40d0d2ced60a31b6044820152606490fd5b60405162461bcd60e51b815260206004820152600b60248201526a6361703c3d737472696b6560a81b6044820152606490fd5b60405162461bcd60e51b815260206004820152600660248201526565786973747360d01b6044820152606490fd5b3461013f575f36600319011261013f5760205f54604051908152f35b3461013f57602036600319011261013f57600435805f52600160205260405f2090805f52600260205261053860ff60405f205416610c68565b335f908152600360209081526040808320938352929052908120805491905560048201546105669082610cec565b918247106105f55760058101928354908082106105c7575f8080838861059f8396888b61059860038d01918254610cdf565b9055610cdf565b90558181156105be575b3390f1156105b357005b6040513d5f823e3d90fd5b506108fc6105a9565b60405162461bcd60e51b815260206004820152600660248201526536b0b933b4b760d11b6044820152606490fd5b60405162461bcd60e51b815260206004820152600660248201526534b739b7b63b60d11b6044820152606490fd5b3461013f57602036600319011261013f576004355f526002602052602060ff60405f2054166040519015158152f35b3461013f57604036600319011261013f576004356001600160a01b03811680910361013f575f52600360205260405f206024355f52602052602060405f2054604051908152f35b3461013f57602036600319011261013f57600435805f52600160205260405f2090600282015442106108af57805f52600260205260ff60405f20541661086a576040516303e0818560e61b81526020816004817f00000000000000000000000000000000000000000000000000000000000000006001600160a01b03165afa9081156105b3575f91610822575b50600183015480821161081a575b5082548082116107ec575b50505f52600260205260405f20600160ff19825416179055600481015415806107ba575b61076957005b5f8080600581940181815491558181156107b1575b6001600160a01b037f00000000000000000000000000000000000000000000000000000000000000001690f1156105b357005b506108fc61077e565b506001600160a01b037f0000000000000000000000000000000000000000000000000000000000000000163314610763565b6107f591610cdf565b633b9aca00810290808204633b9aca00149015171561043a576004830155828061073f565b905083610734565b905060203d602011610863575b601f8101601f1916820167ffffffffffffffff8111838210176103c05760209183916040528101031261013f575183610726565b503d61082f565b60405162461bcd60e51b815260206004820152600e60248201527f73657269657320736574746c65640000000000000000000000000000000000006044820152606490fd5b606460405162461bcd60e51b81526020600482015260046024820152630216578760e41b6044820152fd5b3461013f57602036600319011261013f57600435805f52600160205260405f20905f52600260205261091260ff60405f205416610c68565b60058101908154908115906109278215610ca0565b6003810154159081156109a8575b501561097d575f808093819382875582906107b1576001600160a01b037f00000000000000000000000000000000000000000000000000000000000000001690f1156105b357005b606460405162461bcd60e51b815260206004820152600460248201526337b832b760e11b6044820152fd5b60029150015462093a80810180911161043a57421184610935565b3461013f575f36600319011261013f575f8080806001600160a01b037f000000000000000000000000000000000000000000000000000000000000000016610a0c813314610c37565b6004549082600455828215610a24575bf1156105b357005b506108fc610a1c565b3461013f575f36600319011261013f576020600454604051908152f35b3461013f576020610a64610a5d36610c21565b9050610cff565b604051908152f35b3461013f575f36600319011261013f5760206040516001600160a01b037f0000000000000000000000000000000000000000000000000000000000000000168152f35b602036600319011261013f576004355f52600160205260405f20600281015415610ae557600501610ae1348254610cd2565b9055005b60405162461bcd60e51b8152602060048201526006602482015265189859081a5960d21b6044820152606490fd5b3461013f575f36600319011261013f5760206040516001600160a01b037f0000000000000000000000000000000000000000000000000000000000000000168152f35b3461013f57602036600319011261013f57600435805f52600160205260405f206001600160a01b037f00000000000000000000000000000000000000000000000000000000000000001691610bac833314610c37565b5f526002602052610bc360ff60405f205416610c68565b6004810154610bf6575f80809360058294019081549183831591610be78315610ca0565b558390610a2457f1156105b357005b60405162461bcd60e51b815260206004820152600360248201526249544d60e81b6044820152606490fd5b604090600319011261013f576004359060243590565b15610c3e57565b60405162461bcd60e51b8152602060048201526002602482015261217760f01b6044820152606490fd5b15610c6f57565b60405162461bcd60e51b81526020600482015260096024820152681d5b9cd95d1d1b195960ba1b6044820152606490fd5b15610ca757565b606460405162461bcd60e51b81526020600482015260046024820152636e6f6e6560e01b6044820152fd5b9190820180921161043a57565b9190820391821161043a57565b8181029291811591840414171561043a57565b610d0a904290610cdf565b5f54906402cb4178008202918083046402cb417800149015171561043a57670de0b6b3a7640000810290808204670de0b6b3a7640000149015171561043a57610e109004905f6003831115610dbf5750818060011c6001810180911161043a57905b838210610d8c575050670de0b6b3a764000091610d8891610cec565b0490565b909250828015610dab5780610da2918304610cd2565b60011c90610d6c565b634e487b7160e01b5f52601260045260245ffd5b610d8891670de0b6b3a76400009315610cec5760019150610cec56fea26469706673582212204d5ca684b9d2e3b03ff33b96bdd7def5e7f1cff232b15b5d8488dec18fa0269264736f6c634300081e0033","linkReferences":{}},"methodIdentifiers":{"F()":"28811f59","GRACE_PERIOD()":"c1a287e2","bal(address,uint256)":"9c4a5f14","buy(uint256,uint256)":"d6febde8","create(uint256,uint256,uint256,uint256,uint256)":"bb4fa5dd","exercise(uint256)":"b07f0a41","k()":"b4f40c61","premium(uint256,uint256)":"4eaba194","series(uint256)":"dc22cb6a","seriesSettled(uint256)":"a7290e83","settle(uint256)":"8df82800","sweepMargin(uint256)":"80da9522","topUpMargin(uint256)":"42d863d6","withdrawMargin(uint256)":"0cea7534","withdrawPremiums()":"6193cdfb","writer()":"453a2abc","writerPremiumEscrow()":"5043ef2d"},"id":2}