{"abi":[{"type":"constructor","inputs":[{"name":"feeOracle","type":"address","internalType":"address"}],"stateMutability":"payable"},{"type":"function","name":"F","inputs":[],"outputs":[{"name":"","type":"address","internalType":"contract IBlobBaseFee"}],"stateMutability":"view"},{"type":"function","name":"GRACE_PERIOD","inputs":[],"outputs":[{"name":"","type":"uint256","internalType":"uint256"}],"stateMutability":"view"},{"type":"function","name":"SETTLE_BOUNTY_BP","inputs":[],"outputs":[{"name":"","type":"uint256","internalType":"uint256"}],"stateMutability":"view"},{"type":"function","name":"bal","inputs":[{"name":"","type":"address","internalType":"address"},{"name":"","type":"uint256","internalType":"uint256"}],"outputs":[{"name":"","type":"uint256","internalType":"uint256"}],"stateMutability":"view"},{"type":"function","name":"buy","inputs":[{"name":"id","type":"uint256","internalType":"uint256"},{"name":"qty","type":"uint256","internalType":"uint256"}],"outputs":[],"stateMutability":"payable"},{"type":"function","name":"create","inputs":[{"name":"id","type":"uint256","internalType":"uint256"},{"name":"strikeGwei","type":"uint256","internalType":"uint256"},{"name":"capGwei","type":"uint256","internalType":"uint256"},{"name":"expiry","type":"uint256","internalType":"uint256"},{"name":"maxSold","type":"uint256","internalType":"uint256"}],"outputs":[],"stateMutability":"payable"},{"type":"function","name":"exercise","inputs":[{"name":"id","type":"uint256","internalType":"uint256"}],"outputs":[],"stateMutability":"nonpayable"},{"type":"function","name":"k","inputs":[],"outputs":[{"name":"","type":"uint256","internalType":"uint256"}],"stateMutability":"view"},{"type":"function","name":"premCollected","inputs":[{"name":"","type":"uint256","internalType":"uint256"}],"outputs":[{"name":"","type":"uint256","internalType":"uint256"}],"stateMutability":"view"},{"type":"function","name":"premium","inputs":[{"name":"strike","type":"uint256","internalType":"uint256"},{"name":"expiry","type":"uint256","internalType":"uint256"}],"outputs":[{"name":"","type":"uint256","internalType":"uint256"}],"stateMutability":"view"},{"type":"function","name":"series","inputs":[{"name":"","type":"uint256","internalType":"uint256"}],"outputs":[{"name":"strike","type":"uint256","internalType":"uint256"},{"name":"cap","type":"uint256","internalType":"uint256"},{"name":"expiry","type":"uint256","internalType":"uint256"},{"name":"sold","type":"uint256","internalType":"uint256"},{"name":"payWei","type":"uint256","internalType":"uint256"},{"name":"margin","type":"uint256","internalType":"uint256"},{"name":"maxSold","type":"uint256","internalType":"uint256"}],"stateMutability":"view"},{"type":"function","name":"seriesSettled","inputs":[{"name":"","type":"uint256","internalType":"uint256"}],"outputs":[{"name":"","type":"bool","internalType":"bool"}],"stateMutability":"view"},{"type":"function","name":"settle","inputs":[{"name":"id","type":"uint256","internalType":"uint256"}],"outputs":[],"stateMutability":"nonpayable"},{"type":"function","name":"sweepMargin","inputs":[{"name":"id","type":"uint256","internalType":"uint256"}],"outputs":[],"stateMutability":"nonpayable"},{"type":"function","name":"topUpMargin","inputs":[{"name":"id","type":"uint256","internalType":"uint256"}],"outputs":[],"stateMutability":"payable"},{"type":"function","name":"unlockTs","inputs":[{"name":"","type":"uint256","internalType":"uint256"}],"outputs":[{"name":"","type":"uint256","internalType":"uint256"}],"stateMutability":"view"},{"type":"function","name":"withdrawMargin","inputs":[{"name":"id","type":"uint256","internalType":"uint256"}],"outputs":[],"stateMutability":"nonpayable"},{"type":"function","name":"withdrawPremium","inputs":[{"name":"id","type":"uint256","internalType":"uint256"}],"outputs":[],"stateMutability":"nonpayable"},{"type":"function","name":"writer","inputs":[],"outputs":[{"name":"","type":"address","internalType":"address"}],"stateMutability":"view"},{"type":"event","name":"PayCapped","inputs":[{"name":"id","type":"uint256","indexed":true,"internalType":"uint256"},{"name":"rawWei","type":"uint256","indexed":false,"internalType":"uint256"},{"name":"capWei","type":"uint256","indexed":false,"internalType":"uint256"}],"anonymous":false},{"type":"event","name":"SettleBounty","inputs":[{"name":"id","type":"uint256","indexed":true,"internalType":"uint256"},{"name":"caller","type":"address","indexed":true,"internalType":"address"},{"name":"bountyWei","type":"uint256","indexed":false,"internalType":"uint256"}],"anonymous":false},{"type":"error","name":"ReentrancyGuardReentrantCall","inputs":[]}],"bytecode":{"object":"0x60c0601f61111738819003918201601f19168301916001600160401b038311848410176100b8578084926020946040528339810103126100b457516001600160a01b038116908190036100b45760015f556618de76816d80006001553360805260a05260405161104a90816100cd8239608051818181610343015281816108aa015281816108f301528181610b1401528181610bfa01528181610ce30152610dae015260a05181818161078d0152610ca10152f35b5f80fd5b634e487b7160e01b5f52604160045260245ffdfe60806040526004361015610011575f80fd5b5f3560e01c80630cea753414610d845780631f01664a14610cc557806328811f5914610c8257806342d863d614610c1e578063453a2abc14610bdb5780634eaba19414610bb95780635f770c3c14610b8f57806380da952214610a995780638df828001461072b5780639c4a5f14146106e4578063a7290e83146106b5578063b07f0a4114610592578063b4f40c6114610575578063bb4fa5dd14610325578063be9ebe6d1461030a578063c1a287e2146102ee578063d6febde814610183578063dc22cb6a146101185763fb49efc1146100ea575f80fd5b34610114576020366003190112610114576004355f526006602052602060405f2054604051908152f35b5f80fd5b34610114576020366003190112610114576004355f52600260205260e060405f20805490600181015490600281015460038201546004830154916006600585015494015494604051968752602087015260408601526060850152608084015260a083015260c0820152f35b61018c36610e4f565b815f52600260205260405f206002810154804210156102c357826101b26101b792610f4b565b610f1a565b340361029657600381019081549060066101d18584610f00565b9101541061026657826101e391610f00565b9055335f52600460205260405f20825f5260205261020660405f20918254610f00565b9055805f52600560205260405f2061021f348254610f00565b9055805f52600660205260405f20541561023557005b610e10420190814211610252575f52600660205260405f20555f80f35b634e487b7160e01b5f52601160045260245ffd5b60405162461bcd60e51b81526020600482015260086024820152671bdd995c9cd95b1b60c21b6044820152606490fd5b60405162461bcd60e51b8152602060048201526005602482015264217072656d60d81b6044820152606490fd5b60405162461bcd60e51b815260206004820152600360248201526206578760ec1b6044820152606490fd5b34610114575f3660031901126101145760206040516154608152f35b34610114575f366003190112610114576020604051600a8152f35b60a036600319011261011457604435602435608435600435610371337f00000000000000000000000000000000000000000000000000000000000000006001600160a01b031614610e65565b805f52600260205260405f205461054757828411156105145760646103968486610f0d565b116104e0576103a58385610f0d565b633b9aca00810290808204633b9aca00149015171561025257826103c891610f1a565b68056bc75e2d6310000081116104af57341061047a576040519360e085019385851067ffffffffffffffff8611176104665760069460405285526020850190815260408501606435815260608601905f825260808701925f845260a088019434865260c089019687525f52600260205260405f2097518855516001880155516002870155516003860155516004850155516005840155519101555f80f35b634e487b7160e01b5f52604160045260245ffd5b60405162461bcd60e51b815260206004820152600d60248201526c34b739bab3331036b0b933b4b760991b6044820152606490fd5b60405162461bcd60e51b81526020600482015260096024820152686c696162696c69747960b81b6044820152606490fd5b60405162461bcd60e51b815260206004820152600c60248201526b0c6c2e040e8dede40d0d2ced60a31b6044820152606490fd5b60405162461bcd60e51b815260206004820152600b60248201526a6361703c3d737472696b6560a81b6044820152606490fd5b60405162461bcd60e51b815260206004820152600660248201526565786973747360d01b6044820152606490fd5b34610114575f366003190112610114576020600154604051908152f35b3461011457602036600319011261011457600435805f52600260205260405f2090805f5260036020526105cb60ff60405f205416610e96565b335f9081526004602081815260408084209484529390529181208054919055908201546105f89082610f1a565b91824710610687576005810192835490808210610659575f808083886106318396888b61062a60038d01918254610f0d565b9055610f0d565b9055818115610650575b3390f11561064557005b6040513d5f823e3d90fd5b506108fc61063b565b60405162461bcd60e51b815260206004820152600660248201526536b0b933b4b760d11b6044820152606490fd5b60405162461bcd60e51b815260206004820152600660248201526534b739b7b63b60d11b6044820152606490fd5b34610114576020366003190112610114576004355f526003602052602060ff60405f2054166040519015158152f35b34610114576040366003190112610114576004356001600160a01b038116809103610114575f52600460205260405f206024355f52602052602060405f2054604051908152f35b346101145760203660031901126101145760043560025f5414610a8a5760025f55805f52600260205260405f209060028201544210610a5f57805f52600360205260ff60405f205416610a1a576040516303e0818560e61b81526020816004817f00000000000000000000000000000000000000000000000000000000000000006001600160a01b03165afa908115610645575f916109d2575b5060018301548082116109ca575b508254808211156109c1576107e791610f0d565b633b9aca00810290808204633b9aca00149015171561025257905b80600384015480155f146109ad57505f925b8381119384156109a65780945b6004870195865561096e575b50505047600a810290808204600a149015171561025257612710900490805f52600360205260405f20600160ff198254161790558115801561091a575b5050505415806108e8575b610880575b60015f55005b5f80806005819401805490478083116108e0575b508290558181156108d7575b6001600160a01b037f00000000000000000000000000000000000000000000000000000000000000001690f115610645578061087a565b506108fc6108a0565b915082610894565b506001600160a01b037f0000000000000000000000000000000000000000000000000000000000000000163314610875565b82905f90610965575b5f80809381933390f115610645576040519182527fa8771a67c56919613ce2ba5d4a7425d832742950434c76c75350869f8e62a2d060203393a382808061086a565b506108fc610923565b7f5fca269afe7ca6a5bdfca5d4b118ee769a28288eb191ac6aee2a3af389bfb3aa9160409182519182526020820152a280848061082d565b8194610821565b6109bb906005860154610f2d565b92610814565b50505f90610802565b9050836107d3565b905060203d602011610a13575b601f8101601f1916820167ffffffffffffffff811183821017610466576020918391604052810103126101145751836107c5565b503d6109df565b60405162461bcd60e51b815260206004820152600e60248201527f73657269657320736574746c65640000000000000000000000000000000000006044820152606490fd5b606460405162461bcd60e51b81526020600482015260046024820152630216578760e41b6044820152fd5b633ee5aeb560e01b5f5260045ffd5b3461011457602036600319011261011457600435805f52600260205260405f20905f526003602052610ad160ff60405f205416610e96565b6005810190815490811590610ae68215610ece565b600381015415908115610b75575b5015610b46575f80809381938287558290610b3d575b6001600160a01b037f00000000000000000000000000000000000000000000000000000000000000001690f11561064557005b506108fc610b0a565b60405162461bcd60e51b815260206004820152600760248201526670656e64696e6760c81b6044820152606490fd5b600291500154615460810180911161025257421184610af4565b34610114576020366003190112610114576004355f526005602052602060405f2054604051908152f35b34610114576020610bd3610bcc36610e4f565b9050610f4b565b604051908152f35b34610114575f3660031901126101145760206040516001600160a01b037f0000000000000000000000000000000000000000000000000000000000000000168152f35b6020366003190112610114576004355f52600260205260405f20600281015415610c5457600501610c50348254610f00565b9055005b60405162461bcd60e51b8152602060048201526006602482015265189859081a5960d21b6044820152606490fd5b34610114575f3660031901126101145760206040516001600160a01b037f0000000000000000000000000000000000000000000000000000000000000000168152f35b34610114576020366003190112610114576004356001600160a01b037f000000000000000000000000000000000000000000000000000000000000000016610d0e813314610e65565b815f52600660205260405f20544210610d56575f828152600560205260408120805490829055909182918291829190828215610d4d575bf11561064557005b506108fc610d45565b60405162461bcd60e51b8152602060048201526006602482015265657363726f7760d01b6044820152606490fd5b3461011457602036600319011261011457600435805f52600260205260405f206001600160a01b037f00000000000000000000000000000000000000000000000000000000000000001691610dda833314610e65565b5f526003602052610df160ff60405f205416610e96565b6004810154610e24575f80809360058294019081549183831591610e158315610ece565b558390610d4d57f11561064557005b60405162461bcd60e51b815260206004820152600360248201526249544d60e81b6044820152606490fd5b6040906003190112610114576004359060243590565b15610e6c57565b60405162461bcd60e51b8152602060048201526002602482015261217760f01b6044820152606490fd5b15610e9d57565b60405162461bcd60e51b81526020600482015260096024820152681d5b9cd95d1d1b195960ba1b6044820152606490fd5b15610ed557565b606460405162461bcd60e51b81526020600482015260046024820152636e6f6e6560e01b6044820152fd5b9190820180921161025257565b9190820391821161025257565b8181029291811591840414171561025257565b8115610f37570490565b634e487b7160e01b5f52601260045260245ffd5b610f56904290610f0d565b600154906402cb4178008202918083046402cb417800149015171561025257670de0b6b3a7640000810290808204670de0b6b3a7640000149015171561025257610e109004905f6003831115610ff85750818060011c6001810180911161025257905b838210610fd9575050670de0b6b3a764000091610fd591610f1a565b0490565b909250610fef83610fea8184610f2d565b610f00565b60011c90610fb9565b610fd591670de0b6b3a76400009315610f1a5760019150610f1a56fea2646970667358221220244499b3f77d65a5d856041ad00340dcd483bb4abd6d9a0a7c6beb7eaffaec4964736f6c634300081e0033","linkReferences":{}},"methodIdentifiers":{"F()":"28811f59","GRACE_PERIOD()":"c1a287e2","SETTLE_BOUNTY_BP()":"be9ebe6d","bal(address,uint256)":"9c4a5f14","buy(uint256,uint256)":"d6febde8","create(uint256,uint256,uint256,uint256,uint256)":"bb4fa5dd","exercise(uint256)":"b07f0a41","k()":"b4f40c61","premCollected(uint256)":"5f770c3c","premium(uint256,uint256)":"4eaba194","series(uint256)":"dc22cb6a","seriesSettled(uint256)":"a7290e83","settle(uint256)":"8df82800","sweepMargin(uint256)":"80da9522","topUpMargin(uint256)":"42d863d6","unlockTs(uint256)":"fb49efc1","withdrawMargin(uint256)":"0cea7534","withdrawPremium(uint256)":"1f01664a","writer()":"453a2abc"},"id":2}