{"abi":[{"type":"constructor","inputs":[{"name":"feeOracle","type":"address","internalType":"address"}],"stateMutability":"nonpayable"},{"type":"receive","stateMutability":"payable"},{"type":"function","name":"F","inputs":[],"outputs":[{"name":"","type":"address","internalType":"contract IBlobBaseFee"}],"stateMutability":"view"},{"type":"function","name":"GRACE_PERIOD","inputs":[],"outputs":[{"name":"","type":"uint256","internalType":"uint256"}],"stateMutability":"pure"},{"type":"function","name":"SETTLE_BOUNTY_BP","inputs":[],"outputs":[{"name":"","type":"uint256","internalType":"uint256"}],"stateMutability":"pure"},{"type":"function","name":"bal","inputs":[{"name":"","type":"address","internalType":"address"},{"name":"","type":"uint256","internalType":"uint256"}],"outputs":[{"name":"","type":"uint256","internalType":"uint256"}],"stateMutability":"view"},{"type":"function","name":"buy","inputs":[{"name":"id","type":"uint256","internalType":"uint256"},{"name":"num","type":"uint256","internalType":"uint256"}],"outputs":[],"stateMutability":"payable"},{"type":"function","name":"create","inputs":[{"name":"id","type":"uint256","internalType":"uint256"},{"name":"strike","type":"uint256","internalType":"uint256"},{"name":"cap","type":"uint256","internalType":"uint256"},{"name":"expiry","type":"uint256","internalType":"uint256"},{"name":"maxSold","type":"uint256","internalType":"uint256"}],"outputs":[],"stateMutability":"payable"},{"type":"function","name":"exercise","inputs":[{"name":"id","type":"uint256","internalType":"uint256"},{"name":"num","type":"uint256","internalType":"uint256"}],"outputs":[],"stateMutability":"nonpayable"},{"type":"function","name":"intrinsic","inputs":[{"name":"strike","type":"uint256","internalType":"uint256"}],"outputs":[{"name":"","type":"uint256","internalType":"uint256"}],"stateMutability":"view"},{"type":"function","name":"k","inputs":[],"outputs":[{"name":"","type":"uint256","internalType":"uint256"}],"stateMutability":"view"},{"type":"function","name":"pause","inputs":[{"name":"p","type":"bool","internalType":"bool"}],"outputs":[],"stateMutability":"nonpayable"},{"type":"function","name":"paused","inputs":[],"outputs":[{"name":"","type":"bool","internalType":"bool"}],"stateMutability":"view"},{"type":"function","name":"premCollected","inputs":[{"name":"","type":"uint256","internalType":"uint256"}],"outputs":[{"name":"","type":"uint256","internalType":"uint256"}],"stateMutability":"view"},{"type":"function","name":"premium","inputs":[{"name":"strike","type":"uint256","internalType":"uint256"},{"name":"expiry","type":"uint256","internalType":"uint256"}],"outputs":[{"name":"","type":"uint256","internalType":"uint256"}],"stateMutability":"view"},{"type":"function","name":"series","inputs":[{"name":"","type":"uint256","internalType":"uint256"}],"outputs":[{"name":"writer","type":"address","internalType":"address"},{"name":"strike","type":"uint256","internalType":"uint256"},{"name":"cap","type":"uint256","internalType":"uint256"},{"name":"expiry","type":"uint256","internalType":"uint256"},{"name":"sold","type":"uint256","internalType":"uint256"},{"name":"payWei","type":"uint256","internalType":"uint256"},{"name":"margin","type":"uint256","internalType":"uint256"},{"name":"paidOut","type":"bool","internalType":"bool"}],"stateMutability":"view"},{"type":"function","name":"seriesMaxSold","inputs":[{"name":"","type":"uint256","internalType":"uint256"}],"outputs":[{"name":"","type":"uint256","internalType":"uint256"}],"stateMutability":"view"},{"type":"function","name":"seriesSettled","inputs":[{"name":"","type":"uint256","internalType":"uint256"}],"outputs":[{"name":"","type":"bool","internalType":"bool"}],"stateMutability":"view"},{"type":"function","name":"settle","inputs":[{"name":"id","type":"uint256","internalType":"uint256"}],"outputs":[],"stateMutability":"nonpayable"},{"type":"function","name":"unlockTs","inputs":[{"name":"","type":"uint256","internalType":"uint256"}],"outputs":[{"name":"","type":"uint256","internalType":"uint256"}],"stateMutability":"view"},{"type":"function","name":"withdrawMargin","inputs":[{"name":"id","type":"uint256","internalType":"uint256"}],"outputs":[],"stateMutability":"nonpayable"},{"type":"function","name":"withdrawPremium","inputs":[{"name":"id","type":"uint256","internalType":"uint256"}],"outputs":[],"stateMutability":"nonpayable"},{"type":"function","name":"writer","inputs":[],"outputs":[{"name":"","type":"address","internalType":"address"}],"stateMutability":"view"},{"type":"event","name":"PayCapped","inputs":[{"name":"id","type":"uint256","indexed":true,"internalType":"uint256"},{"name":"rawWei","type":"uint256","indexed":false,"internalType":"uint256"},{"name":"capWei","type":"uint256","indexed":false,"internalType":"uint256"}],"anonymous":false},{"type":"event","name":"Purchase","inputs":[{"name":"id","type":"uint256","indexed":true,"internalType":"uint256"},{"name":"buyer","type":"address","indexed":true,"internalType":"address"},{"name":"qty","type":"uint256","indexed":false,"internalType":"uint256"},{"name":"timeValue","type":"uint256","indexed":false,"internalType":"uint256"},{"name":"intrinsic","type":"uint256","indexed":false,"internalType":"uint256"}],"anonymous":false},{"type":"event","name":"SettleBounty","inputs":[{"name":"id","type":"uint256","indexed":true,"internalType":"uint256"},{"name":"caller","type":"address","indexed":true,"internalType":"address"},{"name":"bountyWei","type":"uint256","indexed":false,"internalType":"uint256"}],"anonymous":false},{"type":"error","name":"ReentrancyGuardReentrantCall","inputs":[]}],"bytecode":{"object":"0x60a0346100a857601f610fe338819003918201601f19168301916001600160401b038311848410176100ac578084926020946040528339810103126100a857516001600160a01b038116908190036100a85760015f819055653faa25226000905560088054610100600160a81b03191633821b610100600160a81b0316179055608052604051610f2290816100c1823960805181818161073801528181610b5d0152610e4c0152f35b5f80fd5b634e487b7160e01b5f52604160045260245ffdfe608080604052600436101561001c575b50361561001a575f80fd5b005b5f3560e01c90816302329a2914610d5c575080630cea753414610ca25780631f01664a14610b8157806328811f5914610b3e5780633adc9f1e14610b14578063453a2abc14610aeb5780634eaba19414610ac55780635c38a1fb14610a9f5780635c975abb14610a7d5780635f770c3c14610a535780638df82800146109455780639c4a5f14146108fe578063a7290e83146108cf578063a86265bb1461069e578063b4f40c6114610681578063bb4fa5dd14610476578063be9ebe6d1461045b578063c1a287e21461043f578063d6febde8146101c2578063dc22cb6a1461013d5763fb49efc11461010f575f61000f565b34610139576020366003190112610139576004355f526007602052602060405f2054604051908152f35b5f80fd5b34610139576020366003190112610139576004355f52600260205261010060405f206001600160a01b03815416906001810154906002810154600382015460048301549060058401549260ff600760068701549601541695604051978852602088015260408701526060860152608085015260a084015260c0830152151560e0820152f35b6101cb36610dd1565b9060ff6008541661041157805f52600260205260405f206001600160a01b03815416156103df57600381018054909161012b1982018281116103cb57421161038657600481019182549161021f8784610e07565b865f52600460205260405f2054106103565786610264600161026993019361025e6102586102508754934290610de7565b600154610df4565b91610e36565b90610e07565b610df4565b3403610323576102d26102506102db926102ea9561028a8a61025897610e07565b9055335f52600560205260405f20885f5260205260405f206102ad8a8254610e07565b9055875f52600660205260405f206102c6348254610e07565b90555495429054610de7565b61025e85610e36565b6102e484610e36565b90610de7565b90604051938452602084015260408301527f275f7c93f7842d147750d649c372d858ce20bda3ca095824ba8afdc22fb6910660603393a3005b60405162461bcd60e51b815260206004820152600b60248201526a6261642d7072656d69756d60a81b6044820152606490fd5b60405162461bcd60e51b81526020600482015260086024820152671cdbdb190b5bdd5d60c21b6044820152606490fd5b60405162461bcd60e51b815260206004820152600f60248201527f746f6f2d6c6174652d746f2d62757900000000000000000000000000000000006044820152606490fd5b634e487b7160e01b5f52601160045260245ffd5b60405162461bcd60e51b815260206004820152600a6024820152696261642d73657269657360b01b6044820152606490fd5b60405162461bcd60e51b81526020600482015260066024820152651c185d5cd95960d21b6044820152606490fd5b34610139575f366003190112610139576020604051610e108152f35b34610139575f36600319011261013957602060405160648152f35b60a0366003190112610139576004356024359060643591815f5260026020526001600160a01b0360405f20541661064c57801561061c57610e1042018042116103cb5783106105ec5734156105bb5760405161010081019080821067ffffffffffffffff8311176105a7576007916040523381526020810192835260408101604435815260608201868152608083015f815260a08401915f835260c085019334855260e08601975f8952895f5260026020526001600160a01b0360405f209751166001600160a01b0319885416178755516001870155516002860155516003850155516004840155516005830155516006820155019051151560ff80198354169116179055805f52600460205260843560405f2055610e1082018092116103cb575f52600760205260405f20555f80f35b634e487b7160e01b5f52604160045260245ffd5b60405162461bcd60e51b8152602060048201526009602482015268373796b6b0b933b4b760b91b6044820152606490fd5b60405162461bcd60e51b81526020600482015260086024820152673a37b796b9b7b7b760c11b6044820152606490fd5b60405162461bcd60e51b8152602060048201526008602482015267302d737472696b6560c01b6044820152606490fd5b60405162461bcd60e51b815260206004820152600d60248201526c7365726965732d65786973747360981b6044820152606490fd5b34610139575f366003190112610139576020600154604051908152f35b34610139576106ac36610dd1565b9060025f54146108c05760025f55805f52600260205260405f20916001600160a01b03835416156103df57600383015442106105ec57335f52600560205260405f20825f526020528060405f20541061087b57335f52600560205260405f20825f5260205260405f20610720828254610de7565b90556040516303e0818560e61b8152926020846004817f00000000000000000000000000000000000000000000000000000000000000006001600160a01b03165afa9283156107c6575f93610845575b5f94508493849384936107b09385936001830154918282116107da575b5050506107a9600561079f8585610df4565b9201918254610e07565b9055610df4565b8181156107d1575b3390f1156107c65760015f55005b6040513d5f823e3d90fd5b506108fc6107b8565b909194506107e88583610de7565b946002840154908187116107fd575b5061078d565b7f5fca269afe7ca6a5bdfca5d4b118ee769a28288eb191ac6aee2a3af389bfb3aa92939650906108306040928298610de7565b9082519182526020820152a2888080806107f7565b92506020843d602011610873575b8161086060209383610e14565b810103126101395792515f939092610770565b3d9150610853565b60405162461bcd60e51b815260206004820152601460248201527f696e73756666696369656e742d62616c616e63650000000000000000000000006044820152606490fd5b633ee5aeb560e01b5f5260045ffd5b34610139576020366003190112610139576004355f526003602052602060ff60405f2054166040519015158152f35b34610139576040366003190112610139576004356001600160a01b038116809103610139575f52600560205260405f206024355f52602052602060405f2054604051908152f35b3461013957602036600319011261013957600435805f52600260205260405f206001600160a01b03815416156103df57815f52600360205260ff60405f205416610a0e576003810154610e1081018091116103cb5742106105ec576006606491835f52600360205260405f20600160ff1982541617905501540490815f8115610a05575b5f80809381933390f1156107c6576040519182527fa8771a67c56919613ce2ba5d4a7425d832742950434c76c75350869f8e62a2d060203393a3005b506108fc6109c9565b60405162461bcd60e51b815260206004820152600f60248201527f616c72656164792d736574746c656400000000000000000000000000000000006044820152606490fd5b34610139576020366003190112610139576004355f526006602052602060405f2054604051908152f35b34610139575f36600319011261013957602060ff600854166040519015158152f35b34610139576020366003190112610139576020610abd600435610e36565b604051908152f35b34610139576020610abd61025061025e610258610ae136610dd1565b9390934290610de7565b34610139575f3660031901126101395760206001600160a01b0360085460081c16604051908152f35b34610139576020366003190112610139576004355f526004602052602060405f2054604051908152f35b34610139575f3660031901126101395760206040516001600160a01b037f0000000000000000000000000000000000000000000000000000000000000000168152f35b3461013957602036600319011261013957600435805f52600260205260405f206001600160a01b038154163303610c7057815f52600760205260405f20544210610c42576007019081549160ff8316610c125760ff19831660011790555f908152600660205260408120805490829055819081908190818115610c09575b3390f1156107c657005b506108fc610bff565b60405162461bcd60e51b81526020600482015260086024820152671c185a590b5bdd5d60c21b6044820152606490fd5b60405162461bcd60e51b81526020600482015260066024820152651b1bd8dad95960d21b6044820152606490fd5b60405162461bcd60e51b815260206004820152600a6024820152693737ba16bbb934ba32b960b11b6044820152606490fd5b3461013957602036600319011261013957600435805f52600260205260405f20906001600160a01b038254163303610c70575f52600360205260ff60405f20541615610d29576006810190815480156105bb575f8080610d1881946064610d10600589868c55015483610de7565b910490610de7565b818115610c09573390f1156107c657005b60405162461bcd60e51b815260206004820152600b60248201526a1b9bdd0b5cd95d1d1b195960aa1b6044820152606490fd5b346101395760203660031901126101395760043580151580910361013957600854916001600160a01b038360081c163303610da2575060ff169060ff1916176008555f80f35b62461bcd60e51b815260206004820152600a6024820152693737ba16bbb934ba32b960b11b6044820152606490fd5b6040906003190112610139576004359060243590565b919082039182116103cb57565b818102929181159184041417156103cb57565b919082018092116103cb57565b90601f8019910116810190811067ffffffffffffffff8211176105a757604052565b6040516303e0818560e61b8152906020826004817f00000000000000000000000000000000000000000000000000000000000000006001600160a01b03165afa9182156107c6575f92610eb8575b5080821115610eb257610e9691610de7565b633b9aca00810290808204633b9aca0014901517156103cb5790565b50505f90565b9091506020813d602011610ee4575b81610ed460209383610e14565b810103126101395751905f610e84565b3d9150610ec756fea2646970667358221220b00128ffe1d1f544411ef9258e52af201c3c473e46fbae281035685d4f21a49b64736f6c634300081e0033","linkReferences":{}},"methodIdentifiers":{"F()":"28811f59","GRACE_PERIOD()":"c1a287e2","SETTLE_BOUNTY_BP()":"be9ebe6d","bal(address,uint256)":"9c4a5f14","buy(uint256,uint256)":"d6febde8","create(uint256,uint256,uint256,uint256,uint256)":"bb4fa5dd","exercise(uint256,uint256)":"a86265bb","intrinsic(uint256)":"5c38a1fb","k()":"b4f40c61","pause(bool)":"02329a29","paused()":"5c975abb","premCollected(uint256)":"5f770c3c","premium(uint256,uint256)":"4eaba194","series(uint256)":"dc22cb6a","seriesMaxSold(uint256)":"3adc9f1e","seriesSettled(uint256)":"a7290e83","settle(uint256)":"8df82800","unlockTs(uint256)":"fb49efc1","withdrawMargin(uint256)":"0cea7534","withdrawPremium(uint256)":"1f01664a","writer()":"453a2abc"},"id":2}