{"abi":[{"type":"constructor","inputs":[{"name":"feeOracle","type":"address","internalType":"address"}],"stateMutability":"payable"},{"type":"function","name":"F","inputs":[],"outputs":[{"name":"","type":"address","internalType":"contract IBlobBaseFee"}],"stateMutability":"view"},{"type":"function","name":"GRACE_PERIOD","inputs":[],"outputs":[{"name":"","type":"uint256","internalType":"uint256"}],"stateMutability":"view"},{"type":"function","name":"SETTLE_BOUNTY_BP","inputs":[],"outputs":[{"name":"","type":"uint256","internalType":"uint256"}],"stateMutability":"view"},{"type":"function","name":"bal","inputs":[{"name":"","type":"address","internalType":"address"},{"name":"","type":"uint256","internalType":"uint256"}],"outputs":[{"name":"","type":"uint256","internalType":"uint256"}],"stateMutability":"view"},{"type":"function","name":"buy","inputs":[{"name":"id","type":"uint256","internalType":"uint256"},{"name":"qty","type":"uint256","internalType":"uint256"}],"outputs":[],"stateMutability":"payable"},{"type":"function","name":"create","inputs":[{"name":"id","type":"uint256","internalType":"uint256"},{"name":"strikeGwei","type":"uint256","internalType":"uint256"},{"name":"capGwei","type":"uint256","internalType":"uint256"},{"name":"expiry","type":"uint256","internalType":"uint256"},{"name":"maxSold","type":"uint256","internalType":"uint256"}],"outputs":[],"stateMutability":"payable"},{"type":"function","name":"exercise","inputs":[{"name":"id","type":"uint256","internalType":"uint256"}],"outputs":[],"stateMutability":"nonpayable"},{"type":"function","name":"k","inputs":[],"outputs":[{"name":"","type":"uint256","internalType":"uint256"}],"stateMutability":"view"},{"type":"function","name":"premCollected","inputs":[{"name":"","type":"uint256","internalType":"uint256"}],"outputs":[{"name":"","type":"uint256","internalType":"uint256"}],"stateMutability":"view"},{"type":"function","name":"premium","inputs":[{"name":"strike","type":"uint256","internalType":"uint256"},{"name":"expiry","type":"uint256","internalType":"uint256"}],"outputs":[{"name":"","type":"uint256","internalType":"uint256"}],"stateMutability":"view"},{"type":"function","name":"series","inputs":[{"name":"","type":"uint256","internalType":"uint256"}],"outputs":[{"name":"strike","type":"uint256","internalType":"uint256"},{"name":"cap","type":"uint256","internalType":"uint256"},{"name":"expiry","type":"uint256","internalType":"uint256"},{"name":"sold","type":"uint256","internalType":"uint256"},{"name":"payWei","type":"uint256","internalType":"uint256"},{"name":"margin","type":"uint256","internalType":"uint256"},{"name":"maxSold","type":"uint256","internalType":"uint256"}],"stateMutability":"view"},{"type":"function","name":"seriesSettled","inputs":[{"name":"","type":"uint256","internalType":"uint256"}],"outputs":[{"name":"","type":"bool","internalType":"bool"}],"stateMutability":"view"},{"type":"function","name":"settle","inputs":[{"name":"id","type":"uint256","internalType":"uint256"}],"outputs":[],"stateMutability":"nonpayable"},{"type":"function","name":"sweepMargin","inputs":[{"name":"id","type":"uint256","internalType":"uint256"}],"outputs":[],"stateMutability":"nonpayable"},{"type":"function","name":"topUpMargin","inputs":[{"name":"id","type":"uint256","internalType":"uint256"}],"outputs":[],"stateMutability":"payable"},{"type":"function","name":"unlockTs","inputs":[{"name":"","type":"uint256","internalType":"uint256"}],"outputs":[{"name":"","type":"uint256","internalType":"uint256"}],"stateMutability":"view"},{"type":"function","name":"withdrawMargin","inputs":[{"name":"id","type":"uint256","internalType":"uint256"}],"outputs":[],"stateMutability":"nonpayable"},{"type":"function","name":"withdrawPremium","inputs":[{"name":"id","type":"uint256","internalType":"uint256"}],"outputs":[],"stateMutability":"nonpayable"},{"type":"function","name":"writer","inputs":[],"outputs":[{"name":"","type":"address","internalType":"address"}],"stateMutability":"view"},{"type":"event","name":"PayCapped","inputs":[{"name":"id","type":"uint256","indexed":true,"internalType":"uint256"},{"name":"rawWei","type":"uint256","indexed":false,"internalType":"uint256"},{"name":"capWei","type":"uint256","indexed":false,"internalType":"uint256"}],"anonymous":false},{"type":"event","name":"SettleBounty","inputs":[{"name":"id","type":"uint256","indexed":true,"internalType":"uint256"},{"name":"caller","type":"address","indexed":true,"internalType":"address"},{"name":"bountyWei","type":"uint256","indexed":false,"internalType":"uint256"}],"anonymous":false}],"bytecode":{"object":"0x60c0601f6110cb38819003918201601f19168301916001600160401b038311848410176100b3578084926020946040528339810103126100af57516001600160a01b038116908190036100af576618de76816d80005f553360805260a05260405161100390816100c8823960805181818161032f01528181610881015281816108c601528181610ad701528181610bb401528181610c9d0152610d68015260a05181818161076c0152610c5b0152f35b5f80fd5b634e487b7160e01b5f52604160045260245ffdfe60806040526004361015610011575f80fd5b5f3560e01c80630cea753414610d3e5780631f01664a14610c7f57806328811f5914610c3c57806342d863d614610bd8578063453a2abc14610b955780634eaba19414610b735780635f770c3c14610b4957806380da952214610a5d5780638df82800146107175780639c4a5f14146106d0578063a7290e83146106a1578063b07f0a411461057d578063b4f40c6114610561578063bb4fa5dd14610311578063be9ebe6d146102f6578063c1a287e2146102da578063d6febde814610183578063dc22cb6a146101185763fb49efc1146100ea575f80fd5b34610114576020366003190112610114576004355f526005602052602060405f2054604051908152f35b5f80fd5b34610114576020366003190112610114576004355f52600160205260e060405f20805490600181015490600281015460038201546004830154916006600585015494015494604051968752602087015260408601526060850152608084015260a083015260c0820152f35b61018c36610e09565b815f52600160205260405f206002810154804210156102af57826101b26101b792610f05565b610ed4565b340361028257600381019081549060066101d18584610eba565b9101541061025257826101e391610eba565b9055335f52600360205260405f20825f5260205261020660405f20918254610eba565b9055805f52600460205260405f2061021f348254610eba565b9055610e1042019081421161023e575f52600560205260405f20555f80f35b634e487b7160e01b5f52601160045260245ffd5b60405162461bcd60e51b81526020600482015260086024820152671bdd995c9cd95b1b60c21b6044820152606490fd5b60405162461bcd60e51b8152602060048201526005602482015264217072656d60d81b6044820152606490fd5b60405162461bcd60e51b815260206004820152600360248201526206578760ec1b6044820152606490fd5b34610114575f3660031901126101145760206040516154608152f35b34610114575f366003190112610114576020604051600a8152f35b60a03660031901126101145760443560243560843560043561035d337f00000000000000000000000000000000000000000000000000000000000000006001600160a01b031614610e1f565b805f52600160205260405f205461053357828411156105005760646103828486610ec7565b116104cc576103918385610ec7565b633b9aca00810290808204633b9aca00149015171561023e57826103b491610ed4565b68056bc75e2d63100000811161049b573410610466576040519360e085019385851067ffffffffffffffff8611176104525760069460405285526020850190815260408501606435815260608601905f825260808701925f845260a088019434865260c089019687525f52600160205260405f2097518855516001880155516002870155516003860155516004850155516005840155519101555f80f35b634e487b7160e01b5f52604160045260245ffd5b60405162461bcd60e51b815260206004820152600d60248201526c34b739bab3331036b0b933b4b760991b6044820152606490fd5b60405162461bcd60e51b81526020600482015260096024820152686c696162696c69747960b81b6044820152606490fd5b60405162461bcd60e51b815260206004820152600c60248201526b0c6c2e040e8dede40d0d2ced60a31b6044820152606490fd5b60405162461bcd60e51b815260206004820152600b60248201526a6361703c3d737472696b6560a81b6044820152606490fd5b60405162461bcd60e51b815260206004820152600660248201526565786973747360d01b6044820152606490fd5b34610114575f3660031901126101145760205f54604051908152f35b3461011457602036600319011261011457600435805f52600160205260405f2090805f5260026020526105b660ff60405f205416610e50565b335f908152600360209081526040808320938352929052908120805491905560048201546105e49082610ed4565b91824710610673576005810192835490808210610645575f8080838861061d8396888b61061660038d01918254610ec7565b9055610ec7565b905581811561063c575b3390f11561063157005b6040513d5f823e3d90fd5b506108fc610627565b60405162461bcd60e51b815260206004820152600660248201526536b0b933b4b760d11b6044820152606490fd5b60405162461bcd60e51b815260206004820152600660248201526534b739b7b63b60d11b6044820152606490fd5b34610114576020366003190112610114576004355f526002602052602060ff60405f2054166040519015158152f35b34610114576040366003190112610114576004356001600160a01b038116809103610114575f52600360205260405f206024355f52602052602060405f2054604051908152f35b3461011457602036600319011261011457600435805f52600160205260405f209060028201544210610a3257805f52600260205260ff60405f2054166109ed576040516303e0818560e61b81526020816004817f00000000000000000000000000000000000000000000000000000000000000006001600160a01b03165afa908115610631575f916109a5575b50600183015480821161099d575b50825480821115610994576107c691610ec7565b633b9aca00810290808204633b9aca00149015171561023e57905b80600384015480155f1461098057505f925b8381119384156109795780945b60048701958655610941575b50505047600a810290808204600a149015171561023e576127109004801580156108ed575b50505f52600260205260405f20600160ff198254161790555415806108bb575b61085757005b5f80806005819401805490478083116108b3575b508290558181156108aa575b6001600160a01b037f00000000000000000000000000000000000000000000000000000000000000001690f11561063157005b506108fc610877565b91508261086b565b506001600160a01b037f0000000000000000000000000000000000000000000000000000000000000000163314610851565b81905f90610938575b5f80809381933390f11561063157604051908152817fa8771a67c56919613ce2ba5d4a7425d832742950434c76c75350869f8e62a2d060203393a38380610831565b506108fc6108f6565b7f5fca269afe7ca6a5bdfca5d4b118ee769a28288eb191ac6aee2a3af389bfb3aa9160409182519182526020820152a280848061080c565b8194610800565b61098e906005860154610ee7565b926107f3565b50505f906107e1565b9050836107b2565b905060203d6020116109e6575b601f8101601f1916820167ffffffffffffffff811183821017610452576020918391604052810103126101145751836107a4565b503d6109b2565b60405162461bcd60e51b815260206004820152600e60248201527f73657269657320736574746c65640000000000000000000000000000000000006044820152606490fd5b606460405162461bcd60e51b81526020600482015260046024820152630216578760e41b6044820152fd5b3461011457602036600319011261011457600435805f52600160205260405f20905f526002602052610a9560ff60405f205416610e50565b6005810190815490811590610aaa8215610e88565b600381015415908115610b2f575b5015610b00575f808093819382875582906108aa576001600160a01b037f00000000000000000000000000000000000000000000000000000000000000001690f11561063157005b60405162461bcd60e51b815260206004820152600760248201526670656e64696e6760c81b6044820152606490fd5b600291500154615460810180911161023e57421184610ab8565b34610114576020366003190112610114576004355f526004602052602060405f2054604051908152f35b34610114576020610b8d610b8636610e09565b9050610f05565b604051908152f35b34610114575f3660031901126101145760206040516001600160a01b037f0000000000000000000000000000000000000000000000000000000000000000168152f35b6020366003190112610114576004355f52600160205260405f20600281015415610c0e57600501610c0a348254610eba565b9055005b60405162461bcd60e51b8152602060048201526006602482015265189859081a5960d21b6044820152606490fd5b34610114575f3660031901126101145760206040516001600160a01b037f0000000000000000000000000000000000000000000000000000000000000000168152f35b34610114576020366003190112610114576004356001600160a01b037f000000000000000000000000000000000000000000000000000000000000000016610cc8813314610e1f565b815f52600560205260405f20544210610d10575f828152600460205260408120805490829055909182918291829190828215610d07575bf11561063157005b506108fc610cff565b60405162461bcd60e51b8152602060048201526006602482015265657363726f7760d01b6044820152606490fd5b3461011457602036600319011261011457600435805f52600160205260405f206001600160a01b037f00000000000000000000000000000000000000000000000000000000000000001691610d94833314610e1f565b5f526002602052610dab60ff60405f205416610e50565b6004810154610dde575f80809360058294019081549183831591610dcf8315610e88565b558390610d0757f11561063157005b60405162461bcd60e51b815260206004820152600360248201526249544d60e81b6044820152606490fd5b6040906003190112610114576004359060243590565b15610e2657565b60405162461bcd60e51b8152602060048201526002602482015261217760f01b6044820152606490fd5b15610e5757565b60405162461bcd60e51b81526020600482015260096024820152681d5b9cd95d1d1b195960ba1b6044820152606490fd5b15610e8f57565b606460405162461bcd60e51b81526020600482015260046024820152636e6f6e6560e01b6044820152fd5b9190820180921161023e57565b9190820391821161023e57565b8181029291811591840414171561023e57565b8115610ef1570490565b634e487b7160e01b5f52601260045260245ffd5b610f10904290610ec7565b5f54906402cb4178008202918083046402cb417800149015171561023e57670de0b6b3a7640000810290808204670de0b6b3a7640000149015171561023e57610e109004905f6003831115610fb15750818060011c6001810180911161023e57905b838210610f92575050670de0b6b3a764000091610f8e91610ed4565b0490565b909250610fa883610fa38184610ee7565b610eba565b60011c90610f72565b610f8e91670de0b6b3a76400009315610ed45760019150610ed456fea26469706673582212200783e5a09d69ad7a7dae96ff17fcf7d4473b65b2792fa41a85f1d37e355da9fd64736f6c634300081e0033","linkReferences":{}},"methodIdentifiers":{"F()":"28811f59","GRACE_PERIOD()":"c1a287e2","SETTLE_BOUNTY_BP()":"be9ebe6d","bal(address,uint256)":"9c4a5f14","buy(uint256,uint256)":"d6febde8","create(uint256,uint256,uint256,uint256,uint256)":"bb4fa5dd","exercise(uint256)":"b07f0a41","k()":"b4f40c61","premCollected(uint256)":"5f770c3c","premium(uint256,uint256)":"4eaba194","series(uint256)":"dc22cb6a","seriesSettled(uint256)":"a7290e83","settle(uint256)":"8df82800","sweepMargin(uint256)":"80da9522","topUpMargin(uint256)":"42d863d6","unlockTs(uint256)":"fb49efc1","withdrawMargin(uint256)":"0cea7534","withdrawPremium(uint256)":"1f01664a","writer()":"453a2abc"},"id":2}