{"abi":[{"type":"constructor","inputs":[{"name":"feeOracle","type":"address","internalType":"address"}],"stateMutability":"nonpayable"},{"type":"receive","stateMutability":"payable"},{"type":"function","name":"BUY_CUTOFF","inputs":[],"outputs":[{"name":"","type":"uint256","internalType":"uint256"}],"stateMutability":"view"},{"type":"function","name":"F","inputs":[],"outputs":[{"name":"","type":"address","internalType":"contract IBlobBaseFee"}],"stateMutability":"view"},{"type":"function","name":"GRACE_PERIOD","inputs":[],"outputs":[{"name":"","type":"uint256","internalType":"uint256"}],"stateMutability":"pure"},{"type":"function","name":"SETTLE_BOUNTY_BP","inputs":[],"outputs":[{"name":"","type":"uint256","internalType":"uint256"}],"stateMutability":"pure"},{"type":"function","name":"bal","inputs":[{"name":"","type":"address","internalType":"address"},{"name":"","type":"uint256","internalType":"uint256"}],"outputs":[{"name":"","type":"uint256","internalType":"uint256"}],"stateMutability":"view"},{"type":"function","name":"buy","inputs":[{"name":"id","type":"uint256","internalType":"uint256"},{"name":"num","type":"uint256","internalType":"uint256"}],"outputs":[],"stateMutability":"payable"},{"type":"function","name":"create","inputs":[{"name":"id","type":"uint256","internalType":"uint256"},{"name":"strike","type":"uint256","internalType":"uint256"},{"name":"cap","type":"uint256","internalType":"uint256"},{"name":"expiry","type":"uint256","internalType":"uint256"},{"name":"maxSold","type":"uint256","internalType":"uint256"}],"outputs":[],"stateMutability":"payable"},{"type":"function","name":"exercise","inputs":[{"name":"id","type":"uint256","internalType":"uint256"},{"name":"num","type":"uint256","internalType":"uint256"}],"outputs":[],"stateMutability":"nonpayable"},{"type":"function","name":"intrinsic","inputs":[{"name":"strike","type":"uint256","internalType":"uint256"}],"outputs":[{"name":"","type":"uint256","internalType":"uint256"}],"stateMutability":"view"},{"type":"function","name":"k","inputs":[],"outputs":[{"name":"","type":"uint256","internalType":"uint256"}],"stateMutability":"view"},{"type":"function","name":"owner","inputs":[],"outputs":[{"name":"","type":"address","internalType":"address"}],"stateMutability":"view"},{"type":"function","name":"pause","inputs":[{"name":"p","type":"bool","internalType":"bool"}],"outputs":[],"stateMutability":"nonpayable"},{"type":"function","name":"paused","inputs":[],"outputs":[{"name":"","type":"bool","internalType":"bool"}],"stateMutability":"view"},{"type":"function","name":"premCollected","inputs":[{"name":"","type":"uint256","internalType":"uint256"}],"outputs":[{"name":"","type":"uint256","internalType":"uint256"}],"stateMutability":"view"},{"type":"function","name":"premium","inputs":[{"name":"strike","type":"uint256","internalType":"uint256"},{"name":"expiry","type":"uint256","internalType":"uint256"}],"outputs":[{"name":"","type":"uint256","internalType":"uint256"}],"stateMutability":"view"},{"type":"function","name":"series","inputs":[{"name":"","type":"uint256","internalType":"uint256"}],"outputs":[{"name":"writer","type":"address","internalType":"address"},{"name":"strike","type":"uint256","internalType":"uint256"},{"name":"cap","type":"uint256","internalType":"uint256"},{"name":"expiry","type":"uint256","internalType":"uint256"},{"name":"sold","type":"uint256","internalType":"uint256"},{"name":"payoutPerUnit","type":"uint256","internalType":"uint256"},{"name":"margin","type":"uint256","internalType":"uint256"},{"name":"paidOut","type":"bool","internalType":"bool"}],"stateMutability":"view"},{"type":"function","name":"seriesMaxSold","inputs":[{"name":"","type":"uint256","internalType":"uint256"}],"outputs":[{"name":"","type":"uint256","internalType":"uint256"}],"stateMutability":"view"},{"type":"function","name":"seriesSettled","inputs":[{"name":"","type":"uint256","internalType":"uint256"}],"outputs":[{"name":"","type":"bool","internalType":"bool"}],"stateMutability":"view"},{"type":"function","name":"settle","inputs":[{"name":"id","type":"uint256","internalType":"uint256"}],"outputs":[],"stateMutability":"nonpayable"},{"type":"function","name":"transferOwnership","inputs":[{"name":"newOwner","type":"address","internalType":"address"}],"outputs":[],"stateMutability":"nonpayable"},{"type":"function","name":"unlockTs","inputs":[{"name":"","type":"uint256","internalType":"uint256"}],"outputs":[{"name":"","type":"uint256","internalType":"uint256"}],"stateMutability":"view"},{"type":"function","name":"withdrawMargin","inputs":[{"name":"id","type":"uint256","internalType":"uint256"}],"outputs":[],"stateMutability":"nonpayable"},{"type":"function","name":"withdrawPremium","inputs":[{"name":"id","type":"uint256","internalType":"uint256"}],"outputs":[],"stateMutability":"nonpayable"},{"type":"event","name":"PayCapped","inputs":[{"name":"id","type":"uint256","indexed":true,"internalType":"uint256"},{"name":"rawWei","type":"uint256","indexed":false,"internalType":"uint256"},{"name":"capWei","type":"uint256","indexed":false,"internalType":"uint256"}],"anonymous":false},{"type":"event","name":"Purchase","inputs":[{"name":"id","type":"uint256","indexed":true,"internalType":"uint256"},{"name":"buyer","type":"address","indexed":true,"internalType":"address"},{"name":"qty","type":"uint256","indexed":false,"internalType":"uint256"},{"name":"timeValue","type":"uint256","indexed":false,"internalType":"uint256"},{"name":"intrinsic","type":"uint256","indexed":false,"internalType":"uint256"}],"anonymous":false},{"type":"event","name":"SettleBounty","inputs":[{"name":"id","type":"uint256","indexed":true,"internalType":"uint256"},{"name":"caller","type":"address","indexed":true,"internalType":"address"},{"name":"bountyWei","type":"uint256","indexed":false,"internalType":"uint256"}],"anonymous":false},{"type":"error","name":"ReentrancyGuardReentrantCall","inputs":[]}],"bytecode":{"object":"0x60a0346100a257601f61134538819003918201601f19168301916001600160401b038311848410176100a6578084926020946040528339810103126100a257516001600160a01b038116908190036100a25760015f819055653faa252260009055600880546001600160a01b0319163317905560805260405161128a90816100bb82396080518181816109ae01528181610c8b0152818161103e01526111b40152f35b5f80fd5b634e487b7160e01b5f52604160045260245ffdfe6080604052600436101561001a575b3615610018575f80fd5b005b5f3560e01c806302329a2914610f065780630cea753414610dd05780631f01664a14610caf57806328811f5914610c6c5780633adc9f1e14610c425780633b2bea5114610c265780634eaba19414610c0d5780635c38a1fb14610be75780635c975abb14610bc25780635f770c3c14610b985780638da5cb5b14610b725780638df828001461092a5780639c4a5f14146108e6578063a7290e83146108b7578063a86265bb1461070e578063b4f40c61146106f1578063bb4fa5dd146104e6578063be9ebe6d146104cb578063c1a287e2146104af578063d6febde814610259578063dc22cb6a146101d4578063f2fde38b146101495763fb49efc10361000e5734610145576020366003190112610145576004355f526007602052602060405f2054604051908152f35b5f80fd5b3461014557602036600319011261014557610162610f6d565b6001600160a01b036008549161017b8284163314610f83565b169081156101a05773ffffffffffffffffffffffffffffffffffffffff191617600855005b60405162461bcd60e51b815260206004820152600c60248201526b7a65726f2d6164647265737360a01b6044820152606490fd5b34610145576020366003190112610145576004355f52600260205261010060405f206001600160a01b03815416906001810154906002810154600382015460048301549060058401549260ff600760068701549601541695604051978852602088015260408701526060860152608085015260a084015260c0830152151560e0820152f35b61026236610f57565b9060ff60085460a01c1661048157805f52600260205260405f206001600160a01b038154161561044f57600381018054909161012b19820182811161043b5742116103f65760048101908154906102b98783610fc7565b865f52600460205260405f2054106103c657866102de60016102e39301958654611016565b610fd4565b34036103935761035a92610354926102fe8861034594610fc7565b9055335f52600560205260405f20865f5260205260405f20610321888254610fc7565b9055855f52600660205260405f2061033a348254610fc7565b905554935484611016565b61034e8461119e565b90610fe7565b9161119e565b90604051938452602084015260408301527f275f7c93f7842d147750d649c372d858ce20bda3ca095824ba8afdc22fb6910660603393a3005b60405162461bcd60e51b815260206004820152600b60248201526a6261642d7072656d69756d60a81b6044820152606490fd5b60405162461bcd60e51b81526020600482015260086024820152671cdbdb190b5bdd5d60c21b6044820152606490fd5b60405162461bcd60e51b815260206004820152600f60248201527f746f6f2d6c6174652d746f2d62757900000000000000000000000000000000006044820152606490fd5b634e487b7160e01b5f52601160045260245ffd5b60405162461bcd60e51b815260206004820152600a6024820152696261642d73657269657360b01b6044820152606490fd5b60405162461bcd60e51b81526020600482015260066024820152651c185d5cd95960d21b6044820152606490fd5b34610145575f366003190112610145576020604051610e108152f35b34610145575f36600319011261014557602060405160648152f35b60a0366003190112610145576004356024359060643591815f5260026020526001600160a01b0360405f2054166106bc57801561068c57610e10420180421161043b57831061065c57341561062b5760405161010081019080821067ffffffffffffffff831117610617576007916040523381526020810192835260408101604435815260608201868152608083015f815260a08401915f835260c085019334855260e08601975f8952895f5260026020526001600160a01b0360405f209751166001600160a01b0319885416178755516001870155516002860155516003850155516004840155516005830155516006820155019051151560ff80198354169116179055805f52600460205260843560405f2055610e10820180921161043b575f52600760205260405f20555f80f35b634e487b7160e01b5f52604160045260245ffd5b60405162461bcd60e51b8152602060048201526009602482015268373796b6b0b933b4b760b91b6044820152606490fd5b60405162461bcd60e51b81526020600482015260086024820152673a37b796b9b7b7b760c11b6044820152606490fd5b60405162461bcd60e51b8152602060048201526008602482015267302d737472696b6560c01b6044820152606490fd5b60405162461bcd60e51b815260206004820152600d60248201526c7365726965732d65786973747360981b6044820152606490fd5b34610145575f366003190112610145576020600154604051908152f35b346101455761071c36610f57565b60025f54146108a85760025f55815f52600260205260405f20906001600160a01b038254161561044f57825f52600360205260ff60405f20541615610875576107686003830154610fb8565b421161083057335f52600560205260405f20835f526020528060405f2054106107eb575f80806107c18194600587893386528260205260408620908652602052604085206107b7848254610fe7565b9055015490610fd4565b8181156107e2575b3390f1156107d75760015f55005b6040513d5f823e3d90fd5b506108fc6107c9565b60405162461bcd60e51b815260206004820152601460248201527f696e73756666696369656e742d62616c616e63650000000000000000000000006044820152606490fd5b60405162461bcd60e51b815260206004820152601460248201527f746f6f2d6c6174652d746f2d65786572636973650000000000000000000000006044820152606490fd5b60405162461bcd60e51b815260206004820152600b60248201526a1b9bdd0b5cd95d1d1b195960aa1b6044820152606490fd5b633ee5aeb560e01b5f5260045ffd5b34610145576020366003190112610145576004355f526003602052602060ff60405f2054166040519015158152f35b34610145576040366003190112610145576001600160a01b03610907610f6d565b165f52600560205260405f206024355f52602052602060405f2054604051908152f35b3461014557602036600319011261014557600435805f52600260205260405f206001600160a01b038154161561044f57815f52600360205260ff60405f205416610b2d576003810154421061065c57815f52600360205260405f20600160ff19825416179055604051906303e0818560e61b82526020826004816001600160a01b037f0000000000000000000000000000000000000000000000000000000000000000165afa9182156107d7575f92610af9575b5060018101545f92818111610a4d575b5050806064926005600693015501540490815f8115610a44575b5f80809381933390f1156107d7576040519182527fa8771a67c56919613ce2ba5d4a7425d832742950434c76c75350869f8e62a2d060203393a3005b506108fc610a08565b909250610a5a8382610fe7565b633b9aca00810290808204633b9aca00149015171561043b5792600283015491828111610a88575b506109ee565b9092919350610a978385610fe7565b93633b9aca00850294808604633b9aca00149015171561043b577f5fca269afe7ca6a5bdfca5d4b118ee769a28288eb191ac6aee2a3af389bfb3aa60408792610ae560069760649996610fe7565b9082519182526020820152a2928192610a82565b9091506020813d602011610b25575b81610b1560209383610ff4565b81010312610145575190836109de565b3d9150610b08565b60405162461bcd60e51b815260206004820152600f60248201527f616c72656164792d736574746c656400000000000000000000000000000000006044820152606490fd5b34610145575f3660031901126101455760206001600160a01b0360085416604051908152f35b34610145576020366003190112610145576004355f526006602052602060405f2054604051908152f35b34610145575f36600319011261014557602060ff60085460a01c166040519015158152f35b34610145576020366003190112610145576020610c0560043561119e565b604051908152f35b34610145576020610c05610c2036610f57565b90611016565b34610145575f36600319011261014557602060405161012c8152f35b34610145576020366003190112610145576004355f526004602052602060405f2054604051908152f35b34610145575f3660031901126101455760206040516001600160a01b037f0000000000000000000000000000000000000000000000000000000000000000168152f35b3461014557602036600319011261014557600435805f52600260205260405f206001600160a01b038154163303610d9e57815f52600760205260405f20544210610d70576007019081549160ff8316610d405760ff19831660011790555f908152600660205260408120805490829055819081908190818115610d37575b3390f1156107d757005b506108fc610d2d565b60405162461bcd60e51b81526020600482015260086024820152671c185a590b5bdd5d60c21b6044820152606490fd5b60405162461bcd60e51b81526020600482015260066024820152651b1bd8dad95960d21b6044820152606490fd5b60405162461bcd60e51b815260206004820152600a6024820152693737ba16bbb934ba32b960b11b6044820152606490fd5b3461014557602036600319011261014557600435805f52600260205260405f20906001600160a01b038254163303610d9e575f52600360205260ff60405f2054161561087557610e236003820154610fb8565b4210610ed95760068101805491821561062b578060056004610e4a93015491015490610fd4565b906064830491610e5a8382610fc7565b8410610e9457610e74935f610e6f9355610fe7565b610fe7565b80158015610e7e57005b5f80809381938290610d37573390f1156107d757005b60405162461bcd60e51b815260206004820152601360248201527f696e73756666696369656e742d6d617267696e000000000000000000000000006044820152606490fd5b60405162461bcd60e51b8152602060048201526005602482015264677261636560d81b6044820152606490fd5b34610145576020366003190112610145576004358015158091036101455760085490610f3c6001600160a01b0383163314610f83565b60ff60a01b1990911660a09190911b60ff60a01b1617600855005b6040906003190112610145576004359060243590565b600435906001600160a01b038216820361014557565b15610f8a57565b60405162461bcd60e51b815260206004820152600660248201526510b7bbb732b960d11b6044820152606490fd5b90610e10820180921161043b57565b9190820180921161043b57565b8181029291811591840414171561043b57565b9190820391821161043b57565b90601f8019910116810190811067ffffffffffffffff82111761061757604052565b90611022904290610fe7565b8015611198576040516303e0818560e61b8152906020826004817f00000000000000000000000000000000000000000000000000000000000000006001600160a01b03165afa9182156107d7575f92611164575b50670de0b6b3a7640000916404a817c8008111611154575b640ba43b740010611144575b600154600382111561112257818060011c6001810180911161043b57905b8382106110ef5750506110df6110ec94936102de6110e694670de0b6b3a764000094610fd4565b049161119e565b90610fc7565b90565b90925082801561110e5780611105918304610fc7565b60011c906110b8565b634e487b7160e01b5f52601260045260245ffd5b6110e691506110df6110ec94936102de670de0b6b3a764000093600190610fd4565b673782dace9d900000915061109a565b671bc16d674ec80000925061108e565b9091506020813d602011611190575b8161118060209383610ff4565b810103126101455751905f611076565b3d9150611173565b506110ec905b6040516303e0818560e61b8152906020826004817f00000000000000000000000000000000000000000000000000000000000000006001600160a01b03165afa9182156107d7575f92611220575b508082111561121a576111fe91610fe7565b633b9aca00810290808204633b9aca00149015171561043b5790565b50505f90565b9091506020813d60201161124c575b8161123c60209383610ff4565b810103126101455751905f6111ec565b3d915061122f56fea264697066735822122015daf1884166aa871061dc4cc761d5ce3b4edc780d0d827700d5f41d2417c14b64736f6c634300081e0033","linkReferences":{}},"methodIdentifiers":{"BUY_CUTOFF()":"3b2bea51","F()":"28811f59","GRACE_PERIOD()":"c1a287e2","SETTLE_BOUNTY_BP()":"be9ebe6d","bal(address,uint256)":"9c4a5f14","buy(uint256,uint256)":"d6febde8","create(uint256,uint256,uint256,uint256,uint256)":"bb4fa5dd","exercise(uint256,uint256)":"a86265bb","intrinsic(uint256)":"5c38a1fb","k()":"b4f40c61","owner()":"8da5cb5b","pause(bool)":"02329a29","paused()":"5c975abb","premCollected(uint256)":"5f770c3c","premium(uint256,uint256)":"4eaba194","series(uint256)":"dc22cb6a","seriesMaxSold(uint256)":"3adc9f1e","seriesSettled(uint256)":"a7290e83","settle(uint256)":"8df82800","transferOwnership(address)":"f2fde38b","unlockTs(uint256)":"fb49efc1","withdrawMargin(uint256)":"0cea7534","withdrawPremium(uint256)":"1f01664a"},"id":1}