{"abi":[{"type":"constructor","inputs":[{"name":"feeOracle","type":"address","internalType":"address"}],"stateMutability":"payable"},{"type":"function","name":"F","inputs":[],"outputs":[{"name":"","type":"address","internalType":"contract IBlobBaseFee"}],"stateMutability":"view"},{"type":"function","name":"GRACE_PERIOD","inputs":[],"outputs":[{"name":"","type":"uint256","internalType":"uint256"}],"stateMutability":"view"},{"type":"function","name":"SETTLE_BOUNTY_BP","inputs":[],"outputs":[{"name":"","type":"uint256","internalType":"uint256"}],"stateMutability":"view"},{"type":"function","name":"bal","inputs":[{"name":"","type":"address","internalType":"address"},{"name":"","type":"uint256","internalType":"uint256"}],"outputs":[{"name":"","type":"uint256","internalType":"uint256"}],"stateMutability":"view"},{"type":"function","name":"buy","inputs":[{"name":"id","type":"uint256","internalType":"uint256"},{"name":"qty","type":"uint256","internalType":"uint256"}],"outputs":[],"stateMutability":"payable"},{"type":"function","name":"create","inputs":[{"name":"id","type":"uint256","internalType":"uint256"},{"name":"strikeGwei","type":"uint256","internalType":"uint256"},{"name":"capGwei","type":"uint256","internalType":"uint256"},{"name":"expiry","type":"uint256","internalType":"uint256"},{"name":"maxSold","type":"uint256","internalType":"uint256"}],"outputs":[],"stateMutability":"payable"},{"type":"function","name":"exercise","inputs":[{"name":"id","type":"uint256","internalType":"uint256"}],"outputs":[],"stateMutability":"nonpayable"},{"type":"function","name":"k","inputs":[],"outputs":[{"name":"","type":"uint256","internalType":"uint256"}],"stateMutability":"view"},{"type":"function","name":"optionCost","inputs":[{"name":"strike","type":"uint256","internalType":"uint256"},{"name":"expiry","type":"uint256","internalType":"uint256"}],"outputs":[{"name":"timeValue","type":"uint256","internalType":"uint256"},{"name":"intrinsic","type":"uint256","internalType":"uint256"}],"stateMutability":"view"},{"type":"function","name":"pause","inputs":[{"name":"p","type":"bool","internalType":"bool"}],"outputs":[],"stateMutability":"nonpayable"},{"type":"function","name":"paused","inputs":[],"outputs":[{"name":"","type":"bool","internalType":"bool"}],"stateMutability":"view"},{"type":"function","name":"premCollected","inputs":[{"name":"","type":"uint256","internalType":"uint256"}],"outputs":[{"name":"","type":"uint256","internalType":"uint256"}],"stateMutability":"view"},{"type":"function","name":"premium","inputs":[{"name":"strike","type":"uint256","internalType":"uint256"},{"name":"expiry","type":"uint256","internalType":"uint256"}],"outputs":[{"name":"","type":"uint256","internalType":"uint256"}],"stateMutability":"view"},{"type":"function","name":"series","inputs":[{"name":"","type":"uint256","internalType":"uint256"}],"outputs":[{"name":"strike","type":"uint256","internalType":"uint256"},{"name":"cap","type":"uint256","internalType":"uint256"},{"name":"expiry","type":"uint256","internalType":"uint256"},{"name":"sold","type":"uint256","internalType":"uint256"},{"name":"payWei","type":"uint256","internalType":"uint256"},{"name":"margin","type":"uint256","internalType":"uint256"}],"stateMutability":"view"},{"type":"function","name":"seriesMaxSold","inputs":[{"name":"","type":"uint256","internalType":"uint256"}],"outputs":[{"name":"","type":"uint256","internalType":"uint256"}],"stateMutability":"view"},{"type":"function","name":"seriesSettled","inputs":[{"name":"","type":"uint256","internalType":"uint256"}],"outputs":[{"name":"","type":"bool","internalType":"bool"}],"stateMutability":"view"},{"type":"function","name":"setK","inputs":[{"name":"newK","type":"uint256","internalType":"uint256"}],"outputs":[],"stateMutability":"nonpayable"},{"type":"function","name":"settle","inputs":[{"name":"id","type":"uint256","internalType":"uint256"}],"outputs":[],"stateMutability":"nonpayable"},{"type":"function","name":"sweepMargin","inputs":[{"name":"id","type":"uint256","internalType":"uint256"}],"outputs":[],"stateMutability":"nonpayable"},{"type":"function","name":"topUpMargin","inputs":[{"name":"id","type":"uint256","internalType":"uint256"}],"outputs":[],"stateMutability":"payable"},{"type":"function","name":"unlockTs","inputs":[{"name":"","type":"uint256","internalType":"uint256"}],"outputs":[{"name":"","type":"uint256","internalType":"uint256"}],"stateMutability":"view"},{"type":"function","name":"withdrawMargin","inputs":[{"name":"id","type":"uint256","internalType":"uint256"}],"outputs":[],"stateMutability":"nonpayable"},{"type":"function","name":"withdrawPremium","inputs":[{"name":"id","type":"uint256","internalType":"uint256"}],"outputs":[],"stateMutability":"nonpayable"},{"type":"function","name":"writer","inputs":[],"outputs":[{"name":"","type":"address","internalType":"address"}],"stateMutability":"view"},{"type":"event","name":"PayCapped","inputs":[{"name":"id","type":"uint256","indexed":true,"internalType":"uint256"},{"name":"rawWei","type":"uint256","indexed":false,"internalType":"uint256"},{"name":"capWei","type":"uint256","indexed":false,"internalType":"uint256"}],"anonymous":false},{"type":"event","name":"Purchase","inputs":[{"name":"id","type":"uint256","indexed":true,"internalType":"uint256"},{"name":"buyer","type":"address","indexed":true,"internalType":"address"},{"name":"qty","type":"uint256","indexed":false,"internalType":"uint256"},{"name":"timeValue","type":"uint256","indexed":false,"internalType":"uint256"},{"name":"intrinsic","type":"uint256","indexed":false,"internalType":"uint256"}],"anonymous":false},{"type":"event","name":"SettleBounty","inputs":[{"name":"id","type":"uint256","indexed":true,"internalType":"uint256"},{"name":"caller","type":"address","indexed":true,"internalType":"address"},{"name":"bountyWei","type":"uint256","indexed":false,"internalType":"uint256"}],"anonymous":false},{"type":"error","name":"ReentrancyGuardReentrantCall","inputs":[]}],"bytecode":{"object":"0x60c0601f61153438819003918201601f19168301916001600160401b038311848410176100cc578084926020946040528339810103126100c857516001600160a01b038116908190036100c85760015f55653faa252260006001553360805260a05260405161145390816100e182396080518181816103f401528181610982015281816109bf01528181610b9401528181610c9801528181610d5601528181610e8701528181610f6e0152611041015260a05181818161087901528181610e3601526112a40152f35b5f80fd5b634e487b7160e01b5f52604160045260245ffdfe60806040526004361015610011575f80fd5b5f3560e01c806302329a29146110165780630cea753414610f345780631f01664a14610e5a57806328811f5914610e175780633adc9f1e14610ded57806342d863d614610d7a578063453a2abc14610d375780634eaba19414610d135780635c975abb14610cf15780635f770c3c14610cc757806367de8be914610c6b57806380da952214610b5a57806388f927eb14610b355780638df828001461080e5780639c4a5f14146107c7578063a7290e8314610798578063b07f0a411461067a578063b4f40c611461065d578063bb4fa5dd146103d3578063be9ebe6d146103b8578063c1a287e21461039b578063d6febde8146101b0578063dc22cb6a1461014f5763fb49efc114610121575f80fd5b3461014b57602036600319011261014b576004355f526007602052602060405f2054604051908152f35b5f80fd5b3461014b57602036600319011261014b576004355f52600260205260c060405f2080549060018101549060028101546003820154906005600484015493015493604051958652602086015260408501526060840152608083015260a0820152f35b6101b93661107a565b6101c860ff60085416156110c4565b815f52600260205260405f2061012c42018042116102e357600282015480911015610356576101f8908254611201565b9161020c846102078585611162565b6111ae565b34036103295760030180546102218582611162565b865f52600460205260405f2054106102f7578461023d91611162565b9055335f52600560205260405f20845f5260205260405f20610260848254611162565b905560405192835260208301526040820152817f275f7c93f7842d147750d649c372d858ce20bda3ca095824ba8afdc22fb6910660603393a3805f52600660205260405f206102b0348254611162565b9055805f52600760205260405f2054156102c657005b610e104201908142116102e3575f52600760205260405f20555f80f35b634e487b7160e01b5f52601160045260245ffd5b60405162461bcd60e51b815260206004820152600a6024820152691cdbdb190f9b1a5b5a5d60b21b6044820152606490fd5b60405162461bcd60e51b8152602060048201526005602482015264217072656d60d81b6044820152606490fd5b60405162461bcd60e51b815260206004820152600f60248201527f746f6f2d6c6174652d746f2d62757900000000000000000000000000000000006044820152606490fd5b3461014b575f36600319011261014b576020604051620151808152f35b3461014b575f36600319011261014b576020604051600a8152f35b60a036600319011261014b57608435600435606435602435604435610422337f00000000000000000000000000000000000000000000000000000000000000006001600160a01b0316146110f9565b835f52600260205260405f205461062f57428311156105fd57818111156105ca57606461044f83836111a1565b116105965761045e82826111a1565b633b9aca00810290808204633b9aca0014901517156102e35785610481916111ae565b68056bc75e2d631000008111610565573410610530576040519260c084019284841067ffffffffffffffff85111761051c5760059360405284526020840191825260408401908152606084015f815260808501915f835260a0860193348552875f52600260205260405f2096518755516001870155516002860155516003850155516004840155519101555f52600460205260405f20555f80f35b634e487b7160e01b5f52604160045260245ffd5b60405162461bcd60e51b815260206004820152600d60248201526c34b739bab3331036b0b933b4b760991b6044820152606490fd5b60405162461bcd60e51b81526020600482015260096024820152686c696162696c69747960b81b6044820152606490fd5b60405162461bcd60e51b815260206004820152600c60248201526b0c6c2e040e8dede40d0d2ced60a31b6044820152606490fd5b60405162461bcd60e51b815260206004820152600b60248201526a6361703c3d737472696b6560a81b6044820152606490fd5b60405162461bcd60e51b815260206004820152600a6024820152696261642d65787069727960b01b6044820152606490fd5b60405162461bcd60e51b815260206004820152600660248201526565786973747360d01b6044820152606490fd5b3461014b575f36600319011261014b576020600154604051908152f35b3461014b57602036600319011261014b5760043561069661137f565b6106a560ff60085416156110c4565b805f52600260205260405f2090805f5260036020526106ca60ff60405f20541661112a565b335f908152600560209081526040808320938352929052908120805491905560048201546106f890826111ae565b9081471061076a57600583019081549383851061073c576107369461072e9261072760038794019182546111a1565b90556111a1565b90553361139d565b60015f55005b60405162461bcd60e51b815260206004820152600660248201526536b0b933b4b760d11b6044820152606490fd5b60405162461bcd60e51b815260206004820152600660248201526534b739b7b63b60d11b6044820152606490fd5b3461014b57602036600319011261014b576004355f526003602052602060ff60405f2054166040519015158152f35b3461014b57604036600319011261014b576004356001600160a01b03811680910361014b575f52600560205260405f206024355f52602052602060405f2054604051908152f35b3461014b57602036600319011261014b5760043561082a61137f565b61083960ff60085416156110c4565b805f52600260205260405f2060028101544210610b0a57815f52600360205260ff60405f205416610ac5576040516303e0818560e61b81526020816004817f00000000000000000000000000000000000000000000000000000000000000006001600160a01b03165afa908115610aba575f91610a88575b506001820154808211610a80575b50815480821115610a75576108d3916111a1565b633b9aca00810290808204633b9aca0014901517156102e357600590915b83600382015480155f14610a6257505f935b848111948515610a5b5780955b60048501968755610a23575b50505001918254600a810290808204600a14901517156102e357612710900490805f52600360205260405f20600160ff19825416179055816109e6575b50505415806109b4575b61096d5760015f55005b80546109a691478083116109ac575b505f90557f000000000000000000000000000000000000000000000000000000000000000061139d565b80610736565b91505f61097c565b506001600160a01b037f0000000000000000000000000000000000000000000000000000000000000000163314610963565b6109f0823361139d565b6040519182527fa8771a67c56919613ce2ba5d4a7425d832742950434c76c75350869f8e62a2d060203393a38280610959565b7f5fca269afe7ca6a5bdfca5d4b118ee769a28288eb191ac6aee2a3af389bfb3aa9160409182519182526020820152a283858061091c565b8195610910565b610a6f90848401546111c1565b93610903565b505060055f916108f1565b9050836108bf565b90506020813d602011610ab2575b81610aa3602093836111df565b8101031261014b5751836108b1565b3d9150610a96565b6040513d5f823e3d90fd5b60405162461bcd60e51b815260206004820152600e60248201527f73657269657320736574746c65640000000000000000000000000000000000006044820152606490fd5b606460405162461bcd60e51b81526020600482015260046024820152630216578760e41b6044820152fd5b3461014b576040610b4e610b483661107a565b90611201565b82519182526020820152f35b3461014b57602036600319011261014b57600435610b7661137f565b610b8560ff60085416156110c4565b805f52600260205260405f20907f0000000000000000000000000000000000000000000000000000000000000000906001600160a01b0382163303610c3c575f526003602052610bdb60ff60405f20541661112a565b60028201546201518081018091116102e357421115610c115760056107369201905f825492610c0b84151561116f565b5561139d565b60405162461bcd60e51b815260206004820152600360248201526249544d60e81b6044820152606490fd5b60405162461bcd60e51b815260206004820152600760248201526610bbb934ba32b960c91b6044820152606490fd5b3461014b57602036600319011261014b57610c8b60ff60085416156110c4565b610cbf6001600160a01b037f0000000000000000000000000000000000000000000000000000000000000000163314611090565b600435600155005b3461014b57602036600319011261014b576004355f526006602052602060405f2054604051908152f35b3461014b575f36600319011261014b57602060ff600854166040519015158152f35b3461014b576020610d2f610d29610b483661107a565b90611162565b604051908152f35b3461014b575f36600319011261014b5760206040516001600160a01b037f0000000000000000000000000000000000000000000000000000000000000000168152f35b602036600319011261014b57610d9560ff60085416156110c4565b6004355f52600260205260405f20600281015415610dbf57600501610dbb348254611162565b9055005b60405162461bcd60e51b8152602060048201526006602482015265189859081a5960d21b6044820152606490fd5b3461014b57602036600319011261014b576004355f526004602052602060405f2054604051908152f35b3461014b575f36600319011261014b5760206040516001600160a01b037f0000000000000000000000000000000000000000000000000000000000000000168152f35b3461014b57602036600319011261014b57600435610e7661137f565b610e8560ff60085416156110c4565b7f000000000000000000000000000000000000000000000000000000000000000090610ebb6001600160a01b0383163314611090565b805f52600760205260405f2054151580610f1e575b15610ef0575f90815260066020526040812080549190556107369161139d565b60405162461bcd60e51b81526020600482015260066024820152651b1bd8dad95960d21b6044820152606490fd5b50805f52600760205260405f2054421015610ed0565b3461014b57602036600319011261014b57600435610f5061137f565b610f5f60ff60085416156110c4565b805f52600260205260405f20907f000000000000000000000000000000000000000000000000000000000000000090610fa26001600160a01b03831633146110f9565b5f526003602052610fb960ff60405f20541661112a565b60028201546201518081018091116102e357421115610fe95760056107369201905f825492610c0b84151561116f565b60405162461bcd60e51b8152602060048201526005602482015264677261636560d81b6044820152606490fd5b3461014b57602036600319011261014b5760043580151580910361014b576110686001600160a01b037f0000000000000000000000000000000000000000000000000000000000000000163314611090565b60ff8019600854169116176008555f80f35b604090600319011261014b576004359060243590565b1561109757565b60405162461bcd60e51b8152602060048201526005602482015264042c2eae8d60db1b6044820152606490fd5b156110cb57565b60405162461bcd60e51b81526020600482015260066024820152651c185d5cd95960d21b6044820152606490fd5b1561110057565b60405162461bcd60e51b8152602060048201526002602482015261217760f01b6044820152606490fd5b1561113157565b60405162461bcd60e51b81526020600482015260096024820152681d5b9cd95d1d1b195960ba1b6044820152606490fd5b919082018092116102e357565b1561117657565b606460405162461bcd60e51b81526020600482015260046024820152636e6f6e6560e01b6044820152fd5b919082039182116102e357565b818102929181159184041417156102e357565b81156111cb570490565b634e487b7160e01b5f52601260045260245ffd5b90601f8019910116810190811067ffffffffffffffff82111761051c57604052565b919061120e9042906111a1565b600154906307270e008202918083046307270e0014901517156102e357670de0b6b3a7640000810290808204670de0b6b3a764000014901517156102e357610e109004905f60038311156113635750818060011c600181018091116102e357905b838210611344575050670de0b6b3a76400009161128b916111ae565b6040516303e0818560e61b8152919004926020826004817f00000000000000000000000000000000000000000000000000000000000000006001600160a01b03165afa918215610aba575f92611310575b508082111561130a576112ee916111a1565b633b9aca00810290808204633b9aca0014901517156102e35790565b50505f90565b9091506020813d60201161133c575b8161132c602093836111df565b8101031261014b5751905f6112dc565b3d915061131f565b90925061135a8361135581846111c1565b611162565b60011c9061126f565b61128b91670de0b6b3a764000093156111ae57600191506111ae565b60025f541461138e5760025f55565b633ee5aeb560e01b5f5260045ffd5b5f8080936001600160a01b038294165af13d15611418573d67ffffffffffffffff811161051c57604051906113dc601f8201601f1916602001836111df565b81525f60203d92013e5b156113ed57565b606460405162461bcd60e51b81526020600482015260046024820152633c3332b960e11b6044820152fd5b6113e656fea26469706673582212209fe1fb6d3e6d2a55133b69f0b324d70065bebc1ea4ac51af24face42209f4b1364736f6c634300081e0033","linkReferences":{}},"methodIdentifiers":{"F()":"28811f59","GRACE_PERIOD()":"c1a287e2","SETTLE_BOUNTY_BP()":"be9ebe6d","bal(address,uint256)":"9c4a5f14","buy(uint256,uint256)":"d6febde8","create(uint256,uint256,uint256,uint256,uint256)":"bb4fa5dd","exercise(uint256)":"b07f0a41","k()":"b4f40c61","optionCost(uint256,uint256)":"88f927eb","pause(bool)":"02329a29","paused()":"5c975abb","premCollected(uint256)":"5f770c3c","premium(uint256,uint256)":"4eaba194","series(uint256)":"dc22cb6a","seriesMaxSold(uint256)":"3adc9f1e","seriesSettled(uint256)":"a7290e83","setK(uint256)":"67de8be9","settle(uint256)":"8df82800","sweepMargin(uint256)":"80da9522","topUpMargin(uint256)":"42d863d6","unlockTs(uint256)":"fb49efc1","withdrawMargin(uint256)":"0cea7534","withdrawPremium(uint256)":"1f01664a","writer()":"453a2abc"},"id":2}