{"abi":[{"type":"constructor","inputs":[{"name":"feeOracle","type":"address","internalType":"address"}],"stateMutability":"nonpayable"},{"type":"receive","stateMutability":"payable"},{"type":"function","name":"BUY_CUTOFF","inputs":[],"outputs":[{"name":"","type":"uint256","internalType":"uint256"}],"stateMutability":"view"},{"type":"function","name":"F","inputs":[],"outputs":[{"name":"","type":"address","internalType":"contract IBlobBaseFee"}],"stateMutability":"view"},{"type":"function","name":"GRACE_PERIOD","inputs":[],"outputs":[{"name":"","type":"uint256","internalType":"uint256"}],"stateMutability":"pure"},{"type":"function","name":"SETTLE_BOUNTY_BP","inputs":[],"outputs":[{"name":"","type":"uint256","internalType":"uint256"}],"stateMutability":"pure"},{"type":"function","name":"bal","inputs":[{"name":"","type":"address","internalType":"address"},{"name":"","type":"uint256","internalType":"uint256"}],"outputs":[{"name":"","type":"uint256","internalType":"uint256"}],"stateMutability":"view"},{"type":"function","name":"buy","inputs":[{"name":"id","type":"uint256","internalType":"uint256"},{"name":"num","type":"uint256","internalType":"uint256"}],"outputs":[],"stateMutability":"payable"},{"type":"function","name":"create","inputs":[{"name":"id","type":"uint256","internalType":"uint256"},{"name":"strike","type":"uint256","internalType":"uint256"},{"name":"cap","type":"uint256","internalType":"uint256"},{"name":"expiry","type":"uint256","internalType":"uint256"},{"name":"maxSold","type":"uint256","internalType":"uint256"}],"outputs":[],"stateMutability":"payable"},{"type":"function","name":"exercise","inputs":[{"name":"id","type":"uint256","internalType":"uint256"},{"name":"num","type":"uint256","internalType":"uint256"}],"outputs":[],"stateMutability":"nonpayable"},{"type":"function","name":"intrinsic","inputs":[{"name":"strike","type":"uint256","internalType":"uint256"}],"outputs":[{"name":"","type":"uint256","internalType":"uint256"}],"stateMutability":"view"},{"type":"function","name":"k","inputs":[],"outputs":[{"name":"","type":"uint256","internalType":"uint256"}],"stateMutability":"view"},{"type":"function","name":"owner","inputs":[],"outputs":[{"name":"","type":"address","internalType":"address"}],"stateMutability":"view"},{"type":"function","name":"pause","inputs":[{"name":"p","type":"bool","internalType":"bool"}],"outputs":[],"stateMutability":"nonpayable"},{"type":"function","name":"paused","inputs":[],"outputs":[{"name":"","type":"bool","internalType":"bool"}],"stateMutability":"view"},{"type":"function","name":"premCollected","inputs":[{"name":"","type":"uint256","internalType":"uint256"}],"outputs":[{"name":"","type":"uint256","internalType":"uint256"}],"stateMutability":"view"},{"type":"function","name":"premium","inputs":[{"name":"strike","type":"uint256","internalType":"uint256"},{"name":"expiry","type":"uint256","internalType":"uint256"}],"outputs":[{"name":"","type":"uint256","internalType":"uint256"}],"stateMutability":"view"},{"type":"function","name":"series","inputs":[{"name":"","type":"uint256","internalType":"uint256"}],"outputs":[{"name":"writer","type":"address","internalType":"address"},{"name":"strike","type":"uint256","internalType":"uint256"},{"name":"cap","type":"uint256","internalType":"uint256"},{"name":"expiry","type":"uint256","internalType":"uint256"},{"name":"sold","type":"uint256","internalType":"uint256"},{"name":"payoutPerUnit","type":"uint256","internalType":"uint256"},{"name":"margin","type":"uint256","internalType":"uint256"},{"name":"paidOut","type":"bool","internalType":"bool"}],"stateMutability":"view"},{"type":"function","name":"seriesMaxSold","inputs":[{"name":"","type":"uint256","internalType":"uint256"}],"outputs":[{"name":"","type":"uint256","internalType":"uint256"}],"stateMutability":"view"},{"type":"function","name":"seriesSettled","inputs":[{"name":"","type":"uint256","internalType":"uint256"}],"outputs":[{"name":"","type":"bool","internalType":"bool"}],"stateMutability":"view"},{"type":"function","name":"settle","inputs":[{"name":"id","type":"uint256","internalType":"uint256"}],"outputs":[],"stateMutability":"nonpayable"},{"type":"function","name":"transferOwnership","inputs":[{"name":"newOwner","type":"address","internalType":"address"}],"outputs":[],"stateMutability":"nonpayable"},{"type":"function","name":"unlockTs","inputs":[{"name":"","type":"uint256","internalType":"uint256"}],"outputs":[{"name":"","type":"uint256","internalType":"uint256"}],"stateMutability":"view"},{"type":"function","name":"withdrawMargin","inputs":[{"name":"id","type":"uint256","internalType":"uint256"}],"outputs":[],"stateMutability":"nonpayable"},{"type":"function","name":"withdrawPremium","inputs":[{"name":"id","type":"uint256","internalType":"uint256"}],"outputs":[],"stateMutability":"nonpayable"},{"type":"event","name":"PayCapped","inputs":[{"name":"id","type":"uint256","indexed":true,"internalType":"uint256"},{"name":"rawWei","type":"uint256","indexed":false,"internalType":"uint256"},{"name":"capWei","type":"uint256","indexed":false,"internalType":"uint256"}],"anonymous":false},{"type":"event","name":"Purchase","inputs":[{"name":"id","type":"uint256","indexed":true,"internalType":"uint256"},{"name":"buyer","type":"address","indexed":true,"internalType":"address"},{"name":"qty","type":"uint256","indexed":false,"internalType":"uint256"},{"name":"timeValue","type":"uint256","indexed":false,"internalType":"uint256"},{"name":"intrinsic","type":"uint256","indexed":false,"internalType":"uint256"}],"anonymous":false},{"type":"event","name":"SettleBounty","inputs":[{"name":"id","type":"uint256","indexed":true,"internalType":"uint256"},{"name":"caller","type":"address","indexed":true,"internalType":"address"},{"name":"bountyWei","type":"uint256","indexed":false,"internalType":"uint256"}],"anonymous":false},{"type":"error","name":"ReentrancyGuardReentrantCall","inputs":[]}],"bytecode":{"object":"0x60a0346100a257601f61143738819003918201601f19168301916001600160401b038311848410176100a6578084926020946040528339810103126100a257516001600160a01b038116908190036100a25760015f819055653faa252260009055600880546001600160a01b0319163317905560805260405161137c90816100bb8239608051818181610a9501528181610d720152818161113001526112a60152f35b5f80fd5b634e487b7160e01b5f52604160045260245ffdfe6080604052600436101561001a575b3615610018575f80fd5b005b5f3560e01c806302329a2914610fac5780630cea753414610eb75780631f01664a14610d9657806328811f5914610d535780633adc9f1e14610d295780633b2bea5114610d0d5780634eaba19414610cf45780635c38a1fb14610cce5780635c975abb14610ca95780635f770c3c14610c7f5780638da5cb5b14610c595780638df8280014610a115780639c4a5f14146109cd578063a7290e831461099e578063a86265bb146107f5578063b4f40c61146107d8578063bb4fa5dd1461051c578063be9ebe6d14610501578063c1a287e2146104e5578063d6febde814610259578063dc22cb6a146101d4578063f2fde38b146101495763fb49efc10361000e5734610145576020366003190112610145576004355f526007602052602060405f2054604051908152f35b5f80fd5b3461014557602036600319011261014557610162611013565b6001600160a01b036008549161017b8284163314611029565b169081156101a05773ffffffffffffffffffffffffffffffffffffffff191617600855005b60405162461bcd60e51b815260206004820152600c60248201526b7a65726f2d6164647265737360a01b6044820152606490fd5b34610145576020366003190112610145576004355f52600260205261010060405f206001600160a01b03815416906001810154906002810154600382015460048301549060058401549260ff600760068701549601541695604051978852602088015260408701526060860152608085015260a084015260c0830152151560e0820152f35b61026236610ffd565b9060ff60085460a01c166104b757805f52600260205260405f206001600160a01b038154161561048557600381018054909161012b19820182811161047157421161042c5784156103fc5760048101908154906102bf878361106d565b865f52600460205260405f2054106103cc57866102e460016102e99301958654611108565b61107a565b3403610399576103609261035a926103048861034b9461106d565b9055335f52600560205260405f20865f5260205260405f2061032788825461106d565b9055855f52600660205260405f2061034034825461106d565b905554935484611108565b61035484611290565b906110d9565b91611290565b90604051938452602084015260408301527f275f7c93f7842d147750d649c372d858ce20bda3ca095824ba8afdc22fb6910660603393a3005b60405162461bcd60e51b815260206004820152600b60248201526a6261642d7072656d69756d60a81b6044820152606490fd5b60405162461bcd60e51b81526020600482015260086024820152671cdbdb190b5bdd5d60c21b6044820152606490fd5b60405162461bcd60e51b81526020600482015260086024820152677a65726f2d71747960c01b6044820152606490fd5b60405162461bcd60e51b815260206004820152600f60248201527f746f6f2d6c6174652d746f2d62757900000000000000000000000000000000006044820152606490fd5b634e487b7160e01b5f52601160045260245ffd5b60405162461bcd60e51b815260206004820152600a6024820152696261642d73657269657360b01b6044820152606490fd5b60405162461bcd60e51b81526020600482015260066024820152651c185d5cd95960d21b6044820152606490fd5b34610145575f366003190112610145576020604051610e108152f35b34610145575f36600319011261014557602060405160648152f35b60a036600319011261014557600435602435906044356064359260843591835f5260026020526001600160a01b0360405f2054166107a3578115610773578181111561073e57610e10420180421161047157851061070e5734156106dd5782156106a95761058a82826110d9565b633b9aca00810290808204633b9aca001490151715610471576105b06105b8918561107a565b34101561108d565b60405161010081019181831067ffffffffffffffff84111761069557600792604052338252602082019384526040820190815260608201878152608083015f815260a08401915f835260c085019334855260e08601975f89528a5f5260026020526001600160a01b0360405f209751166001600160a01b0319885416178755516001870155516002860155516003850155516004840155516005830155516006820155019051151560ff80198354169116179055815f52600460205260405f2055610e108201809211610471575f52600760205260405f20555f80f35b634e487b7160e01b5f52604160045260245ffd5b60405162461bcd60e51b815260206004820152600c60248201526b1e995c9bcb5b585e14dbdb1960a21b6044820152606490fd5b60405162461bcd60e51b8152602060048201526009602482015268373796b6b0b933b4b760b91b6044820152606490fd5b60405162461bcd60e51b81526020600482015260086024820152673a37b796b9b7b7b760c11b6044820152606490fd5b60405162461bcd60e51b815260206004820152600d60248201526c6361702d6c652d737472696b6560981b6044820152606490fd5b60405162461bcd60e51b8152602060048201526008602482015267302d737472696b6560c01b6044820152606490fd5b60405162461bcd60e51b815260206004820152600d60248201526c7365726965732d65786973747360981b6044820152606490fd5b34610145575f366003190112610145576020600154604051908152f35b346101455761080336610ffd565b60025f541461098f5760025f55815f52600260205260405f20906001600160a01b038254161561048557825f52600360205260ff60405f2054161561095c5761084f600383015461105e565b421161091757335f52600560205260405f20835f526020528060405f2054106108d2575f80806108a881946005878933865282602052604086209086526020526040852061089e8482546110d9565b905501549061107a565b8181156108c9575b3390f1156108be5760015f55005b6040513d5f823e3d90fd5b506108fc6108b0565b60405162461bcd60e51b815260206004820152601460248201527f696e73756666696369656e742d62616c616e63650000000000000000000000006044820152606490fd5b60405162461bcd60e51b815260206004820152601460248201527f746f6f2d6c6174652d746f2d65786572636973650000000000000000000000006044820152606490fd5b60405162461bcd60e51b815260206004820152600b60248201526a1b9bdd0b5cd95d1d1b195960aa1b6044820152606490fd5b633ee5aeb560e01b5f5260045ffd5b34610145576020366003190112610145576004355f526003602052602060ff60405f2054166040519015158152f35b34610145576040366003190112610145576001600160a01b036109ee611013565b165f52600560205260405f206024355f52602052602060405f2054604051908152f35b3461014557602036600319011261014557600435805f52600260205260405f206001600160a01b038154161561048557815f52600360205260ff60405f205416610c14576003810154421061070e57815f52600360205260405f20600160ff19825416179055604051906303e0818560e61b82526020826004816001600160a01b037f0000000000000000000000000000000000000000000000000000000000000000165afa9182156108be575f92610be0575b5060018101545f92818111610b34575b5050806064926005600693015501540490815f8115610b2b575b5f80809381933390f1156108be576040519182527fa8771a67c56919613ce2ba5d4a7425d832742950434c76c75350869f8e62a2d060203393a3005b506108fc610aef565b909250610b4183826110d9565b633b9aca00810290808204633b9aca0014901517156104715792600283015491828111610b6f575b50610ad5565b9092919350610b7e83856110d9565b93633b9aca00850294808604633b9aca001490151715610471577f5fca269afe7ca6a5bdfca5d4b118ee769a28288eb191ac6aee2a3af389bfb3aa60408792610bcc600697606499966110d9565b9082519182526020820152a2928192610b69565b9091506020813d602011610c0c575b81610bfc602093836110e6565b8101031261014557519083610ac5565b3d9150610bef565b60405162461bcd60e51b815260206004820152600f60248201527f616c72656164792d736574746c656400000000000000000000000000000000006044820152606490fd5b34610145575f3660031901126101455760206001600160a01b0360085416604051908152f35b34610145576020366003190112610145576004355f526006602052602060405f2054604051908152f35b34610145575f36600319011261014557602060ff60085460a01c166040519015158152f35b34610145576020366003190112610145576020610cec600435611290565b604051908152f35b34610145576020610cec610d0736610ffd565b90611108565b34610145575f36600319011261014557602060405161012c8152f35b34610145576020366003190112610145576004355f526004602052602060405f2054604051908152f35b34610145575f3660031901126101455760206040516001600160a01b037f0000000000000000000000000000000000000000000000000000000000000000168152f35b3461014557602036600319011261014557600435805f52600260205260405f206001600160a01b038154163303610e8557815f52600760205260405f20544210610e57576007019081549160ff8316610e275760ff19831660011790555f908152600660205260408120805490829055819081908190818115610e1e575b3390f1156108be57005b506108fc610e14565b60405162461bcd60e51b81526020600482015260086024820152671c185a590b5bdd5d60c21b6044820152606490fd5b60405162461bcd60e51b81526020600482015260066024820152651b1bd8dad95960d21b6044820152606490fd5b60405162461bcd60e51b815260206004820152600a6024820152693737ba16bbb934ba32b960b11b6044820152606490fd5b3461014557602036600319011261014557600435805f52600260205260405f20906001600160a01b038254163303610e85575f52600360205260ff60405f2054161561095c57610f0a600382015461105e565b4210610f7f576006810180549182156106dd57610f5f92610f388260056004610f5a9501549101549061107a565b905f6064820494610f54610f4c878661106d565b84101561108d565b556110d9565b6110d9565b80158015610f6957005b5f80809381938290610e1e573390f1156108be57005b60405162461bcd60e51b8152602060048201526005602482015264677261636560d81b6044820152606490fd5b34610145576020366003190112610145576004358015158091036101455760085490610fe26001600160a01b0383163314611029565b60ff60a01b1990911660a09190911b60ff60a01b1617600855005b6040906003190112610145576004359060243590565b600435906001600160a01b038216820361014557565b1561103057565b60405162461bcd60e51b815260206004820152600660248201526510b7bbb732b960d11b6044820152606490fd5b90610e10820180921161047157565b9190820180921161047157565b8181029291811591840414171561047157565b1561109457565b60405162461bcd60e51b815260206004820152601360248201527f696e73756666696369656e742d6d617267696e000000000000000000000000006044820152606490fd5b9190820391821161047157565b90601f8019910116810190811067ffffffffffffffff82111761069557604052565b906111149042906110d9565b801561128a576040516303e0818560e61b8152906020826004817f00000000000000000000000000000000000000000000000000000000000000006001600160a01b03165afa9182156108be575f92611256575b50670de0b6b3a7640000916404a817c8008111611246575b640ba43b740010611236575b600154600382111561121457818060011c6001810180911161047157905b8382106111e15750506111d16111de94936102e46111d894670de0b6b3a76400009461107a565b0491611290565b9061106d565b90565b90925082801561120057806111f791830461106d565b60011c906111aa565b634e487b7160e01b5f52601260045260245ffd5b6111d891506111d16111de94936102e4670de0b6b3a76400009360019061107a565b673782dace9d900000915061118c565b671bc16d674ec800009250611180565b9091506020813d602011611282575b81611272602093836110e6565b810103126101455751905f611168565b3d9150611265565b506111de905b6040516303e0818560e61b8152906020826004817f00000000000000000000000000000000000000000000000000000000000000006001600160a01b03165afa9182156108be575f92611312575b508082111561130c576112f0916110d9565b633b9aca00810290808204633b9aca0014901517156104715790565b50505f90565b9091506020813d60201161133e575b8161132e602093836110e6565b810103126101455751905f6112de565b3d915061132156fea2646970667358221220fe44d5f02ffdf8c4b204e8af7e307ef2ffb8484d583d27f6f819a127a459333864736f6c634300081e0033","linkReferences":{}},"methodIdentifiers":{"BUY_CUTOFF()":"3b2bea51","F()":"28811f59","GRACE_PERIOD()":"c1a287e2","SETTLE_BOUNTY_BP()":"be9ebe6d","bal(address,uint256)":"9c4a5f14","buy(uint256,uint256)":"d6febde8","create(uint256,uint256,uint256,uint256,uint256)":"bb4fa5dd","exercise(uint256,uint256)":"a86265bb","intrinsic(uint256)":"5c38a1fb","k()":"b4f40c61","owner()":"8da5cb5b","pause(bool)":"02329a29","paused()":"5c975abb","premCollected(uint256)":"5f770c3c","premium(uint256,uint256)":"4eaba194","series(uint256)":"dc22cb6a","seriesMaxSold(uint256)":"3adc9f1e","seriesSettled(uint256)":"a7290e83","settle(uint256)":"8df82800","transferOwnership(address)":"f2fde38b","unlockTs(uint256)":"fb49efc1","withdrawMargin(uint256)":"0cea7534","withdrawPremium(uint256)":"1f01664a"},"id":1}