{"abi":[{"type":"constructor","inputs":[{"name":"feeOracle","type":"address","internalType":"address"}],"stateMutability":"payable"},{"type":"function","name":"F","inputs":[],"outputs":[{"name":"","type":"address","internalType":"contract IBlobBaseFee"}],"stateMutability":"view"},{"type":"function","name":"GRACE_PERIOD","inputs":[],"outputs":[{"name":"","type":"uint256","internalType":"uint256"}],"stateMutability":"view"},{"type":"function","name":"bal","inputs":[{"name":"","type":"address","internalType":"address"},{"name":"","type":"uint256","internalType":"uint256"}],"outputs":[{"name":"","type":"uint256","internalType":"uint256"}],"stateMutability":"view"},{"type":"function","name":"buy","inputs":[{"name":"id","type":"uint256","internalType":"uint256"},{"name":"qty","type":"uint256","internalType":"uint256"}],"outputs":[],"stateMutability":"payable"},{"type":"function","name":"create","inputs":[{"name":"id","type":"uint256","internalType":"uint256"},{"name":"strikeGwei","type":"uint256","internalType":"uint256"},{"name":"capGwei","type":"uint256","internalType":"uint256"},{"name":"expiry","type":"uint256","internalType":"uint256"},{"name":"maxSold","type":"uint256","internalType":"uint256"}],"outputs":[],"stateMutability":"payable"},{"type":"function","name":"exercise","inputs":[{"name":"id","type":"uint256","internalType":"uint256"}],"outputs":[],"stateMutability":"nonpayable"},{"type":"function","name":"k","inputs":[],"outputs":[{"name":"","type":"uint256","internalType":"uint256"}],"stateMutability":"view"},{"type":"function","name":"premium","inputs":[{"name":"strike","type":"uint256","internalType":"uint256"},{"name":"expiry","type":"uint256","internalType":"uint256"}],"outputs":[{"name":"","type":"uint256","internalType":"uint256"}],"stateMutability":"view"},{"type":"function","name":"series","inputs":[{"name":"","type":"uint256","internalType":"uint256"}],"outputs":[{"name":"strike","type":"uint256","internalType":"uint256"},{"name":"cap","type":"uint256","internalType":"uint256"},{"name":"expiry","type":"uint256","internalType":"uint256"},{"name":"sold","type":"uint256","internalType":"uint256"},{"name":"payWei","type":"uint256","internalType":"uint256"},{"name":"margin","type":"uint256","internalType":"uint256"}],"stateMutability":"view"},{"type":"function","name":"seriesSettled","inputs":[{"name":"","type":"uint256","internalType":"uint256"}],"outputs":[{"name":"","type":"bool","internalType":"bool"}],"stateMutability":"view"},{"type":"function","name":"settle","inputs":[{"name":"id","type":"uint256","internalType":"uint256"}],"outputs":[],"stateMutability":"nonpayable"},{"type":"function","name":"sweepMargin","inputs":[{"name":"id","type":"uint256","internalType":"uint256"}],"outputs":[],"stateMutability":"nonpayable"},{"type":"function","name":"topUpMargin","inputs":[],"outputs":[],"stateMutability":"payable"},{"type":"function","name":"withdrawMargin","inputs":[{"name":"id","type":"uint256","internalType":"uint256"}],"outputs":[],"stateMutability":"nonpayable"},{"type":"function","name":"withdrawPremiums","inputs":[],"outputs":[],"stateMutability":"nonpayable"},{"type":"function","name":"writer","inputs":[],"outputs":[{"name":"","type":"address","internalType":"address"}],"stateMutability":"view"},{"type":"function","name":"writerPremiumEscrow","inputs":[],"outputs":[{"name":"","type":"uint256","internalType":"uint256"}],"stateMutability":"view"}],"bytecode":{"object":"0x60c0601f610e2338819003918201601f19168301916001600160401b038311848410176100b3578084926020946040528339810103126100af57516001600160a01b038116908190036100af576618de76816d80005f553360805260a052604051610d5b90816100c882396080518181816102480152818161072901528181610766015281816108f50152818161098201528181610a2c0152610abd015260a05181818161068f0152610a6f0152f35b5f80fd5b634e487b7160e01b5f52604160045260245ffdfe60806040526004361015610011575f80fd5b5f3560e01c806305d3a04f14610b5e5780630cea753414610a9357806328811f5914610a50578063453a2abc14610a0d5780634eaba194146109eb5780635043ef2d146109ce5780636193cdfb1461096457806380da95221461087b5780638df828001461063a5780639c4a5f14146105f3578063a7290e83146105c4578063b07f0a41146104a0578063b4f40c6114610484578063bb4fa5dd1461022d578063c1a287e214610210578063d6febde8146101395763dc22cb6a146100d4575f80fd5b34610135576020366003190112610135576004355f52600160205260c060405f2080549060018101549060028101546003820154906005600484015493015493604051958652602086015260408501526060840152608083015260a0820152f35b5f80fd5b61014236610b6b565b90805f52600160205260405f206002810154804210156101e5578361016961016e92610c3c565b610c29565b34036101b857600301610182838254610d18565b9055335f52600360205260405f20905f526020526101a560405f20918254610d18565b90556101b334600454610d18565b600455005b60405162461bcd60e51b8152602060048201526005602482015264217072656d60d81b6044820152606490fd5b60405162461bcd60e51b815260206004820152600360248201526206578760ec1b6044820152606490fd5b34610135575f36600319011261013557602060405162093a808152f35b60a036600319011261013557604435602435600435610276337f00000000000000000000000000000000000000000000000000000000000000006001600160a01b031614610b81565b805f52600160205260405f2054610456578183111561042357606461029b8385610c1c565b116103ef576102aa8284610c1c565b633b9aca00810290808204633b9aca0014901517156103db576102d09060843590610c29565b68056bc75e2d6310000081116103aa573410610375576040519260c084019284841067ffffffffffffffff8511176103615760059360405284526020840190815260408401606435815260608501905f825260808601925f845260a08701943486525f52600160205260405f2096518755516001870155516002860155516003850155516004840155519101555f80f35b634e487b7160e01b5f52604160045260245ffd5b60405162461bcd60e51b815260206004820152600d60248201526c34b739bab3331036b0b933b4b760991b6044820152606490fd5b60405162461bcd60e51b81526020600482015260096024820152686c696162696c69747960b81b6044820152606490fd5b634e487b7160e01b5f52601160045260245ffd5b60405162461bcd60e51b815260206004820152600c60248201526b0c6c2e040e8dede40d0d2ced60a31b6044820152606490fd5b60405162461bcd60e51b815260206004820152600b60248201526a6361703c3d737472696b6560a81b6044820152606490fd5b60405162461bcd60e51b815260206004820152600660248201526565786973747360d01b6044820152606490fd5b34610135575f3660031901126101355760205f54604051908152f35b3461013557602036600319011261013557600435805f52600160205260405f2090805f5260026020526104d960ff60405f205416610bb2565b335f908152600360209081526040808320938352929052908120805491905560048201546105079082610c29565b91824710610596576005810192835490808210610568575f808083886105408396888b61053960038d01918254610c1c565b9055610c1c565b905581811561055f575b3390f11561055457005b6040513d5f823e3d90fd5b506108fc61054a565b60405162461bcd60e51b815260206004820152600660248201526536b0b933b4b760d11b6044820152606490fd5b60405162461bcd60e51b815260206004820152600660248201526534b739b7b63b60d11b6044820152606490fd5b34610135576020366003190112610135576004355f526002602052602060ff60405f2054166040519015158152f35b34610135576040366003190112610135576004356001600160a01b038116809103610135575f52600360205260405f206024355f52602052602060405f2054604051908152f35b3461013557602036600319011261013557600435805f52600160205260405f20906002820154421061085057805f52600260205260ff60405f20541661080b576040516303e0818560e61b81526020816004817f00000000000000000000000000000000000000000000000000000000000000006001600160a01b03165afa908115610554575f916107c3575b5060018301548082116107bb575b50825480821161078d575b50505f52600260205260405f20600160ff198254161790556004810154158061075b575b61070a57005b5f808060058194018181549155818115610752575b6001600160a01b037f00000000000000000000000000000000000000000000000000000000000000001690f11561055457005b506108fc61071f565b506001600160a01b037f0000000000000000000000000000000000000000000000000000000000000000163314610704565b61079691610c1c565b633b9aca00810290808204633b9aca0014901517156103db57600483015582806106e0565b9050836106d5565b905060203d602011610804575b601f8101601f1916820167ffffffffffffffff811183821017610361576020918391604052810103126101355751836106c7565b503d6107d0565b60405162461bcd60e51b815260206004820152600e60248201527f73657269657320736574746c65640000000000000000000000000000000000006044820152606490fd5b606460405162461bcd60e51b81526020600482015260046024820152630216578760e41b6044820152fd5b3461013557602036600319011261013557600435805f52600160205260405f20905f5260026020526108b360ff60405f205416610bb2565b60058101908154908115906108c88215610bea565b600381015415908115610949575b501561091e575f80809381938287558290610752576001600160a01b037f00000000000000000000000000000000000000000000000000000000000000001690f11561055457005b606460405162461bcd60e51b815260206004820152600460248201526337b832b760e11b6044820152fd5b60029150015462093a8081018091116103db574211846108d6565b34610135575f366003190112610135575f8080806001600160a01b037f0000000000000000000000000000000000000000000000000000000000000000166109ad813314610b81565b60045490826004558282156109c5575bf11561055457005b506108fc6109bd565b34610135575f366003190112610135576020600454604051908152f35b34610135576020610a056109fe36610b6b565b9050610c3c565b604051908152f35b34610135575f3660031901126101355760206040516001600160a01b037f0000000000000000000000000000000000000000000000000000000000000000168152f35b34610135575f3660031901126101355760206040516001600160a01b037f0000000000000000000000000000000000000000000000000000000000000000168152f35b3461013557602036600319011261013557600435805f52600160205260405f206001600160a01b037f00000000000000000000000000000000000000000000000000000000000000001691610ae9833314610b81565b5f526002602052610b0060ff60405f205416610bb2565b6004810154610b33575f80809360058294019081549183831591610b248315610bea565b5583906109c557f11561055457005b60405162461bcd60e51b815260206004820152600360248201526249544d60e81b6044820152606490fd5b5f36600319011261013557005b6040906003190112610135576004359060243590565b15610b8857565b60405162461bcd60e51b8152602060048201526002602482015261217760f01b6044820152606490fd5b15610bb957565b60405162461bcd60e51b81526020600482015260096024820152681d5b9cd95d1d1b195960ba1b6044820152606490fd5b15610bf157565b606460405162461bcd60e51b81526020600482015260046024820152636e6f6e6560e01b6044820152fd5b919082039182116103db57565b818102929181159184041417156103db57565b610c47904290610c1c565b5f54906402cb4178008202918083046402cb41780014901517156103db57670de0b6b3a7640000810290808204670de0b6b3a764000014901517156103db57610e109004905f6003831115610cfc5750818060011c600181018091116103db57905b838210610cc9575050670de0b6b3a764000091610cc591610c29565b0490565b909250828015610ce85780610cdf918304610d18565b60011c90610ca9565b634e487b7160e01b5f52601260045260245ffd5b610cc591670de0b6b3a76400009315610c295760019150610c29565b919082018092116103db5756fea26469706673582212208b8ade2046f851ed712f776a1ec88dcf3b14345691cf6060068475cebf9e9f4a64736f6c634300081e0033","linkReferences":{}},"methodIdentifiers":{"F()":"28811f59","GRACE_PERIOD()":"c1a287e2","bal(address,uint256)":"9c4a5f14","buy(uint256,uint256)":"d6febde8","create(uint256,uint256,uint256,uint256,uint256)":"bb4fa5dd","exercise(uint256)":"b07f0a41","k()":"b4f40c61","premium(uint256,uint256)":"4eaba194","series(uint256)":"dc22cb6a","seriesSettled(uint256)":"a7290e83","settle(uint256)":"8df82800","sweepMargin(uint256)":"80da9522","topUpMargin()":"05d3a04f","withdrawMargin(uint256)":"0cea7534","withdrawPremiums()":"6193cdfb","writer()":"453a2abc","writerPremiumEscrow()":"5043ef2d"},"id":1}