{"abi":[{"type":"constructor","inputs":[],"stateMutability":"payable"},{"type":"function","name":"bal","inputs":[{"name":"","type":"address","internalType":"address"},{"name":"","type":"uint256","internalType":"uint256"}],"outputs":[{"name":"","type":"uint256","internalType":"uint256"}],"stateMutability":"view"},{"type":"function","name":"buy","inputs":[{"name":"id","type":"uint256","internalType":"uint256"},{"name":"qty","type":"uint256","internalType":"uint256"}],"outputs":[],"stateMutability":"payable"},{"type":"function","name":"create","inputs":[{"name":"id","type":"uint256","internalType":"uint256"},{"name":"strikeGwei","type":"uint256","internalType":"uint256"},{"name":"expiry","type":"uint256","internalType":"uint256"},{"name":"maxSold","type":"uint256","internalType":"uint256"}],"outputs":[],"stateMutability":"payable"},{"type":"function","name":"exercise","inputs":[{"name":"id","type":"uint256","internalType":"uint256"}],"outputs":[],"stateMutability":"nonpayable"},{"type":"function","name":"k","inputs":[],"outputs":[{"name":"","type":"uint256","internalType":"uint256"}],"stateMutability":"view"},{"type":"function","name":"premium","inputs":[{"name":"strike","type":"uint256","internalType":"uint256"},{"name":"expiry","type":"uint256","internalType":"uint256"}],"outputs":[{"name":"","type":"uint256","internalType":"uint256"}],"stateMutability":"view"},{"type":"function","name":"series","inputs":[{"name":"","type":"uint256","internalType":"uint256"}],"outputs":[{"name":"strike","type":"uint256","internalType":"uint256"},{"name":"expiry","type":"uint256","internalType":"uint256"},{"name":"sold","type":"uint256","internalType":"uint256"},{"name":"payWei","type":"uint256","internalType":"uint256"},{"name":"margin","type":"uint256","internalType":"uint256"}],"stateMutability":"view"},{"type":"function","name":"settle","inputs":[{"name":"id","type":"uint256","internalType":"uint256"}],"outputs":[],"stateMutability":"nonpayable"},{"type":"function","name":"settlePriceGwei","inputs":[],"outputs":[{"name":"","type":"uint256","internalType":"uint256"}],"stateMutability":"view"},{"type":"function","name":"settled","inputs":[],"outputs":[{"name":"","type":"bool","internalType":"bool"}],"stateMutability":"view"},{"type":"function","name":"topUpMargin","inputs":[],"outputs":[],"stateMutability":"payable"},{"type":"function","name":"withdrawPremiums","inputs":[],"outputs":[],"stateMutability":"nonpayable"},{"type":"function","name":"writer","inputs":[],"outputs":[{"name":"","type":"address","internalType":"address"}],"stateMutability":"view"},{"type":"function","name":"writerPremiumEscrow","inputs":[],"outputs":[{"name":"","type":"uint256","internalType":"uint256"}],"stateMutability":"view"},{"type":"event","name":"Settled","inputs":[{"name":"feeGwei","type":"uint256","indexed":false,"internalType":"uint256"}],"anonymous":false}],"bytecode":{"object":"0x60a0806040526618de76816d80006002553360805261093f90816100388239608051818181610372015281816106df01526107870152f3fe6080806040526004361015610012575f80fd5b5f3560e01c90816305d3a04f146107ab578163453a2abc1461076a575080634eaba194146107485780635043ef2d1461072b5780636193cdfb146106c15780638df82800146104fd5780638f775839146104db57806392848c9e146103535780639c4a5f141461030c578063b07f0a4114610220578063b4f40c6114610203578063c4a76243146101e7578063d6febde8146101105763dc22cb6a146100b6575f80fd5b3461010c57602036600319011261010c576004355f52600360205260a060405f20805490600181015490600281015460046003830154920154926040519485526020850152604084015260608301526080820152f35b5f80fd5b610119366107b8565b90805f52600360205260405f206001810154804210156101bc5783610140610145926107ee565b6107db565b340361018f576002016101598382546108fc565b9055335f52600460205260405f20905f5260205261017c60405f209182546108fc565b905561018a346005546108fc565b600555005b60405162461bcd60e51b8152602060048201526005602482015264217072656d60d81b6044820152606490fd5b60405162461bcd60e51b815260206004820152600360248201526206578760ec1b6044820152606490fd5b3461010c575f36600319011261010c5760205f54604051908152f35b3461010c575f36600319011261010c576020600254604051908152f35b3461010c57602036600319011261010c57600435805f52600360205260405f209060ff60015416156102db57335f90815260046020908152604080832093835292905290812080549190556003919091015461027b916107db565b8047106102ad575f808080938181156102a4575b3390f11561029957005b6040513d5f823e3d90fd5b506108fc61028f565b60405162461bcd60e51b815260206004820152600660248201526534b739b7b63b60d11b6044820152606490fd5b60405162461bcd60e51b81526020600482015260096024820152681d5b9cd95d1d1b195960ba1b6044820152606490fd5b3461010c57604036600319011261010c576004356001600160a01b03811680910361010c575f52600460205260405f206024355f52602052602060405f2054604051908152f35b608036600319011261010c576004356024356103996001600160a01b037f00000000000000000000000000000000000000000000000000000000000000001633146108cb565b815f52600360205260405f20546104ad578060c80360c8811161049957633b9aca008102908104633b9aca00148260c8141715610499576103dd90606435906107db565b3410610464576040519160a083019183831067ffffffffffffffff841117610450576004926040528352602083016044358152604084015f815260608501915f835260808601933485525f52600360205260405f2095518655516001860155516002850155516003840155519101555f80f35b634e487b7160e01b5f52604160045260245ffd5b60405162461bcd60e51b815260206004820152600d60248201526c34b739bab3331036b0b933b4b760991b6044820152606490fd5b634e487b7160e01b5f52601160045260245ffd5b60405162461bcd60e51b815260206004820152600660248201526565786973747360d01b6044820152606490fd5b3461010c575f36600319011261010c57602060ff600154166040519015158152f35b3461010c57602036600319011261010c576004355f52600360205260405f20600181015442106106965760ff60015416610651576040516303e0818560e61b8152906020826004815f5afa918215610299575f92610607575b5080548083116105d8575b505060015460ff81166105a9577fcc3183593ff0e17b930d6f19f832ddcf865bf7ef55eb16754850c55ac447b2ad91600160209260ff191617600155805f55604051908152a1005b60405162461bcd60e51b81526020600482015260076024820152661cd95d1d1b195960ca1b6044820152606490fd5b6105e290836107ce565b90633b9aca00820291808304633b9aca00149015171561049957600301558180610561565b90915060203d60201161064a575b601f8101601f1916820167ffffffffffffffff8111838210176104505760209183916040528101031261010c57519082610556565b503d610615565b60405162461bcd60e51b815260206004820152600e60248201527f676c6f62616c20736574746c65640000000000000000000000000000000000006044820152606490fd5b606460405162461bcd60e51b81526020600482015260046024820152630216578760e41b6044820152fd5b3461010c575f36600319011261010c575f8080806001600160a01b037f00000000000000000000000000000000000000000000000000000000000000001661070a8133146108cb565b6005549082600555828215610722575bf11561029957005b506108fc61071a565b3461010c575f36600319011261010c576020600554604051908152f35b3461010c57602061076261075b366107b8565b90506107ee565b604051908152f35b3461010c575f36600319011261010c576020906001600160a01b037f0000000000000000000000000000000000000000000000000000000000000000168152f35b5f36600319011261010c57005b604090600319011261010c576004359060243590565b9190820391821161049957565b8181029291811591840414171561049957565b6107f99042906107ce565b600254906402cb4178008202918083046402cb417800149015171561049957670de0b6b3a7640000810290808204670de0b6b3a7640000149015171561049957610e109004905f60038311156108af5750818060011c6001810180911161049957905b83821061087c575050670de0b6b3a764000091610878916107db565b0490565b90925082801561089b57806108929183046108fc565b60011c9061085c565b634e487b7160e01b5f52601260045260245ffd5b61087891670de0b6b3a764000093156107db57600191506107db565b156108d257565b60405162461bcd60e51b8152602060048201526002602482015261217760f01b6044820152606490fd5b919082018092116104995756fea26469706673582212208669f8d95972c9cce840ace3f140539e5e4206458ffad768a0767e197a094efd64736f6c634300081e0033","linkReferences":{}},"methodIdentifiers":{"bal(address,uint256)":"9c4a5f14","buy(uint256,uint256)":"d6febde8","create(uint256,uint256,uint256,uint256)":"92848c9e","exercise(uint256)":"b07f0a41","k()":"b4f40c61","premium(uint256,uint256)":"4eaba194","series(uint256)":"dc22cb6a","settle(uint256)":"8df82800","settlePriceGwei()":"c4a76243","settled()":"8f775839","topUpMargin()":"05d3a04f","withdrawPremiums()":"6193cdfb","writer()":"453a2abc","writerPremiumEscrow()":"5043ef2d"},"id":1}